:100000000C943F070C9467070C9467070C946707E0
:100010000C9467070C9467070C9467070C94FC0713
:100020000C9467070C9467070C94222E0C94EE2C0A
:100030000C9467070C9467070C9467070C94670788
:100040000C9467070C9467070C9467070C94670778
:100050000C9467070C9467070C9467070C94A5250C
:100060000C9467070C9467070C9467070C94670758
:100070000C9467070C9467070C9467070C94670748
:100080000C9467070C9467070C9467070C94670738
:100090000C94D4150C9467070C9467070C946707AD
:1000A0000C9467070C9467070C946707B426B7266F
:1000B000A626AA26B026D826D826D826BB26BF260E
:1000C000C326C926CD26D826D326036EDB363D9A15
:1000D0009999993DABAAAA2A3E000000803F084AA0
:1000E000D73B3BCE016E84BCBFFDC12F3D6C74314C
:1000F0009ABD56833DDA3D00C77F11BED9E4BB4CA3
:100100003E916BAAAABE000000803F072C7AA5BAD8
:100110006CC590DA3B9365FC8BBC53F810FD3C56E4
:1001200092834DBD879D3AB63DCBC9BF5BBE73DAA6
:100130000FC93F0000007000000000240000000212
:100140000003000000650054FFEF0000FA80000B80
:1001500012820001030C30C30E8C8CE914D54002CE
:1001600013710F8E3883F8833000F883258EF8835F
:100170003000F883FFFFFFFF0FFEA9D62400040024
:100180001A8279A10000003CFFFF0000001000006F
:1001900038836FA2003E03304000000002CAE3092A
:1001A0003E80000020000000000000004000000031
:1001B00060000000000C0000000C186E00000692A9
:1001C0000A16C0DFFFFF0256FD8CD377FFE1C4960D
:1001D000E0C5BEAA00000000FFFF0B2B0000165771
:1001E000000003594000000000001DFA00026C1DD1
:1001F000000000003FFFDFEB003EB3B6000D2278A9
:1002000000002F3C00000000001942B5000039A298
:100210000000B365D90E9FC91DCF4C3430000000DB
:10022000500000003BB67AE80064000000C80000FF
:1002300000000000100000001000FA921000225E82
:10024000000D229F0001000000320000FF46000068
:1002500063D400001000000004D6000004CC0000AD
:1002600004CC0000000010720000004000000000FC
:10027000000000000006000200050007000000006A
:10028000006400000000000000000005000500649C
:1002900000200000000000000000000000004000FE
:1002A0000000030000000032F8980000FF65000025
:1002B000830F0000FF9BFC00000000000000000016
:1002C000000000000000000000000000000000002E
:1002D000000000000000000000000000000000001E
:1002E0000000100040000000000000060000B26A9C
:1002F000000200000001FB830068000000D9FC0040
:100300007CF1FF830000000000650000006403E84A
:1003100000640028000000250000000016A0000076
:100320000000100000001000002F0000000001F489
:100330000000100000280000FFFF4581FFFFFA7257
:100340000000000000000000004400050005BAC6DF
:10035000004778A200000001000000000000060035
:10036000000000140000254D002F706D000005AE48
:10037000000C02D00000000000000000000000009F
:1003800000000000001B0000000000000000000052
:1003900000000000006400000008000000000000F1
:1003A000000000000000000000000000000000004D
:1003B000000000000000000000000000000000003D
:1003C000000000000000000000000000000000002D
:1003D000000000000000000000000000000000001D
:1003E000000000000000000000000000000000000D
:1003F00000000000001B00000000000000000000E2
:10040000000E000E00000AC70004000000000032C9
:10041000FFFFFF9C00000B2B00000002000000010A
:1004200000000064FFE50000000000000000000084
:1004300000000000000000010000000000010000BA
:100440000000000000018000000180000001800029
:10045000002426D300000000000000000006001069
:100460000096003C000000000000000000000000BA
:10047000000000000C0A4E68CDCF7709501667596E
:10048000C619CE820000000000000000000000003D
:1004900000000000000000000000000017D78400EA
:1004A000030000000000000000000000C7938F9DC3
:1004B0001E1B1C19000000000000000000000000CE
:1004C000000000000000000000000000020318858A
:1004D00000004000000000030000000300000000D6
:1004E00000000000400000000000000000000000CC
:1004F00000000000000000000000000000000000FC
:1005000000000000000000000000000000000000EB
:100510000000000000000000677DDF7E72902E5515
:100520004CF6E6880000000000000000000000001B
:1005300000000000D8DCB4B8B0D8B9ABF3F8FAB317
:10054000B7BB8E9EAEF132F51BF1B4B8B08097F117
:10055000A9DFDFDFAADFDFDFF2AAC5CDC7A90CC99B
:100560002C97F1A989264666B28999A92D557DB0A7
:10057000B08AA896365676F1BAA3B4B280C0B8A8AD
:100580009711B28398BAA3F0240844106418B2B942
:10059000B49883F1A329557DBAB5B1A38393F00034
:1005A0002850F5B2B6AA839328547CF1B9A382935C
:1005B00061BAA2DADEDFDB819AB9AEF5606870F16C
:1005C000DABAA2DFD9BAA2FAB9A38292DB31BAA20F
:1005D000D9BAA2F8DF85A4D0C1BBAD83C2C5C7B864
:1005E000A2DFDFDFBAA0DFDFDFD8D8F1B8AAB38D92
:1005F000B4980D355DB2B6BAAF8C96198F9FA70E21
:10060000161EB49AB8AA872C547CBAA4B08AB691A4
:10061000325676B28494A4C808CDD8B8B4B0F19953
:1006200082A82D557D98A80E161EA22C547C92A44B
:10063000F02C5078F184A898C4CDFCD80DDBA8FC30
:100640002DF3D9BAA6F8DABAA6DED8BAB2B686962B
:10065000A6D0F3C841DAA6C8F8D8B0B4B882A89238
:10066000F52C548898F135D9F418D8F1A2D0F8F9BE
:10067000A884D9C7DFF8F883C5DADF69DF83C1D87A
:10068000F40114F1A8824EA884F311D182F5D99215
:10069000289788F109F41C1CD884A8F3C0F9D1D993
:1006A0009782F129F40DD8F3F9F9D1D982F4C20374
:1006B000D8DEDF1AD8F1A2FAF9A88498D9C7DFF8F2
:1006C000F8F883C7DADF69DFF883C3D8F40114F1DF
:1006D00098A8822EA884F311D182F5D992509788D8
:1006E000F109F41CD884A8F3C0F8F9D1D99782F1A4
:1006F00049F40DD8F3F9F9D1D982F4C403D8DEDF77
:10070000D8F1AD8898CCA809F9D98292A8F57CF1E6
:10071000883ACF944A6E98DB6931DAADF2DEF9D8C7
:100720008795A8F221D1DAA5F9F417D9F1AE8ED0C8
:10073000C0C3AE82C684C3A88595C8A588F2C0F19F
:10074000F4010EF18E9EA8C63E56F554F18872F45F
:100750000115F19845856EF58E9E0488F142985AF0
:100760008E9E068869F4011CF1981E1108D0F504CC
:10077000F11E970202983625DBF9D985A5F3C1DA77
:1007800085A5F3DFD88595A8F309DAA5FAD8829272
:10079000A8F578F1881A849F26889821DAF41DF349
:1007A000D8879F39D1AFD9DFDFFBF9F40CF3D8FA42
:1007B000D0F8DAF9F9D0DFD9F9D8F40BD8F3879F5C
:1007C00039D1AFD9DFDFF41DF3D8FAFCA869F9F904
:1007D000AFD0DADEFAD9F88F9FA8F1CCF398DB45D9
:1007E000D9AFDFD0F8D8F18F9FA8CAF38809DAAF64
:1007F0008FCBF8D8F2AD978D0CD9A5DFF9BAA6F357
:10080000FAF412F2D8950DD1D9BAA6F3FADAA5F214
:10081000C1BAA6F3DFD8F1BAB2B68696A6D0CAF3AB
:1008200049DAA6CBF8D8B0B4B8D8AD84F2C0DFF1BD
:100830008FCBC3A8B2B68696C8C1CBC3F3B0B48879
:1008400098A821DB718D9D71859521D9ADF2FAD8DB
:100850008597A828D9F408D8F28D29DAF405D9F2B9
:1008600085A4C2F2D8A88D9401D1D9F411F2D88709
:1008700021D8F40AD8F28498A8C801D1D9F411D8A3
:10088000F3A4C8BBAFD0F2DEF8F8F8F8F8F8F8F83F
:10089000D8F1B8F6B5B9B08A95A3DE3CA3D9F8D89B
:1008A0005CA3D9F8D87CA3D9F8D8F8F9D1A5D9DFB9
:1008B000DAFAD8B18530F7D9DED8F830ADDADED83B
:1008C000F2B48C99A32D557DA083DFDFDFB591A015
:1008D000F629D9FBD8A0FC29D9FAD8A0D051D9F84B
:1008E000D8FC51D9F9D879D9FBD8A0D0FC79D9FA5C
:1008F000D8A1F9F9F9F9F9A0DADFDFDFD8A1F8F822
:10090000F8F8F8ACDEF8ADDE8393AC2C547CF1A89B
:10091000DFDFDFF69D2CDAA0DFD9FADB2DF8D8A8CF
:1009200050DAA0D0DED9D0F8F8F8DB55F8D8A8789E
:10093000DAA0D0DFD9D0FAF8F8F8F8DB7DF8D89C47
:10094000A88CF530DB38D9D0DEDFA0D0DEDFD8A828
:1009500048DB58D9DFD0DEA0DFD0DED8A868DB7056
:10096000D9DFDFA0DFDFD8F1A888902C547C98A8CD
:10097000D05C38D1DAF2AE8CDFF9D8B087A8C1C12B
:10098000B188A8C6F9F9DA36D8A8F9DA36D8A8F9BC
:10099000DA36D8A8F9DA36D8A8F9DA36D8F78D9D3C
:1009A000ADF818DAF2AEDFD8F7ADFA30D9A4DEF937
:1009B000D8F2AEDEFAF983A7D9C3C5C7F1889BA7E1
:1009C0007AADF7DEDFA4F8849408A797F300AEF2BF
:1009D0009819A488C6A39488F632DFF28393DB09C2
:1009E000D9F2AADFD8D8AEF8F9D1DAF3A4DEA7F1AC
:1009F000889B7AD8F38494AE19F9DAAAF1DFD8A8E3
:100A000081C0C3C5C7A39283F628ADDED9F8D8A3A9
:100A100050ADD9F8D8A378ADD9F8D8F8F9D1A1DA82
:100A2000DEC3C5C7D8A18194F818F2B089ACC3C59C
:100A3000C7F1D8B8B4B09786A8319B069907AB9791
:100A400028889BF00C201440B0B4B8F0A88A9A28EB
:100A50005078B79BA8295179247059446938644863
:100A600031F1BBAB88002C547CF0B38BB8A80428C0
:100A70005078F1B088B49726A85998BBABB38B02D5
:100A8000264666B0B8F08A9CA82951798B295179FD
:100A90008A2470598B2058718A4469388B39406890
:100AA0008A6448318B30496088F1AC002C547CF06A
:100AB0008CA804285078F1889726A85998AC8C0205
:100AC000264666F0899CA8295179247059446938D2
:100AD000644831A98809205970AB11384069A819B8
:100AE0003148608CA83C415C207C00F187981986D5
:100AF000A86E767EA999882D557DD8B1B5B9A3DFAA
:100B0000DFDFAED0DFAAD0DEF2ABF8F9D9B087C410
:100B1000AAF1DFDFBBAFDFDFB9D8B1F1A3978E60F9
:100B2000DFB084F2C8F8F9D9DED89385F14AB183F1
:100B3000A308B5839A0810B79F10D8F1B0BAAEB029
:100B40008AC2B2B68E9EF1FBD9F41DD8F9D90CF148
:100B5000D8F8F8AD61D9AEFBD8F40CF1D8F8F8ADFF
:100B600019D9AEFBDFD8F416F1D8F8AD8D61D9F400
:100B7000F4ACF59C9C8DDF2BBAB6AEFAF8F40BD82A
:100B8000F1AED0F8AD51DAAEFAF8F1D8B9B1B6A3FA
:100B9000839C08B9B1839AB5AAC0FD3083B79F1072
:100BA000B58B93F20202D1ABDADED8F1B080BAABEA
:100BB000C0C3B284C1C3D8B1B9F38BA391B609B491
:100BC000D9ABDEB0879CB9A3DDF1B38B8B8B8B8B5C
:100BD000B087A3A3A3A3B28BB69BF2A3A3A3A3A3A3
:100BE000A3A3A3A3A3F1B087B59AA3F39BA3A3DC0C
:100BF000BAACDFB9A3A3A3A3A3A3A3A3A3A3A3A353
:100C0000A3A3A3A3D8D8D8BBB3B7F1AAF9DAFFD965
:100C1000809AAA28B48098A720B79787A86688F0FA
:100C20007951F1902C870CA781976293F0717160D4
:100C300085940129517990A5F1284C6C870C951861
:100C40008578A38390284C6C886CD8F3A28200F23C
:100C500010A8921980A2F2D926D8F188A84DD948B7
:100C6000D896A83980D93CD89580A839A68698D935
:100C70002CDA87A72CD8A8899519A980D938D8A8A3
:100C80008939A980DA3CD8A82EA83990D90CD8A8DF
:100C9000953198D90CD8A809D9FFD801DAFFD89591
:100CA00039A9DA26FFD890A80D8999A81080982133
:100CB000DA2ED88999A83180DA2ED8A88696318084
:100CC000DA2ED8A8873180DA2ED8A88292F3418014
:100CD000F1D92ED8A882F31980F1D92ED882ACF39D
:100CE000C0A28022F1A62EA72EA92298A829DAACAC
:100CF000DEFFD8A2F22AF1A92E8292A8F23180A6B4
:100D000096F1D900AC8C9C0C30ACDED0DEFFD88CD8
:100D10009CACD010ACDE8092A2F24C82A8F1CAF258
:100D200035F19688A6D900D8F1FF0000000200092D
:100D30000F0000030401000C000000000000000090
:100D40000000000000000000040802011040804084
:100D500010204080408008020401804020100201E1
:100D6000108010204040040404040403040502021F
:100D70000202040302020202060606060606040434
:100D800002020204000000002300260029002C00BB
:100D90002F0000000000250028002B002E0031004D
:100DA00000000000240027002A002D003000080B5E
:100DB0000002020201000904000001020200000515
:100DC0002400100105240101010424020605240663
:100DD00000010705810310004009040100020A0018
:100DE00000000705020240000007058302400000E2
:100DF0000904020001030000000921010100012291
:100E000022000705840340000105010904A10185B2
:100E1000010901A1000501093009310932160080DC
:100E200026FF7F751095038182C0C000C18081C1FB
:100E3000120100020200004041233680000101023D
:100E40000001120100020000004041233680000131
:100E50000102000141726475696E6F204C4C4300C1
:100E60004544547261636B657220454454726163FA
:100E70006B657232000403090400F2143428112453
:100E80001FBECFEFDAE0DEBFCDBF12E0A0E0B1E0E1
:100E9000E6E4F5E602C005900D92A838B107D9F74F
:100EA00024E0A8E8B2E001C01D92A732B207E1F742
:100EB0001EE0CEE7DEE004C02297FE010E94603211
:100EC000CA37D107C9F70E94972E0C94A1320C940F
:100ED000000008951F93CF93DF93EC01162F472F47
:100EE000BC016F5F7F4F8AEF92E00E941D14412F7B
:100EF000BE018AEF92E0DF91CF911F910C941D14F7
:100F00001F93CF93DF93EC01BC016F5F7F4F8AEF9C
:100F100092E00E941A14182FBE018AEF92E00E94FC
:100F20001A14212F30E0322F2227A901482BCA01A1
:100F3000DF91CF911F910895FF920F931F93CF934D
:100F4000DF93EC01BC016D5F7F4F8AEF92E00E945E
:100F50001A14082FBE016E5F7F4F8AEF92E00E9445
:100F60001A14F82EBE016F5F7F4F8AEF92E00E9445
:100F70001A14182FBE018AEF92E00E941A144F2D06
:100F800050E060E070E0BA0155274427702B482BF1
:100F9000512BCB01BA01DF91CF911F910F91FF909F
:100FA00008958091E9029091EA02029731F46EE689
:100FB00071E08DEC93E00E94F9281092C10210922A
:100FC000C2021092C3021092C4021092C502109283
:100FD000C6021092C7021092C8021092C902109263
:100FE000CA021092CB021092CC0210929C02109274
:100FF0009B0210929A0208951F920F920FB60F92C1
:1010000011248F9381E080938F028F910F900FBEF8
:101010000F901F90189585ED92E00E941E1D88E7A5
:101020000E94B61C80ED97E00E94871982E00E9422
:10103000E01988E70E945E1A88EC90E00E94591C33
:101040000E946620E0910001F0E0EB5FFD4F80819F
:1010500090E00E94702089E697E00E94802581E55B
:1010600091E00E947D2388EC90E00E941D2181E0A8
:1010700008958091EF02811106C080916A0080631B
:1010800080936A00EE9A81E00E94251F81E08093A0
:101090008E020895EF92FF920F931F93CF93DF93E9
:1010A00005EB12E049EAE42E42E0F42EC1E0D0E084
:1010B000CE010E949C07F8016193719381939193F3
:1010C0008F01CE010C960E949C07F70161937193EA
:1010D000819391937F012496CD30D10549F785EB1B
:1010E00092E00E946D1F61E089EA92E0DF91CF916A
:1010F0001F910F91FF90EF900C94CD1F40919202A1
:101100005091930260919402709195028091D10266
:101110009091D202A091D302B091D4028417950786
:10112000A607B707F0F461E080919102811160E0B9
:101130006093910281E10E94122780919202909126
:101140009302A0919402B09195028C509E4FAF4FA4
:10115000BF4F8093D1029093D202A093D302B09359
:10116000D40208950F931F93CF93DF938C01C3E0B4
:10117000D0E0F801619171918F014AE050E08DEC6F
:1011800093E00E94AE2960E072E08DEC93E00E9453
:10119000DC28219771F7DF91CF911F910F9108956E
:1011A000CF93DF93EB01BC018DEC93E00E94DC2830
:1011B000488159816A817B812AE030E08DEC93E09F
:1011C0000E94642962E771E08DEC93E00E94DC28C4
:1011D0004C815D816E817F812AE030E08DEC93E06F
:1011E0000E94642962E771E08DEC93E00E94DC28A4
:1011F000488559856A857B852AE030E08DEC93E04F
:10120000DF91CF910C94B6298F929F92AF92BF92AB
:10121000CF92DF92EF92FF928091D602882309F459
:1012200076C06FE170E08AEF92E00E941A14682F96
:1012300070E080E090E00E94263020E030E040E85E
:101240005EE30E943431609307017093080180933C
:10125000090190930A0160E270E08AEF92E00E9437
:101260001A14682F70E080E090E00E94263020E0A1
:1012700030E040E85EE30E9434316B017C01609312
:1012800003017093040180930501909306018090FF
:10129000070190900801A0900901B0900A0120E098
:1012A00030E0A901C501B4010E94892F882351F0C3
:1012B00020E030E040E752E4C501B4010E9429314A
:1012C000181664F480E090E0A0E6B1E48093070192
:1012D00090930801A0930901B0930A0120E030E047
:1012E000A901C701B6010E94892F882359F020E087
:1012F00030E040E752E4C701B6010E9429311816D8
:101300000CF081C080E090E0A0E6B1E474C06DE133
:1013100070E08AEF92E00E941A14682F70E080E07B
:1013200090E00E94263020E030E040E85EE30E943A
:101330003431609307017093080180930901909301
:101340000A016EE170E08AEF92E00E941A14682FA1
:1013500070E080E090E00E94263020E030E040E83D
:101360005EE30E9434316B017C0160930301709352
:1013700004018093050190930601809007019090ED
:101380000801A0900901B0900A0120E030E0A90115
:10139000C501B4010E94892F882351F020E030E07C
:1013A00040E752E4C501B4010E942931181664F4E3
:1013B00080E090E0A0EAB0E48093070190930801F8
:1013C000A0930901B0930A0120E030E0A901C70110
:1013D000B6010E94892F882351F020E030E040E7D9
:1013E00052E4C701B6010E942931181664F480E066
:1013F00090E0A0EAB0E48093030190930401A093ED
:101400000501B0930601FF90EF90DF90CF90BF9061
:10141000AF909F908F90089540E052EC61E070E0B3
:101420008DEC93E00E942E2862E08AE00E94D9268B
:1014300061E081E10E94D92661E082E00E941227EA
:1014400060E082E00E94122769E170E08AEF92E09A
:101450000E941A1469E170E08AEF92E00E941A1467
:10146000863038F469E170E08AEF92E00E941A1445
:1014700001C085E0809300016CE170E08AEF92E0AA
:101480000E941A148093D6020E94040961E270E05F
:101490008AEF92E00E941A148093EF0262E270E0F9
:1014A0008AEF92E00E941A14809301018AE190E091
:1014B0000E948007BC01882777FD8095982F0E94A5
:1014C000283020E030E040E85BE30E943431609354
:1014D000EB027093EC028093ED029093EE028BEF9F
:1014E00092E00E94B8148CE08093B8005898599804
:1014F0000E940B088823D1F064E670E080E090E061
:101500000E941E260E94390864E670E080E090E0A8
:101510000E941E268DE992E00E94991F64E670E009
:1015200080E090E00E941E260C944A08FFCF809134
:10153000D60220E030E040E850E4882339F16091A1
:101540000701709108018091090190910A010E94A0
:1015500034310E94F52F462F6FE170E08AEF92E060
:101560000E941D1420E030E040E850E46091030147
:101570007091040180910501909106010E9434311F
:101580000E94F52F462F60E270E026C060910701AF
:10159000709108018091090190910A010E943431F3
:1015A0000E94F52F462F6DE170E08AEF92E00E94D5
:1015B0001D1420E030E040E850E460910301709198
:1015C000040180910501909106010E9434310E942E
:1015D000F52F462F6EE170E08AEF92E00C941D1417
:1015E000CF93C62F682F8DEC93E00E94DE2860E039
:1015F00072E08DEC93E00E94DC284AE050E06C2F12
:101600008DEC93E0CF910C94DC2966E771E08DECD2
:1016100093E00E94DC2869E771E08DEC93E00C9484
:10162000F9286DE871E08DEC93E00E94DC284AE037
:1016300050E06091D6028DEC93E00E94D52960E0E5
:1016400072E08DEC93E00E94DC28409107015091FC
:1016500008016091090170910A0122E030E08DECEF
:1016600093E00E94DE2A60E072E08DEC93E00E943D
:10167000DC284091030150910401609105017091B3
:10168000060122E030E08DEC93E00C94E02ACF9349
:101690008DEC93E00E949B27181619060CF021C2CE
:1016A0008DEC93E00E94AB27C82F833629F420E00D
:1016B00030E040E85EE306C08334C1F420E030E06F
:1016C00040E85FE360910701709108018091090192
:1016D00090910A010E94AC2E60930701709308015B
:1016E0008093090190930A0181E028C0843629F48F
:1016F00020E030E040E85EE306C08734B9F420E043
:1017000030E040E85FE3609107017091080180914B
:10171000090190910A010E94AB2E6093070170931A
:1017200008018093090190930A013BC0853629F492
:1017300020E030E040E85EE307C080E0C53479F4A3
:1017400020E030E040E85FE3609103017091040124
:1017500080910501909106010E94AC2E17C0C636FB
:1017600029F420E030E040E85EE306C0C634B9F476
:1017700020E030E040E85FE36091030170910401F4
:1017800080910501909106010E94AB2E60930301A8
:1017900070930401809305019093060102C0882391
:1017A00021F00E94970A0E94110BC33579F4109220
:1017B000EA021092E90260E971E08DEC93E00E9488
:1017C000F9281092900288EC90E049C0CD3291F453
:1017D0008091E9029091EA02019739F081E090E06E
:1017E0009093EA028093E9027CC11092EA0210927F
:1017F000E90277C1C83439F462E971E08DEC93E015
:10180000CF910C94F928C437A1F481E09091D602CD
:10181000911180E08093D6020E9404094091D60283
:101820006CE170E08AEF92E00E941D14CF910C945D
:10183000110BC635B9F464E971E08DEC93E00E94B8
:10184000F928109290020E94050B0E94110B82E071
:1018500090E09093EA028093E90284E690E0CF91D1
:101860000C941D21C93409F06DC00E94050B66E976
:1018700071E08DEC93E00E94F92869EA71E08DEC4B
:1018800093E00E94DC284091EB025091EC026091C1
:10189000ED027091EE0222E030E08DEC93E00E94C8
:1018A000E02A66EB71E08DEC93E00E94DC28609109
:1018B000D7027091D802882777FD8095982F0E94D3
:1018C00028309B01AC016091E1027091E2028091AD
:1018D000E3029091E4020E948D2FAB01BC0122E053
:1018E00030E08DEC93E00E94E02A65EB72E084EC3E
:1018F00091E00E94D00869EA72E081ED91E00E94D7
:10190000D0086DE972E08FED91E00E94D0086CEE96
:1019100071E08DEC93E00E94DC284AE050E0609199
:10192000D5028DEC93E00E94DC290E94110B60919E
:10193000EF0280E70E94F00A609100018FE40E94AC
:10194000F00A89C0C03529F580E00E94251F8091EA
:10195000000190E0019666E070E00E9409328093F9
:101960000001FC01EB5FFD4F808190E00E94702040
:1019700081E00E94251F609100018FE40E94F00A1F
:101980004091000169E170E08AEF92E0CF910C9400
:101990001D14C23519F4CF910C94D107C43409F049
:1019A00049C06091D7027091D802882777FD809551
:1019B000982F0E9428309B01AC016091E102709148
:1019C000E2028091E3029091E4020E948D2F209127
:1019D000EB023091EC024091ED025091EE020E9438
:1019E000AC2E6093EB027093EC028093ED02909327
:1019F000EE0220E030E040E853E40E9434310E94DF
:101A0000F52F8AE190E00E946A076CEF71E08DEC9F
:101A100093E00E94DC284091EB025091EC0260912F
:101A2000ED027091EE0222E030E08DEC93E0CF9178
:101A30000C94E02AC33299F44091010150E04F5FC9
:101A40005F4F437055274093010162E270E08AEFD7
:101A500092E00E941D146091010183E23FC0C136F3
:101A600079F42AE037ED43E25CE36091EB02709198
:101A7000EC028091ED029091EE020E94AB2E10C01C
:101A8000C13419F52AE037ED43E25CE36091EB02E3
:101A90007091EC028091ED029091EE020E94AC2ECA
:101AA0006093EB027093EC028093ED029093EE0250
:101AB00020E030E040E853E40E9434310E94F52FEA
:101AC0008AE190E0CF910C946A07CE3551F4609191
:101AD000900281E06827609390028EE5CF910C948C
:101AE000F00ACF9108952F923F924F925F926F929A
:101AF0007F928F929F92AF92BF92CF92DF92EF929E
:101B0000FF920F931F93CF93DF93CDB7DEB7C354EC
:101B1000D1090FB6F894DEBF0FBECDBF0E94EF25EE
:101B20006093920270939302809394029093950233
:101B300080918F02882321F080918E02811105C04F
:101B40008091EF02882309F45BC61BA281E090E03C
:101B5000A0E0B0E08093960290939702A093980241
:101B6000B09399029E012D5D3F4F79018E010F5D6B
:101B70001F4F26E932E0AE014F5F5F4FBE016F5E3F
:101B80007F4FCE0147960E949C248BA1811102C0F9
:101B900010928F028091960290919702A0919802E4
:101BA000B0919902892B8A2B8B2B09F029C68D8540
:101BB0009E85AF85B889BD01992777FD9095892FBE
:101BC0000E94283020E030E040E858E30E943431A1
:101BD0006CA37DA38EA39FA389859A85AB85BC85C5
:101BE000BD01992777FD9095892F0E94283020E02C
:101BF00030E040E858E30E94343168A779A78AA70B
:101C00009BA78D819E81AF81B885BD01992777FD06
:101C10009095892F0E94283020E030E040E858E37A
:101C20000E9434312B013C0189819A81AB81BC81B6
:101C3000BD01992777FD9095892F0E94283020E0DB
:101C400030E040E858E30E9434314B015C019B01D5
:101C5000AC010E9434316CA77DA78EA79FA7A3017A
:101C60009201C301B2010E9434316CAB7DAB8EABEB
:101C70009FAB28A539A54AA55BA5CA01B9010E9459
:101C8000343168AF79AF8AAF9BAF2CA13DA14EA193
:101C90005FA1CA01B9010E9434316CAF7DAF8EAF34
:101CA0009FAF2CA93DA94EA95FA96CA57DA58EA5C6
:101CB0009FA50E94AB2E28AD39AD4AAD5BAD0E9409
:101CC000AB2E2CAD3DAD4EAD5FAD0E94AC2E6B0189
:101CD0007C012CA13DA14EA15FA168A579A58AA593
:101CE0009BA50E94343168AB79AB8AAB9BABA30157
:101CF0009201C501B4010E9434319B01AC0168A975
:101D000079A98AA99BA90E94AC2E9B01AC010E94D3
:101D1000AC2EA70196010E94362F68AB79AB8AAB37
:101D20009BAB2CA13DA14EA15FA1C301B2010E94BA
:101D300034316B017C0128A539A54AA55BA5C501F5
:101D4000B4010E9434319B01AC01C701B6010E946D
:101D5000AB2E9B01AC010E94AC2E0E94102F6B0198
:101D60007C012CA93DA94EA95FA96CA57DA58EA5D6
:101D70009FA50E94AC2E28AD39AD4AAD5BAD0E9447
:101D8000AB2E2CAD3DAD4EAD5FAD0E94AB2E6CA722
:101D90007DA78EA79FA728A539A54AA55BA5C30146
:101DA000B2010E9434312B013C012CA13DA14EA176
:101DB0005FA1C501B4010E9434319B01AC01C30194
:101DC000B2010E94AC2E9B01AC010E94AC2E2CA54E
:101DD0003DA54EA55FA50E94362F90582DE338EF04
:101DE00042E256E40E9434312B013C012DE338EFEE
:101DF00042E256E4C701B6010E9434316B017C0116
:101E00002DE338EF42E256E468A979A98AA99BA993
:101E10000E9434316CA37DA38EA39FA380919A026C
:101E20008111C3C000919B0210919C02809102011C
:101E300090E0081719070CF045C0A30192016091CA
:101E4000C9027091CA028091CB029091CC020E948B
:101E5000AC2E6093C9027093CA028093CB02909318
:101E6000CC02A70196016091C5027091C6028091D3
:101E7000C7029091C8020E94AC2E6093C502709375
:101E8000C6028093C7029093C8022CA13DA14EA127
:101E90005FA16091C1027091C2028091C3029091D2
:101EA000C4020E94AC2E6093C1027093C202809360
:101EB000C3029093C4020F5F1F4F10939C020093C4
:101EC0009B029EC481E080939A02B801882777FD27
:101ED0008095982F0E9428306B017C019B01AC01FA
:101EE0006091C9027091CA028091CB029091CC029C
:101EF0000E948D2F6093C9027093CA028093CB0217
:101F00009093CC02A70196016091C5027091C60220
:101F10008091C7029091C8020E948D2F6093C502E4
:101F20007093C6028093C7029093C802A7019601DE
:101F30006091C1027091C2028091C3029091C4026B
:101F40000E948D2F6093C1027093C2028093C302DE
:101F50009093C4021092D9021092DA021092DB021E
:101F60001092DC021092DD021092DE021092DF026B
:101F70001092E0021092E1021092E2021092E3024B
:101F80001092E4028EEF9FEF9093D8028093D702D5
:101F90008AE0809302018091E9029091EA0202971F
:101FA00009F02EC40E94050B2BC48AE00E9448272A
:101FB000892B19F40E94D10723C42091C9023091C2
:101FC000CA024091CB025091CC02C301B2010E94DF
:101FD000AB2E4B015C0120E030E040E057EC0E946A
:101FE000892F87FF0AC020E030E040E857E4C501B0
:101FF000B4010E94AC2E4B015C0120E030E040E0D7
:1020000057E4C501B4010E942931181654F420E0A8
:1020100030E040E857E4C501B4010E94AB2E4B010B
:102020005C012091C5023091C6024091C7025091D7
:10203000C802C701B6010E94AB2E6B017C01209142
:10204000C1023091C2024091C3025091C4026CA1FE
:102050007DA18EA19FA10E94AB2E2B013C0120E00F
:102060003CEF4FE756ECC501B4010E94892F87FD74
:1020700012C020E03CEF4FE756E4C501B4010E94D6
:10208000293118167CF4812C0CEF902E0FE7A02E2E
:1020900006E4B02E07C0812C1CEF912E1FE7A12E65
:1020A00016ECB12E20E03CEF4FE756ECC701B6012D
:1020B0000E94892F87FD12C020E03CEF4FE756E4D5
:1020C000C701B6010E94293118167CF4C12CBCEF5F
:1020D000DB2EBFE7EB2EB6E4FB2E07C0C12CACEF26
:1020E000DA2EAFE7EA2EA6ECFA2E20E03CEF4FE71F
:1020F00056ECC301B2010E94892F87FD12C020E077
:102100003CEF4FE756E4C301B2010E942931181693
:102110007CF4412CFCEF5F2EFFE76F2EF6E47F2E60
:1021200007C0412CECEF5E2EEFE76E2EE6EC7E2E24
:102130008091D60220910701309108014091090158
:1021400050910A012CA33DA34EA35FA3209103014C
:1021500030910401409105015091060128A739A74B
:102160004AA75BA7882309F4A3C027E831E040E031
:1021700059E3C501B4010E943431A50194010E94C4
:1021800034312CA13DA14EA15FA10E9434316CA736
:102190007DA78EA79FA720E030E0A901C501B4016B
:1021A0000E942931A501940118160CF05058C50160
:1021B000B4010E948D2F9B01AC016CA57DA58EA55D
:1021C0009FA50E9434310E94F52F6CA77CAB88AF8D
:1021D0009CAF27E831E040E059E3C701B6010E9417
:1021E0003431A70196010E94343128A539A54AA5AA
:1021F0005BA50E94343168AB79AB8AAB9BAB20E026
:1022000030E0A901C701B6010E942931A70196015A
:1022100018160CF05058C701B6010E948D2F9B0173
:10222000AC0168A979A98AA99BA90E9434310E94AE
:10223000F52F68AB21967FAF219722968FAF22971B
:1022400023969FAF239727E831E040E059E3C3018D
:10225000B2010E943431A30192010E94343128A5B9
:1022600039A54AA55BA50E9434316B017C0120E0B1
:1022700030E0A901C301B2010E942931A3019201FA
:1022800018160CF05058C301B2010E948D2F9B010B
:10229000AC01C701B6010E9434310E94F52F162F00
:1022A000072F382E292E20E030E044E052E434C0DD
:1022B0002CA13DA14EA15FA1C501B4010E94343102
:1022C0000E94F52F6CA77CAB88AF9CAF28A539A5E1
:1022D0004AA55BA5C701B6010E9434310E94F52FC3
:1022E00068AB21967FAF219722968FAF22972396D6
:1022F0009FAF239728A539A54AA55BA5C301B201C5
:102300000E9434310E94F52F162F072F382E292EC8
:1023100020E030E040EF51E46CA17DA18EA19FA1AF
:102320000E94343168A779A78AA79BA73091010141
:1023300024963FAF2497CCA4DCA8E8ACFCACC11435
:1023400040E8D406E104F10434F0CC24CA947FE7D9
:10235000D72EE12CF12C51E0C51650E8D5065FEFE1
:10236000E506F5063CF4CC24C39460E8D62EEE24B2
:10237000EA94FE2C88A921969FAD21972296AFADB5
:1023800022972396BFAD2397811520E89207A105D8
:10239000B10524F08FEF9FE7A0E0B0E02C013D01F4
:1023A000813030E893073FEFA307B3073CF44424A0
:1023B000439450E8552E66246A94762C812F902FF2
:1023C000A32DB22D811540E89407A105B10524F095
:1023D0008FEF9FE7A0E0B0E08CA39DA3AEA3BFA3C7
:1023E00081309048AF4FBF4F44F481E090E8AFEFA9
:1023F000BFEF8CA39DA3AEA3BFA3D0928902C092CE
:10240000880250928B0240928A02ACA1BDA1B09387
:102410008D02A0938C028091E9029091EA020297CA
:10242000D1F52AE030E0B701A6018DEC93E00E94DF
:10243000642960E072E08DEC93E00E94DC282AE0E1
:1024400030E0B301A2018DEC93E00E94642960E0CA
:1024500072E08DEC93E00E94DC282AE030E04CA191
:102460005DA16EA17FA18DEC93E00E94642960E0E4
:1024700072E08DEC93E00E94DC28CE0141960E9430
:10248000B208CE0147960E94B20861E072E08DEC7E
:1024900093E00E94F92868E872E08DE194E00E94E0
:1024A000A12880910101882309F4ADC08091E9023F
:1024B0009091EA02029709F4A6C02496BFAD249732
:1024C0006B2F70E080E090E00E9426309B01AC0111
:1024D00068A579A58AA59BA50E9434319B01AC0112
:1024E000C501B4019F770E94892F87FF44C02091C6
:1024F000F2023091F3024091F4025091F502C501CD
:10250000B4010E94AB2E9F7723E333E343EB5FE3F9
:102510000E94892F87FF2FC0C301B2010E9428307B
:102520009F7720E030E04AE754E40E94892F87FF3C
:1025300022C08091F0029091F10201969093F102F5
:102540008093F002C701B6010E9428309B01AC01C4
:102550006091F6027091F7028091F8029091F90271
:102560000E94AC2E6093F6027093F7028093F802FB
:102570009093F9020CC01092F1021092F0021092A6
:10258000F6021092F7021092F8021092F90280926D
:10259000F2029092F302A092F402B092F5028091BE
:1025A000F0029091F1020A9770F12AE037ED43E2D0
:1025B0005CE36091F6027091F7028091F8029091CD
:1025C000F9020E9434319B01AC016091C902709103
:1025D000CA028091CB029091CC020E94AC2E6093F3
:1025E000C9027093CA028093CB029093CC021092DE
:1025F000F1021092F0021092F6021092F70210927D
:10260000F8021092F9020E94470B409192025091F9
:10261000930260919402709195028091CD02909105
:10262000CE02A091CF02B091D00284179507A607E1
:10263000B70708F0E5C00E947E082091EB023091B8
:10264000EC024091ED025091EE026091C90270914E
:10265000CA028091CB029091CC020E94AC2E6B01F9
:102660007C0120E030E040E857E40E942931181650
:102670004CF420E030E040E857E4C701B6010E9486
:10268000AB2E1BC020E030E040E857ECC701B6019C
:102690000E94892F87FD09C0C092C902D092CA0248
:1026A000E092CB02F092CC0210C020E030E040E893
:1026B00057E4C701B6010E94AC2E6093C902709323
:1026C000CA028093CB029093CC02809192029091A7
:1026D0009302A0919402B09195028C599F4FAF4FF5
:1026E000BF4F8093CD029093CE02A093CF02B093C0
:1026F000D0028091D7029091D80201969093D8028F
:102700008093D7021816190604F52091E50230913E
:10271000E6024091E7025091E802C501B4010E942F
:10272000AB2E9B01AC016091E1027091E2028091BD
:10273000E3029091E4020E94AC2E6093E102709358
:10274000E2028093E3029093E4028092E502909289
:10275000E602A092E702B092E802CE014D960E94F6
:1027600022188091E9029091EA02029709F048C08C
:102770006FEF71E08DEC93E00E94DC286091D7024E
:102780007091D802882777FD8095982F0E94283075
:102790009B01AC016091E1027091E2028091E30241
:1027A0009091E4020E948D2FAB01BC0125E030E046
:1027B0008DEC93E00E94DE2A60E072E08DEC93E005
:1027C0000E94DC284091EB025091EC026091ED02F6
:1027D0007091EE0225E030E08DEC93E00E94E02A5B
:1027E00062E072E08DEC93E00E94DC284D8D5E8DFE
:1027F0006F8D78A12AE030E08DEC93E00E94B6293D
:10280000CD5BDF4F0FB6F894DEBF0FBECDBFDF91BB
:10281000CF911F910F91FF90EF90DF90CF90BF90DD
:10282000AF909F908F907F906F905F904F903F9070
:102830002F900895CB010C948B32CB01642F0C9414
:10284000933280912B0390E020912C03821B9109FD
:10285000089520912C0380912B03281750F4E22F28
:10286000F0E0E35DFC4F808190E02F5F20932C032C
:1028700008958FEF9FEF0895E0912C0380912B0333
:10288000E81730F4F0E0E35DFC4F808190E00895BC
:102890008FEF9FEF08950895CF92DF92EF92FF920E
:1028A0000F931F93CF93DF937C01CB018A0120917B
:1028B0000703222389F0EB016B01C40ED51ECC1552
:1028C000DD0569F06991D701ED91FC910190F081EE
:1028D000E02DC7010995F3CF642F0E94AB15C80105
:1028E000DF91CF911F910F91FF90EF90DF90CF90EC
:1028F0000895CF93DF931F92CDB7DEB76983209100
:1029000007032223D1F020910803203240F021E078
:1029100030E0FC013383228380E090E015C0809199
:102920000903E82FF0E0E65FFC4F998190838F5F09
:10293000809309038093080305C061E0CE010196EE
:102940000E94AB1581E090E00F90DF91CF91089548
:10295000FC011382128248EE53E060E070E0448391
:102960005583668377838FE092E091838083089517
:1029700010922C0310922B0310920903109208035B
:102980000C94F614862F413208F040E26DE273E0B9
:102990000E94141510922C0380932B03089521E0BC
:1029A0000C94C21481E08093070360932A03109271
:1029B00009031092080308950F93062F21E0409118
:1029C00008036AE073E080912A030E945815109270
:1029D000090310920803109207030F91089561E014
:1029E0000C94DC148BEF92E00C94A8141092BA03B0
:1029F00081E08093B8031092B70361E082E00E9407
:102A0000122761E083E00E941227E9EBF0E0808169
:102A10008E7F808380818D7F808388E48093B8005F
:102A200085E48093BC000895413208F03FC0909146
:102A3000BA039111FCCF91E09093BA032093B803AD
:102A40002FEF20934D0310929203240F20939103B4
:102A50009093B9039091B903880F892B8093B903A0
:102A60008091B703813041F41092B7038091B9038C
:102A70008093BB0085EC01C085EE8093BC00809103
:102A8000BA038130E1F380919203841710F44091EE
:102A9000920323E933E0FB01D9018A2F821B8417BB
:102AA00018F48D918193F9CF842F089580E00895D3
:102AB0000F93413208F046C09091BA039111FCCFB8
:102AC00092E09093BA030093B8039FEF90934D0365
:102AD0001092920340939103FB0163E973E0DB01E1
:102AE0009A2F961B941718F491919D93F9CF1092F9
:102AF000B9039091B903880F892B8093B903809112
:102B0000B703813041F41092B7038091B9038093E9
:102B1000BB0085EC01C085EE8093BC00222321F030
:102B20008091BA038230E1F380914D038F3F61F0D1
:102B300080914D03803251F080914D03803341F4F8
:102B400083E007C081E005C080E003C082E001C0EF
:102B500084E00F910895613298F42091BA032430F3
:102B600089F460936F03FC0181E793E0DC012A2F75
:102B7000281B261718F421912D93F9CF80E0089592
:102B800081E0089582E0089585ED8093BC008091F6
:102B9000BC0084FDFCCF1092BA03089585EC8093AD
:102BA000BC001092BA0308951F920F920FB60F92B5
:102BB00011242F933F934F935F936F937F938F9342
:102BC0009F93AF93BF93EF93FF938091B900887F5A
:102BD000803609F49CC068F5883209F45BC090F433
:102BE000803109F454C038F4882309F4F5C08830E2
:102BF00009F44DC0F5C0883109F44CC0803209F4A5
:102C00005DC0EEC0803409F468C048F4803309F434
:102C100055C0883309F0E4C080934D03A8C08035C7
:102C200009F44FC0883509F45DC0883409F0D8C074
:102C3000D5C0883909F4C6C0A8F4883709F467C03C
:102C400038F4883609F463C0803709F460C0C8C01E
:102C5000883809F4B7C0803909F45FC0803809F0BA
:102C6000BFC05BC0803B09F485C038F4803A09F4EA
:102C700066C0883A09F47EC0B3C0803C09F4A6C09F
:102C8000883C09F4A3C0883B09F489C0A9C080919D
:102C9000B90310C09091920380919103981770F539
:102CA000E091920381E08E0F80939203F0E0ED5665
:102CB000FC4F80818093BB0085EC85C080934D03E1
:102CC0008DC0E091920381E08E0F809392038091FA
:102CD000BB00F0E0ED56FC4F808390919203809111
:102CE00091036DC0E091920381E08E0F8093920377
:102CF0008091BB00F0E0ED56FC4F80838091B803DB
:102D000081116CC081E08093B70384EA60C083E0E6
:102D10008093BA0310924E03CFCF80914E0380323E
:102D200008F050C0E0914E0381E08E0F80934E0377
:102D30008091BB00F0E0E15BFC4F8083BDCF8091D0
:102D40004E03803230F4E0914E03F0E0E15BFC4F43
:102D500010820E94C41560914E0370E0E091B303AD
:102D6000F091B4038FE493E0099510924E030E9412
:102D7000CE1536C084E08093BA031092700310928F
:102D80006F03E091B503F091B603099580916F034D
:102D9000811105C081E080936F0310927103E0916F
:102DA000700381E08E0F80937003F0E0EF58FC4FCA
:102DB00080818093BB009091700380916F0398177E
:102DC00008F47ACF85E88093BC000AC085EC809334
:102DD000BC001092BA0304C010924D030E94C415A7
:102DE000FF91EF91BF91AF919F918F917F916F91E3
:102DF0005F914F913F912F910F900FBE0F901F90B9
:102E00001895EF92FF920F931F93CF93DF9300D00B
:102E1000CDB7DEB7062F142F682F8BEF92E02983F2
:102E20003A830E94D214602F8BEF92E00E947914B3
:102E30002981022FE22E3A81F32E8E2D801B8117DD
:102E400040F4F70161917F018BEF92E00E947914C9
:102E5000F4CF8BEF92E00E94EF1491E0811190E0AB
:102E6000892F0F900F90DF91CF911F910F91FF90BD
:102E7000EF9008953F924F925F926F927F928F9260
:102E80009F92AF92BF92CF92DF92EF92FF920F93F9
:102E90001F93CF93DF9300D000D000D0CDB7DEB723
:102EA000682E562E742E3A8329830E94EF256B01DB
:102EB0007C01312C412C872D90E09C838B83480131
:102EC000A12CB12C3714B0F5662D8BEF92E00E9447
:102ED000D214652D8BEF92E00E9479148BEF92E073
:102EE0000E94EF14662D8BEF92E00E94D2144B816A
:102EF0005C81431951094132510514F040E250E020
:102F0000662D8BEF92E00E94CF148BEF92E00E942F
:102F10002114892B59F10115110579F10E94EF2532
:102F20006C197D098E099F09681579058A059B052D
:102F300020F11CC00115110589F10E94EF256C19C3
:102F40007D098E099F0920E030E060177107820734
:102F5000930720F1872D90E0242D332727FD30950E
:102F600028173907DCF444244A9418C0872D90E2CE
:102F7000971508F480E2380EA5CFE981FA81E40DB7
:102F8000F11D47FCFA95FE83ED838BEF92E00E94E2
:102F90002914ED81FE8180834394B7CF842D26963A
:102FA0000FB6F894DEBF0FBECDBFDF91CF911F915A
:102FB0000F91FF90EF90DF90CF90BF90AF909F90D8
:102FC0008F907F906F905F904F903F900895CF9338
:102FD000DF931F92CDB7DEB790912A01992321F09C
:102FE000882379F082E00BC090911301992309F1B5
:102FF000882339F08091190181111EC081E08983F5
:1030000001C01982A0910D01B0910E01E0910F0154
:10301000F09110019E012F5F3F4F41E051966C915E
:1030200080810E948625009721F42981209319012F
:1030300005C08FEF9FEF02C080E090E00F90DF911E
:10304000CF9108950F931F93CF93DF9300D0CDB707
:10305000DEB78C0180911301811102C08FEF39C05E
:10306000A0910D01B0910E01E0910F01F0911001BE
:103070009E012F5F3F4F42E050966C9180810E94ED
:103080009025892B59F7698170E0762F66278A8110
:10309000682B882777FD8095982F0E94283020E0A4
:1030A00030E04AEA53E40E948D2F28EB3EE142E1F2
:1030B00052E40E94AC2E20E030E040E857E40E9449
:1030C00034310E94F52FF8016083718382839383EA
:1030D00080E00F900F90DF91CF911F910F91089595
:1030E000CF93DF931F92CDB7DEB780911301882372
:1030F00009F408C11982A0910D01B0910E01E0916F
:103100000F01F09110019E012F5F3F4F41E051965A
:103110006C9180810E948625892B09F0F3C0A091D3
:103120000D01B0910E01E0910F01F09110019E018F
:103130002F5F3F4F41E015966C9180810E9486255C
:10314000892B09F0DFC0A0910D01B0910E01E09133
:103150000F01F09110019E012F5F3F4F41E0149647
:103160006C9180810E948625892B09F0CBC08091CB
:103170002A01A0910D01B0910E01E0910F01F09193
:103180001001882309F459C08CE089839E012F5FC8
:103190003F4F41E014966C9180810E948625892BD7
:1031A00009F0B0C062E370E080E090E00E941E266B
:1031B00080EC89838091130180FF02C080EE8983B7
:1031C000A0910D01B0910E01E0910F01F09110015D
:1031D0009E012F5F3F4F41E014966C9180810E94C9
:1031E0008625892B09F08EC080911901882319F05A
:1031F00082E0898301C01982A0910D01B0910E0176
:10320000E0910F01F09110019E012F5F3F4F41E0CF
:1032100051966C9180810E948625892B09F072C09D
:103220001982A0910D01B0910E01E0910F01F09172
:1032300010019E012F5F3F4F58C084E089839E019B
:103240002F5F3F4F41E014966C9180810E9486254C
:10325000892B09F057C080911A01811104C0809117
:10326000130180FD02C080E401C080E68983A09143
:103270000D01B0910E01E0910F01F09110019E013E
:103280002F5F3F4F41E014966C9180810E9486250C
:10329000892BC1F562E370E080E090E00E941E2679
:1032A00080911901882319F081E0898301C0198276
:1032B000A0910D01B0910E01E0910F01F09110016C
:1032C0009E012F5F3F4F41E051966C9180810E949B
:1032D0008625892BB9F4A0910D01B0910E01E091E2
:1032E0000F01F091100128E131E041E015966C9159
:1032F00080810E94862521E0892B09F420E0822F1D
:10330000819501C08FEF0F90DF91CF910895CF93FA
:10331000DF931F92CDB7DEB7209113012223A1F1D5
:10332000843F21E0920749F0883E23E0920739F07C
:103330008A3F910531F4198206C088E003C080E11C
:1033400001C088E1898389818695869586959091CB
:1033500011019817C9F0A0910D01B0910E01E091F3
:103360000F01F09110019E012F5F3F4F41E0169633
:103370006C9180810E948625892B31F48981869504
:1033800086958695809311010F90DF91CF910895D6
:10339000FC0180911201813039F020F0823031F44B
:1033A00088E005C082E003C084E001C080E1808342
:1033B00080911B01882319F08081880F80830895F4
:1033C000CF93DF931F92CDB7DEB79091130199236E
:1033D00079F1843031F0883031F0823031F4198263
:1033E00006C088E003C080E101C088E1898389814B
:1033F000869586958695909112019817C9F0A091AF
:103400000D01B0910E01E0910F01F09110019E01AC
:103410002F5F3F4F41E017966C9180810E94862577
:10342000892B31F489818695869586958093120142
:103430000F90DF91CF910895CF93DF931F92CDB777
:10344000DEB7209113012223A9F18C3B910510F0E6
:1034500081E014C08236910510F082E00FC08A32FC
:10346000910510F083E00AC08431910510F084E0EA
:1034700005C00A9710F085E001C086E0898390912D
:10348000140189819817B1F0A0910D01B0910E013E
:10349000E0910F01F09110019E012F5F3F4F41E03D
:1034A00012966C9180810E948625892B19F489815E
:1034B000809314010F90DF91CF910895CF93DF9304
:1034C00090912A01911121C0909113019923E9F063
:1034D000C82FCE7FD09118019C2390931801C11161
:1034E00004C080911C01882331F081E00E94E7171D
:1034F000CC2359F005C080E0DF91CF910C94E71701
:103500000E9470188111D0931801DF91CF91089516
:10351000AF92BF92CF92DF92EF92FF920F931F93E1
:10352000CF93DF9300D0CDB7DEB77C015B016A019A
:1035300080912A01882309F463C0809113018823B4
:1035400009F460C0A0910D01B0910E01E0910F014E
:10355000F09110019E012F5F3F4F42E01C966C914D
:1035600080810E949025892B11F082E04CC0098156
:1035700010E0102F00278A81082B0E151F0520F45C
:10358000F601108285E03FC0E0910F01F09110013B
:10359000818192819695879580179107B0F4A091CB
:1035A0000D01B0910E019E012F5F3F4F41E05396F8
:1035B0006C9180810E949025892BB9F6898184FFC6
:1035C00004C00E94701883E01EC0A0910D01B0914C
:1035D0000E01E0910F01F091100195014E2D1D9605
:1035E0006C9180810E949025892B09F0BECFC80183
:1035F000B7010E94F5316150F601608380E003C09D
:1036000081E001C084E00F900F90DF91CF911F9176
:103610000F91FF90EF90DF90CF90BF90AF90089503
:103620001F93CF93DF931F92CDB7DEB7182F8091F2
:103630001A01811709F487C0A0910D01B0910E0104
:10364000E0910F01F09110019E012F5F3F4F41E08B
:1036500014966C918081112351F10E949025892B41
:1036600011F08FEF71C089818F7D8983A0910D0149
:10367000B0910E01E0910F01F09110019E012F5FBA
:103680003F4F41E014966C9180810E948625892BE2
:1036900041F763E070E080E090E00E941E2682E047
:1036A000898380912801882389F182E82CC00E94B7
:1036B0009025892BB1F690911301898190FF02C06A
:1036C000806201C08F7D8983A0910D01B0910E01B0
:1036D000E0910F01F09110019E012F5F3F4F41E0FB
:1036E00014966C9180810E948625892B09F0B9CFB0
:1036F00063E070E080E090E00E941E268091280147
:10370000882319F080E8898301C0198280912901FA
:10371000882319F0898180638983A0910D01B0917C
:103720000E01E0910F01F09110019E012F5F3F4FBC
:1037300041E057966C9180810E948625892B09F083
:1037400090CF10931A0180E00F90DF91CF911F91DD
:1037500008951F93CF93DF931F92CDB7DEB7182F35
:1037600080912901811749F1112319F080E38983A0
:1037700001C0198280911A01882319F08981826021
:10378000898380912801882319F089818068898341
:10379000A0910D01B0910E01E0910F01F091100187
:1037A0009E012F5F3F4F41E057966C9180810E94B0
:1037B0008625892B21F41093290180E001C08FEF29
:1037C0000F90DF91CF911F9108951F93CF93DF93B7
:1037D00000D0CDB7DEB7182F893208F063C0811151
:1037E0001DC080E00E94A91B198287E08A83A091F6
:1037F0000D01B0910E01E0910F01F09110019E01B9
:103800002F5F3F4F42E055966C9180810E94862544
:10381000892B09F047C010921C0142C081E00E9430
:10382000A91B80E28983113011F41A8204C016307A
:1038300028F481E08A8385E090E00BC0153128F4FC
:1038400082E08A838AE090E004C083E08A8384E196
:1038500090E00E941C1A8A8120E4829FC0011124FA
:1038600087608A83A0910D01B0910E01E0910F0154
:10387000F09110019E012F5F3F4F42E055966C91F1
:1038800080810E948625892B69F488E0809313014A
:103890001092150181E080931C0180E00E945E1A65
:1038A00080E001C08FEF0F900F90DF91CF911F91BB
:1038B00008950F931F93CF93DF931F92CDB7DEB779
:1038C0008C0180911301882309F44AC080912A0158
:1038D000811146C080911C01882359F0C8010197CD
:1038E000889720F4802F0E94E51B3AC080E00E9458
:1038F000E51B0430110540F0B801093E83E01807CC
:1039000028F068EE73E002C064E070E008EE13E0B7
:10391000C8010E94F53161506983A0910D01B091F9
:103920000E01E0910F01F09110019E012F5F3F4FBA
:1039300041E011966C9180810E948625892B81F44B
:10394000698170E06F5F7F4FC8010E9409327093F8
:10395000170160931601CB01969587950E941C1A5A
:103960000F90DF91CF911F910F9108951F93CF93E7
:10397000DF931F92CDB7DEB7182F807711F081E06B
:1039800005C0112311F0198202C080E48983A0913F
:103990000D01B0910E01E0910F01F09110019E0117
:1039A0002F5F3F4F41E055966C9180810E948625A4
:1039B000892B61F589818F7B8093150116FF02C0E9
:1039C000198202C084E0898315FD03C08981826069
:1039D000898314FD03C089818160898313FD03C03D
:1039E000898188638983A0910D01B0910E01E091D6
:1039F0000F01F09110019E012F5F3F4F41E056965D
:103A00006C9180810E948625892B19F010921301F8
:103A100010C0812F877F19F080E00E94A91B1093AE
:103A2000130110921C0162E370E080E090E00E94BC
:103A30001E260F90DF91CF911F910895CF92DF92B4
:103A4000EF92FF920F931F93CF93DF9300D000D09C
:103A500000D0CDB7DEB76C018FEFD6018C9380E834
:103A60008983A0910D01B0910E01E0910F01F091B9
:103A700010019E012F5F3F4F41E055966C91808170
:103A80000E948625892B09F0B5C064E670E080E0CD
:103A900090E00E941E261982A0910D01B0910E01A6
:103AA000E0910F01F09110019E012F5F3F4F41E027
:103AB00055966C9180810E948625892B09F09AC0C9
:103AC000A0910D01B0910E01E0910F01F091100154
:103AD0009E012F5F3F4F46E059966C9180810E9476
:103AE0009025892B09F086C08E8180FBEE24E0F8BA
:103AF000F12CEE0CFF1CEE0CFF1C8C81082F0170CA
:103B000010E0000F111F0E298A818170082BF60129
:103B10000083002349F0013019F400931B0124C0F5
:103B2000023009F067C01EC0A0910D01B0910E01D6
:103B3000E0910F01F09110019E012F5F3F4F41E096
:103B400013966C9180810E949025892B09F052C0B8
:103B500089818F7009F44EC0843021F481E0809314
:103B60001B0102C010921B012FEF20931301209321
:103B7000110120931201209314018FEF9FEF909376
:103B80001701809316012093180120931A0181E0F8
:103B900080931501809328011092290110921D0134
:103BA00010921C018AE0EEE1F1E0DF011D928A959E
:103BB000E9F710922A0110922B0110922D01109218
:103BC0002C0180ED97E00E94871982E00E94E019A5
:103BD00084E690E00E94591C8AE290E00E941C1A40
:103BE00080E00E945E1A80E00E94101B811102C0DA
:103BF0000E94B61C26960FB6F894DEBF0FBECDBF4E
:103C0000DF91CF911F910F91FF90EF90DF90CF90B8
:103C10000895EF92FF920F931F93CF93DF9300D0FD
:103C2000CDB7DEB78B017A014115510581F12091A5
:103C30001301222361F199838A83E0910F01F091AE
:103C400010019B01280F311D8085918582179307F4
:103C5000F0F0A0910D01B0910E019E012F5F3F4F3A
:103C600042E05B966C9180810E948625892B79F4D5
:103C7000A0910D01B0910E01E0910F01F0911001A2
:103C80009701402F58966C9180810E9486250F9055
:103C90000F90DF91CF911F910F91FF90EF900895BA
:103CA000EF92FF920F931F93CF93DF9300D0CDB786
:103CB000DEB78B017A014115510581F12091130185
:103CC000222361F199838A83E0910F01F091100121
:103CD0009B01280F311D8085918582179307F0F095
:103CE000A0910D01B0910E019E012F5F3F4F42E068
:103CF0005B966C9180810E948625892B79F4A09136
:103D00000D01B0910E01E0910F01F09110019701AA
:103D1000402F58966C9180810E9490250F900F90B3
:103D2000DF91CF911F910F91FF90EF9008956F92C7
:103D30007F928F929F92AF92BF92CF92DF92EF923B
:103D4000FF920F931F93CF93DF93CDB7DEB7A29768
:103D50000FB6F894DEBF0FBECDBF6C015B01742EB1
:103D6000652E490180912B0181115AC061157105A1
:103D700009F456C0E12CF12CEC14FD04A8F5C601A1
:103D80008E199F098131910510F080E190E0950135
:103D90002E0D3F1DDE01119600E010E008171907F7
:103DA00041F0F901E00FF11FE491ED930F5F1F4F18
:103DB000F5CFAE014F5F5F4FB801C7010E94091EEA
:103DC000AE014F5E5F4FB801C7010E94501EA801AF
:103DD000BE016F5E7F4FCE0101960E947E32892B1D
:103DE000F9F4E00EF11EC8CF69A27AA2A0910D01EC
:103DF000B0910E01E0910F01F09110019E012F5D35
:103E00003F4F42E05D966C9180810E948625892B10
:103E100039F481E080932B0190922D0180922C0146
:103E2000A2960FB6F894DEBF0FBECDBFDF91CF9143
:103E30001F910F91FF90EF90DF90CF90BF90AF90C8
:103E40009F908F907F906F900895CF93DF931F92F4
:103E5000CDB7DEB790912A019817D9F1882319F1CF
:103E600080912B018823A9F180E00E94E71780E070
:103E70000E94101B80912C0190912D010E94591CD1
:103E80001982E0910F01F09110019E012F5F3F4FC9
:103E900041E063E280810E94862581E080932A01CF
:103EA0000E94E71714C080E00E94E7178091180174
:103EB0008983E0910F01F09110019E012F5F3F4F28
:103EC00041E063E280810E94862510922A010E94CF
:103ED00070180F90DF91CF910895FF920F931F9369
:103EE000CF93DF9300D0CDB7DEB78C0143E1F42E42
:103EF000F80141915191619171918F0159834A83E8
:103F0000E0910F01F09110019E012F5F3F4F42E0C1
:103F10006F2D80810E948625F394F394F9E1FF12BE
:103F2000E7CF0F900F90DF91CF911F910F91FF90EE
:103F30000895FF920F931F93CF93DF9300D0CDB7D7
:103F4000DEB78C01F6E0FF2EE0910F01F091100139
:103F50009E012F5F3F4F42E06F2D80810E94902590
:103F6000498150E060E070E0762F652F542F4427A0
:103F70008A81482BF80141935193619371938F018A
:103F8000F394F394FCE0FF12DFCF0F900F90DF91DA
:103F9000CF911F910F91FF900895BF92CF92DF9222
:103FA000EF92FF920F931F93CF93DF93CDB7DEB7BE
:103FB0002E970FB6F894DEBF0FBECDBFB82EC92E18
:103FC000D62E1D861E8619821A821B821C821D8295
:103FD0001E821F82188619861A861B861C86CE01B1
:103FE00001960E94991FCE0101967C010B2D1C2D7C
:103FF000A6E0CA2E91E0F801D9120FC0408151818C
:10400000628173814E7FF70180819181A281B381AA
:10401000841B950BA60BB70B05C080819181A281F3
:10402000B381F70180839183A283B383F7018191E8
:104030009191A191B1917F019D878E87E0910F01B0
:10404000F09110019E01235F3F4F42E06C2D808173
:104050000E948625C394C3940C5F1F4FFCE0CF12CF
:10406000C9CF2E960FB6F894DEBF0FBECDBFDF913D
:10407000CF911F910F91FF90EF90DF90CF90BF9065
:104080000895CF93DF93CDB7DEB729970FB6F89495
:10409000DEBF0FBECDBF89E0EAE3F1E0DE0111969D
:1040A00001900D928A95E1F7AE014F5F5F4F69E095
:1040B00070E088EB94E00E94091E29960FB6F894F0
:1040C000DEBF0FBECDBFDF91CF91089528EC30E069
:1040D00040E054E064E371E086EF9BE00C94971EAF
:1040E0000F931F93CF93DF93CDB7DEB72C970FB607
:1040F000F894DEBF0FBECDBF8C018CE48C838DECB9
:104100008D838CE68E838CE0898389EC8A838CE2B4
:104110008B83A80143705527E4E0F0E0EC0FFD1F0E
:10412000E40FF51F80818A87980183E036952795F3
:104130008A95E1F723703327E4E0F0E0EC0FFD1FF0
:10414000E20FF31F80818B87C80166E09695879503
:104150006A95E1F783709927E4E0F0E0EC0FFD1F2A
:10416000E80FF91F60816C87E1E0F0E0EC0FFD1FC4
:10417000E40FF51F40814F83E1E0F0E0EC0FFD1FFD
:10418000E20FF31F20812887E1E0F0E0EC0FFD1F34
:10419000E80FF91F80818987AE01465F5F4F63E0BA
:1041A00070E086E294E00E94091EAE01495F5F4F15
:1041B00063E070E08AE294E00E94091E86E38A8749
:1041C00086E58B8786E78C8786E28F8386E48887FF
:1041D00086E6898702FF04C087E38A8787E28F83A8
:1041E00005FF04C087E58B8787E4888710FF04C03C
:1041F00087E78C8787E68987AE01465F5F4F63E07C
:1042000070E080E494E00E94091EAE01495F5F4FB8
:1042100063E070E081E394E00E94091E1093BE0306
:104220000093BD032C960FB6F894DEBF0FBECDBF32
:10423000DF91CF911F910F9108950F931F93CF930B
:10424000DF93CDB7DEB764970FB6F894DEBF0FBE2D
:10425000CDBF8C018CE0E3E4F1E0DE01119601902A
:104260000D928A95E1F7093C1105F8F488EC90E08D
:10427000B8010E94F531615071097D876E87AE01EA
:10428000435F5F4F62E070E086E192E00E94091EAA
:10429000AE014F5F5F4F6CE070E081EC9AE00E94EE
:1042A000091E1093C2030093C10364960FB6F894DD
:1042B000DEBF0FBECDBFDF91CF911F910F9108954B
:1042C000BF92CF92DF92EF92FF920F931F93CF9303
:1042D000DF9300D000D01F92CDB7DEB7182F8770C4
:1042E00009F4ABC0613486E0780708F0A6C080E02E
:1042F00090E00E94263020E030E048E453E40E9441
:104300008D2F6B017C01CE0105960E94C8198D810D
:10431000843059F1A0F4823009F08FC020E030E001
:1043200040E856E4C701B6010E9434310E94FA2FDA
:10433000062FB72E20E030E040E456E437C0883046
:1043400029F1803109F079C020E030E040E055E407
:10435000C701B6010E9434310E94FA2F062FB72EF2
:1043600020E030E040EC54E421C020E030E040E0C8
:1043700056E4C701B6010E9434310E94FA2F062F7D
:10438000B72E20E030E040EC55E410C020E030E0F3
:1043900040E855E4C701B6010E9434310E94FA2F6B
:1043A000062FB72E20E030E040E455E4C701B60107
:1043B0000E9434310E94FA2FB9820A837B836C8376
:1043C00010FF12C0AE014F5F5F4F62E070E084EDFE
:1043D00091E00E94091EAE014D5F5F4F62E070E008
:1043E00084E291E00E94091E11FF12C0AE014F5FEE
:1043F0005F4F62E070E088ED91E00E94091EAE011F
:104400004D5F5F4F62E070E088E291E00E94091E1C
:1044100012FF15C0AE014F5F5F4F62E070E08CEDA0
:1044200091E00E94091EAE014D5F5F4F62E070E0B7
:104430008CE291E00E94091E02C08FEF01C080E073
:104440000F900F900F900F900F90DF91CF911F91D1
:104450000F91FF90EF90DF90CF90BF900895CF9392
:10446000DF931F92CDB7DEB780FD02C0198202C074
:1044700090E3998381FF03C099819C60998382FFB7
:1044800003C0898183608983AE014F5F5F4F61E024
:1044900070E088E491E00E94091E80E00F90DF91B7
:1044A000CF910895CF93DF931F92CDB7DEB78823C6
:1044B00021F0853018F084E001C081E081508983CB
:1044C000AE014F5F5F4F61E070E08FE491E00E94CA
:1044D000091E80E00F90DF91CF910895CF93DF9375
:1044E00000D0CDB7DEB765E070E00E94F53179838A
:1044F0006A83AE014F5F5F4F62E070E08EED91E046
:104500000E94091E80E00F900F90DF91CF910895D7
:10451000CF93DF9300D0CDB7DEB765E070E00E94A7
:10452000F53179836A83AE014F5F5F4F62E070E0DF
:104530008AED91E00E94091E80E00F900F90DF91BC
:10454000CF9108950F931F93CF93DF9300D000D0A6
:10455000CDB7DEB78A0128EE33E040E050E00E949C
:104560003F32D8010E94643299838A837B836C83B3
:10457000AE014F5F5F4F64E070E08CE591E00E9418
:10458000091E80E00F900F900F900F90DF91CF9158
:104590001F910F910895CF93DF9300D0CDB7DEB771
:1045A00065E070E00E94F53179836A83AE014F5F68
:1045B0005F4F62E070E08AE591E00E94091E80E0B2
:1045C0000F900F90DF91CF910895CF93DF9300D09C
:1045D000CDB7DEB765E070E00E94F53179836A837C
:1045E000AE014F5F5F4F62E070E088E591E00E94AE
:1045F000091E80E00F900F90DF91CF910895CF9327
:10460000DF93CDB7DEB729970FB6F894DEBF0FBEA4
:10461000CDBF882319F00E94412012C089E0EFE449
:10462000F1E0DE01119601900D928A95E1F7AE015D
:104630004F5F5F4F69E070E088EB94E00E94091ED5
:1046400029960FB6F894DEBF0FBECDBFDF91CF9194
:104650000895CF93DF9300D000D0CDB7DEB7882385
:1046600049F080EC898382EC8A8384EC8B8386EC2E
:104670008C8307C08BE89BE8DC0189839A83AB833A
:10468000BC83AE014F5F5F4F64E070E088E99AE061
:104690000E94091E0E9470180F900F900F900F90AB
:1046A000DF91CF910895CF93DF9300D000D0CDB7A5
:1046B000DEB7882349F080E2898388E28A8380E339
:1046C0008B8388E38C8307C083EA93EADC018983C8
:1046D0009A83AB83BC83AE014F5F5F4F64E070E0B1
:1046E0008EE99AE00E94091E0E9470180F900F90A8
:1046F0000F900F90DF91CF910895AF92BF92CF921C
:10470000DF92EF92FF920F931F93CF93DF93CDB77A
:10471000DEB72A970FB6F894DEBF0FBECDBF8C016F
:1047200082E089838AEC8A8383EE8B8389E08C83A1
:10473000AE014F5F5F4F64E070E088E690E00E945A
:10474000091E83EA8983580190E4A922BB2406FF4D
:1047500006C080EC8A8388EC8B8382EC02C08A835B
:104760008B838C83780180E8E82281E0F822E114D1
:10477000F10431F084EC8D838CEC8E8386EC03C0E5
:1047800083EA8D838E838F8383EA888789878A87EC
:10479000AE014F5F5F4F6AE070E087EA9AE00E94E7
:1047A000091E680193E0C922DD24C114D10411F06F
:1047B00080E201C088ED8983AE014F5F5F4F61E009
:1047C00070E086EB9AE00E94091E05FF03C00E947C
:1047D000412003C080E00E94FF22E114F104D9F0DF
:1047E00010FF08C082EB89838BE88A8386EB8B837A
:1047F0008BE907C080EB898380E88A8384EB8B8315
:1048000080E98C83AE014F5F5F4F64E070E082EA25
:104810009AE00E94091E00FF2FC088EF8983AE0135
:104820004F5F5F4F61E070E080EB98E00E94091EEF
:104830006AEF70E087E00E94602187E00E942F22EB
:1048400081E00E94522284E690E00E946E2284EF72
:1048500091E00E94882248EC50E069E073EE8AEC17
:1048600092E00E94A22288E290E00E94CB228AE09D
:1048700090E00E94E5220BC088ED8983AE014F5F76
:104880005F4F61E070E080EB98E00E94091E01FF3D
:1048900002C089ED01C088ED8983AE014F5F5F4F93
:1048A00061E070E08DE397E00E94091E02FF02C004
:1048B00081E001C080E00E94292304FF02C081E062
:1048C00001C080E00E945323C80188609093C00318
:1048D0008093BF030E947018AB2819F41092C30391
:1048E00003C086E08093C303EF2829F08091C303BF
:1048F0008A5F8093C30304711127012B29F08091F3
:10490000C303805F8093C303CD2829F08091C30344
:104910008C5F8093C3032A960FB6F894DEBF0FBE58
:10492000CDBFDF91CF911F910F91FF90EF90DF905E
:10493000CF90BF90AF9008954F925F926F927F9209
:104940008F929F92AF92BF92CF92DF92EF92FF929F
:104950000F931F93CF93DF93CDB7DEB7A0970FB61A
:10496000F894DEBF0FBECDBF5C014B013A01690177
:10497000A701D8011D921C928091C303BE016F5FF5
:104980007F4F90E00E94881A8111A3C08091BF03DD
:104990009091C0039C0124713327232B49F1FE0120
:1049A000349673019E012C5E3F4FAF014350510975
:1049B000DA016C914F5F5F4FDA014C90512C612C02
:1049C000712C320155244424762A4081442AAF01B7
:1049D00041505109DA014C91542AD7014D925D9210
:1049E0006D927D927D013496E217F307F1F602C0D5
:1049F000712C02C020E1722E86FF22C0F40120E05B
:104A000030E061E070E06C0F7D1F670D711DDB0110
:104A1000A20FB31F4C9150E0542F44271196AC9134
:104A20004A2B419351932E5F3F4F2630310579F742
:104A3000B6E07B0EF801208131812860318320832C
:104A40009C0120783170232B19F1F50120E030E032
:104A500061E070E06C0F7D1F670D711DDB01A20F1F
:104A6000B31F4C9150E0542F44271196AC914A2B20
:104A7000419351932E5F3F4F2630310579F7F6E091
:104A80007F0ED8012D913C91119720672D933C9377
:104A900083709927892BC1F0E1E0F0E0EC0FFD1F56
:104AA000E70DF11D6381818180FF0EC0862F8F731A
:104AB00086958695869567706F5FE091BB03F09150
:104AC000BC03309709F00995F60110821182128219
:104AD0001382A0960FB6F894DEBF0FBECDBFDF9154
:104AE000CF911F910F91FF90EF90DF90CF90BF90EB
:104AF000AF909F908F907F906F905F904F900895B0
:104B00009093BC038093BB0380E008950E9401173B
:104B100091E09827892F90E09195819591090895CA
:104B20000F931F9300910B0110910C010E943A17F3
:104B300021E030E0882311F020E030E08827992739
:104B4000821B930B1F910F9108951F920F920FB626
:104B50000F9211242F933F938F939F93AF93BF9303
:104B60008091C5039091C603A091C703B091C8037B
:104B70003091C40323E0230F2D3720F40196A11DAB
:104B8000B11D05C026E8230F0296A11DB11D20937B
:104B9000C4038093C5039093C603A093C703B09347
:104BA000C8038091C9039091CA03A091CB03B0912F
:104BB000CC030196A11DB11D8093C9039093CA0334
:104BC000A093CB03B093CC03BF91AF919F918F91F2
:104BD0003F912F910F900FBE0F901F9018952FB7F8
:104BE000F8946091C5037091C6038091C7039091BA
:104BF000C8032FBF08953FB7F8948091C9039091DF
:104C0000CA03A091CB03B091CC0326B5A89B05C0E5
:104C10002F3F19F00196A11DB11D3FBF6627782FC8
:104C2000892F9A2F620F711D811D911D42E0660F21
:104C3000771F881F991F4A95D1F70895CF92DF9269
:104C4000EF92FF92CF93DF936B017C010E94FB25D3
:104C5000EB01C114D104E104F10489F00E94AA2EF1
:104C60000E94FB256C1B7D0B683E734090F381E036
:104C7000C81AD108E108F108C851DC4FEACFDF912A
:104C8000CF91FF90EF90DF90CF900895789484B506
:104C9000826084BD84B5816084BD85B5826085BD38
:104CA00085B5816085BDEEE6F0E08081816080831E
:104CB000E1E8F0E010828081826080838081816001
:104CC0008083E0E8F0E0808181608083E1E9F0E0CA
:104CD000808182608083808181608083E0E9F0E070
:104CE000808181608083E1ECF0E08081846080835A
:104CF000808182608083808181608083E3ECF0E04A
:104D0000808181608083E0ECF0E08081826080833C
:104D1000E2ECF0E0808181608083EAE7F0E080816E
:104D200084608083808182608083808181608083D1
:104D3000808180688083089590E0FC013197EF3096
:104D4000F105B0F5EA5AFF4F0C945E328091800075
:104D50008F7703C0809180008F7D809380000895BD
:104D600080918000877FF9CF84B58F7702C084B5AA
:104D70008F7D84BD0895809190008F7707C08091CA
:104D800090008F7D03C080919000877F809390007A
:104D900008958091C0008F7703C08091C0008F7DFF
:104DA0008093C00008958091C200877F8093C200E5
:104DB0000895CF93DF9390E0FC01E85BF24F2491DC
:104DC000FC01EA59F24F8491882349F190E0880F61
:104DD000991FFC01E056F24FA591B4918E56924F67
:104DE000FC01C591D4919FB7611108C0F8948C91D2
:104DF000209582238C93888182230AC0623051F4EB
:104E0000F8948C91322F309583238C938881822B58
:104E1000888304C0F8948C91822B8C939FBFDF9180
:104E2000CF9108950F931F93CF93DF931F92CDB728
:104E3000DEB7282F30E0F901E65DF24F8491F901E9
:104E4000E85BF24F1491F901EA59F24F0491002303
:104E5000C9F0882321F069830E949C266981E02F94
:104E6000F0E0EE0FFF1FEE56F24FA591B4919FB701
:104E7000F8948C91611103C01095812301C0812B9E
:104E80008C939FBF0F90DF91CF911F910F91089549
:104E9000CF93DF93282F30E0F901E65DF24F849144
:104EA000F901E85BF24FD491F901EA59F24FC4914C
:104EB000CC2391F081110E949C26EC2FF0E0EE0FA4
:104EC000FF1FEC57F24FA591B4912C912D2381E057
:104ED00090E021F480E002C080E090E0DF91CF918B
:104EE0000895CF93DF931F92CDB7DEB76983DC01BE
:104EF000ED91FC910280F381E02D41E050E0BE0194
:104F00006F5F7F4F09950F90DF91CF910895CF93F9
:104F1000DF93EC018C859D8597FF05C082E00E94A0
:104F2000C32B9D878C878C859D85DF91CF910895BC
:104F300083E00C94182EFC018485958597FD06C0AE
:104F400082E00E946B2B90E00196089582E00E941F
:104F50006B2B90E00895FC018485958597FD05C035
:104F60002FEF3FEF35872487089582E00C94C32B01
:104F7000CF93DF93EC0180913701882331F083E0F8
:104F80000E94F42B1816190634F081E090E09B8300
:104F90008A8380E090E0DF91CF910895FC01208129
:104FA0002E5F208342E450E06EEA7DE080E80C94BE
:104FB0008F2CFC0181819081913A59F4813209F062
:104FC0003CC047E050E060E371E080E00E948F2C3D
:104FD00043C0913291F5803239F467E070E080E3AC
:104FE00091E00E94C02C06C0823209F035C0828157
:104FF000809337018091300190913101A09132016D
:10500000B0913301803B9440A105B105C1F480917A
:10501000370180FD14C087E797E7909301088093DC
:1050200000082BE088E190E00FB6F894A8958093F3
:1050300060000FBE209360000FC080E0089588E1FB
:105040000FB6F89480936000109260000FBEA89590
:10505000109201081092000881E008952FEF3FEFB1
:10506000FC013587248708951092D0031092CF0356
:1050700088EE93E0A0E0B0E08093D1039093D20358
:10508000A093D303B093D4038EE692E09093CE0323
:105090008093CD038FEF9FEF9093DA038093D90332
:1050A0000895FC0120812F5F208349E150E060EFEB
:1050B0007DE080E80C948F2C42E250E069E07EE0D5
:1050C00080E80C948F2CEF92FF920F931F93CF9355
:1050D000DF931F92CDB7DEB789838B017A0141E060
:1050E00050E0BE016F5F7F4F84E00E94F42BA70168
:1050F000B80184E40E94F42B0F90DF91CF911F91AF
:105100000F91FF90EF900895FC0191818081813A89
:1051100031F481E0913091F0933089F411C0813203
:1051200071F49B3021F482818093390105C09A305B
:1051300031F482818093380181E00895089580E000
:105140000895CF93DF9300D000D000D0CDB7DEB765
:10515000FB01808191819A838983828193819C83E1
:105160008B83848195819E838D8346E050E0BE01D0
:105170006F5F7F4F81E00E94632826960FB6F894F8
:10518000DEBF0FBECDBFDF91CF91089561157105D0
:1051900081F0DB010D900020E9F7AD01415051098C
:1051A000461B570BDC01ED91FC910280F381E02D51
:1051B000099480E090E008950C94C628DC01ED91FC
:1051C000FC910190F081E02D09940F931F93CF93F0
:1051D000DF93EC016DE00E94DE288C016AE0CE01D5
:1051E0000E94DE28800F911FDF91CF911F910F91B8
:1051F00008950F931F93CF93DF93EC010E94C6286D
:105200008C01CE010E94E528800F911FDF91CF9184
:105210001F910F9108958F929F92AF92BF92CF925C
:10522000DF92EF92FF920F931F93CF93DF93CDB74F
:10523000DEB7A1970FB6F894DEBF0FBECDBF7C01DD
:10524000C42EE52FCB01D22E19A221E02D1510F08E
:105250002AE0D22E8E010F5D1F4F8D2C912CA12C98
:10526000B12C6C2D7E2FA50194010E941D328C2D36
:10527000D29E80191124015011098A3014F4805DE6
:1052800001C0895CF8018083211531054105510574
:1052900021F0C22EE32FCA01E4CFB801C7010E945A
:1052A000C628A1960FB6F894DEBF0FBECDBFDF9122
:1052B000CF911F910F91FF90EF90DF90CF90BF9013
:1052C000AF909F908F900895CF92DF92EF92FF92D0
:1052D0000F931F93CF93DF93EC016A017B0121159C
:1052E000310579F4E881F9810190F081E02D642F96
:1052F000DF91CF911F910F91FF90EF90DF90CF90B2
:1053000009942A303105E9F477FF1AC06DE20E9452
:10531000DE288C0144275527BA014C195D096E0916
:105320007F092AE0CE010E940B29800F911FDF9197
:10533000CF911F910F91FF90EF90DF90CF90089544
:105340002AE0B701A601CE01DF91CF911F910F9105
:10535000FF90EF90DF90CF900C940B299A01AB0156
:10536000662757FD6095762F0C9464290F931F9341
:10537000CF93DF93EC010E9464298C01CE010E943F
:10538000E528800F911FDF91CF911F910F91089514
:105390002115310541F4DC01ED91FC910190F08182
:1053A000E02D642F09940C940B299A01462F50E0AC
:1053B00060E070E00C94C8290F931F93CF93DF93A4
:1053C000EC019A01462F50E060E070E00E94C8298D
:1053D0008C01CE010E94E528800F911FDF91CF91B3
:1053E0001F910F9108954F925F926F927F928F92CB
:1053F0009F92AF92BF92CF92DF92EF92FF920F9364
:105400001F93CF93DF93EC016A017B01B22E9A01C7
:10541000AB01C701B6010E94DC31882319F06AE7AD
:1054200072E027C026013701E89477F82FEF3FEFAD
:105430004FE75FE7C301B2010E94DC3181110DC06B
:105440002FEF3FEF4FE75FE7C301B2010E94892FC3
:1054500018161CF46EE772E00CC02FEF3FEF4FE719
:105460005FE4C701B6010E9429311816ACF462E866
:1054700072E0CE01DF91CF911F910F91FF90EF90DD
:10548000DF90CF90BF90AF909F908F907F906F9064
:105490005F904F900C94C6282FEF3FEF4FE75FECE3
:1054A000C701B6010E94892F87FDE1CF20E030E0DF
:1054B000A901C701B6010E94892F87FF0AC06DE2CA
:1054C000CE010E94DE288C01F7FAF094F7F8F094F0
:1054D00002C000E010E0A12C60E070E080E09FE3FB
:1054E000AB1441F020E030E040E251E40E948D2F07
:1054F000A394F6CF9B01AC01C701B6010E94AC2E6C
:105500006B017C010E94FA2F2B013C010E94263086
:105510009B01AC01C701B6010E94AB2E6B017C015F
:105520002AE0B301A201CE010E940B29080F191F26
:10553000BB2039F066E872E0CE010E94C628080F51
:10554000191F7B2C772041F120E030E040E251E44C
:10555000C701B6010E9434316B017C010E94F52F16
:105560004B01AA2497FCA094BA2C2AE030E0B501A4
:10557000A401CE010E946429080F191FC501B401BE
:105580000E9428309B01AC01C701B6010E94AB2EDE
:105590006B017C017A94D6CFC801DF91CF911F9126
:1055A0000F91FF90EF90DF90CF90BF90AF909F90C2
:1055B0008F907F906F905F904F9008950C94F32997
:1055C0000F931F93CF93DF93EC010E94F3298C017B
:1055D000CE010E94E528800F911FDF91CF911F918E
:1055E0000F910895409122045091230420912004AA
:1055F0003091210442175307B4F49091E80095705C
:10560000E1F39091E80092FD19C08093F100809140
:1056100022049091230401968F739927892B19F402
:105620008EEF8093E80080912204909123040196EC
:10563000909323048093220481E0089580E00895EC
:10564000CF92DF92FF920F931F93CF93DF931F921E
:10565000CDB7DEB7082F162F862F880F8E5F998360
:105660000E94F22A83E00E94F22AF02EC02E998135
:10567000D92E8C2D8F19811778F4F60184910E9410
:10568000F22A082F80E00E94F22A8023FFEFCF1A2F
:10569000DF0A8111EECF01C081E00F90DF91CF9141
:1056A0001F910F91FF90DF90CF900895615030F0DF
:1056B0002091F100FC0120830196F8CF289884E620
:1056C0008093250408952FB7FC012083F894677018
:1056D0006093E9000895CF93DF931F92CDB7DEB7B3
:1056E000682FCE0101960E94632B8091F200998170
:1056F0009FBF0F90DF91CF910895FF920F931F935B
:10570000CF93DF9300D0CDB7DEB7F62E8A0190910C
:105710002404992311F057FF03C08FEF9FEF2BC094
:10572000682FCE0101967A830E94632B8091F2004C
:1057300090E0A8017A81801791070CF4AC01EF2D5D
:10574000F72FF40E84E6FE1639F02898809325048E
:105750009091F1009193F7CF4115510521F080917F
:10576000F200882321F089818FBFCA0104C08BE633
:105770008093E800F8CF0F900F90DF91CF911F91A9
:105780000F91FF900895CF93DF931F92CDB7DEB7AF
:1057900041E050E0BE016F5F7F4F0E947D2B01977B
:1057A00019F4898190E002C08FEF9FEF0F90DF9195
:1057B000CF910895CF93DF931F92CDB7DEB7682FB7
:1057C000CE0101960E94632B9091E800892F807290
:1057D00095FF04C09091F20080E4891B99819FBFDE
:1057E0000F90DF91CF9108956F927F928F929F9249
:1057F000AF92BF92CF92DF92EF92FF920F931F93DF
:10580000CF93DF931F92CDB7DEB7782E7B01C42EE6
:10581000B52E80912404882369F0042F152F8AEF78
:10582000D82E872D8072982E9AE3A92E872D80740A
:10583000882E11C08FEF9FEF57C0872D0E94DA2B63
:10584000682E81110CC0DA94A9F361E070E080E069
:1058500090E00E941E260115110579F73BC0282F04
:1058600030E0021713070CF4602E672DCE0101966D
:105870000E94632B8091E80085FF29C0262D30E02F
:10588000021B130B992039F06A948FEF6816B1F060
:105890001092F100F9CFF701862D77FE07C08150F5
:1058A00058F094919093F1003196F9CF815020F007
:1058B00091919093F100FACFE20EF31E8091E800EF
:1058C00085FF0FC00115110511F481100AC08981EF
:1058D0008FBFC1CF5D9884E6809326048C2D9B2DCD
:1058E00003C0A092E800F3CF0F90DF91CF911F91FA
:1058F0000F91FF90EF90DF90CF90BF90AF909F906F
:105900008F907F906F9008951092E9001092230479
:105910001092220490932104809320040895CF9242
:10592000DF92FF920F931F93CF93DF9300D0CDB7F9
:10593000DEB7F82E8A016B0101151105B1F0F601F1
:10594000F7FE02C0849101C0808149835A830E947E
:10595000F22A01501109FFEFCF1ADF0A49815A815B
:105960008111EACF8FEF9FEF01C0CA010F900F9016
:10597000DF91CF911F910F91FF90DF90CF9008950D
:105980001F93CF93DF931F92CDB7DEB7162F2091D1
:10599000E80022FFFCCF612F79830E94562B8BEF0A
:1059A0008093E800812F7981972F0F90DF91CF911D
:1059B0001F910895CF93DF931F92CDB7DEB7198261
:1059C000CE0101960E94CE27CE0101960E94512859
:1059D000898190E00F90DF91CF9108951F920F92EF
:1059E0000FB60F921124EF92FF920F931F932F93F4
:1059F0003F934F935F936F937F938F939F93AF9357
:105A0000BF93EF93FF93CF93DF93CDB7DEB762974A
:105A1000DEBFCDBF1092E9008091E80083FFEBC0AC
:105A200068E0CE010A960E94562B82EF8093E80030
:105A30009A8597FF05C08091E80080FFFCCF03C0E6
:105A40008EEF8093E800892F807609F0B9C08B85AE
:105A5000811105C01092F1001092F100C5C0282FED
:105A60002D7F213009F4C0C0853049F48091E800D1
:105A700080FFFCCF8C8580688093E300B5C08630C2
:105A800009F076C02D85E888F988223071F580E02C
:105A900090E02A8B0E94842C0E94DA2C99E08E01DF
:105AA0000F5F1F4FF801392F11923A95E9F799834B
:105AB0002A892A8391E09E8390E898879AEF9987B4
:105AC0002091220430912304275F3F4F3C832B8396
:105AD0008D83C7010E94842C49E050E0B80180E02A
