:100000000C944E070C9476070C9476070C947607A4
:100010000C9476070C9476070C9476070C94AA0738
:100020000C9476070C9476070C9413310C94DC2F07
:100030000C9476070C9476070C9476070C9476074C
:100040000C9476070C9476070C9476070C9476073C
:100050000C9476070C9476070C9476070C94B428CD
:100060000C9476070C9476070C9476070C9476071C
:100070000C9476070C9476070C9476070C9476070C
:100080000C9476070C9476070C9476070C947607FC
:100090000C943E170C9476070C9476070C94760714
:1000A0000C9476070C9476070C947607C529C8291A
:1000B000B729BB29C129E929E929E929CC29D0296E
:1000C000D429DA29DE29E929E429036EDB363D9AB1
:1000D0009999993DABAAAA2A3E000000803F084AA0
:1000E000D73B3BCE016E84BCBFFDC12F3D6C74314C
:1000F0009ABD56833DDA3D00C77F11BED9E4BB4CA3
:100100003E916BAAAABE000000803F072C7AA5BAD8
:100110006CC590DA3B9365FC8BBC53F810FD3C56E4
:1001200092834DBD879D3AB63DCBC9BF5BBE73DAA6
:100130000FC93F05A84CCDB2D44EB93836A9020C30
:1001400050B9918688083CA6AAAA2ABE0000008061
:100150003F000000700000000024000000020003C7
:10016000000000650054FFEF0000FA80000B1282CF
:100170000001030C30C30E8C8CE914D540021371BE
:100180000F8E3883F8833000F883258EF883300093
:10019000F883FFFFFFFF0FFEA9D6240004001A8298
:1001A00079A10000003CFFFF000000100000388330
:1001B0006FA2003E03304000000002CAE3093E8007
:1001C000000020000000000000004000000060006F
:1001D0000000000C0000000C186E000006920A16C9
:1001E000C0DFFFFF0256FD8CD377FFE1C496E0C568
:1001F000BEAA00000000FFFF0B2B000016570000F6
:1002000003594000000000001DFA00026C1D0000B0
:1002100000003FFFDFEB003EB3B6000D2278000088
:100220002F3C00000000001942B5000039A2000078
:10023000B365D90E9FC91DCF4C343000000050006B
:1002400000003BB67AE80064000000C8000000002F
:100250000000100000001000FA921000225E000D55
:10026000229F0001000000320000FF46000063D41E
:1002700000001000000004D6000004CC000004CCF4
:1002800000000000107200000040000000000000AC
:1002900000000006000200050007000000000064E6
:1002A00000000000000000000005000500640020C0
:1002B00000000000000000000000000040000000FE
:1002C000030000000032F8980000FF650000830F73
:1002D0000000FF9BFC000000000000000000000088
:1002E000000000000000000000000000000000000E
:1002F00000000000000000000000000000000000FE
:10030000100040000000000000060000B26A000279
:1003100000000001FB830068000000D9FC007CF1B4
:10032000FF830000000000650000006403E8006433
:100330000028000000250000000016A000000000BA
:10034000100000001000002F0000000001F4000069
:10035000100000280000FFFF4581FFFFFA72000037
:10036000000000000000004400050005BAC6004778
:1003700078A200000001000000000000060000005C
:1003800000140000254D002F706D000005AE000C1C
:1003900002D000000000000000000000000000008B
:1003A0000000001B00000000000000000000000032
:1003B00000000064000000080000000000000000D1
:1003C000000000000000000000000000000000002D
:1003D000000000000000000000000000000000001D
:1003E000000000000000000000000000000000000D
:1003F00000000000000000000000000000000000FD
:1004000000000000000000000000000000000000EC
:100410000000001B00000000000000000000000EB3
:10042000000E00000AC70004000000000032FFFFB9
:10043000FF9C00000B2B00000002000000010000E8
:100440000064FFE500000000000000000000000064
:10045000000000000001000000000001000000009A
:1004600000000001800000018000000180000024E5
:1004700026D30000000000000000000600100096D7
:10048000003C000000000000000000000000000030
:1004900000000C0A4E68CDCF770950166759C6196F
:1004A000CE820000000000000000000000000000FC
:1004B0000000000000000000000017D784000300C7
:1004C00000000000000000000000C7938F9D1E1B6D
:1004D0001C190000000000000000000000000000E7
:1004E000000000000000000000000203188500006A
:1004F00040000000000300000003000000000000B6
:1005000000004000000000000000000000000000AB
:1005100000000000000000000000000000000000DB
:1005200000000000000000000000000000000000CB
:10053000000000000000677DDF7E72902E554CF6B3
:10054000E68800000000000000000000000000003D
:100550000000D8DCB4B8B0D8B9ABF3F8FAB3B7BB85
:100560008E9EAEF132F51BF1B4B8B08097F1A9DFE1
:10057000DFDFAADFDFDFF2AAC5CDC7A90CC92C9740
:10058000F1A989264666B28999A92D557DB0B08A10
:10059000A896365676F1BAA3B4B280C0B8A897111F
:1005A000B28398BAA3F0240844106418B2B9B4987E
:1005B00083F1A329557DBAB5B1A38393F0002850E8
:1005C000F5B2B6AA839328547CF1B9A3829361BA99
:1005D000A2DADEDFDB819AB9AEF5606870F1DABAD3
:1005E000A2DFD9BAA2FAB9A38292DB31BAA2D9BAF0
:1005F000A2F8DF85A4D0C1BBAD83C2C5C7B8A2DF56
:10060000DFDFBAA0DFDFDFD8D8F1B8AAB38DB498A6
:100610000D355DB2B6BAAF8C96198F9FA70E161E18
:10062000B49AB8AA872C547CBAA4B08AB691325630
:1006300076B28494A4C808CDD8B8B4B0F19982A891
:100640002D557D98A80E161EA22C547C92A4F02C39
:100650005078F184A898C4CDFCD80DDBA8FC2DF30C
:10066000D9BAA6F8DABAA6DED8BAB2B68696A6D0B5
:10067000F3C841DAA6C8F8D8B0B4B882A892F52C6D
:10068000548898F135D9F418D8F1A2D0F8F9A88493
:10069000D9C7DFF8F883C5DADF69DF83C1D8F40191
:1006A00014F1A8824EA884F311D182F5D99228972B
:1006B00088F109F41C1CD884A8F3C0F9D1D9978219
:1006C000F129F40DD8F3F9F9D1D982F4C203D8DEB7
:1006D000DF1AD8F1A2FAF9A88498D9C7DFF8F8F898
:1006E00083C7DADF69DFF883C3D8F40114F198A86F
:1006F000822EA884F311D182F5D992509788F109FE
:10070000F41CD884A8F3C0F8F9D1D99782F149F440
:100710000DD8F3F9F9D1D982F4C403D8DEDFD8F1CA
:10072000AD8898CCA809F9D98292A8F57CF1883ACD
:10073000CF944A6E98DB6931DAADF2DEF9D887954D
:10074000A8F221D1DAA5F9F417D9F1AE8ED0C0C341
:10075000AE82C684C3A88595C8A588F2C0F1F4010D
:100760000EF18E9EA8C63E56F554F18872F401151E
:10077000F19845856EF58E9E0488F142985A8E9EBA
:10078000068869F4011CF1981E1108D0F504F11EC9
:10079000970202983625DBF9D985A5F3C1DA85A53C
:1007A000F3DFD88595A8F309DAA5FAD88292A8F5DF
:1007B00078F1881A849F26889821DAF41DF3D88767
:1007C0009F39D1AFD9DFDFFBF9F40CF3D8FAD0F8B9
:1007D000DAF9F9D0DFD9F9D8F40BD8F3879F39D1FA
:1007E000AFD9DFDFF41DF3D8FAFCA869F9F9AFD06F
:1007F000DADEFAD9F88F9FA8F1CCF398DB45D9AFB0
:10080000DFD0F8D8F18F9FA8CAF38809DAAF8FCB71
:10081000F8D8F2AD978D0CD9A5DFF9BAA6F3FAF4A2
:1008200012F2D8950DD1D9BAA6F3FADAA5F2C1BA67
:10083000A6F3DFD8F1BAB2B68696A6D0CAF349DAE3
:10084000A6CBF8D8B0B4B8D8AD84F2C0DFF18FCB66
:10085000C3A8B2B68696C8C1CBC3F3B0B48898A873
:1008600021DB718D9D71859521D9ADF2FAD88597DF
:10087000A828D9F408D8F28D29DAF405D9F285A48C
:10088000C2F2D8A88D9401D1D9F411F2D88721D819
:10089000F40AD8F28498A8C801D1D9F411D8F3A4E5
:1008A000C8BBAFD0F2DEF8F8F8F8F8F8F8F8D8F1ED
:1008B000B8F6B5B9B08A95A3DE3CA3D9F8D85CA345
:1008C000D9F8D87CA3D9F8D8F8F9D1A5D9DFDAFAC4
:1008D000D8B18530F7D9DED8F830ADDADED8F2B449
:1008E0008C99A32D557DA083DFDFDFB591A0F6297C
:1008F000D9FBD8A0FC29D9FAD8A0D051D9F8D8FC76
:1009000051D9F9D879D9FBD8A0D0FC79D9FAD8A196
:10091000F9F9F9F9F9A0DADFDFDFD8A1F8F8F8F88A
:10092000F8ACDEF8ADDE8393AC2C547CF1A8DFDFAD
:10093000DFF69D2CDAA0DFD9FADB2DF8D8A850DA43
:10094000A0D0DED9D0F8F8F8DB55F8D8A878DAA02E
:10095000D0DFD9D0FAF8F8F8F8DB7DF8D89CA88C6D
:10096000F530DB38D9D0DEDFA0D0DEDFD8A848DB19
:1009700058D9DFD0DEA0DFD0DED8A868DB70D9DFA1
:10098000DFA0DFDFD8F1A888902C547C98A8D05C39
:1009900038D1DAF2AE8CDFF9D8B087A8C1C1B188FE
:1009A000A8C6F9F9DA36D8A8F9DA36D8A8F9DA36C5
:1009B000D8A8F9DA36D8A8F9DA36D8F78D9DADF887
:1009C00018DAF2AEDFD8F7ADFA30D9A4DEF9D8F2F2
:1009D000AEDEFAF983A7D9C3C5C7F1889BA77AAD64
:1009E000F7DEDFA4F8849408A797F300AEF2981915
:1009F000A488C6A39488F632DFF28393DB09D9F288
:100A0000AADFD8D8AEF8F9D1DAF3A4DEA7F1889B33
:100A10007AD8F38494AE19F9DAAAF1DFD8A881C0A4
:100A2000C3C5C7A39283F628ADDED9F8D8A350ADCD
:100A3000D9F8D8A378ADD9F8D8F8F9D1A1DADEC3BE
:100A4000C5C7D8A18194F818F2B089ACC3C5C7F165
:100A5000D8B8B4B09786A8319B069907AB97288879
:100A60009BF00C201440B0B4B8F0A88A9A285078B3
:100A7000B79BA8295179247059446938644831F1E9
:100A8000BBAB88002C547CF0B38BB8A804285078FA
:100A9000F1B088B49726A85998BBABB38B02264611
:100AA00066B0B8F08A9CA82951798B2951798A249B
:100AB00070598B2058718A4469388B3940688A6430
:100AC00048318B30496088F1AC002C547CF08CA804
:100AD00004285078F1889726A85998AC8C022646AD
:100AE00066F0899CA8295179247059446938644872
:100AF00031A98809205970AB11384069A8193148CB
:100B0000608CA83C415C207C00F187981986A86E17
:100B1000767EA999882D557DD8B1B5B9A3DFDFDFE1
:100B2000AED0DFAAD0DEF2ABF8F9D9B087C4AAF113
:100B3000DFDFBBAFDFDFB9D8B1F1A3978E60DFB0E5
:100B400084F2C8F8F9D9DED89385F14AB183A308B5
:100B5000B5839A0810B79F10D8F1B0BAAEB08AC268
:100B6000B2B68E9EF1FBD9F41DD8F9D90CF1D8F8A4
:100B7000F8AD61D9AEFBD8F40CF1D8F8F8AD19D9BD
:100B8000AEFBDFD8F416F1D8F8AD8D61D9F4F4AC32
:100B9000F59C9C8DDF2BBAB6AEFAF8F40BD8F1AE0B
:100BA000D0F8AD51DAAEFAF8F1D8B9B1B6A3839C5A
:100BB00008B9B1839AB5AAC0FD3083B79F10B58B31
:100BC00093F20202D1ABDADED8F1B080BAABC0C387
:100BD000B284C1C3D8B1B9F38BA391B609B4D9AB70
:100BE000DEB0879CB9A3DDF1B38B8B8B8B8BB08789
:100BF000A3A3A3A3B28BB69BF2A3A3A3A3A3A3A374
:100C0000A3A3A3F1B087B59AA3F39BA3A3DCBAACCB
:100C1000DFB9A3A3A3A3A3A3A3A3A3A3A3A3A3A352
:100C2000A3A3D8D8D8BBB3B7F1AAF9DAFFD9809A71
:100C3000AA28B48098A720B79787A86688F079512A
:100C4000F1902C870CA781976293F0717160859465
:100C50000129517990A5F1284C6C870C951885785D
:100C6000A38390284C6C886CD8F3A28200F210A861
:100C7000921980A2F2D926D8F188A84DD948D896E1
:100C8000A83980D93CD89580A839A68698D92CDA7D
:100C900087A72CD8A8899519A980D938D8A88939C7
:100CA000A980DA3CD8A82EA83990D90CD8A89531BB
:100CB00098D90CD8A809D9FFD801DAFFD89539A955
:100CC000DA26FFD890A80D8999A810809821DA2EED
:100CD000D88999A83180DA2ED8A886963180DA2E64
:100CE000D8A8873180DA2ED8A88292F34180F1D932
:100CF0002ED8A882F31980F1D92ED882ACF3C0A2E5
:100D00008022F1A62EA72EA92298A829DAACDEFF10
:100D1000D8A2F22AF1A92E8292A8F23180A696F1E9
:100D2000D900AC8C9C0C30ACDED0DEFFD88C9CACF7
:100D3000D010ACDE8092A2F24C82A8F1CAF235F15A
:100D40009688A6D900D8F1FF0000000200090F0024
:100D500000030401000C000000000000000000007F
:100D60000000000000000408020110408040102034
:100D70004080408008020401804020100201108061
:100D8000102040400404040404030405020202028B
:100D90000403020202020606060606060404020214
:100DA0000204000000002300260029002C002F0070
:100DB00000000000250028002B002E00310000005C
:100DC0000000240027002A002D003000080B00023C
:100DD00002020100090400000102020000052400D3
:100DE0001001052401010104240206052406000166
:100DF0000705810310004009040100020A000000F9
:100E000007050202400000070583024000000904B4
:100E1000020001030000000921010100012222005B
:100E20000705840340000105010904A101850109AA
:100E300001A100050109300931093216008026FFA1
:100E40007F751095038182C0C000C18081C11201ED
:100E5000000202000040412336800001010200012F
:100E6000120100020000004041233680000101020F
:100E7000000141726475696E6F204C4C430045441B
:100E8000547261636B6572204544547261636B6593
:100E900072320004030904005D16442B11241FBEA6
:100EA000CFEFDAE0DEBFCDBF12E0A0E0B1E0E0E5D9
:100EB000FCE602C005900D92A234B107D9F724E0F8
:100EC000A2E4B2E001C01D92AC32B207E1F717E034
:100ED000CEE4D7E004C02197FE010E94E335CC3474
:100EE000D107C9F70E9488310C9426360C94000073
:100EF0001F93CF93DF93EC01162F472FBC016F5F39
:100F00007F4F8FEF92E00E948415412FBE018FEF3B
:100F100092E0DF91CF911F910C9484150F931F9352
:100F2000CF938C01BC016F5F7F4F8FEF92E00E94E7
:100F30008115C82FB8018FEF92E00E9481152C2FE8
:100F400030E0322F2227A901482BCA01CF911F91EF
:100F50000F9108951F920F920FB60F9211248F9345
:100F600081E080934C028F910F900FBE0F901F90E5
:100F700018958DEF92E00E94A11F84E690E00E94F8
:100F80004A1C89E70E94F11E88E70E94501C88ECE9
:100F900090E00E94861E0E946823E0910001F0E02C
:100FA000E655FE4F808190E00E94722380ED90E034
:100FB0000E94812688EC90E00C941F24EAE6F0E081
:100FC000808180638083EE9A81E00C94A12240911D
:100FD000E4025091E5026091E6027091E70280918F
:100FE000EC029091ED02A091EE02B091EF02841715
:100FF0009507A607B70738F561E08091E3028111F4
:1010000060E06093E30281E10E94262A20910101C1
:101010008091E4029091E502A091E602B091E7028E
:10102000222329F08C599F4FAF4FBF4F04C08C50E3
:101030009E4FAF4FBF4F8093EC029093ED02A09371
:10104000EE02B093EF020895CF92DF92EF92FF92FB
:101050006B017C0120E030E040E057E40E949434D2
:10106000181654F420E030E040E857E4C701B60118
:101070000E949C316B017C0120E030E040E057ECA5
:10108000C701B6010E94963287FF0AC020E030E017
:1010900040E857E4C701B6010E949D316B017C0115
:1010A000C701B601FF90EF90DF90CF900895CF92E7
:1010B000DF92EF92FF928091FE02882331F064E785
:1010C00071E082ED93E00E94002C10926602109273
:1010D00065021092D3021092D4021092D50210929F
:1010E000D6021092D7021092D8021092D902109212
:1010F000DA021092DB021092DC021092DD021092F2
:10110000DE021092DF021092E0021092E1021092D1
:10111000E2021092030110926702C0906F02D09019
:101120007002E0907102F090720220E030EC4AED23
:1011300056E4C701B6010E949434181654F020E01A
:1011400030EC4AED56ECC701B6010E94963287FF9B
:1011500003C081E080936702FF90EF90DF90CF9013
:1011600008958091FC028823E9F06FE170E08FEF31
:1011700092E00E948115682F70E080E090E00E946C
:10118000483320E030E040E85EE30E94A134609301
:10119000F0027093F1028093F2029093F30260E206
:1011A00070E01CC06DE170E08FEF92E00E9481154D
:1011B000682F70E080E090E00E94483320E030E04B
:1011C00040E85EE30E94A1346093F0027093F10264
:1011D0008093F2029093F3026EE170E08FEF92E061
:1011E0000E948115682F70E080E090E00E944833F3
:1011F00020E030E040E85EE30E94A1346093F40216
:101200007093F5028093F6029093F7028091F402B6
:101210009091F502A091F602B091F7028093F80246
:101220009093F902A093FA02B093FB020895809183
:10123000FC0220E030E040E850E4882339F160917E
:10124000F0027091F1028091F2029091F3020E94FB
:10125000A1340E941233462F6FE170E08FEF92E0CD
:101260000E94841520E030E040E850E46091F402F0
:101270007091F5028091F6029091F7020E94A134DC
:101280000E941233462F60E270E026C06091F002A7
:101290007091F1028091F2029091F3020E94A134C8
:1012A0000E941233462F6DE170E08FEF92E00E94B2
:1012B000841520E030E040E850E46091F402709141
:1012C000F5028091F6029091F7020E94A1340E94EB
:1012D0001233462F6EE170E08FEF92E00E9484158A
:1012E0008091F4029091F502A091F602B091F7027C
:1012F0008093F8029093F902A093FA02B093FB0254
:1013000020E03EEF4FEF56E460910401709105013B
:1013100080910601909107010E94A1340E9412332E
:101320008AE190E00C9478076CE771E082ED93E03D
:101330000E94E32B66E971E082ED93E00C94002CAF
:101340000E94570810924B0210924A0281E080934B
:10135000010108956DE771E082ED93E00C94E32BB9
:101360000F931F93CF93DF93EC018C010A5F1F4F04
:10137000699179914AE050E082ED93E00E94B22CAD
:101380000E94AA09C017D10799F7DF91CF911F9149
:101390000F910895CF93C62F682F82ED93E00E949E
:1013A000E52B0E94AA094AE050E06C2F82ED93E001
:1013B000CF910C94DF2CCF93DF936FE771E082ED38
:1013C00093E00E94E32B4AE050E06091FC0282ED42
:1013D00093E00E94D82C0E94AA09C0EFD2E0488175
:1013E00059816A817B8122E030E082ED93E00E94A6
:1013F000DB2D0E94AA094C815D816E817F8122E0F4
:1014000030E082ED93E00E94DB2D0E94AA0940911A
:10141000040150910501609106017091070122E0DD
:1014200030E082ED93E0DF91CF910C94DD2D0F93AE
:101430001F93CF93DF938C0162E871E082ED93E01C
:101440000E94E32BE8010A5F1F4F6991799177FFB2
:1014500002C06D5F7F4F75956795759567954AE0FA
:1014600050E082ED93E00E94B22C0E94AA09C017BE
:10147000D10759F76EE771E082ED93E0DF91CF91EC
:101480001F910F910C94002CCF93DF9365E871E0CE
:1014900082ED93E00E94E32BC7ECD2E04991599191
:1014A0006991799126E030E082ED93E00E94DB2D96
:1014B0000E94AA0982E0C33DD80781F7C3EAD2E0BF
:1014C00049915991699179912DE030E082ED93E055
:1014D0000E94DB2D0E94AA0982E0C73CD80781F751
:1014E0006EE771E082ED93E0DF91CF910C94002CD8
:1014F0000F931F93CF93DF9307EC12E0C0E0D0E08F
:10150000CE0188960E948E07BC01990F880B990B1B
:101510000E944A3320E030E040E85CE30E94A134BE
:10152000F80161937193819391938F012296C63054
:10153000D10531F70FE712E0C0E0D0E0CE01C2964E
:101540000E948E07BC01990F880B990B0E944A33A9
:1015500020E030E040E059E30E94A134F8016193BB
:101560007193819391938F012296C432D10531F703
:10157000DF91CF911F910F91089569E170E08FEF96
:1015800092E00E94811569E170E08FEF92E00E9485
:101590008115843038F469E170E08FEF92E00E94A9
:1015A000811501C083E0809300016CE170E08FEF52
:1015B00092E00E9481158093FC020E94B1088AE1AA
:1015C00090E00E948E07BC01990F880B990B0E9436
:1015D0004A3320E03EEF4FEF56E40E94A032609382
:1015E000040170930501809306019093070108950B
:1015F00040E052EC61E070E082ED93E00E943E2B0F
:1016000062E08AE00E94EA2961E081E10E94EA2921
:1016100061E082E00E94262A60E082E00E94262AA1
:101620000E94BD0A0E94780A80E093E00E9423167F
:101630008CE08093B800589859980E94B9070C9490
:10164000DE07CF92DF92EF92FF920F931F93CF931B
:10165000DF9382ED93E00E94A92A181619060CF078
:101660004FC182ED93E00E94B92A833409F063C030
:1016700020EFE22E22E0F22E82ED93E00E94B92AC2
:101680006C0182ED93E00E94B92AD82F80E0C82F28
:10169000BE016C297D29072E000C880B990B0E9436
:1016A0004A3320E030E040E85BE30E94A134F701D8
:1016B00061937193819391937F01F8EFEF16F2E0BC
:1016C000FF06D1F682ED93E00E94B92A7C0182EDFB
:1016D00093E00E94B92A182F00E0B8016E297F29F3
:1016E000072E000C880B990B0E944A3320E03EEF36
:1016F0004FEF56E40E94A0326093040170930501FD
:10170000809306019093070168E871E082ED93E011
:101710000E94E32B40910401509105016091060164
:101720007091070122E030E082ED93E00E94DD2D10
:101730000E94170932C0833569F41092FE026BE8EB
:1017400071E082ED93E00E94002C88EC90E00E9412
:101750001F247FCF883471F480910101882319F010
:101760006DE871E002C06FE871E082ED93E00E94E5
:10177000002C6FCF8437A1F481E09091FC0291118D
:1017800080E08093FC020E94B1084091FC026CE171
:1017900070E08FEF92E00E9484150E94DB0959CF20
:1017A0008635A1F461E971E082ED93E00E94002C9E
:1017B0000E9494090E94DB0981E08093FE0284E686
:1017C00090E00E941F240E94440A43CF893461F4B0
:1017D0000E9494090E94DB090E94440A6091000162
:1017E0008FE40E94CA0935CF803519F580E00E9448
:1017F000A1228091000190E0019683709927809347
:101800000001FC01E655FE4F808190E00E947223AA
:1018100081E00E94A122609100018FE40E94CA0928
:101820004091000169E170E08FEF92E00E94841521
:1018300010CF823519F40E9457080BCF823719F464
:101840000E94A00906CF873569F582ED93E00E94DA
:10185000B92AE12CF12C6C01DD24EC14FD0474F4A4
:1018600082ED93E00E94B92A482FB7018FEF92E0F2
:101870000E9484158FEFE81AF80AEFCF0E94BD0A84
:101880000E94780A80E00E94A122E0910001F0E02D
:10189000E655FE4F808190E00E94722381E00E9415
:1018A000A122D7CE843209F0D4CE98E2E92EF12CD1
:1018B00082ED93E00E94B92A482FB7018FEF92E0A2
:1018C0000E948415EFEFEE1AFE0AFEE2EF16F10415
:1018D00079F782E3E82EF12C82ED93E00E94B92A99
:1018E000482FB7018FEF92E00E9484158FEFE81A1E
:1018F000F80AE6E5EE16F10479F70E94780AA9CE17
:10190000DF91CF911F910F91FF90EF90DF90CF90DB
:1019100008952F923F924F925F926F927F928F9293
:101920009F92AF92BF92CF92DF92EF92FF920F936E
:101930001F93CF93DF93CDB7DEB7C756D1090FB64C
:10194000F894DEBF0FBECDBF80914C028823E1F337
:101950000E94FE286093E4027093E5028093E60201
:101960009093E70281E090E0A0E0B0E023968CAF96
:101970009DAFAEAFBFAF23979E012B5B3F4F790169
:101980008E010D5B1F4F26503109AE014F5F5F4F37
:10199000BE01615D7F4FCE01C5960E94A0272696AD
:1019A0008FAD2697811102C010924C0223968CAD08
:1019B0009DADAEADBFAD2397892B8A2B8B2B11F03C
:1019C0000C9467156D857E858F8598890E944A33B2
:1019D00020E030E040E850E30E94A1342B013C01BC
:1019E00069857A858B859C850E944A3320E030E0AA
:1019F00040E850E30E94A1342C966CAF7DAF8EAFCF
:101A00009FAF2C976D817E818F8198850E944A338C
:101A100020E030E040E850E30E94A13460966CAFD3
:101A20007DAF8EAF9FAF609769817A818B819C81FA
:101A30000E944A3320E030E040E850E30E94A134A5
:101A40006B017C019B01AC010E94A1346C966CAFD0
:101A50007DAF8EAF9FAF6C9760962CAD3DAD4EAD18
:101A60005FAD6097CA01B9010E94A134A0966CAF26
:101A70007DAF8EAF9FAFA0972C962CAD3DAD4EADF8
:101A80005FAD2C97CA01B9010E94A134A4966CAF36
:101A90007DAF8EAF9FAFA497A3019201C301B201A6
:101AA0000E94A134A8966CAF7DAF8EAF9FAFA89770
:101AB000A0962CAD3DAD4EAD5FADA0976C966CADD4
:101AC0007DAD8EAD9FAD6C970E949C31A4962CADE0
:101AD0003DAD4EAD5FADA4970E949C31A8962CAD54
:101AE0003DAD4EAD5FADA8970E949D314B015C01AD
:101AF000A30192012C966CAD7DAD8EAD9FAD2C9760
:101B00000E94A13464966CAF7DAF8EAF9FAF649797
:101B100060962CAD3DAD4EAD5FAD6097C701B6018F
:101B20000E94A1349B01AC0164966CAD7DAD8EAD7D
:101B30009FAD64970E949D319B01AC010E949D3135
:101B4000A50194010E94373264966CAF7DAF8EAFD1
:101B50009FAF64976DA37EA38FA398A7A301920163
:101B600060966CAD7DAD8EAD9FAD60970E94A13447
:101B70004B015C012C962CAD3DAD4EAD5FAD2C976D
:101B8000C701B6010E94A1349B01AC01C501B4019B
:101B90000E949C319B01AC010E949D310E94093240
:101BA00068966CAF7DAF8EAF9FAF689769A37AA33D
:101BB0008BA39CA3A0962CAD3DAD4EAD5FADA09781
:101BC0006C966CAD7DAD8EAD9FAD6C970E949D31D6
:101BD000A4962CAD3DAD4EAD5FADA4970E949C3157
:101BE000A8962CAD3DAD4EAD5FADA8970E949C313F
:101BF0004B015C012C962CAD3DAD4EAD5FAD2C97ED
:101C000060966CAD7DAD8EAD9FAD60970E94A134A6
:101C10002C966CAF7DAF8EAF9FAF2C97A301920136
:101C2000C701B6010E94A1349B01AC012C966CAD9A
:101C30007DAD8EAD9FAD2C970E949D319B01AC0177
:101C40000E949D31A50194010E9437329B01AC0195
:101C500050582C962CAF3DAF4EAF5FAF2C972D8FC9
:101C60003E8F4F8F58A3CE0189960E94E922882388
:101C700081F12DE338EF42E256E46D8D7E8D8F8D3C
:101C800098A10E94A1346D8F7E8F8F8F98A32DE332
:101C900038EF42E256E469A17AA18BA19CA10E948F
:101CA000A13469A37AA38BA39CA32DE338EF42E26E
:101CB00056E46DA17EA18FA198A50E94A1346DA3C9
:101CC0007EA38FA398A780910301882309F422C3E0
:101CD000B2C38091FE02882321F0CE0189960E9432
:101CE000170A69A57AA5072E000C880B990B0E948C
:101CF0004A3320E030E040E85EE30E94A1342091C6
:101D0000C7023091C8024091C9025091CA020E9494
:101D10009C314B015C016BA57CA5072E000C880B48
:101D2000990B0E944A3320E030E040E85EE30E94D5
:101D3000A1342091CB023091CC024091CD02509140
:101D4000CE020E949C316B017C016DA57EA5072E01
:101D5000000C880B990B0E944A3320E030E040E8E9
:101D60005EE30E94A1342091CF023091D0024091D5
:101D7000D1025091D2020E949C3160966CAF7DAF2F
:101D80008EAF9FAF609720918B0230918C02409173
:101D90008D0250918E02C501B4010E94A1342B0125
:101DA0003C0120918F02309190024091910250911C
:101DB0009202C701B6010E94A1349B01AC01C3018C
:101DC000B2010E949D312B013C0120919302309180
:101DD0009402409195025091960260966CAD7DAD53
:101DE0008EAD9FAD60970E94A1349B01AC01C301F1
:101DF000B2010E949D31A0966CAF7DAF8EAF9FAFB8
:101E0000A0972091970230919802409199025091A9
:101E10009A02C501B4010E94A1342B013C0120911A
:101E20009B0230919C0240919D0250919E02C701FD
:101E3000B6010E94A1349B01AC01C301B2010E9412
:101E40009D312B013C0120919F023091A0024091D5
:101E5000A1025091A20260966CAD7DAD8EAD9FAD9A
:101E600060970E94A1349B01AC01C301B2010E94A2
:101E70009D312B013C0164966CAD7DAD8EAD9FAD67
:101E800064970E949B32A4966CAF7DAF8EAF9FAFDC
:101E9000A49764966CAD7DAD8EAD9FAD6497905860
:101EA0000E940E3564966CAF7DAF8EAF9FAF649786
:101EB00068966CAD7DAD8EAD9FAD68970E940E3576
:101EC0006C966CAF7DAF8EAF9FAF6C9768966CAD24
:101ED0007DAD8EAD9FAD68970E949B3268966CAFCA
:101EE0007DAF8EAF9FAF689720917F0230918002C7
:101EF0004091810250918202C501B4010E94A13437
:101F00004B015C0120918302309184024091850253
:101F100050918602C701B6010E94A1349B01AC0119
:101F2000C501B4010E949D316B017C0120918702A3
:101F3000309188024091890250918A0260966CAD7E
:101F40007DAD8EAD9FAD60970E94A1349B01AC0129
:101F5000C701B6010E949D31A4962CAD3DAD4EAD9A
:101F60005FADA4970E94A1346B017C0164962CADF7
:101F70003DAD4EAD5FAD6497A0966CAD7DAD8EADC1
:101F80009FADA0970E94A1346C962CAD3DAD4EAD97
:101F90005FAD6C970E94A1349B01AC01C701B601F3
:101FA0000E949D316B017C0164962CAD3DAD4EAD20
:101FB0005FAD6497C301B2010E94A13468962CAD55
:101FC0003DAD4EAD5FAD68970E94A1349B01AC0161
:101FD000C701B6010E949D316B017C016C962CAD4E
:101FE0003DAD4EAD5FAD6C97C301B2010E94A1340F
:101FF0004B015C0168962CAD3DAD4EAD5FAD689771
:10200000A0966CAD7DAD8EAD9FADA0970E94A13422
:102010009B01AC01C501B4010E949C319058A701FD
:1020200096010E9437322DE338EF42E256EC0E94CF
:10203000A1340E94240860936F0270937002809311
:10204000710290937202609377027093780280938A
:10205000790290937A0220910301222391F020913A
:10206000DF023091E0024091E1025091E2020E94D1
:102070009C316093770270937802809379029093F9
:102080007A02809167028823B1F020E030E040E0DE
:1020900057E4609177027091780280917902909173
:1020A0007A020E949D316093770270937802809348
:1020B000790290937A026091770270917802809110
:1020C000790290917A020E942408609377027093BB
:1020D00078028093790290937A028091010188239B
:1020E00009F4C7CD0E94E7070E94210B80914A02A4
:1020F00090914B020097E9F51092590210925A0202
:1021000010925B0210925C0210924D0210924E02ED
:1021100010924F021092500210925D0210925E02D5
:1021200010925F02109260021092510210925202BD
:1021300010925302109254021092610210926202A5
:10214000109263021092640210925502109256028D
:1021500010925702109258028DE492E00E941B1ACE
:1021600081E090E090934B0280934A0284EF91E0EB
:1021700094C08130910509F095C0809148029091FA
:102180004902892B09F067C06091590270915A0287
:1021900080915B0290915C0226E0C22EDD24DA94ED
:1021A000ED2CFD2CA70196010E94C43520934D0211
:1021B00030934E0240934F025093500260915D0263
:1021C00070915E0280915F0290916002A70196017A
:1021D0000E94C4352093510230935202409353021F
:1021E0005093540260916102709162028091630287
:1021F00090916402A70196010E94C4352093550274
:1022000030935602409357025093580210927B022B
:1022100010927C0210927D0210927E028DE492E078
:102220000E941B1A82E090E090934B0280934A0236
:1022300010924902109248022C968CAD9DADAEAD25
:10224000BFAD2C9780936B0290936C02A0936D02AC
:10225000B0936E021DC09E012B5C3F4FE9E5F2E09A
:10226000D9018D919D919D01092E000CAA0BBB0BEC
:102270004081518162817381840F951FA61FB71F12
:1022800081939193A193B193B2E0E536FB0741F7B7
:10229000809148029091490201979093490280935E
:1022A000480215C4029709F0E4CC8091480290914D
:1022B00049028C3D954041F520916B0230916C02B2
:1022C00040916D0250916E022C966CAD7DAD8EAD3D
:1022D0009FAD2C970E949C3125E431E14BE852E4FC
:1022E0000E94A13460937B0270937C0280937D02F4
:1022F00090937E02109201010E9457086FE871E0EE
:1023000082ED93E00E94002C809148029091490256
:102310000196C3CFC0906502D09066028091020101
:1023200090E0C816D9060CF03FC07E01FDE1EF0E2B
:10233000F11C03ED12E0D7012D913D914D915D917E
:102340007D01F80160817181828193810E949D31BC
:10235000D8016D937D938D939D938D01B2E00F3DD8
:102360001B0749F72091770230917802409179025A
:1023700050917A026091DF027091E0028091E10257
:102380009091E2020E949D316093DF027093E0021F
:102390008093E1029093E202EFEFCE1ADE0AD09230
:1023A0006602C092650293C381E08093030103ED4E
:1023B00012E00D2C000CEE08FF08C701B6010E94C8
:1023C0004A339B01AC01D8016D917D918D919C9117
:1023D0000E94A032F80161937193819391938F01D0
:1023E000F2E0033E1F0749F7809167028823B1F0AE
:1023F00020E030E040E057E46091DF027091E002BD
:102400008091E1029091E2020E949C316093DF0290
:102410007093E0028093E1029093E20210926702CF
:1024200084E6809302018091FE02882309F44FC361
:102430000E9494094CC393EDC92E92E0D92E8E01CF
:10244000035E1F4F5E0129E2A20EB11C780128969F
:102450001FAF0EAF2897D6012D913D914D915D9103
:102460006D01F70160817181828193810E949C31AD
:10247000D7016D937D938D939D937D01AA15BB0527
:1024800051F7CD8CDE8CEF8CF8A020E030E040E0FE
:1024900057ECC701B6010E94963287FF0CC020E0BE
:1024A00030E040E857E4C701B6010E949D316D8FCE
:1024B0007E8F8F8F98A3CD8CDE8CEF8CF8A020E0E0
:1024C00030E040E057E4C701B6010E94943418168A
:1024D00064F420E030E040E857E4C701B6010E9410
:1024E0009C316D8F7E8F8F8F98A3B091FC022996BF
:1024F000BFAF29975E01E1E1AE0EB11C80EF282E3F
:1025000082E0382E45012996FFAD2997FF23E9F196
:10251000D801CD90DD90ED90FC9027E831E040E0CF
:1025200059E3C701B6010E94A134A70196010E9498
:10253000A134F10120813181428153810E94A13473
:102540000E9412330E944A332B013C0120E030E00C
:10255000A901C701B6010E949434A701960118167B
:102560000CF05058C701B6010E94A0329B01AC018B
:10257000C301B2010E94A1340E941233D4016D93B1
:102580007D938D939C93139713C0F101208131812A
:1025900042815381D8016D917D918D919C910E94D2
:1025A000A1340E941233F401608371838283938388
:1025B000F4E08F0E911C0C5F1F4F24E0220E311CA3
:1025C00028964EAD5FAD28978416950609F09BCFEF
:1025D000F50180819181A281B3818115F0E89F0787
:1025E000A105B10524F08FEF9FE7A0E0B0E08130B6
:1025F00020E892072FEFA207B20724F481E090E8C9
:10260000AFEFBFEFF50181939193A193B1935F0178
:1026100028962EAD3FAD2897E217F307C9F68988B3
:102620009A88AB88BC88D501C401805D9A48AF4FB9
:10263000BF4FC0900401D0900501E0900601F090DA
:10264000070181369A4EA105B10528F09092430208
:102650008092420230C06091420270914302072E84
:10266000000C880B990B0E944A33A70196010E9427
:10267000A1342B013C01C501B4010E944A334B0136
:102680005C01A701960160E070E080E89FE30E9492
:102690009C319B01AC01C501B4010E94A1349B0196
:1026A000AC01C301B2010E949D310E9412337093AC
:1026B000430260934202A701960160E070E080E867
:1026C0009FE30E949C314B015C0160914402709138
:1026D0004502072E000C880B990B0E944A33A70174
:1026E00096010E94A1342B013C016D897E898F895E
:1026F000988D0E944A33A50194010E94A1349B0148
:10270000AC01C301B2010E949D310E94123370934B
:102710004502609344028091460290914702BC01B9
:10272000990F880B990B0E944A33A70196010E94CA
:10273000A1346B017C01698D7A8D8B8D9C8D0E94FB
:102740004A33A50194010E94A1349B01AC01C70149
:10275000B6010E949D310E9412337093470260932C
:10276000460262E472E082E294E00E94A92B8AE0D1
:102770000E94562A892B11F40E9457088091FE026C
:10278000882391F160914202709143024AE050E047
:1027900082ED93E00E94B22C0E94AA09609144024B
:1027A000709145024AE050E082ED93E00E94B22C25
:1027B0000E94AA0960914602709147024AE050E0E7
:1027C00082ED93E00E94B22C0E94AA09CE018F965E
:1027D0000E94B009CE01C5960E94B0096EE771E073
:1027E00082ED93E00E94002C4091E4025091E502BA
:1027F0006091E6027091E7028091E8029091E9020F
:10280000A091EA02B091EB0284179507A607B707DB
:1028100008F082C00E94E70720917B0230917C0281
:1028200040917D0250917E026091D3027091D4025A
:102830008091D5029091D6020E949D316B017C015E
:1028400020E030E040E857E40E94943418164CF43D
:1028500020E030E040E857E4C701B6010E949C3117
:102860001BC020E030E040E857ECC701B6010E94F1
:10287000963287FD09C0C092D302D092D402E09272
:10288000D502F092D60210C020E030E040E857E4D4
:10289000C701B6010E949D316093D3027093D402A8
:1028A0008093D5029093D6028091E4029091E50244
:1028B000A091E602B091E7028C599F4FAF4FBF4FF6
:1028C0008093E8029093E902A093EA02B093EB02AE
:1028D0008D8D9E8DAF8DB8A180936B0290936C020D
:1028E000A0936D02B0936E028091FE028823A1F046
:1028F000CE01CB960E94CD1963E971E082ED93E0A1
:102900000E94E32B4BAD5CAD6DAD7EAD2AE030E0B7
:1029100082ED93E00E94B92CC9A0DAA0EBA0FCA044
:1029200020E030E84BEB55E4C701B6010E94963237
:1029300087FFCBC020E030E84BEB55ECC701B60178
:102940000E94943418160CF0C0C060917702709108
:1029500078028091790290917A0260937302709369
:10296000740280937502909376022D8D3E8D4F8D6B
:1029700058A10E949C316B017C0120E030E040E0D6
:1029800057E40E94943418164CF4A701960160E0B5
:1029900070E080E897E40E949C3112C020E03EEF96
:1029A0004FEF56ECC701B6010E94963287FF0AC06E
:1029B00020E030E040E857E4C701B6010E949D31B5
:1029C0006B017C0120E030E0A901C701B6010E9443
:1029D000943490916A021816A4F4992351F08091CE
:1029E000680290916902019790936902809368024E
:1029F00004C0109269021092680281E080936A021A
:102A000012C091110AC080916802909169020196EA
:102A1000909369028093680204C010926902109238
:102A2000680210926A020091680210916902C8015E
:102A300017FF04C088279927801B910B089FB001BE
:102A4000099F700D189F700D1124072E000C880B24
:102A5000990B0E944A3326EA3BE944E45CE30E9476
:102A6000A1349B01AC016091D3027091D40280919A
:102A7000D5029091D6020E949D316093D30270934B
:102A8000D4028093D5029093D602B801110F880B1F
:102A9000990B0E944A332CEA35EC47E257E30E9437
:102AA000A1349B01AC0160917B0270917C0280910A
:102AB0007D0290917E020E949D3160937B02709313
:102AC0007C0280937D0290937E020E94210BC95963
:102AD000DF4F0FB6F894DEBF0FBECDBFDF91CF91B1
:102AE0001F910F91FF90EF90DF90CF90BF90AF902C
:102AF0009F908F907F906F905F904F903F902F901E
:102B00000895CB010C941036CB01642F0C94183629
:102B10008091300390E020913103821B9109089548
:102B20009091310380913003981750F4E92FF0E031
:102B3000EE5CFC4F208130E09F5F9093310302C038
:102B40002FEF3FEFC9010895E091310380913003E9
:102B5000E81730F4F0E0EE5CFC4F808190E00895DF
:102B60008FEF9FEF08950895CF92DF92EF92FF923B
:102B70000F931F93CF93DF937C01262F972F8A010A
:102B800080910C03882391F0C62FD72F6E01C40EBD
:102B9000D51ECC15DD0571F06991D701ED91FC9141
:102BA0000190F081E02DC7010995F3CF642F822FAA
:102BB0000E941517C801DF91CF911F910F91FF90CF
:102BC000EF90DF90CF900895CF93DF931F92CDB712
:102BD000DEB7698320910C032223D1F020910D03ED
:102BE000203240F021E030E0FC013383228380E09A
:102BF00090E015C080910E03E82FF0E0E15FFC4FFC
:102C0000998190838F5F80930E0380930D0305C09D
:102C100061E0CE0101960E94151781E090E00F90CF
:102C2000DF91CF910895FC011382128288EE93E028
:102C3000A0E0B0E084839583A683B78384EB91E022
:102C40009183808308951092310310923003109283
:102C50000E0310920D030C946116862F413208F07A
:102C600040E262E373E00E947F161092310380938A
:102C70003003089521E00C942D1681E080930C031D
:102C800060932F0310920E0310920D0308950F937B
:102C9000062F21E040910D036FE073E080912F0338
:102CA0000E94C31610920E0310920D0310920C0393
:102CB0000F91089561E00C94471680E093E00C9426
:102CC00013161092BF0381E08093BD031092BC03E2
:102CD00061E082E00E94262A61E083E00E94262AC9
:102CE000E9EBF0E080818E7F808380818D7F80831F
:102CF00088E48093B80085E48093BC000895413255
:102D000008F03FC09091BF039111FCCF91E09093E8
:102D1000BF032093BD032FEF20935203109297031C
:102D2000240F209396039093BE039091BE03880FC7
:102D3000892B8093BE038091BC03813041F41092B3
:102D4000BC038091BE038093BB0085EC01C085EE7F
:102D50008093BC008091BF038130E1F380919703A1
:102D6000841710F44091970328E933E0FB01D9015F
:102D70008A2F821B841718F48D918193F9CF842FA9
:102D8000089580E008950F93413208F046C0909175
:102D9000BF039111FCCF32E03093BF030093BD031A
:102DA0003FEF309352031092970340939603FB0139
:102DB00068E973E0DB013A2F361B341718F43191C0
:102DC0003D93F9CF1092BE033091BE03880F832B41
:102DD0008093BE038091BC03813041F41092BC0308
:102DE0008091BE038093BB0085EC01C085EE80938B
:102DF000BC00222321F08091BF038230D1F3809167
:102E000052038F3F79F080915203803241F08091DC
:102E10005203803331F094E005C091E003C092E0AA
:102E200001C093E0892F0F910895613298F42091A9
:102E3000BF03243089F460937403FC0126E733E078
:102E4000D9018A2F821B861718F481918D93F9CFAF
:102E500080E0089581E0089582E0089585ED8093F3
:102E6000BC008091BC0084FDFCCF1092BF0308958C
:102E700085EC8093BC001092BF0308951F920F92BF
:102E80000FB60F9211242F933F934F935F936F933D
:102E90007F938F939F93AF93BF93EF93FF93809113
:102EA000B900887F803609F49CC068F5883209F43F
:102EB0005BC090F4803109F454C038F4882309F4DD
:102EC000F5C0883009F44DC0F5C0883109F44CC014
:102ED000803209F45DC0EEC0803409F468C048F463
:102EE000803309F455C0883309F0E4C0809352035D
:102EF000A8C0803509F44FC0883509F45DC0883416
:102F000009F0D8C0D5C0883909F4C6C0A8F48837FC
:102F100009F467C038F4883609F463C0803709F4CF
:102F200060C0C8C0883809F4B7C0803909F45FC0F0
:102F3000803809F0BFC05BC0803B09F485C038F41D
:102F4000803A09F466C0883A09F47EC0B3C0803C78
:102F500009F4A6C0883C09F4A3C0883B09F489C0E1
:102F6000A9C08091BE0310C09091970380919603F1
:102F7000981770F5E091970381E08E0F8093970387
:102F8000F0E0E856FC4F80818093BB0085EC85C063
:102F9000809352038DC0E091970381E08E0F809360
:102FA00097038091BB00F0E0E856FC4F808390913E
:102FB0009703809196036DC0E091970381E08E0F97
:102FC000809397038091BB00F0E0E856FC4F80832C
:102FD0008091BD0381116CC081E08093BC0384EAC1
:102FE00060C083E08093BF0310925303CFCF8091E2
:102FF0005303803208F050C0E091530381E08E0FFC
:10300000809353038091BB00F0E0EC5AFC4F808327
:10301000BDCF80915303803230F4E0915303F0E050
:10302000EC5AFC4F10820E942E176091530370E0FF
:10303000E091B803F091B90384E593E0099510920B
:1030400053030E94381736C084E08093BF03109268
:10305000750310927403E091BA03F091BB030995D4
:1030600080917403811105C081E0809374031092F4
:103070007603E091750381E08E0F80937503F0E095
:10308000EA58FC4F80818093BB009091750380913A
:103090007403981708F47ACF85E88093BC000AC0BF
:1030A00085EC8093BC001092BF0304C010925203C1
:1030B0000E942E17FF91EF91BF91AF919F918F9139
:1030C0007F916F915F914F913F912F910F900FBE24
:1030D0000F901F901895EF92FF920F931F93CF932D
:1030E000DF9300D0CDB7DEB7062F142F682F80E016
:1030F00093E029833A830E943D16602F80E093E09D
:103100000E94E4152981022FE22E3A81F32E8E2DA2
:10311000801B811740F4F70161917F0180E093E00B
:103120000E94E415F4CF80E093E00E945A1691E0EB
:10313000811190E0892F0F900F90DF91CF911F9117
:103140000F91FF90EF9008952F923F924F925F92D0
:103150006F927F928F929F92AF92BF92CF92DF92A7
:10316000EF92FF920F931F93CF93DF9300D000D085
:103170001F92CDB7DEB7F82EE62E242E69010E94ED
:10318000FE284B015C01312C1D82822D90E09C8336
:103190008B832801612C712C321408F051C06F2DE3
:1031A00080E093E00E943D166E2D80E093E00E9447
:1031B000E41580E093E00E945A166F2D80E093E0C2
:1031C0000E943D164B815C814319510941325105E2
:1031D00014F040E250E06F2D80E093E00E943A1638
:1031E00080E093E00E948815892B19F101151105E3
:1031F00099F4F6012D81E20FF11D27FDFA95FA836E
:10320000E98380E093E00E949015E981FA81808350
:103210002D812F5F2D83E4CF0E94FE28DC01CB019E
:1032200088199909AA09BB0984159505A605B7054A
:1032300000F3822D40E2421508F480E2380EACCF54
:1032400001151105D1F00E94FE28DC01CB0188197F
:103250009909AA09BB0920E030E080179107A2076D
:10326000B30758F0822D90E0ED812E2FEE0F330B37
:103270002817390714F42FEF2D838D810F900F90AD
:103280000F900F900F90DF91CF911F910F91FF90B2
:10329000EF90DF90CF90BF90AF909F908F907F90F6
:1032A0006F905F904F903F902F900895CF93DF9352
:1032B0001F92CDB7DEB790912701992321F0882383
:1032C00079F082E00BC090911001992309F18823D5
:1032D00039F08091160181111EC081E0898301C0FF
:1032E0001982A0910A01B0910B01E0910C01F091BB
:1032F0000D019E012F5F3F4F41E051966C918081FF
:103300000E949628009721F429812093160105C078
:103310008FEF9FEF02C080E090E00F90DF91CF91A0
:103320000895CF93DF931F92CDB7DEB7BC01809194
:103330001301909114018617970710F48FEF29C09D
:1033400065367105D8F70E947A3561506983A0917E
:103350000A01B0910B01E0910C01F0910D019E0169
:103360002F5F3F4F41E094966C9180810E94962898
:10337000892B21F7698170E06F5F7F4F8091130186
:10338000909114010E947A3570932C0160932B0167
:1033900080E00F90DF91CF9108950F931F93CF930B
:1033A000DF9300D0CDB7DEB720911001211102C00C
:1033B0008FEF3AC08C01A0910A01B0910B01E0910E
:1033C0000C01F0910D019E012F5F3F4F42E050969E
:1033D0006C9180810E949F28892B51F7698170E050
:1033E000762F66278A81682B072E000C880B990B95
:1033F0000E944A3320E030E04AEA53E40E94A032BF
:1034000028EB3EE142E152E40E949D3120E030E0B1
:1034100040E857E40E94A1340E941233F80160830F
:1034200071838283938380E00F900F90DF91CF911F
:103430001F910F910895EF92FF921F93CF93DF9307
:1034400000D0CDB7DEB77C0110E0F701419151917A
:10345000619171917F0159834A8363E1610FE0912A
:103460000C01F0910D019E012F5F3F4F42E08081E2
:103470000E9496281E5F163041F70F900F90DF9143
:10348000CF911F91FF90EF900895CF93DF931F92FC
:10349000CDB7DEB780911001882309F408C11982E5
:1034A000A0910A01B0910B01E0910C01F0910D0186
:1034B0009E012F5F3F4F41E051966C9180810E94A9
:1034C0009628892B09F0F3C0A0910A01B0910B0155
:1034D000E0910C01F0910D019E012F5F3F4F41E003
:1034E00015966C9180810E949628892B09F0DFC087
:1034F000A0910A01B0910B01E0910C01F0910D0136
:103500009E012F5F3F4F41E014966C9180810E9495
:103510009628892B09F0CBC080912701A0910A0140
:10352000B0910B01E0910C01F0910D01882309F499
:1035300059C08CE089839E012F5F3F4F41E0149674
:103540006C9180810E949628892B09F0B0C062E3BB
:1035500070E080E090E00E942F2980EC89838091C8
:10356000100180FF02C080EE8983A0910A01B09112
:103570000B01E0910C01F0910D019E012F5F3F4F77
:1035800041E014966C9180810E949628892B09F065
:103590008EC080911601882319F082E0898301C0D2
:1035A0001982A0910A01B0910B01E0910C01F091F8
:1035B0000D019E012F5F3F4F41E051966C9180813C
:1035C0000E949628892B09F072C01982A0910A01E5
:1035D000B0910B01E0910C01F0910D019E012F5F64
:1035E0003F4F58C084E089839E012F5F3F4F41E0E9
:1035F00014966C9180810E949628892B09F057C0FF
:1036000080911701811104C08091100180FD02C0DA
:1036100080E401C080E68983A0910A01B0910B018A
:10362000E0910C01F0910D019E012F5F3F4F41E0B1
:1036300014966C9180810E949628892BC1F562E3D3
:1036400070E080E090E00E942F298091160188238D
:1036500019F081E0898301C01982A0910A01B0911B
:103660000B01E0910C01F0910D019E012F5F3F4F86
:1036700041E051966C9180810E949628892BB9F483
:10368000A0910A01B0910B01E0910C01F0910D01A4
:1036900025E131E041E015966C9180810E949628E9
:1036A00021E0892B09F420E0822F819501C08FEF62
:1036B0000F90DF91CF910895CF93DF931F92CDB7F5
:1036C000DEB7209110012223A1F1843F21E092076F
:1036D00049F0883E23E0920739F08A3F910531F4A2
:1036E000198206C088E003C080E101C088E18983B7
:1036F000898186958695869590910E019817C9F0D7
:10370000A0910A01B0910B01E0910C01F0910D0123
:103710009E012F5F3F4F41E016966C9180810E9481
:103720009628892B31F48981869586958695809394
:103730000E010F90DF91CF910895FC0180910F0150
:10374000813039F020F0823031F488E005C082E029
:1037500003C084E001C080E1808380911801882348
:1037600019F08081880F80830895CF93DF931F9293
:10377000CDB7DEB790911001992379F1843031F003
:10378000883031F0823031F4198206C088E003C0FD
:1037900080E101C088E18983898186958695869537
:1037A00090910F019817C9F0A0910A01B0910B01F7
:1037B000E0910C01F0910D019E012F5F3F4F41E020
:1037C00017966C9180810E949628892B31F489810B
:1037D00086958695869580930F010F90DF91CF9106
:1037E0000895CF93DF931F92CDB7DEB720911001DC
:1037F000222309F44BC08C3B910510F081E014C0EA
:103800008236910510F082E00FC08A32910510F0E7
:1038100083E00AC08431910510F084E005C00A9766
:1038200010F085E001C086E08983909111018981C3
:10383000981761F1A0910A01B0910B01E0910C0180
:10384000F0910D019E012F5F3F4F41E012966C9168
:1038500080810E949628892BC9F48981806489839C
:10386000A0910A01B0910B01E0910C01F0910D01C2
:103870009E012F5F3F4F41E018966C9180810E941E
:103880009628892B19F48981809311010F90DF917B
:10389000CF910895009711F00C9491198FEF08952E
:1038A000CF93DF9390912701911121C09091100146
:1038B0009923E9F0C82FCE7FD09115019C239093D6
:1038C0001501C11104C080911901882331F081E0F4
:1038D0000E945619CC2359F005C080E0DF91CF91AA
:1038E0000C9456190E94451A8111D0931501DF914D
:1038F000CF910895AF92BF92CF92DF92EF92FF9255
:103900000F931F93CF93DF9300D0CDB7DEB77C0129
:103910005B016A0180912701882309F463C08091CB
:103920001001882309F460C0A0910A01B0910B0135
:10393000E0910C01F0910D019E012F5F3F4F42E09D
:103940001C966C9180810E949F28892B11F082E047
:103950004CC0098110E0102F00278A81082B0E151A
:103960001F0520F4F601108285E03FC0E0910C01B4
:10397000F0910D018181928196958795801791072D
:10398000B0F4A0910A01B0910B019E012F5F3F4F4F
:1039900041E053966C9180810E949F28892BB9F653
:1039A000898184FF04C00E94451A83E01EC0A09153
:1039B0000A01B0910B01E0910C01F0910D0195010C
:1039C0004E2D1D966C9180810E949F28892B09F0B5
:1039D000BECFC801B7010E947A356150F6016083FD
:1039E00080E003C081E001C084E00F900F90DF9180
:1039F000CF911F910F91FF90EF90DF90CF90BF90EC
:103A0000AF9008951F93CF93DF931F92CDB7DEB78A
:103A100090911701981709F488C0182FA0910A01F6
:103A2000B0910B01E0910C01F0910D019E012F5F0F
:103A30003F4F41E014966C918081112351F10E9417
:103A40009F28892B11F08FEF71C089818F7D898329
:103A5000A0910A01B0910B01E0910C01F0910D01D0
:103A60009E012F5F3F4F41E014966C9180810E9430
:103A70009628892B41F763E070E080E090E00E9497
:103A80002F2982E0898380912501882389F182E8AA
:103A90002CC00E949F28892BB1F68091100199813A
:103AA00080FF02C0906201C09F7D9983A0910A01AE
:103AB000B0910B01E0910C01F0910D019E012F5F7F
:103AC0003F4F41E014966C9180810E949628892B8B
:103AD00009F0B9CF63E070E080E090E00E942F2908
:103AE00080912501882319F080E8898301C019821B
:103AF00080912601882319F0898180638983A091B0
:103B00000A01B0910B01E0910C01F0910D019E01B1
:103B10002F5F3F4F41E057966C9180810E9496281D
:103B2000892B09F090CF1093170180E00F90DF915F
:103B3000CF911F9108951F93CF93DF931F92CDB71D
:103B4000DEB790912601981751F1882319F090E380
:103B5000998301C0198290911701992319F09981D5
:103B60009260998390912501992319F09981906829
:103B70009983182FA0910A01B0910B01E0910C01DB
:103B8000F0910D019E012F5F3F4F41E057966C91E0
:103B900080810E949628892B21F41093260180E0D1
:103BA00001C08FEF0F90DF91CF911F9108950F9378
:103BB0001F93CF93DF9300D0CDB7DEB78932910545
:103BC00008F050C08C01892BE1F480E00E949B1D1D
:103BD000198287E08A83A0910A01B0910B01E091DC
:103BE0000C01F0910D019E012F5F3F4F42E0559671
:103BF0006C9180810E949628892BA1F51092190161
:103C00007DC081E00E949B1D0130110511F482E00E
:103C100015C00230110511F483E010C00630110503
:103C200010F484E00BC00B30110510F485E006C0E1
:103C30000531110510F486E001C087E08983A09169
:103C40000A01B0910B01E0910C01F0910D019E0170
:103C50002F5F3F4F41E019966C9180810E9496281A
:103C6000892B11F08FEF4BC0A0910A01B0910B018D
:103C7000E0910C01F0910D019E012F5F3F4F41E05B
:103C800018966C9180810E949F28892B59F7898111
:103C900088608983A0910A01B0910B01E0910C0129
:103CA000F0910D019E012F5F3F4F41E018966C91FE
:103CB00080810E949628892BA9F680E28983A091B1
:103CC0000A01B0910B01E0910C01F0910D019E01F0
:103CD0002F5F3F4F41E055966C9180810E9496285E
:103CE000892B09F0BFCF88E0809310011092120158
:103CF00081E08093190180E00E94501C80E00F90C9
:103D00000F90DF91CF911F910F9108950F931F9303
:103D1000CF93DF931F92CDB7DEB7209110012223FE
:103D200009F459C020912701211155C08C018091BF
:103D30001901882361F0C8010197889720F4C80110
:103D40000E94D71D48C080E090E00E94D71D04303B
:103D5000110538F0B801093E134028F068EE73E011
:103D600002C064E070E008EE13E0C8010E947A35FA
:103D700061506983A0910A01B0910B01E0910C019F
:103D8000F0910D019E012F5F3F4F41E011966C9124
:103D900080810E949628892BF1F4698170E06F5F21
:103DA0007F4FC8010E948E357093140160931301F8
:103DB00080912B0190912C018536910510F084E6BD
:103DC00090E00E944A1C80911301909114019695F5
:103DD00087950E94F11B0F90DF91CF911F910F915A
:103DE00008951F93CF93DF9300D0CDB7DEB7182F80
:103DF000807711F081E005C0112311F01A8202C012
:103E000080E48A83A0910A01B0910B01E0910C013A
:103E1000F0910D019E012E5F3F4F41E055966C9150
:103E200080810E949628892B19F01092100183C07E
:103E30008A818F7B8093120116FF02C01A8202C012
:103E400084E08A8315FD03C08A8182608A8314FD21
:103E500003C08A8181608A8313FD03C08A818863DD
:103E60008A83A0910A01B0910B01E0910C01F091BD
:103E70000D019E012E5F3F4F41E056966C9180816F
:103E80000E949628892B89F6812F877F19F080E080
:103E90000E949B1DA0910A01B0910B01E0910C01C1
:103EA000F0910D019E012F5F3F4F41E014966C9100
:103EB00080810E949F28898110FF04C091E19A832C
:103EC000806203C090E19A838F7D8983909127015E
:103ED0008981992311F0806801C08F778983A0912F
:103EE0000A01B0910B01E0910C01F0910D019E01CE
:103EF0002E5F3F4F41E096966C9180810E949628FC
:103F0000A0910A01B0910B01E0910C01F0910D011B
:103F10009E012F5F3F4F41E014966C9180810E947B
:103F20009628109310011092190162E370E080E06E
:103F300090E00E942F290F900F90DF91CF911F9159
:103F400008950F931F93CF93DF93CDB7DEB72A97D2
:103F50000FB6F894DEBF0FBECDBF1FEFDC011C9380
:103F600080E88983A0910A01B0910B01E0910C01D6
:103F7000F0910D019E012F5F3F4F41E055966C91EE
:103F800080810E949628892B09F0B7C164E670E011
:103F900080E090E00E942F291982A0910A01B0913F
:103FA0000B01E0910C01F0910D019E012F5F3F4F3D
:103FB00041E055966C9180810E949628892B09F0EA
:103FC0009CC180E48983A0910A01B0910B01E0912A
:103FD0000C01F0910D019E012F5F3F4F41E01896BB
:103FE0006C9180810E949628892B09F086C11093DC
:103FF000100110930E0110930F01109311018FEF18
:104000009FEF909314018093130110931501109367
:10401000170190932C0180932B0181E08093120172
:10402000809325011092260110921A011092190115
:104030008AE0EBE1F1E0DF011D928A95E9F7109249
:1040400027011092280110922A011092290180ED77
:1040500097E00E945C1B82E00E94B51B84E690E022
:104060000E94861E8AE290E00E94F11B80E00E947E
:10407000501C81E00E94021D1CE09E01295F3F4F01
:1040800041E060E0812F0E949F28892B19F48F81E5
:10409000883421F01F5F103181F721C010932D016A
:1040A00000E10F839E01295F3F4F41E06AE0812FCD
:1040B0000E949628892B99F461E070E080E090E0FE
:1040C0000E942F298FE18F839E01295F3F4F41E09E
:1040D0006AE080912D010E949628892B49F08AE0A0
:1040E00090E00E949119811108C10E94F11E05C142
:1040F00061E070E080E090E00E942F299E01295F3E
:104100003F4F43E060E180912D010E949F28892B61
:1041100031F78F8190E080589F4F90932F018093CB
:104120002E01888590E080589F4F909331018093B5
:104130003001898590E080589F4F909333018093A0
:1041400032010F839E01295F3F4F41E06AE0809179
:104150002D010E949628892B11F661E070E080E025
:1041600090E00E942F2980E00E94021D80E48F834E
:10417000A0910A01B0910B01E0910C01F0910D01A9
:104180009E01295F3F4F41E05A966C9180810E94C9
:104190009628892B09F0A3CF80912D0180688F8309
:1041A000A0910A01B0910B01E0910C01F0910D0179
:1041B0009E01295F3F4F41E05E966C9180810E9495
:1041C0009628892B09F08BCF82E08F83A0910A017A
:1041D000B0910B01E0910C01F0910D019E01295F5E
:1041E0003F4F41E05F966C9180810E949628892B19
:1041F00009F075CF88E88F83A0910A01B0910B0177
:10420000E0910C01F0910D019E01295F3F4F41E0CB
:1042100090966C9180810E949628892B09F05FCF3F
:1042200080912D018F83A0910A01B0910B01E09143
:104230000C01F0910D019E01295F3F4F41E09196E5
:104240006C9180810E949628892B09F048CF8AE0E2
:104250008F83A0910A01B0910B01E0910C01F091C4
:104260000D019E01295F3F4F41E092966C91808144
:104270000E949628892B09F032CF81E88F83A09184
:104280000A01B0910B01E0910C01F0910D019E012A
:10429000295F3F4F41E093966C9180810E94962860
:1042A000892B09F01CCF81E18F83A0910A01B09185
:1042B0000B01E0910C01F0910D019E01295F3F4F30
:1042C00041E096966C9180810E949628892B09F096
:1042D00006CF83E08F83A0910A01B0910B01E0919A
:1042E0000C01F0910D019E01295F3F4F41E097962F
:1042F0006C9180810E949628F2CE2A960FB6F8948F
:10430000DEBF0FBECDBFDF91CF911F910F910895FA
:10431000EF92FF920F931F93CF93DF9300D0CDB70F
:10432000DEB78B017A01452B81F120911001222308
:1043300061F199838A83E0910C01F0910D019B0159
:10434000280F311D8085918582179307F0F0A09189
:104350000A01B0910B019E012F5F3F4F42E05B9637
:104360006C9180810E949628892B79F4A0910A0192
:10437000B0910B01E0910C01F0910D019701402FDC
:1043800058966C9180810E9496280F900F90DF9133
:10439000CF911F910F91FF90EF900895EF92FF92B0
:1043A0000F931F93CF93DF9300D0CDB7DEB78B0170
:1043B0007A01452B81F120911001222361F199832B
:1043C0008A83E0910C01F0910D019B01280F311DB2
:1043D0008085918582179307F0F0A0910A01B09132
:1043E0000B019E012F5F3F4F42E05B966C918081F5
:1043F0000E949628892B79F4A0910A01B0910B01B3
:10440000E0910C01F0910D019701402F58966C91AD
:1044100080810E949F280F900F90DF91CF911F9174
:104420000F91FF90EF9008956F927F928F929F92DD
:10443000AF92BF92CF92DF92EF92FF920F931F93B2
:10444000CF93DF93CDB7DEB7A2970FB6F894DEBF58
:104450000FBECDBFE0912801E1115EC0611571056D
:1044600009F45AC05901652E742E4B016C01E12CE0
:10447000F12CEC14FD04A0F5C6018E199F098131C1
:10448000910510F080E190E0DE01119600E010E06F
:104490000817190751F0F801EE0DFF1DE80DF91D81
:1044A000E491ED930F5F1F4FF3CFAE014F5F5F4F6E
:1044B000B801C7010E948821AE014F5E5F4FB8016D
:1044C000C7010E94CE21A801BE016F5E7F4FCE01C1
:1044D00001960E940336892BF9F4E00EF11EC9CF34
:1044E00069A27AA2A0910A01B0910B01E0910C019E
:1044F000F0910D019E012F5D3F4F42E05D966C9162
:1045000080810E949628892B39F481E080932801CC
:10451000B0922A01A0922901A2960FB6F894DEBFAC
:104520000FBECDBFDF91CF911F910F91FF90EF9004
:10453000DF90CF90BF90AF909F908F907F906F90C3
:104540000895CF93DF931F92CDB7DEB790912701E7
:104550009817D9F1882319F1809128018823A9F1AE
:1045600080E00E94561980E00E94021D809129017E
:1045700090912A010E94861E1982E0910C01F0910F
:104580000D019E012F5F3F4F41E063E280810E9459
:10459000962881E0809327010E94561914C080E07C
:1045A0000E945619809115018983E0910C01F091C8
:1045B0000D019E012F5F3F4F41E063E280810E9429
:1045C0009628109227010E94451A0F90DF91CF91F3
:1045D00008950F931F93CF93DF93CDB7DEB729973D
:1045E0000FB6F894DEBF0FBECDBF2091100120FFA3
:1045F00038C08C01A0910A01B0910B01E0910C012F
:10460000F0910D019E012F5F3F4F48E098966C910D
:1046100080810E949F28892B31F5998190FF25C0C8
:10462000892F827091FD21C0988597FD20C02B8134
:1046300030E0322F22279A81292BF8013183208301
:104640002D8130E0322F22279C81292B3383228336
:104650002F8130E0322F22279E81292B358324831E
:1046600007C081E005C084E003C087E001C088E0A6
:1046700029960FB6F894DEBF0FBECDBFDF91CF9164
:104680001F910F910895CF93DF93CDB7DEB7299790
:104690000FB6F894DEBF0FBECDBF89E0E0E4F1E0D5
:1046A000DE01119601900D928A95E1F7AE014F5F00
:1046B0005F4F69E070E088EB94E00E9488212996C2
:1046C0000FB6F894DEBF0FBECDBFDF91CF91089536
:1046D00028EC30E040E054E062E571E086EF9BE0DA
:1046E0000C9414220F931F93CF93DF93CDB7DEB7B3
:1046F0002C970FB6F894DEBF0FBECDBF8C018CE4B3
:104700008C838DEC8D838CE68E838CE0898389ECA1
:104710008A838CE28B83A80143705527E4E0F0E0A4
:10472000EC0FFD1FE40FF51F80818A87980183E05D
:10473000369527958A95E1F723703327E4E0F0E07A
:10474000EC0FFD1FE20FF31F80818B87C80166E02D
:10475000969587956A95E1F783709927E4E0F0E0F4
:10476000EC0FFD1FE80FF91F60816C87E1E0F0E0BE
:10477000EC0FFD1FE40FF51F40814F83E1E0F0E0F7
:10478000EC0FFD1FE20FF31F20812887E1E0F0E02E
:10479000EC0FFD1FE80FF91F80818987AE01465F8E
:1047A0005F4F63E070E086E294E00E948821AE01F2
:1047B000495F5F4F63E070E08AE294E00E948821E5
:1047C00086E38A8786E58B8786E78C8786E28F83F8
:1047D00086E4888786E6898702FF04C087E38A87A4
:1047E00087E28F8305FF04C087E58B8787E488878E
:1047F00010FF04C087E78C8787E68987AE01465F94
:104800005F4F63E070E080E494E00E948821AE0195
:10481000495F5F4F63E070E081E394E00E9488218C
:104820001093C3030093C2032C960FB6F894DEBF17
:104830000FBECDBFDF91CF911F910F9108950F93C0
:104840001F93CF93DF93CDB7DEB764970FB6F8947D
:10485000DEBF0FBECDBF2CE0E9E4F1E0DE01119632
:1048600001900D922A95E1F7893C910500F58C01A4
:1048700088EC90E0B8010E947A35615071097D871B
:104880006E87AE01435F5F4F62E070E086E192E0C9
:104890000E948821AE014F5F5F4F6CE070E081ECB9
:1048A0009AE00E9488211093C7030093C603649680
:1048B0000FB6F894DEBF0FBECDBFDF91CF911F9131
:1048C0000F9108958F929F92AF92BF92FF920F9394
:1048D0001F93CF93DF9300D000D01F92CDB7DEB7E8
:1048E000982F977009F4AFC0613496E0790708F00B
:1048F000AAC0F82E80E090E00E94483320E030E02B
:1049000048E453E40E94A0324B015C01CE010596BD
:104910000E949D1B8D81843059F1A0F4823009F0F2
:1049200092C020E030E040E856E4C501B4010E94A6
:10493000A1340E941933162F072F20E030E040E405
:1049400056E437C0883029F1803109F07CC020E07E
:1049500030E040E055E4C501B4010E94A1340E945A
:104960001933162F072F20E030E040EC54E421C02B
:1049700020E030E040E056E4C501B4010E94A134DB
:104980000E941933162F072F20E030E040EC55E449
:1049900010C020E030E040E855E4C501B4010E94B9
:1049A000A1340E941933162F072F20E030E040E495
:1049B00055E4C501B4010E94A1340E941933098352
:1049C0001A837B836C83F0FE12C0AE014F5F5F4F92
:1049D00062E070E084ED91E00E948821AE014D5FBD
:1049E0005F4F62E070E084E291E00E948821F1FE76
:1049F00012C0AE014F5F5F4F62E070E088ED91E062
:104A00000E948821AE014D5F5F4F62E070E088E256
:104A100091E00E9488218F2D8470F2FE15C0AE01B6
:104A20004F5F5F4F62E070E08CED91E00E94882163
:104A3000AE014D5F5F4F62E070E08CE291E00E945A
:104A4000882180E001C08FEF0F900F900F900F90A2
:104A50000F90DF91CF911F910F91FF90BF90AF907A
:104A60009F908F900895CF93DF931F92CDB7DEB7BD
:104A700080FD02C0198202C090E3998381FF03C0C8
:104A800099819C60998382FF03C0898183608983B7
:104A9000AE014F5F5F4F61E070E088E491E00E94FB
:104AA000882180E00F90DF91CF910895CF93DF931D
:104AB0001F92CDB7DEB7882321F0853018F084E04F
:104AC00001C081E081508983AE014F5F5F4F61E09B
:104AD00070E08FE491E00E94882180E00F90DF91E8
:104AE000CF910895CF93DF9300D0CDB7DEB765E0C7
:104AF00070E00E947A3579836A83AE014F5F5F4F21
:104B000062E070E08EED91E00E94882180E00F90DD
:104B10000F90DF91CF910895CF93DF9300D0CDB761
:104B2000DEB765E070E00E947A3579836A83AE0172
:104B30004F5F5F4F62E070E08AED91E00E94882154
:104B400080E00F900F90DF91CF9108950F931F9306
:104B5000CF93DF9300D000D0CDB7DEB78A0128EE27
:104B600033E040E050E00E94C435D8010E94E935AE
:104B700099838A837B836C83AE014F5F5F4F64E0D0
:104B800070E08CE591E00E94882180E00F900F900A
:104B90000F900F90DF91CF911F910F910895CF93B8
:104BA000DF9300D0CDB7DEB765E070E00E947A35C4
:104BB00079836A83AE014F5F5F4F62E070E08AE500
:104BC00091E00E94882180E00F900F90DF91CF91BB
:104BD0000895CF93DF9300D0CDB7DEB765E070E0E6
:104BE0000E947A3579836A83AE014F5F5F4F62E03E
:104BF00070E088E591E00E94882180E00F900F909E
:104C0000DF91CF910895CF93DF93CDB7DEB729978A
:104C10000FB6F894DEBF0FBECDBF882319F00E94F7
:104C2000432312C089E0E5E5F1E0DE011196019031
:104C30000D928A95E1F7AE014F5F5F4F69E070E03A
:104C400088EB94E00E94882129960FB6F894DEBF85
:104C50000FBECDBFDF91CF910895CF93DF9300D0EA
:104C600000D0CDB7DEB7882349F080EC898382EC91
:104C70008A8384EC8B8386EC8C8307C08BE89BE86B
:104C8000DC0189839A83AB83BC83AE014F5F5F4FA6
:104C900064E070E088E99AE00E9488210E94451A49
:104CA0000F900F900F900F90DF91CF910895CF93B9
:104CB000DF9300D000D0CDB7DEB7882349F080E283
:104CC000898388E28A8380E38B8388E38C8307C0AF
:104CD00083EA93EADC0189839A83AB83BC83AE01C8
:104CE0004F5F5F4F64E070E08EE99AE00E94882198
:104CF0000E94451A0F900F900F900F90DF91CF9167
:104D00000895AF92BF92CF92DF92EF92FF920F93EE
:104D10001F93CF93DF93CDB7DEB72A970FB6F894E2
:104D2000DEBF0FBECDBF8C0182E089838AEC8A830F
:104D300083EE8B8389E08C83AE014F5F5F4F64E02D
:104D400070E088E690E00E94882183EA8983580118
:104D500090E4A922BB2406FF06C080EC8A8388EC7D
:104D60008B8382EC02C08A838B838C83680180E80A
:104D7000C82281E0D822C114D10431F084EC8D83A3
:104D80008CEC8E8386EC03C083EA8D838E838F83C5
:104D900083EA888789878A87AE014F5F5F4F6AE021
:104DA00070E087EA9AE00E948821780193E0E92286
:104DB000FF24E114F10411F080E201C088ED898341
:104DC000AE014F5F5F4F61E070E086EB9AE00E94BA
:104DD000882105FF03C00E94432303C080E00E9496
:104DE0000326C114D104D9F010FF08C082EB8983D7
:104DF0008BE88A8386EB8B838BE907C080EB898302
:104E000080E88A8384EB8B8380E98C83AE014F5FDB
:104E10005F4F64E070E082EA9AE00E94882100FF20
:104E20002FC088EF8983AE014F5F5F4F61E070E074
:104E300080EB98E00E9488216AEF70E087E00E9492
:104E4000622487E00E94332581E00E94562584E693
:104E500090E00E94722584EF91E00E948C2548EC3E
:104E600050E069E073EE8AEC92E00E94A62588E2A9
:104E700090E00E94CF258AE090E00E94E9250BC0D7
:104E800088ED8983AE014F5F5F4F61E070E080EB9A
:104E900098E00E94882101FF02C089ED01C088EDE1
:104EA0008983AE014F5F5F4F61E070E08DE397E073
:104EB0000E94882102FF02C081E001C080E00E94C0
:104EC0002D2604FF02C081E001C080E00E94572629
:104ED000C80188609093C5038093C4030E94451A5B
:104EE000AB2819F41092C80303C086E08093C8036E
:104EF000CD2829F08091C8038A5F8093C80304718C
:104F00001127012B29F08091C803805F8093C8038B
:104F1000EF2829F08091C8038C5F8093C8032A96FC
:104F20000FB6F894DEBF0FBECDBFDF91CF911F91BA
:104F30000F91FF90EF90DF90CF90BF90AF900895CA
:104F40002F923F924F925F926F927F928F929F9299
:104F5000AF92BF92CF92DF92EF92FF920F931F9387
:104F6000CF93DF93CDB7DEB7A2970FB6F894DEBF2D
:104F70000FBECDBF5C014B013A013AA329A3A701A3
:104F8000D8011D921C928091C803BE016F5F7F4FB4
:104F900090E00E947A1C8111B0C08091C40390916E
:104FA000C5039C0124713327232B79F1FE0134962C
:104FB00013019E012C5E3F4FAF0143505109DA01AE
:104FC0007C904F5F5F4FDA014C9150E060E070E001
:104FD000BA0155274427772970806A017B01C728C9
:104FE000BF0161507109DB014C91D42AB701A601C0
:104FF000D1014D935D936D937D931D013496E2171E
:10500000F307D1F620E1722E01C0712C86FF27C074
:10501000F40140E050E0672D70E0DA01A60FB71F01
:10502000CC24C394D12CCC0EDD1EAC0DBD1D2C9117
:1050300030E0322F22271196AC912A2B2193319305
:105040004E5F5F4F4630510541F726E0D22E7D0C72
:10505000D8012D913C91119728602D933C939C0190
:1050600020783170232B39F1F50140E050E0672DB5
:1050700070E0DA01A60FB71FCC24C394D12CCC0E5C
:10508000DD1EAC0DBD1D2C9130E0322F2227119674
:10509000AC912A2B219331934E5F5F4F46305105DF
:1050A00041F726E0D22E7D0CD8012D913C9111972D
:1050B00020672D933C9383709927892BC1F0E1E001
:1050C000F0E0EC0FFD1FE70DF11D6381818180FF92
:1050D0000EC0862F8F7386958695869567706F5F55
:1050E000E091C003F091C103309709F00995E9A15F
:1050F000FAA11082118212821382A2960FB6F8943E
:10510000DEBF0FBECDBFDF91CF911F910F91FF90FA
:10511000EF90DF90CF90BF90AF909F908F907F9057
:105120006F905F904F903F902F9008950E946B1862
:1051300091E0892790E091958195910908950F93C9
:105140001F9300910801109109010E94A41821E009
:1051500030E0882311F020E030E088279927821B77
:10516000930B1F910F9108951F920F920FB60F92FC
:1051700011242F933F938F939F93AF93BF9380916D
:10518000CA039091CB03A091CC03B091CD03309191
:10519000C90323E0230F2D3720F40196A11DB11D73
:1051A00005C026E8230F0296A11DB11D2093C90357
:1051B0008093CA039093CB03A093CC03B093CD0309
:1051C0008091CE039091CF03A091D003B091D103F1
:1051D0000196A11DB11D8093CE039093CF03A093A0
:1051E000D003B093D103BF91AF919F918F913F9125
:1051F0002F910F900FBE0F901F9018952FB7F89416
:105200006091CA037091CB038091CC039091CD0340
:105210002FBF08953FB7F8948091CE039091CF03AC
:10522000A091D003B091D10326B5A89B05C02F3F14
:1052300019F00196A11DB11D3FBFBA2FA92F982FBC
:105240008827820F911DA11DB11DBC01CD0142E037
:10525000660F771F881F991F4A95D1F70895CF923F
:10526000DF92EF92FF92CF93DF936B017C010E945C
:105270000A29EB01C114D104E104F10489F00E9470
:105280009B310E940A296C1B7D0B683E734090F392
:1052900081E0C81AD108E108F108C851DC4FEACF13
:1052A000DF91CF91FF90EF90DF90CF9008957894A9
:1052B00084B5826084BD84B5816084BD85B582601B
:1052C00085BD85B5816085BDEEE6F0E080818160B9
:1052D0008083E1E8F0E010828081826080838081B9
:1052E00081608083E0E8F0E0808181608083E1E993
:1052F000F0E0808182608083808181608083E0E94A
:10530000F0E0808181608083E1ECF0E08081846066
:105310008083808182608083808181608083E3ECF0
:10532000F0E0808181608083E0ECF0E08081826049
:105330008083E2ECF0E0808181608083EAE7F0E046
:1053400080818460808380818260808380818160AD
:105350008083808180688083089590E0FC0131978C
:10536000EF30F105B0F5EA5AFF4F0C94E335809128
:1053700080008F7703C0809180008F7D80938000B4
:10538000089580918000877FF9CF84B58F7702C020
:1053900084B58F7D84BD0895809190008F7707C07C
:1053A000809190008F7D03C080919000877F8093D3
:1053B000900008958091C0008F7703C08091C00055
:1053C0008F7D8093C00008958091C200877F809375
:1053D000C2000895CF93DF9390E0FC01EA59F24FA9
:1053E0002491FC01EC57F24F8491882361F190E005
:1053F000880F991FFC01E254F24FC591D491FC0132
:10540000E055F24FA591B491611109C09FB7F8948E
:105410008881209582238883EC912E230BC06230F3
:1054200061F49FB7F8943881822F80958323888315
:10543000EC912E2B2C939FBF06C08FB7F894E88178
:105440002E2B28838FBFDF91CF9108951F93CF9389
:10545000DF93282F30E0F901E85BF24F8491F901E6
:10546000EA59F24FD491F901EC57F24FC491CC2391
:10547000C9F0162F81110E94AD29EC2FF0E0EE0F3C
:10548000FF1FE055F24FA591B4918FB7F894111119
:1054900005C09C91ED2FE095E92302C0EC91ED2B26
:1054A000EC938FBFDF91CF911F910895CF93DF933E
:1054B000282F30E0F901E85BF24F8491F901EA59B5
:1054C000F24FD491F901EC57F24FC491CC2391F0F3
:1054D00081110E94AD29EC2FF0E0EE0FFF1FEE5579
:1054E000F24FA591B491EC91ED2381E090E021F48D
:1054F00080E002C080E090E0DF91CF910895CF93EB
:10550000DF931F92CDB7DEB76983DC01ED91FC918B
:105510000280F381E02D41E050E0BE016F5F7F4FDC
:1055200009950F90DF91CF910895CF93DF93EC0110
:105530008C859D8597FF05C082E00E94BE2E9D87C9
:105540008C878C859D85DF91CF91089583E00C94A5
:105550000931FC018485958597FD06C082E00E9493
:10556000682E90E00196089582E00E94682E90E0F7
:105570000895FC018485958597FD05C02FEF3FEFC9
:1055800035872487089582E00C94BE2ECF93DF9355
:10559000EC0180913D01882331F083E00E94EF2EE1
:1055A0001816190634F081E090E09B838A8380E02E
:1055B00090E0DF91CF910895FC0190819E5F9083F0
:1055C00042E450E06CEC7DE080E80C94872FFC0115
:1055D00081819081913A59F4813209F03BC047E0D2
:1055E00050E066E371E080E00E94872F45C0913271
:1055F00089F5803239F467E070E086E391E00E943B
:10560000AE2F06C0823209F037C0828180933D01FF
:105610008091360190913701A0913801B091390104
:10562000803B9440A105B105B9F480913D0180FD16
:1056300013C087E797E790930108809300089BE0E9
:1056400088E10FB6F894A895809360000FBE909300
:10565000600012C080E008950FB6F894A89580917C
:105660006000886180936000109260000FBEA89572
:10567000109201081092000881E008952FEF3FEF8B
:10568000FC01358724870895E2EDF3E0138212824E
:1056900088EE93E0A0E0B0E084839583A683B7838F
:1056A00087E292E0918380838FEF9FEF95878487D5
:1056B0000895FC0190819F5F908349E150E06EE086
:1056C0007EE080E80C94872F42E250E067E27EE0C3
:1056D00080E80C94872FEF92FF920F931F93CF9344
:1056E000DF931F92CDB7DEB789838B017A0141E04A
:1056F00050E0BE016F5F7F4F84E00E94EF2EA70154
:10570000B80184E40E94EF2E0F90DF91CF911F919A
:105710000F91FF90EF900895FC0191818081813A73
:1057200031F481E0913091F0933089F411C08132ED
:1057300071F49B3021F4828180933F0105C09A303F
:1057400031F4828180933E0181E00895089580E0E4
:105750000895CF93DF9300D000D000D0CDB7DEB74F
:10576000FB01808191819A838983828193819C83CB
:105770008B83848195819E838D8346E050E0BE01BA
:105780006F5F7F4F81E00E946B2B26960FB6F894D7
:10579000DEBF0FBECDBFDF91CF91089561157105BA
:1057A00079F0FB0101900020E9F73197AF01461B2A
:1057B000570BDC01ED91FC910280F381E02D0994FF
:1057C00080E090E008950C94CE2BDC01ED91FC91EB
:1057D0000190F081E02D09940F931F93CF93DF93F5
:1057E000EC016DE00E94E52B8C016AE0CE010E9485
:1057F000E52B800F911FDF91CF911F910F9108959D
:105800000F931F93CF93DF93EC010E94CE2B8C015B
:10581000CE010E94EC2B800F911FDF91CF911F9141
:105820000F9108958F929F92AF92BF92CF92DF9285
:10583000EF92FF920F931F93CF93DF93CDB7DEB715
:10584000A1970FB6F894DEBF0FBECDBF6C01142F29
:10585000E52FCB01022F19A2223008F40AE07E01C5
:1058600021E2E20EF11C802E912CA12CB12C612F93
:105870007E2FA50194010E94A235029F10191124C8
:1058800081E0E81AF1081A3014F4105D01C0195CC7
:10589000F7011083122FE32FCA01232B242B252B72
:1058A00031F7B701C6010E94CE2BA1960FB6F8942E
:1058B000DEBF0FBECDBFDF91CF911F910F91FF9043
:1058C000EF90DF90CF90BF90AF909F908F90089512
:1058D000CF92DF92EF92FF920F931F93CF93DF93BC
:1058E000EC016A017B012115310579F4E881F98128
:1058F0000190F081E02D642FDF91CF911F910F91E6
:10590000FF90EF90DF90CF9009942A303105E9F4B1
:1059100077FF1AC06DE20E94E52B8C0144275527C2
:10592000BA014C195D096E097F092AE0CE010E9477
:10593000122C800F911FDF91CF911F910F91FF903B
:10594000EF90DF90CF9008952AE0B701A601CE0135
:10595000DF91CF911F910F91FF90EF90DF90CF904B
:105960000C94122C9A01AB01770F660B770B0C94F9
:10597000682C0F931F93CF93DF93EC010E94682C48
:105980008C01CE010E94EC2B800F911FDF91CF91F3
:105990001F910F9108952115310541F4DC01ED911E
:1059A000FC910190F081E02D642F09940C94122C4D
:1059B0009A01462F50E060E070E00C94CB2C0F93DE
:1059C0001F93CF93DF93EC019A01462F50E060E0E4
:1059D00070E00E94CB2C8C01CE010E94EC2B800F3A
:1059E000911FDF91CF911F910F9108954F925F9278
:1059F0006F927F928F929F92AF92BF92CF92DF92DF
:105A0000EF92FF92CF93DF93EC016A017B01B22EFC
:105A10009A01AB01C701B6010E946035882319F0D5
:105A200063E372E027C026013701E89477F82FEF8F
:105A30003FEF4FE75FE7C301B2010E94603581117C
:105A40000DC02FEF3FEF4FE75FE7C301B2010E94A8
:105A5000963218161CF467E372E00CC02FEF3FEF8C
:105A60004FE75FE4C701B6010E94943418169CF416
:105A70006BE372E0CE01DF91CF91FF90EF90DF906A
:105A8000CF90BF90AF909F908F907F906F905F90DE
:105A90004F900C94CE2B2FEF3FEF4FE75FECC701F9
:105AA000B6010E94963287FDE3CF20E030E0A901E5
:105AB000C701B6010E94963287FF0AC06DE2CE018F
:105AC0000E94E52B4C01F7FAF094F7F8F09402C02D
:105AD000812C912CA12C60E070E080E09FE3AB145E
