:100000000C944E070C9476070C9476070C947607A4
:100010000C9476070C9476070C9476070C94AA0738
:100020000C9476070C9476070C94F4300C94C02F43
:100030000C9476070C9476070C9476070C9476074C
:100040000C9476070C9476070C9476070C9476073C
:100050000C9476070C9476070C9476070C9477280A
:100060000C9476070C9476070C9476070C9476071C
:100070000C9476070C9476070C9476070C9476070C
:100080000C9476070C9476070C9476070C947607FC
:100090000C9449170C9476070C9476070C94760709
:1000A0000C9476070C9476070C9476078629892998
:1000B00078297C298229AA29AA29AA298D29912966
:1000C00095299B299F29AA29A529036EDB363D9AEC
:1000D0009999993DABAAAA2A3E000000803F084AA0
:1000E000D73B3BCE016E84BCBFFDC12F3D6C74314C
:1000F0009ABD56833DDA3D00C77F11BED9E4BB4CA3
:100100003E916BAAAABE000000803F072C7AA5BAD8
:100110006CC590DA3B9365FC8BBC53F810FD3C56E4
:1001200092834DBD879D3AB63DCBC9BF5BBE73DAA6
:100130000FC93F05A84CCDB2D44EB93836A9020C30
:1001400050B9918688083CA6AAAA2ABE0000008061
:100150003F000000700000000024000000020003C7
:10016000000000650054FFEF0000FA80000B1282CF
:100170000001030C30C30E8C8CE914D540021371BE
:100180000F8E3883F8833000F883258EF883300093
:10019000F883FFFFFFFF0FFEA9D6240004001A8298
:1001A00079A10000003CFFFF000000100000388330
:1001B0006FA2003E03304000000002CAE3093E8007
:1001C000000020000000000000004000000060006F
:1001D0000000000C0000000C186E000006920A16C9
:1001E000C0DFFFFF0256FD8CD377FFE1C496E0C568
:1001F000BEAA00000000FFFF0B2B000016570000F6
:1002000003594000000000001DFA00026C1D0000B0
:1002100000003FFFDFEB003EB3B6000D2278000088
:100220002F3C00000000001942B5000039A2000078
:10023000B365D90E9FC91DCF4C343000000050006B
:1002400000003BB67AE80064000000C8000000002F
:100250000000100000001000FA921000225E000D55
:10026000229F0001000000320000FF46000063D41E
:1002700000001000000004D6000004CC000004CCF4
:1002800000000000107200000040000000000000AC
:1002900000000006000200050007000000000064E6
:1002A00000000000000000000005000500640020C0
:1002B00000000000000000000000000040000000FE
:1002C000030000000032F8980000FF650000830F73
:1002D0000000FF9BFC000000000000000000000088
:1002E000000000000000000000000000000000000E
:1002F00000000000000000000000000000000000FE
:10030000100040000000000000060000B26A000279
:1003100000000001FB830068000000D9FC007CF1B4
:10032000FF830000000000650000006403E8006433
:100330000028000000250000000016A000000000BA
:10034000100000001000002F0000000001F4000069
:10035000100000280000FFFF4581FFFFFA72000037
:10036000000000000000004400050005BAC6004778
:1003700078A200000001000000000000060000005C
:1003800000140000254D002F706D000005AE000C1C
:1003900002D000000000000000000000000000008B
:1003A0000000001B00000000000000000000000032
:1003B00000000064000000080000000000000000D1
:1003C000000000000000000000000000000000002D
:1003D000000000000000000000000000000000001D
:1003E000000000000000000000000000000000000D
:1003F00000000000000000000000000000000000FD
:1004000000000000000000000000000000000000EC
:100410000000001B00000000000000000000000EB3
:10042000000E00000AC70004000000000032FFFFB9
:10043000FF9C00000B2B00000002000000010000E8
:100440000064FFE500000000000000000000000064
:10045000000000000001000000000001000000009A
:1004600000000001800000018000000180000024E5
:1004700026D30000000000000000000600100096D7
:10048000003C000000000000000000000000000030
:1004900000000C0A4E68CDCF770950166759C6196F
:1004A000CE820000000000000000000000000000FC
:1004B0000000000000000000000017D784000300C7
:1004C00000000000000000000000C7938F9D1E1B6D
:1004D0001C190000000000000000000000000000E7
:1004E000000000000000000000000203188500006A
:1004F00040000000000300000003000000000000B6
:1005000000004000000000000000000000000000AB
:1005100000000000000000000000000000000000DB
:1005200000000000000000000000000000000000CB
:10053000000000000000677DDF7E72902E554CF6B3
:10054000E68800000000000000000000000000003D
:100550000000D8DCB4B8B0D8B9ABF3F8FAB3B7BB85
:100560008E9EAEF132F51BF1B4B8B08097F1A9DFE1
:10057000DFDFAADFDFDFF2AAC5CDC7A90CC92C9740
:10058000F1A989264666B28999A92D557DB0B08A10
:10059000A896365676F1BAA3B4B280C0B8A897111F
:1005A000B28398BAA3F0240844106418B2B9B4987E
:1005B00083F1A329557DBAB5B1A38393F0002850E8
:1005C000F5B2B6AA839328547CF1B9A3829361BA99
:1005D000A2DADEDFDB819AB9AEF5606870F1DABAD3
:1005E000A2DFD9BAA2FAB9A38292DB31BAA2D9BAF0
:1005F000A2F8DF85A4D0C1BBAD83C2C5C7B8A2DF56
:10060000DFDFBAA0DFDFDFD8D8F1B8AAB38DB498A6
:100610000D355DB2B6BAAF8C96198F9FA70E161E18
:10062000B49AB8AA872C547CBAA4B08AB691325630
:1006300076B28494A4C808CDD8B8B4B0F19982A891
:100640002D557D98A80E161EA22C547C92A4F02C39
:100650005078F184A898C4CDFCD80DDBA8FC2DF30C
:10066000D9BAA6F8DABAA6DED8BAB2B68696A6D0B5
:10067000F3C841DAA6C8F8D8B0B4B882A892F52C6D
:10068000548898F135D9F418D8F1A2D0F8F9A88493
:10069000D9C7DFF8F883C5DADF69DF83C1D8F40191
:1006A00014F1A8824EA884F311D182F5D99228972B
:1006B00088F109F41C1CD884A8F3C0F9D1D9978219
:1006C000F129F40DD8F3F9F9D1D982F4C203D8DEB7
:1006D000DF1AD8F1A2FAF9A88498D9C7DFF8F8F898
:1006E00083C7DADF69DFF883C3D8F40114F198A86F
:1006F000822EA884F311D182F5D992509788F109FE
:10070000F41CD884A8F3C0F8F9D1D99782F149F440
:100710000DD8F3F9F9D1D982F4C403D8DEDFD8F1CA
:10072000AD8898CCA809F9D98292A8F57CF1883ACD
:10073000CF944A6E98DB6931DAADF2DEF9D887954D
:10074000A8F221D1DAA5F9F417D9F1AE8ED0C0C341
:10075000AE82C684C3A88595C8A588F2C0F1F4010D
:100760000EF18E9EA8C63E56F554F18872F401151E
:10077000F19845856EF58E9E0488F142985A8E9EBA
:10078000068869F4011CF1981E1108D0F504F11EC9
:10079000970202983625DBF9D985A5F3C1DA85A53C
:1007A000F3DFD88595A8F309DAA5FAD88292A8F5DF
:1007B00078F1881A849F26889821DAF41DF3D88767
:1007C0009F39D1AFD9DFDFFBF9F40CF3D8FAD0F8B9
:1007D000DAF9F9D0DFD9F9D8F40BD8F3879F39D1FA
:1007E000AFD9DFDFF41DF3D8FAFCA869F9F9AFD06F
:1007F000DADEFAD9F88F9FA8F1CCF398DB45D9AFB0
:10080000DFD0F8D8F18F9FA8CAF38809DAAF8FCB71
:10081000F8D8F2AD978D0CD9A5DFF9BAA6F3FAF4A2
:1008200012F2D8950DD1D9BAA6F3FADAA5F2C1BA67
:10083000A6F3DFD8F1BAB2B68696A6D0CAF349DAE3
:10084000A6CBF8D8B0B4B8D8AD84F2C0DFF18FCB66
:10085000C3A8B2B68696C8C1CBC3F3B0B48898A873
:1008600021DB718D9D71859521D9ADF2FAD88597DF
:10087000A828D9F408D8F28D29DAF405D9F285A48C
:10088000C2F2D8A88D9401D1D9F411F2D88721D819
:10089000F40AD8F28498A8C801D1D9F411D8F3A4E5
:1008A000C8BBAFD0F2DEF8F8F8F8F8F8F8F8D8F1ED
:1008B000B8F6B5B9B08A95A3DE3CA3D9F8D85CA345
:1008C000D9F8D87CA3D9F8D8F8F9D1A5D9DFDAFAC4
:1008D000D8B18530F7D9DED8F830ADDADED8F2B449
:1008E0008C99A32D557DA083DFDFDFB591A0F6297C
:1008F000D9FBD8A0FC29D9FAD8A0D051D9F8D8FC76
:1009000051D9F9D879D9FBD8A0D0FC79D9FAD8A196
:10091000F9F9F9F9F9A0DADFDFDFD8A1F8F8F8F88A
:10092000F8ACDEF8ADDE8393AC2C547CF1A8DFDFAD
:10093000DFF69D2CDAA0DFD9FADB2DF8D8A850DA43
:10094000A0D0DED9D0F8F8F8DB55F8D8A878DAA02E
:10095000D0DFD9D0FAF8F8F8F8DB7DF8D89CA88C6D
:10096000F530DB38D9D0DEDFA0D0DEDFD8A848DB19
:1009700058D9DFD0DEA0DFD0DED8A868DB70D9DFA1
:10098000DFA0DFDFD8F1A888902C547C98A8D05C39
:1009900038D1DAF2AE8CDFF9D8B087A8C1C1B188FE
:1009A000A8C6F9F9DA36D8A8F9DA36D8A8F9DA36C5
:1009B000D8A8F9DA36D8A8F9DA36D8F78D9DADF887
:1009C00018DAF2AEDFD8F7ADFA30D9A4DEF9D8F2F2
:1009D000AEDEFAF983A7D9C3C5C7F1889BA77AAD64
:1009E000F7DEDFA4F8849408A797F300AEF2981915
:1009F000A488C6A39488F632DFF28393DB09D9F288
:100A0000AADFD8D8AEF8F9D1DAF3A4DEA7F1889B33
:100A10007AD8F38494AE19F9DAAAF1DFD8A881C0A4
:100A2000C3C5C7A39283F628ADDED9F8D8A350ADCD
:100A3000D9F8D8A378ADD9F8D8F8F9D1A1DADEC3BE
:100A4000C5C7D8A18194F818F2B089ACC3C5C7F165
:100A5000D8B8B4B09786A8319B069907AB97288879
:100A60009BF00C201440B0B4B8F0A88A9A285078B3
:100A7000B79BA8295179247059446938644831F1E9
:100A8000BBAB88002C547CF0B38BB8A804285078FA
:100A9000F1B088B49726A85998BBABB38B02264611
:100AA00066B0B8F08A9CA82951798B2951798A249B
:100AB00070598B2058718A4469388B3940688A6430
:100AC00048318B30496088F1AC002C547CF08CA804
:100AD00004285078F1889726A85998AC8C022646AD
:100AE00066F0899CA8295179247059446938644872
:100AF00031A98809205970AB11384069A8193148CB
:100B0000608CA83C415C207C00F187981986A86E17
:100B1000767EA999882D557DD8B1B5B9A3DFDFDFE1
:100B2000AED0DFAAD0DEF2ABF8F9D9B087C4AAF113
:100B3000DFDFBBAFDFDFB9D8B1F1A3978E60DFB0E5
:100B400084F2C8F8F9D9DED89385F14AB183A308B5
:100B5000B5839A0810B79F10D8F1B0BAAEB08AC268
:100B6000B2B68E9EF1FBD9F41DD8F9D90CF1D8F8A4
:100B7000F8AD61D9AEFBD8F40CF1D8F8F8AD19D9BD
:100B8000AEFBDFD8F416F1D8F8AD8D61D9F4F4AC32
:100B9000F59C9C8DDF2BBAB6AEFAF8F40BD8F1AE0B
:100BA000D0F8AD51DAAEFAF8F1D8B9B1B6A3839C5A
:100BB00008B9B1839AB5AAC0FD3083B79F10B58B31
:100BC00093F20202D1ABDADED8F1B080BAABC0C387
:100BD000B284C1C3D8B1B9F38BA391B609B4D9AB70
:100BE000DEB0879CB9A3DDF1B38B8B8B8B8BB08789
:100BF000A3A3A3A3B28BB69BF2A3A3A3A3A3A3A374
:100C0000A3A3A3F1B087B59AA3F39BA3A3DCBAACCB
:100C1000DFB9A3A3A3A3A3A3A3A3A3A3A3A3A3A352
:100C2000A3A3D8D8D8BBB3B7F1AAF9DAFFD9809A71
:100C3000AA28B48098A720B79787A86688F079512A
:100C4000F1902C870CA781976293F0717160859465
:100C50000129517990A5F1284C6C870C951885785D
:100C6000A38390284C6C886CD8F3A28200F210A861
:100C7000921980A2F2D926D8F188A84DD948D896E1
:100C8000A83980D93CD89580A839A68698D92CDA7D
:100C900087A72CD8A8899519A980D938D8A88939C7
:100CA000A980DA3CD8A82EA83990D90CD8A89531BB
:100CB00098D90CD8A809D9FFD801DAFFD89539A955
:100CC000DA26FFD890A80D8999A810809821DA2EED
:100CD000D88999A83180DA2ED8A886963180DA2E64
:100CE000D8A8873180DA2ED8A88292F34180F1D932
:100CF0002ED8A882F31980F1D92ED882ACF3C0A2E5
:100D00008022F1A62EA72EA92298A829DAACDEFF10
:100D1000D8A2F22AF1A92E8292A8F23180A696F1E9
:100D2000D900AC8C9C0C30ACDED0DEFFD88C9CACF7
:100D3000D010ACDE8092A2F24C82A8F1CAF235F15A
:100D40009688A6D900D8F1FF0000000200090F0024
:100D500000030401000C000000000000000000007F
:100D60000000000000000408020110408040102034
:100D70004080408008020401804020100201108061
:100D8000102040400404040404030405020202028B
:100D90000403020202020606060606060404020214
:100DA0000204000000002300260029002C002F0070
:100DB00000000000250028002B002E00310000005C
:100DC0000000240027002A002D003000080B00023C
:100DD00002020100090400000102020000052400D3
:100DE0001001052401010104240206052406000166
:100DF0000705810310004009040100020A000000F9
:100E000007050202400000070583024000000904B4
:100E1000020001030000000921010100012222005B
:100E20000705840340000105010904A101850109AA
:100E300001A100050109300931093216008026FFA1
:100E40007F751095038182C0C000C18081C11201ED
:100E5000000202000040412336800001010200012F
:100E6000120100020000004041233680000101020F
:100E7000000141726475696E6F204C4C430045441B
:100E8000547261636B6572204544547261636B6593
:100E900072320004030904006716062B11241FBEDA
:100EA000CFEFDAE0DEBFCDBF12E0A0E0B1E0EEE6CA
:100EB000FBE602C005900D92A834B107D9F724E0F3
:100EC000A8E4B2E001C01D92A233B207E1F71EE030
:100ED000CCE9DEE004C02297FE010E947435C839D7
:100EE000D107C9F70E9469310C94B5350C94000004
:100EF0001F93CF93DF93EC01162F472FBC016F5F39
:100F00007F4F85E093E00E949215412FBE0185E05E
:100F100093E0DF91CF911F910C9492151F93CF9383
:100F2000DF93EC01BC016F5F7F4F85E093E00E948F
:100F30008F15182FBE0185E093E00E948F15212F99
:100F400030E0322F2227A901482BCA01DF91CF912F
:100F50001F9108951F920F920FB60F9211248F9335
:100F600081E0809352028F910F900FBE0F901F90DF
:100F7000189583E093E00E94C91F84E690E00E94E8
:100F80000F1C89E70E94841E88E70E94151C88ECCC
:100F900090E00E94191E0E943E23E0910001F0E0C3
:100FA000E954FE4F808190E00E94482380ED90E05C
:100FB0000E94552688EC90E00C94F523EAE6F0E0D8
:100FC000808180638083EE9A81E00C944C22409172
:100FD000EA025091EB026091EC027091ED02809177
:100FE000F2029091F302A091F402B091F5028417FD
:100FF0009507A607B70738F561E08091E9028111EE
:1010000060E06093E90281E10E94E42920910101FE
:101010008091EA029091EB02A091EC02B091ED0276
:10102000222329F08C599F4FAF4FBF4F04C08C50E3
:101030009E4FAF4FBF4F8093F2029093F302A09365
:10104000F402B093F5020895CF92DF92EF92FF92EF
:101050006B017C0120E030E040E057E40E9437342F
:10106000181654F420E030E040E857E4C701B60118
:101070000E947D316B017C0120E030E040E057ECC4
:10108000C701B6010E945B3287FF0AC020E030E052
:1010900040E857E4C701B6010E947E316B017C0134
:1010A000C701B601FF90EF90DF90CF900895CF92E7
:1010B000DF92EF92FF9280910403882331F064E77E
:1010C00071E088ED93E00E94CB2B10926C0210929D
:1010D0006B021092D9021092DA021092DB02109287
:1010E000DC021092DD021092DE021092DF021092FA
:1010F000E0021092E1021092E2021092E3021092DA
:10110000E4021092E5021092E6021092E7021092B9
:10111000E8021092030110926D02C0907502D09007
:101120007602E0907702F090780220E030EC4AED11
:1011300056E4C701B6010E943734181654F020E077
:1011400030EC4AED56ECC701B6010E945B3287FFD6
:1011500003C081E080936D02FF90EF90DF90CF900D
:101160000895809102038823E9F06FE170E085E043
:1011700093E00E948F15682F70E080E090E00E945D
:10118000FB3220E030E040E85EE30E9442346093AE
:10119000F6027093F7028093F8029093F90260E2EE
:1011A00070E01CC06DE170E085E093E00E948F1557
:1011B000682F70E080E090E00E94FB3220E030E099
:1011C00040E85EE30E9442346093F6027093F702B7
:1011D0008093F8029093F9026EE170E085E093E06D
:1011E0000E948F15682F70E080E090E00E94FB3233
:1011F00020E030E040E85EE30E9442346093FA026F
:101200007093FB028093FC029093FD028091FA029E
:101210009091FB02A091FC02B091FD028093FE022E
:101220009093FF02A0930003B0930103089580916F
:10123000020320E030E040E850E4882339F1609177
:10124000F6027091F7028091F8029091F9020E94E3
:1012500042340E94CA32462F6FE170E085E093E08D
:101260000E94921520E030E040E850E46091FA02DC
:101270007091FB028091FC029091FD020E94423429
:101280000E94CA32462F60E270E026C06091F602EA
:101290007091F7028091F8029091F9020E94423415
:1012A0000E94CA32462F6DE170E085E093E00E9413
:1012B000921520E030E040E850E46091FA0270912D
:1012C000FB028091FC029091FD020E9442340E9438
:1012D000CA32462F6EE170E085E093E00E949215DD
:1012E0008091FA029091FB02A091FC02B091FD0264
:1012F0008093FE029093FF02A0930003B09301033A
:1013000020E03EEF4FEF56E460910401709105013B
:1013100080910601909107010E9442340E94CA32D6
:101320008AE190E00C9478076CE771E088ED93E037
:101330000E94AE2B63EA71E088ED93E00C94CB2B16
:101340000E945708109251021092500281E080933F
:10135000010108956DE771E088ED93E00C94AE2BE8
:101360000F931F93CF93DF938C01C3E0D0E0F8017C
:10137000619171918F014AE050E088ED93E00E9405
:10138000802C0E94AA09219791F7DF91CF911F919C
:101390000F910895CF93C62F682F88ED93E00E9498
:1013A000B02B0E94AA094AE050E06C2F88ED93E030
:1013B000CF910C94AE2C6FE771E088ED93E00E9422
:1013C000AE2B4AE050E06091020388ED93E00E946A
:1013D000A72C0E94AA094091F6025091F702609151
:1013E000F8027091F90222E030E088ED93E00E946B
:1013F000B02D0E94AA094091FA025091FB0260911F
:10140000FC027091FD0222E030E088ED93E00E9442
:10141000B02D0E94AA0940910401509105016091EC
:1014200006017091070122E030E088ED93E00C9412
:10143000B22D0F931F93CF93DF938C0162E871E07D
:1014400088ED93E00E94AE2BE80100E010E0699186
:10145000799177FF02C06D5F7F4F759567957595A0
:1014600067954AE050E088ED93E00E94802C0E944E
:10147000AA090F5F1F4F0330110549F76EE771E0AE
:1014800088ED93E0DF91CF911F910F910C94CB2BBE
:10149000CF93DF9365E871E088ED93E00E94AE2B77
:1014A000CDECD2E0499159916991799126E030E0F3
:1014B00088ED93E00E94B02D0E94AA0982E0C93D08
:1014C000D80781F7C9EAD2E0499159916991799198
:1014D0002DE030E088ED93E00E94B02D0E94AA0933
:1014E00082E0CD3CD80781F76EE771E088ED93E0AC
:1014F000DF91CF910C94CB2B0F931F93CF93DF935E
:101500000DEC12E0C8E2D0E0CE010E948E07BC01D3
:10151000882777FD8095982F0E94FD3220E030E0EB
:1015200040E85CE30E944234F80161937193819337
:1015300091938F012296CE32D10531F705E812E062
:10154000C2E3D0E0CE010E948E07BC01882777FD60
:101550008095982F0E94FD3220E030E040E059E372
:101560000E944234F80161937193819391938F01AA
:101570002296C635D10531F7DF91CF911F910F919A
:10158000089569E170E085E093E00E948F1569E1BC
:1015900070E085E093E00E948F15843038F469E1B3
:1015A00070E085E093E00E948F1501C083E0809396
:1015B00000016CE170E085E093E00E948F1580935C
:1015C00002030E94B1088AE190E00E948E07BC01EC
:1015D000882777FD8095982F0E94FD3220E03EEF0E
:1015E0004FEF56E40E94623260930401709305014C
:1015F0008093060190930701089540E052EC61E06A
:1016000070E088ED93E00E94002B62E08AE00E9487
:10161000AB2961E081E10E94AB2961E082E00E9498
:10162000E42960E082E00E94E4290E94C10A0E944D
:101630007C0A86E093E00E942D168CE08093B8002F
:10164000589859980E94B9070C94DE07CF92DF9200
:10165000EF92FF920F931F93CF93DF9388ED93E068
:101660000E946D2A181619060CF04FC188ED93E000
:101670000E947D2A833409F063C076EFE72E72E082
:10168000F72E88ED93E00E947D2A6C0188ED93E0AF
:101690000E947D2AD82F80E0C82FBE016C297D29A9
:1016A000882777FD8095982F0E94FD3220E030E05A
:1016B00040E85BE30E944234F701619371938193A8
:1016C00091937F01FEEFEF16F2E0FF06D1F688ED71
:1016D00093E00E947D2A7C0188ED93E00E947D2AA0
:1016E000182F00E0B8016E297F29882777FD8095A3
:1016F000982F0E94FD3220E03EEF4FEF56E40E940B
:101700006232609304017093050180930601909307
:10171000070168E871E088ED93E00E94AE2B4091EC
:10172000040150910501609106017091070122E0CA
:1017300030E088ED93E00E94B22D0E94170932C07C
:10174000833569F4109204036BE871E088ED93E04F
:101750000E94CB2B88EC90E00E94F5237FCF883449
:1017600071F480910101882319F06DE871E002C0E5
:101770006FE871E088ED93E00E94CB2B6FCF843748
:10178000A1F481E090910203911180E08093020323
:101790000E94B108409102036CE170E085E093E0A3
:1017A0000E9492150E94DB0959CF8635A1F461E9A8
:1017B00071E088ED93E00E94CB2B0E9494090E9477
:1017C000DB0981E08093040384E690E00E94F52326
:1017D0000E94480A43CF893461F40E9494090E9410
:1017E000DB090E94480A609100018FE40E94CA0947
:1017F00035CF803519F580E00E944C2280910001A0
:1018000090E001968370992780930001FC01E954D0
:10181000FE4F808190E00E94482381E00E944C228C
:10182000609100018FE40E94CA094091000169E1C2
:1018300070E085E093E00E94921510CF823519F494
:101840000E9457080BCF823719F40E94A00906CFD7
:10185000873569F588ED93E00E947D2A6C01E12CC3
:10186000F12CDD24EC14FD0474F488ED93E00E9467
:101870007D2A482FB70185E093E00E9492158FEFF3
:10188000E81AF80AEFCF0E94C10A0E947C0A80E0A1
:101890000E944C22E0910001F0E0E954FE4F80816B
:1018A00090E00E94482381E00E944C22D7CE8432EF
:1018B00009F0D4CE68E2E62EF12C88ED93E00E9488
:1018C0007D2A482FB70185E093E00E949215EFEF43
:1018D000EE1AFE0AFEE2EF16F10479F752E3E52E66
:1018E000F12C88ED93E00E947D2A482FB70185E016
:1018F00093E00E9492158FEFE81AF80AE6E5EE16DB
:10190000F10479F70E947C0AA9CEDF91CF911F9153
:101910000F91FF90EF90DF90CF9008952F923F921C
:101920004F925F926F927F928F929F92AF92BF92EF
:10193000CF92DF92EF92FF920F931F93CF93DF939B
:10194000CDB7DEB7C556D1090FB6F894DEBF0FBECE
:10195000CDBF809152028823E1F30E94C128609399
:10196000EA027093EB028093EC029093ED0281E027
:1019700090E0A0E0B0E023968CAF9DAFAEAFBFAFDC
:1019800023979E012B5B3F4F79018E010D5B1F4F0B
:1019900026503109AE014F5F5F4FBE01615D7F4F41
:1019A000CE01C5960E94742726968FAD2697811189
:1019B00002C01092520223968CAD9DADAEADBFAD6C
:1019C0002397892B8A2B8B2B11F00C9475156D8521
:1019D0007E858F8598890E94FD3220E030E040E8C6
:1019E00050E30E9442342B013C0169857A858B8546
:1019F0009C850E94FD3220E030E040E850E30E94E8
:101A000042342A966CAF7DAF8EAF9FAF2A976D811F
:101A10007E818F8198850E94FD3220E030E040E891
:101A200050E30E9442342E966CAF7DAF8EAF9FAFD5
:101A30002E9769817A818B819C810E94FD3220E002
:101A400030E040E850E30E9442346B017C019B018E
:101A5000AC010E9442346A966CAF7DAF8EAF9FAFEF
:101A60006A972E962CAD3DAD4EAD5FAD2E97CA0157
:101A7000B9010E9442346E966CAF7DAF8EAF9FAFBE
:101A80006E972A962CAD3DAD4EAD5FAD2A97CA013B
:101A9000B9010E944234A2966CAF7DAF8EAF9FAF6A
:101AA000A297A3019201C301B2010E944234A696FB
:101AB0006CAF7DAF8EAF9FAFA6976E962CAD3DAD50
:101AC0004EAD5FAD6E976A966CAD7DAD8EAD9FAD40
:101AD0006A970E947D31A2962CAD3DAD4EAD5FADB3
:101AE000A2970E947D31A6962CAD3DAD4EAD5FAD67
:101AF000A6970E947E314B015C01A30192012A96B8
:101B00006CAD7DAD8EAD9FAD2A970E94423462963A
:101B10006CAF7DAF8EAF9FAF62972E962CAD3DAD73
:101B20004EAD5FAD2E97C701B6010E9442349B01B6
:101B3000AC0162966CAD7DAD8EAD9FAD62970E949B
:101B40007E319B01AC010E947E31A50194010E946F
:101B5000083262966CAF7DAF8EAF9FAF62976DA378
:101B60007EA38FA398A7A30192012E966CAD7DADA5
:101B70008EAD9FAD2E970E9442344B015C012A9698
:101B80002CAD3DAD4EAD5FAD2A97C701B6010E94A9
:101B900042349B01AC01C501B4010E947D319B011F
:101BA000AC010E947E310E94E23166966CAF7DAF3F
:101BB0008EAF9FAF669769A37AA38BA39CA36E9603
:101BC0002CAD3DAD4EAD5FAD6E976A966CAD7DAD03
:101BD0008EAD9FAD6A970E947E31A2962CAD3DAD31
:101BE0004EAD5FADA2970E947D31A6962CAD3DAD66
:101BF0004EAD5FADA6970E947D314B015C012A96E8
:101C00002CAD3DAD4EAD5FAD2A972E966CAD7DAD42
:101C10008EAD9FAD2E970E9442342A966CAF7DAF59
:101C20008EAF9FAF2A97A3019201C701B6010E9410
:101C300042349B01AC012A966CAD7DAD8EAD9FAD5B
:101C40002A970E947E319B01AC010E947E31A50142
:101C500094010E9408329B01AC0150582A962CAF87
:101C60003DAF4EAF5FAF2A972D8F3E8F4F8F58A35A
:101C7000CE0189960E949422182F811126C380914B
:101C80000403882321F0CE0189960E94190A69A5D0
:101C90007AA5882777FD8095982F0E94FD3220E055
:101CA00030E040E85EE30E9442342091CD02309162
:101CB000CE024091CF025091D0020E947D314B0163
:101CC0005C016BA57CA5882777FD8095982F0E94E5
:101CD000FD3220E030E040E85EE30E944234209193
:101CE000D1023091D2024091D3025091D4020E948D
:101CF0007D316B017C016DA57EA5882777FD8095E0
:101D0000982F0E94FD3220E030E040E85EE30E9420
:101D100042342091D5023091D6024091D7025091A1
:101D2000D8020E947D312E966CAF7DAF8EAF9FAFF3
:101D30002E972091910230919202409193025091FE
:101D40009402C501B4010E9442342B013C01209150
:101D50009502309196024091970250919802C701E6
:101D6000B6010E9442349B01AC01C301B2010E9442
:101D70007E312B013C012091990230919A024091D1
:101D80009B0250919C022E966CAD7DAD8EAD9FADA9
:101D90002E970E9442349B01AC01C301B2010E9404
:101DA0007E316E966CAF7DAF8EAF9FAF6E972091F8
:101DB0009D0230919E0240919F025091A002C50168
:101DC000B4010E9442342B013C012091A1023091C8
:101DD000A2024091A3025091A402C701B6010E9441
:101DE00042349B01AC01C301B2010E947E312B0140
:101DF0003C012091A5023091A6024091A70250918A
:101E0000A8022E966CAD7DAD8EAD9FAD2E970E9433
:101E100042349B01AC01C301B2010E947E312B010F
:101E20003C0162966CAD7DAD8EAD9FAD62970E9418
:101E30005F32A2966CAF7DAF8EAF9FAFA2976296D6
:101E40006CAD7DAD8EAD9FAD629790580E94A5346C
:101E500062966CAF7DAF8EAF9FAF629766966CADAA
:101E60007DAD8EAD9FAD66970E94A5346A966CAF2E
:101E70007DAF8EAF9FAF6A9766966CAD7DAD8EAD30
:101E80009FAD66970E945F3266966CAF7DAF8EAF56
:101E90009FAF66972091850230918602409187021C
:101EA00050918802C501B4010E9442344B015C018B
:101EB0002091890230918A0240918B0250918C02CC
:101EC000C701B6010E9442349B01AC01C501B401B7
:101ED0000E947E316B017C0120918D0230918E0237
:101EE00040918F02509190022E966CAD7DAD8EADDB
:101EF0009FAD2E970E9442349B01AC01C701B601F1
:101F00000E947E31A2962CAD3DAD4EAD5FADA29745
:101F10000E9442346B017C0162962CAD3DAD4EAD0A
:101F20005FAD62976E966CAD7DAD8EAD9FAD6E97D9
:101F30000E9442346A962CAD3DAD4EAD5FAD6A97BE
:101F40000E9442349B01AC01C701B6010E947E3160
:101F50006B017C0162962CAD3DAD4EAD5FAD6297DD
:101F6000C301B2010E94423466962CAD3DAD4EAD28
:101F70005FAD66970E9442349B01AC01C701B60178
:101F80000E947E316B017C016A962CAD3DAD4EAD59
:101F90005FAD6A97C301B2010E9442344B015C01FC
:101FA00066962CAD3DAD4EAD5FAD66976E966CAD51
:101FB0007DAD8EAD9FAD6E970E9442349B01AC010A
:101FC000C501B4010E947D319058A70196010E947D
:101FD00008322DE338EF42E256EC0E9442340E9470
:101FE0002408609375027093760280937702909331
:101FF000780260937D0270937E0280937F029093BB
:10200000800220910301222391F02091E50230917A
:10201000E6024091E7025091E8020E947D31609310
:102020007D0270937E0280937F0290938002809164
:102030006D028823B1F020E030E040E057E4609189
:102040007D0270917E0280917F02909180020E94B9
:102050007E3160937D0270937E0280937F02909325
:10206000800260917D0270917E0280917F0290914A
:1020700080020E94240860937D0270937E02809308
:102080007F029093800280910101882309F430C17E
:102090000E94E7070E94260B809150029091510206
:1020A0000097E9F510925F021092600210926102AF
:1020B0001092620210925302109254021092550232
:1020C00010925602109263021092640210926502FE
:1020D0001092660210925702109258021092590202
:1020E00010925A02109267021092680210926902CE
:1020F00010926A0210925B0210925C0210925D02D2
:1021000010925E0283E592E00E94ED2281E090E071
:10211000909351028093500284EF91E099C08130F6
:10212000910509F09AC080914E0290914F02892B3F
:1021300009F067C060915F02709160028091610256
:1021400090916202F6E0CF2EDD24DA94ED2CFD2C86
:10215000A70196010E9453352093530230935402F5
:10216000409355025093560260916302709164024D
:102170008091650290916602A70196010E945335F5
:1021800020935702309358024093590250935A02B9
:1021900060916702709168028091690290916A0271
:1021A000A70196010E94533520935B0230935C0295
:1021B00040935D0250935E0210928102109282025F
:1021C000109283021092840283E592E00E94ED2235
:1021D00082E090E0909351028093500210924F025F
:1021E00010924E022A968CAD9DADAEADBFAD2A9732
:1021F0008093710290937202A0937302B093740261
:1022000022C07E0195E3E90EF11C2FE532E08E013C
:10221000055C1F4FD7014D915D917D01662757FDEC
:102220006095762FF90180819181A281B381840F1D
:10223000951FA61FB71F81939193A193B1939F01FF
:10224000E016F10639F780914E0290914F02019706
:1022500090934F0280934E0248C4029709F048C001
:1022600080914E0290914F028C3D954041F5209116
:1022700071023091720240917302509174022A9659
:102280006CAD7DAD8EAD9FAD2A970E947D3125E46A
:1022900031E14BE852E40E94423460938102709332
:1022A00082028093830290938402109201010E9423
:1022B00057086FE871E088ED93E00E94CB2B809186
:1022C0004E0290914F020196C3CF63E971E088ED11
:1022D00093E00E94AE2B4AE050E0612F88ED93E03E
:1022E0000E94A72C6EE971E088ED93E00E94CB2B51
:1022F0002DE338EF42E256E46D8D7E8D8F8D98A1EF
:102300000E9442346D8F7E8F8F8F98A32DE338EF1C
:1023100042E256E469A17AA18BA19CA10E944234B9
:1023200069A37AA38BA39CA32DE338EF42E256E482
:102330006DA17EA18FA198A50E9442346DA37EA3BA
:102340008FA398A780910301811195C0C0906B0263
:10235000D0906C028091020190E0C816D9060CF072
:1023600043C08E01035E1F4FE9EDEE2EE2E0FE2E2C
:102370005E0129E2A20EB11CD8012D913D914D9133
:102380005D918D01F70160817181828193810E944D
:102390007E31D7016D937D938D939D937D010A15B9
:1023A0001B0551F720917D0230917E0240917F0202
:1023B000509180026091E5027091E6028091E702FF
:1023C0009091E8020E947E316093E5027093E602EC
:1023D0008093E7029093E802BFEFCB1ADB0AD0921A
:1023E0006C02C0926B0281C381E08093030109ED0E
:1023F00012E0EE24D7FCE094FE2CC701B6010E9447
:10240000FD329B01AC01F801608171818281938171
:102410000E946232D8016D937D938D939D938D01BF
:10242000B2E0093E1B0749F780916D028823B1F0A5
:1024300020E030E040E057E46091E5027091E60270
:102440008091E7029091E8020E947D316093E5025D
:102450007093E6028093E7029093E80210926D0277
:1024600084E68093020180910403882309F43DC32C
:102470000E9494093AC309ED12E04E01EDE18E0E7F
:10248000911C7401D8012D913D914D915D918D016B
:10249000F70160817181828193810E947D31D70132
:1024A0006D937D938D939D937D01B2E0053E1B0757
:1024B00049F7CD8CDE8CEF8CF8A020E030E040E0D6
:1024C00057ECC701B6010E945B3287FF0CC020E0C9
:1024D00030E040E857E4C701B6010E947E316D8FBD
:1024E0007E8F8F8F98A3CD8CDE8CEF8CF8A020E0B0
:1024F00030E040E057E4C701B6010E9437341816B7
:1025000064F420E030E040E857E4C701B6010E94DF
:102510007D316D8F7E8F8F8F98A3E0910203279678
:10252000EFAF279706EF12E034019E012F5E3F4F79
:10253000590127963FAD27973323E9F1D301CD9079
:10254000DD90ED90FC9027E831E040E059E3C701D1
:10255000B6010E944234A70196010E944234F8015C
:1025600020813181428153810E9442340E94CA32CB
:102570000E94FD321B012C0120E030E0A901C701BF
:10258000B6010E943734A701960118160CF0505876
:10259000C701B6010E9462329B01AC01C201B101C8
:1025A0000E9442340E94CA32D5016D937D938D936F
:1025B0009C93139713C0F80120813181428153818C
:1025C000D3016D917D918D919C910E9442340E9426
:1025D000CA32F5016083718382839383F4E0AF0E86
:1025E000B11C24E0620E711C0C5F1F4FA814B904CB
:1025F00009F09FCFFE01719680819181A281B38104
:10260000811530E89307A105B10524F08FEF9FE70E
:10261000A0E0B0E0813040E894074FEFA407B40792
:1026200024F481E090E8AFEFBFEF81939193A19301
:10263000B193E815F90501F789889A88AB88BC88B9
:10264000D501C401805D9A48AF4FBF4FC0900401CF
:10265000D0900501E0900601F090070181369A4E76
:10266000A105B10528F0909249028092480230C03D
:102670006091480270914902882777FD8095982FD4
:102680000E94FD32A70196010E9442342B013C01B9
:10269000C501B4010E94FD324B015C01A701960106
:1026A00060E070E080E89FE30E947D319B01AC0117
:1026B000C501B4010E9442349B01AC01C301B201C7
:1026C0000E947E310E94CA32709349026093480290
:1026D000A701960160E070E080E89FE30E947D31F1
:1026E0004B015C0160914A0270914B02882777FD93
:1026F0008095982F0E94FD32A70196010E944234D6
:102700002B013C016D897E898F89988D0E94FD3255
:10271000A50194010E9442349B01AC01C301B201A6
:102720000E947E310E94CA3270934B0260934A022B
:1027300060914C0270914D02882777FD8095982F0B
:102740000E94FD32A70196010E9442346B017C0178
:10275000698D7A8D8B8D9C8D0E94FD32A50194012F
:102760000E9442349B01AC01C701B6010E947E3138
:102770000E94CA3270934D0260934C0268E472E08A
:1027800088E294E00E94732B8AE00E941A2A892B27
:1027900011F40E94570880910403882391F16091FD
:1027A0004802709149024AE050E088ED93E00E94AF
:1027B000802C0E94AA0960914A0270914B024AE063
:1027C00050E088ED93E00E94802C0E94AA0960915D
:1027D0004C0270914D024AE050E088ED93E00E9477
:1027E000802C0E94AA09CE018F960E94B009CE01CA
:1027F000C5960E94B0096EE771E088ED93E00E94F3
:10280000CB2B4091EA025091EB026091EC02709167
:10281000ED028091EE029091EF02A091F002B09152
:10282000F10284179507A607B70708F082C00E9437
:10283000E7072091810230918202409183025091FA
:1028400084026091D9027091DA028091DB0290914A
:10285000DC020E947E316B017C0120E030E040E828
:1028600057E40E94373418164CF420E030E040E87A
:1028700057E4C701B6010E947D311BC020E030E063
:1028800040E857ECC701B6010E945B3287FD09C0E2
:10289000C092D902D092DA02E092DB02F092DC021E
:1028A00010C020E030E040E857E4C701B6010E94C4
:1028B0007E316093D9027093DA028093DB029093A9
:1028C000DC028091EA029091EB02A091EC02B091BF
:1028D000ED028C599F4FAF4FBF4F8093EE02909304
:1028E000EF02A093F002B093F1028D8D9E8DAF8D1B
:1028F000B8A18093710290937202A0937302B09377
:102900007402809104038823A1F0CE01CB960E942B
:10291000D31960EA71E088ED93E00E94AE2B4BADD5
:102920005CAD6DAD7EAD2AE030E088ED93E00E94B5
:10293000882CC9A0DAA0EBA0FCA020E030E84BEB8B
:1029400055E4C701B6010E945B3287FFCCC020E08E
:1029500030E84BEB55ECC701B6010E94373418162E
:102960000CF0C1C060917D0270917E0280917F0267
:10297000909180026093790270937A0280937B0237
:1029800090937C022D8D3E8D4F8D58A10E947D31FC
:102990006B017C0120E030E040E057E40E943734D6
:1029A00018164CF4A701960160E070E080E897E407
:1029B0000E947D3112C020E03EEF4FEF56ECC70180
:1029C000B6010E945B3287FF0AC020E030E040E899
:1029D00057E4C701B6010E947E316B017C0120E003
:1029E00030E0A901C701B6010E943734909170020E
:1029F0001816A4F4992351F080916E0290916F0201
:102A0000019790936F0280936E0204C010926F0240
:102A100010926E0281E08093700212C091110AC080
:102A200080916E0290916F02019690936F02809355
:102A30006E0204C010926F0210926E021092700229
:102A400000916E0210916F02C80117FF04C0882721
:102A50009927801B910B089FB001099F700D189F4B
:102A6000700D1124882777FD8095982F0E94FD32E4
:102A700026EA3BE944E45CE30E9442349B01AC015A
:102A80006091D9027091DA028091DB029091DC02B0
:102A90000E947E316093D9027093DA028093DB0248
:102AA0009093DC02B801882777FD8095982F0E94CB
:102AB000FD322CEA35EC47E257E30E9442349B0199
:102AC000AC016091810270918202809183029091A9
:102AD00084020E947E31609381027093820280930F
:102AE0008302909384020E94260BCB59DF4F0FB6CE
:102AF000F894DEBF0FBECDBFDF91CF911F910F9134
:102B0000FF90EF90DF90CF90BF90AF909F908F900D
:102B10007F906F905F904F903F902F900895CB01E2
:102B20000C949F35CB01642F0C94A735809136030C
:102B300090E020913703821B91090895209137037B
:102B400080913603281750F4E22FF0E0E85CFC4F48
:102B5000808190E02F5F2093370308958FEF9FEFE0
:102B60000895E091370380913603E81730F4F0E0E0
:102B7000E85CFC4F808190E008958FEF9FEF08950F
:102B80000895CF92DF92EF92FF920F931F93CF930E
:102B9000DF937C01CB018A0120911203222389F06B
:102BA000EB016B01C40ED51ECC15DD0569F06991F2
:102BB000D701ED91FC910190F081E02DC7010995BD
:102BC000F3CF642F0E942017C801DF91CF911F918E
:102BD0000F91FF90EF90DF90CF900895CF93DF9308
:102BE0001F92CDB7DEB76983209112032223D1F063
:102BF00020911303203240F021E030E0FC013383C8
:102C0000228380E090E015C080911403E82FF0E06B
:102C1000EB5EFC4F998190838F5F809314038093C8
:102C2000130305C061E0CE0101960E94201781E0E8
:102C300090E00F90DF91CF910895FC0113821282F2
:102C400048EE53E060E070E0448355836683778309
:102C500081EC91E091838083089510923703109264
:102C6000360310921403109213030C946B16862FE4
:102C7000413208F040E268E373E00E948916109246
:102C8000370380933603089521E00C94371681E0D2
:102C90008093120360933503109214031092130370
:102CA00008950F93062F21E04091130365E173E02F
:102CB000809135030E94CD161092140310921303D5
:102CC000109212030F91089561E00C94511686E062
:102CD00093E00C941D161092C50381E08093C3030A
:102CE0001092C20361E082E00E94E42961E083E087
:102CF0000E94E429E9EBF0E080818E7F808380816F
:102D00008D7F808388E48093B80085E48093BC0045
:102D10000895413208F03FC09091C5039111FCCF56
:102D200091E09093C5032093C3032FEF20935803A2
:102D300010929D03240F20939C039093C4039091C1
:102D4000C403880F892B8093C4038091C203813010
:102D500041F41092C2038091C4038093BB0085ECC0
:102D600001C085EE8093BC008091C5038130E1F302
:102D700080919D03841710F440919D032EE933E068
:102D8000FB01D9018A2F821B841718F48D9181933E
:102D9000F9CF842F089580E008950F93413208F011
:102DA00046C09091C5039111FCCF92E09093C5036A
:102DB0000093C3039FEF9093580310929D03409399
:102DC0009C03FB016EE973E0DB019A2F961B9417BD
:102DD00018F491919D93F9CF1092C4039091C4037C
:102DE000880F892B8093C4038091C203813041F402
:102DF0001092C2038091C4038093BB0085EC01C094
:102E000085EE8093BC00222321F08091C50382309F
:102E1000E1F3809158038F3F61F080915803803235
:102E200051F080915803803341F483E007C081E082
:102E300005C080E003C082E001C084E00F910895E6
:102E4000613298F42091C503243089F460937A03A9
:102E5000FC018CE793E0DC012A2F281B261718F4CD
:102E600021912D93F9CF80E0089581E0089582E0CB
:102E7000089585ED8093BC008091BC0084FDFCCF5B
:102E80001092C503089585EC8093BC001092C50391
:102E900008951F920F920FB60F9211242F933F9314
:102EA0004F935F936F937F938F939F93AF93BF9352
:102EB000EF93FF938091B900887F803609F49CC01E
:102EC00068F5883209F45BC090F4803109F454C08D
:102ED00038F4882309F4F5C0883009F44DC0F5C0F2
:102EE000883109F44CC0803209F45DC0EEC08034F2
:102EF00009F468C048F4803309F455C0883309F0F8
:102F0000E4C080935803A8C0803509F44FC08835C9
:102F100009F45DC0883409F0D8C0D5C0883909F4F7
:102F2000C6C0A8F4883709F467C038F4883609F4B5
:102F300063C0803709F460C0C8C0883809F4B7C0DE
:102F4000803909F45FC0803809F0BFC05BC0803BA6
:102F500009F485C038F4803A09F466C0883A09F467
:102F60007EC0B3C0803C09F4A6C0883C09F4A3C06D
:102F7000883B09F489C0A9C08091C40310C0909116
:102F80009D0380919C03981770F5E0919D0381E06B
:102F90008E0F80939D03F0E0E256FC4F808180937A
:102FA000BB0085EC85C0809358038DC0E0919D03E4
:102FB00081E08E0F80939D038091BB00F0E0E2568C
:102FC000FC4F808390919D0380919C036DC0E091A4
:102FD0009D0381E08E0F80939D038091BB00F0E004
:102FE000E256FC4F80838091C30381116CC081E065
:102FF0008093C20384EA60C083E08093C50310928B
:103000005903CFCF80915903803208F050C0E0912E
:10301000590381E08E0F809359038091BB00F0E04B
:10302000E65AFC4F8083BDCF80915903803230F443
:10303000E0915903F0E0E65AFC4F10820E943917E4
:103040006091590370E0E091BE03F091BF038AE5FF
:1030500093E00995109259030E94431736C084E00B
:103060008093C50310927B0310927A03E091C00312
:10307000F091C103099580917A03811105C081E027
:1030800080937A0310927C03E0917B0381E08E0FA2
:1030900080937B03F0E0E458FC4F80818093BB0079
:1030A00090917B0380917A03981708F47ACF85E892
:1030B0008093BC000AC085EC8093BC001092C503CD
:1030C00004C0109258030E943917FF91EF91BF91ED
:1030D000AF919F918F917F916F915F914F913F91B0
:1030E0002F910F900FBE0F901F901895EF92FF92A7
:1030F0000F931F93CF93DF9300D0CDB7DEB7062F8A
:10310000142F682F86E093E029833A830E944716A4
:10311000602F86E093E00E94EE152981022FE22EB7
:103120003A81F32E8E2D801B811740F4F7016191B7
:103130007F0186E093E00E94EE15F4CF86E093E0F5
:103140000E94641691E0811190E0892F0F900F90FA
:10315000DF91CF911F910F91FF90EF9008953F92D3
:103160004F925F926F927F928F929F92AF92BF9297
:10317000CF92DF92EF92FF920F931F93CF93DF9343
:1031800000D000D000D0CDB7DEB7682E562E742EFA
:103190003A8329830E94C1286B017C01312C412C88
:1031A000872D90E09C838B834801A12CB12C371490
:1031B000B0F5662D86E093E00E944716652D86E007
:1031C00093E00E94EE1586E093E00E946416662D5F
:1031D00086E093E00E9447164B815C8143195109B8
:1031E0004132510514F040E250E0662D86E093E054
:1031F0000E94441686E093E00E949615892B59F1AF
:103200000115110579F10E94C1286C197D098E09FB
:103210009F09681579058A059B0520F11CC00115D9
:10322000110589F10E94C1286C197D098E099F0939
:1032300020E030E0601771078207930720F1872DA7
:1032400090E0242D332727FD309528173907DCF42B
:1032500044244A9418C0872D90E2971508F480E220
:10326000380EA5CFE981FA81E40DF11D47FCFA95EE
:10327000FE83ED8386E093E00E949E15ED81FE8142
:1032800080834394B7CF842D26960FB6F894DEBF83
:103290000FBECDBFDF91CF911F910F91FF90EF90A7
:1032A000DF90CF90BF90AF909F908F907F906F9066
:1032B0005F904F903F900895CF93DF931F92CDB7CB
:1032C000DEB790912701992321F0882379F082E0DD
:1032D0000BC090911001992309F1882339F0809156
:1032E000160181111EC081E0898301C01982A0915D
:1032F0000A01B0910B01E0910C01F0910D019E01CA
:103300002F5F3F4F41E051966C9180810E94582879
:10331000009721F429812093160105C08FEF9FEFBC
:1033200002C080E090E00F90DF91CF910895CF939D
:10333000DF931F92CDB7DEB7BC018091130190914E
:1033400014018617970710F48FEF29C065367105B1
:10335000D8F70E94093561506983A0910A01B091A4
:103360000B01E0910C01F0910D019E012F5F3F4F89
:1033700041E094966C9180810E945828892B21F716
:10338000698170E06F5F7F4F80911301909114010C
:103390000E94093570932C0160932B0180E00F90FF
:1033A000DF91CF9108950F931F93CF93DF9300D0B8
:1033B000CDB7DEB78C0180911001811102C08FEF73
:1033C00039C0A0910A01B0910B01E0910C01F0917C
:1033D0000D019E012F5F3F4F42E050966C9180811E
:1033E0000E946228892B59F7698170E0762F662741
:1033F0008A81682B882777FD8095982F0E94FD325F
:1034000020E030E04AEA53E40E94623228EB3EE1D9
:1034100042E152E40E947E3120E030E040E857E48F
:103420000E9442340E94CA32F80160837183828311
:10343000938380E00F900F90DF91CF911F910F91B8
:103440000895CF93DF931F92CDB7DEB7809110011F
:10345000882309F408C11982A0910A01B0910B01D7
:10346000E0910C01F0910D019E012F5F3F4F41E073
:1034700051966C9180810E945828892B09F0F3C0E5
:10348000A0910A01B0910B01E0910C01F0910D01A6
:103490009E012F5F3F4F41E015966C9180810E9405
:1034A0005828892B09F0DFC0A0910A01B0910B01C7
:1034B000E0910C01F0910D019E012F5F3F4F41E023
:1034C00014966C9180810E945828892B09F0CBC0FA
:1034D00080912701A0910A01B0910B01E0910C01AC
:1034E000F0910D01882309F459C08CE089839E0175
:1034F0002F5F3F4F41E014966C9180810E945828C5
:10350000892B09F0B0C062E370E080E090E00E9497
:10351000F02880EC89838091100180FF02C080EE4A
:103520008983A0910A01B0910B01E0910C01F09107
:103530000D019E012F5F3F4F41E014966C918081F9
:103540000E945828892B09F08EC08091160188238B
:1035500019F082E0898301C01982A0910A01B0911B
:103560000B01E0910C01F0910D019E012F5F3F4F87
:1035700041E051966C9180810E945828892B09F076
:1035800072C01982A0910A01B0910B01E0910C0167
:10359000F0910D019E012F5F3F4F58C084E0898359
:1035A0009E012F5F3F4F41E014966C9180810E94F5
:1035B0005828892B09F057C080911701811104C048
:1035C0008091100180FD02C080E401C080E6898303
:1035D000A0910A01B0910B01E0910C01F0910D0155
:1035E0009E012F5F3F4F41E014966C9180810E94B5
:1035F0005828892BC1F562E370E080E090E00E94DA
:10360000F02880911601882319F081E0898301C098
:103610001982A0910A01B0910B01E0910C01F09187
:103620000D019E012F5F3F4F41E051966C918081CB
:103630000E945828892BB9F4A0910A01B0910B017E
:10364000E0910C01F0910D0125E131E041E015968A
:103650006C9180810E94582821E0892B09F420E098
:10366000822F819501C08FEF0F90DF91CF91089548
:10367000CF93DF931F92CDB7DEB7209110012223A5
:10368000A1F1843F21E0920749F0883E23E09207B0
:1036900039F08A3F910531F4198206C088E003C0F1
:1036A00080E101C088E18983898186958695869528
:1036B00090910E019817C9F0A0910A01B0910B01E9
:1036C000E0910C01F0910D019E012F5F3F4F41E011
:1036D00016966C9180810E945828892B31F489813B
:1036E00086958695869580930E010F90DF91CF91F8
:1036F0000895FC0180910F01813039F020F0823073
:1037000031F488E005C082E003C084E001C080E1BC
:10371000808380911801882319F08081880F80832D
:103720000895CF93DF931F92CDB7DEB7909110012C
:10373000992379F1843031F0883031F0823031F4DE
:10374000198206C088E003C080E101C088E1898356
:10375000898186958695869590910F019817C9F075
:10376000A0910A01B0910B01E0910C01F0910D01C3
:103770009E012F5F3F4F41E017966C9180810E9420
:103780005828892B31F48981869586958695809372
:103790000F010F90DF91CF910895CF93DF931F9288
:1037A000CDB7DEB7209110012223A9F18C3B910502
:1037B00010F081E014C08236910510F082E00FC055
:1037C0008A32910510F083E00AC08431910510F02F
:1037D00084E005C00A9710F085E001C086E0898387
:1037E0009091110189819817B1F0A0910A01B091CF
:1037F0000B01E0910C01F0910D019E012F5F3F4FF5
:1038000041E012966C9180810E945828892B19F40E
:103810008981809311010F90DF91CF9108950097D6
:1038200011F00C9497198FEF0895CF93DF93909137
:103830002701911121C0909110019923E9F0C82F1F
:10384000CE7FD09115019C2390931501C11104C026
:1038500080911901882331F081E00E945C19CC230A
:1038600059F005C080E0DF91CF910C945C190E9463
:10387000211A8111D0931501DF91CF910895AF9254
:10388000BF92CF92DF92EF92FF920F931F93CF934D
:10389000DF9300D0CDB7DEB77C015B016A01809178
:1038A0002701882309F463C080911001882309F45B
:1038B00060C0A0910A01B0910B01E0910C01F09160
:1038C0000D019E012F5F3F4F42E01C966C9180815D
:1038D0000E946228892B11F082E04CC0098110E01F
:1038E000102F00278A81082B0E151F0520F4F601E2
:1038F000108285E03FC0E0910C01F0910D018181C3
:1039000092819695879580179107B0F4A0910A014E
:10391000B0910B019E012F5F3F4F41E053966C9198
:1039200080810E946228892BB9F6898184FF04C0B6
:103930000E94211A83E01EC0A0910A01B0910B01E0
:10394000E0910C01F0910D0195014E2D1D966C91A9
:1039500080810E946228892B09F0BECFC801B7017F
:103960000E9409356150F601608380E003C081E068
:1039700001C084E00F900F90DF91CF911F910F91C4
:10398000FF90EF90DF90CF90BF90AF9008951F937E
:10399000CF93DF931F92CDB7DEB7182F8091170119
:1039A000811709F487C0A0910A01B0910B01E09141
:1039B0000C01F0910D019E012F5F3F4F41E01496E5
:1039C0006C918081112351F10E946228892B11F0A2
:1039D0008FEF71C089818F7D8983A0910A01B09199
:1039E0000B01E0910C01F0910D019E012F5F3F4F03
:1039F00041E014966C9180810E945828892B41F7F0
:103A000063E070E080E090E00E94F02882E089832B
:103A100080912501882389F182E82CC00E946228C8
:103A2000892BB1F690911001898190FF02C08062CC
:103A300001C08F7D8983A0910A01B0910B01E091B3
:103A40000C01F0910D019E012F5F3F4F41E0149654
:103A50006C9180810E945828892B09F0B9CF63E0CE
:103A600070E080E090E00E94F0288091250188239A
:103A700019F080E8898301C019828091260188238A
:103A800019F0898180638983A0910A01B0910B01AB
:103A9000E0910C01F0910D019E012F5F3F4F41E03D
:103AA00057966C9180810E945828892B09F090CFFD
:103AB0001093170180E00F90DF91CF911F9108952F
:103AC0001F93CF93DF931F92CDB7DEB7182F80914E
:103AD0002601811749F1112319F080E3898301C080
:103AE000198280911701882319F089818260898366
:103AF00080912501882319F0898180688983A091AC
:103B00000A01B0910B01E0910C01F0910D019E01B1
:103B10002F5F3F4F41E057966C9180810E9458285B
:103B2000892B21F41093260180E001C08FEF0F90C4
:103B3000DF91CF911F9108951F93CF93DF9300D012
:103B4000CDB7DEB7182F893208F04AC081111CC0EA
:103B500080E00E94601D198287E08A83A0910A019B
:103B6000B0910B01E0910C01F0910D019E012F5FCE
:103B70003F4F42E055966C9180810E945828892BD6
:103B800079F5109219014EC081E00E94601D11303C
:103B900011F482E011C0123011F483E00DC0163030
:103BA00010F484E009C01B3010F485E005C0153125
:103BB00010F486E001C087E08983A0910A01B091EA
:103BC0000B01E0910C01F0910D019E012F5F3F4F21
:103BD00041E019966C9180810E945828892B11F040
:103BE0008FEF21C080E28983A0910A01B0910B017F
:103BF000E0910C01F0910D019E012F5F3F4F41E0DC
:103C000055966C9180810E945828892B49F788E04D
:103C1000809310011092120181E08093190180E0DD
:103C20000E94151C80E00F900F90DF91CF911F91A3
:103C300008950F931F93CF93DF931F92CDB7DEB7F5
:103C40008C0180911001882309F458C080912701CC
:103C5000811154C080911901882359F0C80101973E
:103C6000889720F4802F0E949C1D48C080E00E940D
:103C70009C1D0430110540F0B801093E83E018078F
:103C800028F068EE73E002C064E070E008EE13E034
:103C9000C8010E94093561506983A0910A01B09161
:103CA0000B01E0910C01F0910D019E012F5F3F4F40
:103CB00041E011966C9180810E945828892BF1F483
:103CC000698170E06F5F7F4FC8010E941D3570935E
:103CD00014016093130180912B0190912C01853682
:103CE000910510F084E690E00E940F1C8091130172
:103CF00090911401969587950E94CD1B0F90DF91AE
:103D0000CF911F910F9108951F93CF93DF9300D010
:103D1000CDB7DEB7182F807711F081E005C01123F1
:103D200011F01A8202C080E48A83A0910A01B09146
:103D30000B01E0910C01F0910D019E012E5F3F4FB0
:103D400041E055966C9180810E945828892B61F53D
:103D50008A818F7B8093120116FF02C01A8202C0F3
:103D600084E08A8315FD03C08A8182608A8314FD02
:103D700003C08A8181608A8313FD03C08A818863BE
:103D80008A83A0910A01B0910B01E0910C01F0919E
:103D90000D019E012E5F3F4F41E056966C91808150
:103DA0000E945828892B19F0109210015EC0812FB3
:103DB000877F19F080E00E94601DA0910A01B091F8
:103DC0000B01E0910C01F0910D019E012F5F3F4F1F
:103DD00041E014966C9180810E946228892B09F041
:103DE00044C0898110FF04C091E19A83806203C0BE
:103DF00090E19A838F7D898390912701898199230E
:103E000011F0806801C08F778983A0910A01B09179
:103E10000B01E0910C01F0910D019E012E5F3F4FCF
:103E200041E096966C9180810E945828892BE9F494
:103E3000A0910A01B0910B01E0910C01F0910D01EC
:103E40009E012F5F3F4F41E014966C9180810E944C
:103E50005828892B51F4109310011092190162E334
:103E600070E080E090E00E94F0280F900F90DF91CA
:103E7000CF911F910895EF92FF920F931F93CF93CD
:103E8000DF9300D0CDB7DEB78B017A014115510524
:103E900081F120911001222361F199838A83E091BD
:103EA0000C01F0910D019B01280F311D808591853A
:103EB00082179307F0F0A0910A01B0910B019E01C7
:103EC0002F5F3F4F42E05B966C9180810E945828A3
:103ED000892B79F4A0910A01B0910B01E0910C01BA
:103EE000F0910D019701402F58966C9180810E94AE
:103EF00058280F900F90DF91CF911F910F91FF9055
:103F0000EF900895EF92FF920F931F93CF93DF935B
:103F100000D0CDB7DEB78B017A014115510581F193
:103F200020911001222361F199838A83E0910C0191
:103F3000F0910D019B01280F311D8085918582171D
:103F40009307F0F0A0910A01B0910B019E012F5F41
:103F50003F4F42E05B966C9180810E945828892BEC
:103F600079F4A0910A01B0910B01E0910C01F0915C
:103F70000D019701402F58966C9180810E94622814
:103F80000F900F90DF91CF911F910F91FF90EF90C5
:103F900008950F931F93CF93DF93CDB7DEB72B9781
:103FA0000FB6F894DEBF0FBECDBF1FEFDC011C9330
:103FB00080E88983A0910A01B0910B01E0910C0186
:103FC000F0910D019E012F5F3F4F41E055966C919E
:103FD00080810E945828892B09F0C5C164E670E0F1
:103FE00080E090E00E94F0281982A0910A01B0912F
:103FF0000B01E0910C01F0910D019E012F5F3F4FED
:1040000041E055966C9180810E945828892B09F0D7
:10401000AAC1AE01455F5F4F61E070E087E190E0CB
:104020000E94821F0B85013009F09DC1109218017A
:1040300088E48983A0910A01B0910B01E0910C0101
:10404000F0910D019E012F5F3F4F41E018966C915A
:1040500080810E945828892B09F085C11093100196
:1040600010930E0110930F01109311018FEF9FEF2A
:10407000909314018093130110931501109317016D
:1040800090932C0180932B01009312010093250142
:104090001092260110921A01109219018AE0EBE1A8
:1040A000F1E0DF011D928A95E9F710922701109245
:1040B000280110922A011092290180ED97E00E94B8
:1040C000381B82E00E94911B84E690E00E94191E3A
:1040D0008AE290E00E94CD1B80E00E94151C81E0E6
:1040E0000E94C71C1CE09E01295F3F4F41E060E039
:1040F000812F0E946228892B19F48F81883421F046
:104100001F5F103181F721C010932D0100E10F8353
:104110009E01295F3F4F41E06AE0812F0E945828AD
:10412000892B99F461E070E080E090E00E94F02833
:104130008FE18F839E01295F3F4F41E06AE08091CC
:104140002D010E945828892B49F08AE090E00E94B6
:104150009719811108C10E94841E05C161E070E0B9
:1041600080E090E00E94F0289E01295F3F4F43E0ED
:1041700060E180912D010E946228892B31F78F81A7
:1041800090E080589F4F90932F0180932E01888557
:1041900090E080589F4F9093310180933001898542
:1041A00090E080589F4F90933301809332010F83AA
:1041B0009E01295F3F4F41E06AE080912D010E94FE
:1041C0005828892B11F661E070E080E090E00E94B1
:1041D000F02880E00E94C71C80E48F83A0910A0130
:1041E000B0910B01E0910C01F0910D019E01295F4E
:1041F0003F4F41E05A966C9180810E945828892B4C
:1042000009F0A3CF80912D0180688F83A0910A01CE
:10421000B0910B01E0910C01F0910D019E01295F1D
:104220003F4F41E05E966C9180810E945828892B17
:1042300009F08BCF82E08F83A0910A01B0910B012E
:10424000E0910C01F0910D019E01295F3F4F41E08B
:104250005F966C9180810E945828892B09F075CF58
:1042600088E88F83A0910A01B0910B01E0910C01C5
:10427000F0910D019E01295F3F4F41E090966C91B6
:1042800080810E945828892B09F05FCF80912D01F1
:104290008F83A0910A01B0910B01E0910C01F09184
:1042A0000D019E01295F3F4F41E091966C91808105
:1042B0000E945828892B09F048CF8AE08F83A0916B
:1042C0000A01B0910B01E0910C01F0910D019E01EA
:1042D000295F3F4F41E092966C9180810E9458285F
:1042E000892B09F032CF81E88F83A0910A01B09128
:1042F0000B01E0910C01F0910D019E01295F3F4FF0
:1043000041E093966C9180810E945828892B09F096
:104310001CCF81E18F83A0910A01B0910B01E09144
:104320000C01F0910D019E01295F3F4F41E09696EF
:104330006C9180810E945828892B09F006CF83E078
:104340008F83A0910A01B0910B01E0910C01F091D3
:104350000D019E01295F3F4F41E097966C9180814E
:104360000E945828F2CE2B960FB6F894DEBF0FBEEF
:10437000CDBFDF91CF911F910F9108956F927F92E2
:104380008F929F92AF92BF92CF92DF92EF92FF9265
:104390000F931F93CF93DF93CDB7DEB7A2970FB6DE
:1043A000F894DEBF0FBECDBF6C015B01742E652E8D
:1043B00049018091280181115AC06115710509F4E4
:1043C00056C0E12CF12CEC14FD04A8F5C6018E19A1
:1043D0009F098131910510F080E190E095012E0D4B
:1043E0003F1DDE01119600E010E00817190741F0AB
:1043F000F901E00FF11FE491ED930F5F1F4FF5CF2F
:10440000AE014F5F5F4FB801C7010E943B1FAE0175
:104410004F5E5F4FB801C7010E94821FA801BE0115
:104420006F5E7F4FCE0101960E949235892BF9F481
:10443000E00EF11EC8CF69A27AA2A0910A01B09144
:104440000B01E0910C01F0910D019E012F5D3F4F9A
:1044500042E05D966C9180810E945828892B39F446
:1044600081E08093280190922A0180922901A296EE
:104470000FB6F894DEBF0FBECDBFDF91CF911F9175
:104480000F91FF90EF90DF90CF90BF90AF909F90F3
:104490008F907F906F900895CF93DF931F92CDB749
:1044A000DEB7909127019817D9F1882319F18091EF
:1044B00028018823A9F180E00E945C1980E00E9415
:1044C000C71C8091290190912A010E94191E19820E
:1044D000E0910C01F0910D019E012F5F3F4F41E0F3
:1044E00063E280810E94582881E0809327010E9426
:1044F0005C1914C080E00E945C19809115018983C9
:10450000E0910C01F0910D019E012F5F3F4F41E0C2
:1045100063E280810E945828109227010E94211A8C
:104520000F90DF91CF9108950F931F93CF93DF9357
:10453000CDB7DEB729970FB6F894DEBF0FBECDBF5B
:104540008C018091100180FF36C0A0910A01B091CA
:104550000B01E0910C01F0910D019E012F5F3F4F87
:1045600048E098966C9180810E946228892B29F5F9
:10457000898180FF24C081FD22C0888587FD21C0FC
:104580008B8190E0982F88272A81822BF8019183D4
:1045900080838D8190E0982F88272C81822B9383B4
:1045A00082838F8190E0982F88272E81822B95839C
:1045B000848380E007C081E005C084E003C087E019
:1045C00001C088E029960FB6F894DEBF0FBECDBFBC
:1045D000DF91CF911F910F910895FF920F931F9339
:1045E000CF93DF9300D0CDB7DEB78C01A3E1FA2ED5
:1045F000F80141915191619171918F0159834A83E1
:10460000E0910C01F0910D019E012F5F3F4F42E0C0
:104610006F2D80810E945828F394F394F9E1FF12E2
:10462000E7CF0F900F90DF91CF911F910F91FF90E7
:104630000895CF93DF93CDB7DEB729970FB6F894DF
:10464000DEBF0FBECDBF89E0E0E4F1E0DE011196F0
:1046500001900D928A95E1F7AE014F5F5F4F69E0DF
:1046600070E088EB94E00E943B1F29960FB6F89407
:10467000DEBF0FBECDBFDF91CF91089528EC30E0B3
:1046800040E054E062E571E086EF9BE00C94BE21CF
:104690000F931F93CF93DF93CDB7DEB72C970FB651
:1046A000F894DEBF0FBECDBF8C018CE48C838DEC03
:1046B0008D838CE68E838CE0898389EC8A838CE2FF
:1046C0008B83A80143705527E4E0F0E0EC0FFD1F59
:1046D000E40FF51F80818A87980183E0369527953E
:1046E0008A95E1F723703327E4E0F0E0EC0FFD1F3B
:1046F000E20FF31F80818B87C80166E0969587954E
:104700006A95E1F783709927E4E0F0E0EC0FFD1F74
:10471000E80FF91F60816C87E1E0F0E0EC0FFD1F0E
:10472000E40FF51F40814F83E1E0F0E0EC0FFD1F47
:10473000E20FF31F20812887E1E0F0E0EC0FFD1F7E
:10474000E80FF91F80818987AE01465F5F4F63E004
:1047500070E086E294E00E943B1FAE01495F5F4F2C
:1047600063E070E08AE294E00E943B1F86E38A8760
:1047700086E58B8786E78C8786E28F8386E4888749
:1047800086E6898702FF04C087E38A8787E28F83F2
:1047900005FF04C087E58B8787E4888710FF04C086
:1047A00087E78C8787E68987AE01465F5F4F63E0C6
:1047B00070E080E494E00E943B1FAE01495F5F4FD0
:1047C00063E070E081E394E00E943B1F1093C90313
:1047D0000093C8032C960FB6F894DEBF0FBECDBF72
:1047E000DF91CF911F910F9108950F931F93CF9356
:1047F000DF93CDB7DEB764970FB6F894DEBF0FBE78
:10480000CDBF8C018CE0E9E4F1E0DE01119601906E
:104810000D928A95E1F7093C1105F8F488EC90E0D7
:10482000B8010E940935615071097D876E87AE011C
:10483000435F5F4F62E070E086E192E00E943B1FC1
:10484000AE014F5F5F4F6CE070E081EC9AE00E9438
:104850003B1F1093CD030093CC0364960FB6F894DE
:10486000DEBF0FBECDBFDF91CF911F910F91089595
:10487000BF92CF92DF92EF92FF920F931F93CF934D
:10488000DF9300D000D01F92CDB7DEB7182F87700E
:1048900009F4ABC0613486E0780708F0A6C080E078
:1048A00090E00E94FB3220E030E048E453E40E94B4
:1048B00062326B017C01CE0105960E94791B8D81CD
:1048C000843059F1A0F4823009F08FC020E030E04C
:1048D00040E856E4C701B6010E9442340E94CF323C
:1048E000062FB72E20E030E040E456E437C0883091
:1048F00029F1803109F079C020E030E040E055E452
:10490000C701B6010E9442340E94CF32062FB72E53
:1049100020E030E040EC54E421C020E030E040E012
:1049200056E4C701B6010E9442340E94CF32062FDE
:10493000B72E20E030E040EC55E410C020E030E03D
:1049400040E855E4C701B6010E9442340E94CF32CC
:10495000062FB72E20E030E040E455E4C701B60151
:104960000E9442340E94CF32B9820A837B836C83D7
:1049700010FF12C0AE014F5F5F4F62E070E084ED48
:1049800091E00E943B1FAE014D5F5F4F62E070E01F
:1049900084E291E00E943B1F11FF12C0AE014F5F05
:1049A0005F4F62E070E088ED91E00E943B1FAE0136
:1049B0004D5F5F4F62E070E088E291E00E943B1F34
:1049C00012FF15C0AE014F5F5F4F62E070E08CEDEB
:1049D00091E00E943B1FAE014D5F5F4F62E070E0CF
:1049E0008CE291E00E943B1F02C08FEF01C080E08B
:1049F0000F900F900F900F900F90DF91CF911F911C
:104A00000F91FF90EF90DF90CF90BF900895CF93DC
:104A1000DF931F92CDB7DEB780FD02C0198202C0BE
:104A200090E3998381FF03C099819C60998382FF01
:104A300003C0898183608983AE014F5F5F4F61E06E
:104A400070E088E491E00E943B1F80E00F90DF91CE
:104A5000CF910895CF93DF931F92CDB7DEB7882310
:104A600021F0853018F084E001C081E08150898315
:104A7000AE014F5F5F4F61E070E08FE491E00E9414
:104A80003B1F80E00F90DF91CF910895CF93DF938C
:104A900000D0CDB7DEB765E070E00E9409357983BC
:104AA0006A83AE014F5F5F4F62E070E08EED91E090
:104AB0000E943B1F80E00F900F90DF91CF910895EF
:104AC000CF93DF9300D0CDB7DEB765E070E00E94F2
:104AD000093579836A83AE014F5F5F4F62E070E012
:104AE0008AED91E00E943B1F80E00F900F90DF91D4
:104AF000CF9108950F931F93CF93DF9300D000D0F1
:104B0000CDB7DEB78A0128EE33E040E050E00E94E6
:104B10005335D8010E94783599838A837B836C83CF
:104B2000AE014F5F5F4F64E070E08CE591E00E9462
:104B30003B1F80E00F900F900F900F90DF91CF916F
:104B40001F910F910895CF93DF9300D0CDB7DEB7BB
:104B500065E070E00E94093579836A83AE014F5F9A
:104B60005F4F62E070E08AE591E00E943B1F80E0C9
:104B70000F900F90DF91CF910895CF93DF9300D0E6
:104B8000CDB7DEB765E070E00E94093579836A83AE
:104B9000AE014F5F5F4F62E070E088E591E00E94F8
:104BA0003B1F80E00F900F90DF91CF910895CF933E
:104BB000DF93CDB7DEB729970FB6F894DEBF0FBEEF
:104BC000CDBF882319F00E94192312C089E0E5E5C2
:104BD000F1E0DE01119601900D928A95E1F7AE01A8
:104BE0004F5F5F4F69E070E088EB94E00E943B1FED
:104BF00029960FB6F894DEBF0FBECDBFDF91CF91DF
:104C00000895CF93DF9300D000D0CDB7DEB78823CF
:104C100049F080EC898382EC8A8384EC8B8386EC78
:104C20008C8307C08BE89BE8DC0189839A83AB8384
:104C3000BC83AE014F5F5F4F64E070E088E99AE0AB
:104C40000E943B1F0E94211A0F900F900F900F900F
:104C5000DF91CF910895CF93DF9300D000D0CDB7EF
:104C6000DEB7882349F080E2898388E28A8380E383
:104C70008B8388E38C8307C083EA93EADC01898312
:104C80009A83AB83BC83AE014F5F5F4F64E070E0FB
:104C90008EE99AE00E943B1F0E94211A0F900F900C
:104CA0000F900F90DF91CF910895AF92BF92CF9266
:104CB000DF92EF92FF920F931F93CF93DF93CDB7C5
:104CC000DEB72A970FB6F894DEBF0FBECDBF8C01BA
:104CD00082E089838AEC8A8383EE8B8389E08C83EC
:104CE000AE014F5F5F4F64E070E088E690E00E94A5
:104CF0003B1F83EA8983580190E4A922BB2406FF65
:104D000006C080EC8A8388EC8B8382EC02C08A83A5
:104D10008B838C83780180E8E82281E0F822E1141B
:104D2000F10431F084EC8D838CEC8E8386EC03C02F
:104D300083EA8D838E838F8383EA888789878A8736
:104D4000AE014F5F5F4F6AE070E087EA9AE00E9431
:104D50003B1F680193E0C922DD24C114D10411F086
:104D600080E201C088ED8983AE014F5F5F4F61E053
:104D700070E086EB9AE00E943B1F05FF03C00E9493
:104D8000192303C080E00E94D725E114F104D9F073
:104D900010FF08C082EB89838BE88A8386EB8B83C4
:104DA0008BE907C080EB898380E88A8384EB8B835F
:104DB00080E98C83AE014F5F5F4F64E070E082EA70
:104DC0009AE00E943B1F00FF2FC088EF8983AE014D
:104DD0004F5F5F4F61E070E080EB98E00E943B1F07
:104DE0006AEF70E087E00E94382487E00E94072580
:104DF00081E00E942A2584E690E00E94462584EF07
:104E000091E00E94602548EC50E069E073EE8AEC86
:104E100092E00E947A2588E290E00E94A3258AE031
:104E200090E00E94BD250BC088ED8983AE014F5FE5
:104E30005F4F61E070E080EB98E00E943B1F01FF54
:104E400002C089ED01C088ED8983AE014F5F5F4FDD
:104E500061E070E08DE397E00E943B1F02FF02C01B
:104E600081E001C080E00E94012604FF02C081E0D1
:104E700001C080E00E942B26C80188609093CB037C
:104E80008093CA030E94211AAB2819F41092CE0312
:104E900003C086E08093CE03EF2829F08091CE03F3
:104EA0008A5F8093CE0304711127012B29F0809132
:104EB000CE03805F8093CE03CD2829F08091CE036E
:104EC0008C5F8093CE032A960FB6F894DEBF0FBE98
:104ED000CDBFDF91CF911F910F91FF90EF90DF90A9
:104EE000CF90BF90AF9008954F925F926F927F9254
:104EF0008F929F92AF92BF92CF92DF92EF92FF92EA
:104F00000F931F93CF93DF93CDB7DEB7A0970FB664
:104F1000F894DEBF0FBECDBF5C014B013A016901C1
:104F2000A701D8011D921C928091CE03BE016F5F34
:104F30007F4F90E00E943F1C8111A3C08091CA0363
:104F40009091CB039C0124713327232B49F1FE015F
:104F5000349673019E012C5E3F4FAF0143505109BF
:104F6000DA016C914F5F5F4FDA014C90512C612C4C
:104F7000712C320155244424762A4081442AAF0101
:104F800041505109DA014C91542AD7014D925D925A
:104F90006D927D927D013496E217F307F1F602C01F
:104FA000712C02C020E1722E86FF22C0F40120E0A5
:104FB00030E061E070E06C0F7D1F670D711DDB015B
:104FC000A20FB31F4C9150E0542F44271196AC917F
:104FD0004A2B419351932E5F3F4F2630310579F78D
:104FE000B6E07B0EF8012081318128603183208377
:104FF0009C0120783170232B19F1F50120E030E07D
:1050000061E070E06C0F7D1F670D711DDB01A20F69
:10501000B31F4C9150E0542F44271196AC914A2B6A
:10502000419351932E5F3F4F2630310579F7F6E0DB
:105030007F0ED8012D913C91119720672D933C93C1
:1050400083709927892BC1F0E1E0F0E0EC0FFD1FA0
:10505000E70DF11D6381818180FF0EC0862F8F7364
:1050600086958695869567706F5FE091C603F0918F
:10507000C703309709F00995F60110821182128258
:105080001382A0960FB6F894DEBF0FBECDBFDF919E
:10509000CF911F910F91FF90EF90DF90CF90BF9035
:1050A000AF909F908F907F906F905F904F900895FA
:1050B0000E94761891E09827892F90E0919581952C
:1050C000910908950F931F93009108011091090110
:1050D0000E94AF1821E030E0882311F020E030E09A
:1050E00088279927821B930B1F910F9108951F9278
:1050F0000F920FB60F9211242F933F938F939F938C
:10510000AF93BF938091D0039091D103A091D2032C
:10511000B091D3033091CF0323E0230F2D3720F438
:105120000196A11DB11D05C026E8230F0296A11D01
:10513000B11D2093CF038093D0039093D103A0930C
:10514000D203B093D3038091D4039091D503A0915F
:10515000D603B091D7030196A11DB11D8093D4034E
:105160009093D503A093D603B093D703BF91AF918B
:105170009F918F913F912F910F900FBE0F901F9095
:1051800018952FB7F8946091D0037091D103809156
:10519000D2039091D3032FBF08953FB7F894809125
:1051A000D4039091D503A091D603B091D70326B52F
:1051B000A89B05C02F3F19F00196A11DB11D3FBF4F
:1051C0006627782F892F9A2F620F711D811D911DDF
:1051D00042E0660F771F881F991F4A95D1F70895FF
:1051E000CF92DF92EF92FF92CF93DF936B017C011E
:1051F0000E94CD28EB01C114D104E104F10489F02F
:105200000E947C310E94CD286C1B7D0B683E734050
:1052100090F381E0C81AD108E108F108C851DC4FC9
:10522000EACFDF91CF91FF90EF90DF90CF9008957C
:10523000789484B5826084BD84B5816084BD85B571
:10524000826085BD85B5816085BDEEE6F0E0808138
:1052500081608083E1E8F0E0108280818260808359
:10526000808181608083E0E8F0E0808181608083DC
:10527000E1E9F0E0808182608083808181608083C9
:10528000E0E9F0E0808181608083E1ECF0E0808102
:10529000846080838081826080838081816080835C
:1052A000E3ECF0E0808181608083E0ECF0E08081DD
:1052B00082608083E2ECF0E0808181608083EAE7B5
:1052C000F0E080818460808380818260808380813F
:1052D00081608083808180688083089590E0FC01F4
:1052E0003197EF30F105B0F5EA5AFF4F0C94723563
:1052F000809180008F7703C0809180008F7D8093A4
:105300008000089580918000877FF9CF84B58F77E2
:1053100002C084B58F7D84BD0895809190008F7701
:1053200007C0809190008F7D03C080919000877F9F
:105330008093900008958091C0008F7703C0809182
:10534000C0008F7D8093C00008958091C200877F48
:105350008093C2000895CF93DF9390E0FC01EA5957
:10536000F24F2491FC01EC57F24F8491882349F1CC
:1053700090E0880F991FFC01E254F24FA591B4917F
:105380008055924FFC01C591D4919FB7611108C01F
:10539000F8948C91209582238C93888182230AC073
:1053A000623051F4F8948C91322F309583238C9392
:1053B0008881822B888304C0F8948C91822B8C93F3
:1053C0009FBFDF91CF9108950F931F93CF93DF93EA
:1053D0001F92CDB7DEB7282F30E0F901E85BF24F1E
:1053E0008491F901EA59F24F1491F901EC57F24F07
:1053F00004910023C9F0882321F069830E946E295B
:105400006981E02FF0E0EE0FFF1FE055F24FA5910C
:10541000B4919FB7F8948C91611103C010958123CA
:1054200001C0812B8C939FBF0F90DF91CF911F9173
:105430000F910895CF93DF93282F30E0F901E85BB7
:10544000F24F8491F901EA59F24FD491F901EC57E6
:10545000F24FC491CC2391F081110E946E29EC2F60
:10546000F0E0EE0FFF1FEE55F24FA591B4912C9195
:105470002D2381E090E021F480E002C080E090E004
:10548000DF91CF910895CF93DF931F92CDB7DEB711
:105490006983DC01ED91FC910280F381E02D41E014
:1054A00050E0BE016F5F7F4F09950F90DF91CF9164
:1054B0000895CF93DF93EC018C859D8597FF05C000
:1054C00082E00E94952E9D878C878C859D85DF913B
:1054D000CF91089583E00C94EA30FC018485958592
:1054E00097FD06C082E00E943D2E90E0019608954F
:1054F00082E00E943D2E90E00895FC018485958510
:1055000097FD05C02FEF3FEF35872487089582E090
:105510000C94952ECF93DF93EC0180913D0188236D
:1055200031F083E00E94C62E1816190634F081E08F
:1055300090E09B838A8380E090E0DF91CF91089593
:10554000FC0120812E5F208342E450E06CEC7DE082
:1055500080E80C94612FFC0181819081913A59F48B
:10556000813209F03CC047E050E066E371E080E042
:105570000E94612F43C0913291F5803239F467E087
:1055800070E086E391E00E94922F06C0823209F01B
:1055900035C0828180933D01809136019091370121
:1055A000A0913801B0913901803B9440A105B1052B
:1055B000C1F480913D0180FD14C087E797E7909387
:1055C0000108809300082BE088E190E00FB6F89482
:1055D000A895809360000FBE209360000FC080E00C
:1055E000089588E10FB6F8948093600010926000EF
:1055F0000FBEA895109201081092000881E008954E
:105600002FEF3FEFFC013587248708951092DB03CD
:105610001092DA0388EE93E0A0E0B0E08093DC0320
:105620009093DD03A093DE03B093DF038EE292E05C
:105630009093D9038093D8038FEF9FEF9093E50366
:105640008093E4030895FC0120812F5F208349E1CA
:1056500050E06EE07EE080E80C94612F42E250E082
:1056600067E27EE080E80C94612FEF92FF920F9347
:105670001F93CF93DF931F92CDB7DEB789838B0142
:105680007A0141E050E0BE016F5F7F4F84E00E94ED
:10569000C62EA701B80184E40E94C62E0F90DF91A8
:1056A000CF911F910F91FF90EF900895FC01918190
:1056B0008081813A31F481E0913091F0933089F426
:1056C00011C0813271F49B3021F4828180933F01BB
:1056D00005C09A3031F4828180933E0181E00895C3
:1056E000089580E00895CF93DF9300D000D000D0DC
:1056F000CDB7DEB7FB01808191819A838983828156
:1057000093819C838B83848195819E838D8346E0E6
:1057100050E0BE016F5F7F4F81E00E94352B2696DF
:105720000FB6F894DEBF0FBECDBFDF91CF910895C5
:105730006115710581F0DB010D900020E9F7AD01E5
:1057400041505109461B570BDC01ED91FC91028041
:10575000F381E02D099480E090E008950C94982B5B
:10576000DC01ED91FC910190F081E02D09940F9303
:105770001F93CF93DF93EC016DE00E94B02B8C015F
:105780006AE0CE010E94B02B800F911FDF91CF9174
:105790001F910F9108950F931F93CF93DF93EC0107
:1057A0000E94982B8C01CE010E94B72B800F911F75
:1057B000DF91CF911F910F9108958F929F92AF9299
:1057C000BF92CF92DF92EF92FF920F931F93CF93EE
:1057D000DF93CDB7DEB7A1970FB6F894DEBF0FBE4B
:1057E000CDBF7C01C42EE52FCB01D22E19A221E022
:1057F0002D1510F02AE0D22E8E010F5D1F4F8D2C3B
:10580000912CA12CB12C6C2D7E2FA50194010E940E
:1058100031358C2DD29E80191124015011098A3006
:1058200014F4805D01C0895CF80180832115310585
:105830004105510521F0C22EE32FCA01E4CFB80182
:10584000C7010E94982BA1960FB6F894DEBF0FBE39
:10585000CDBFDF91CF911F910F91FF90EF90DF901F
:10586000CF90BF90AF909F908F900895CF92DF928E
:10587000EF92FF920F931F93CF93DF93EC016A0196
:105880007B012115310579F4E881F9810190F081DE
:10589000E02D642FDF91CF911F910F91FF90EF903A
:1058A000DF90CF9009942A303105E9F477FF1AC0D0
:1058B0006DE20E94B02B8C0144275527BA014C1988
:1058C0005D096E097F092AE0CE010E94DD2B800F61
:1058D000911FDF91CF911F910F91FF90EF90DF907B
:1058E000CF9008952AE0B701A601CE01DF91CF91B4
:1058F0001F910F91FF90EF90DF90CF900C94DD2BD4
:105900009A01AB01662757FD6095762F0C94362CD3
:105910000F931F93CF93DF93EC010E94362C8C01E1
:10592000CE010E94B72B800F911FDF91CF911F9165
:105930000F9108952115310541F4DC01ED91FC91A1
:105940000190F081E02D642F09940C94DD2B9A01D5
:10595000462F50E060E070E00C949A2C0F931F9358
:10596000CF93DF93EC019A01462F50E060E070E0A6
:105970000E949A2C8C01CE010E94B72B800F911FA0
:10598000DF91CF911F910F9108954F925F926F9287
:105990007F928F929F92AF92BF92CF92DF92EF92BF
:1059A000FF920F931F93CF93DF93EC016A017B016A
:1059B000B22E9A01AB01C701B6010E94F0348823D0
:1059C00019F06AE372E027C026013701E89477F8FE
:1059D0002FEF3FEF4FE75FE7C301B2010E94F034C2
:1059E00081110DC02FEF3FEF4FE75FE7C301B20119
:1059F0000E945B3218161CF46EE372E00CC02FEFAD
:105A00003FEF4FE75FE4C701B6010E943734181635
:105A1000ACF462E472E0CE01DF91CF911F910F915F
:105A2000FF90EF90DF90CF90BF90AF909F908F90BE
:105A30007F906F905F904F900C94982B2FEF3FEFDB
:105A40004FE75FECC701B6010E945B3287FDE1CFF3
:105A500020E030E0A901C701B6010E945B3287FF58
:105A60000AC06DE2CE010E94B02B8C01F7FAF094CF
:105A7000F7F8F09402C000E010E0A12C60E070E0C4
:105A800080E09FE3AB1441F020E030E040E251E4DD
:105A90000E946232A394F6CF9B01AC01C701B6010C
:105AA0000E947E316B017C010E94CF322B013C01B0
:105AB0000E94FB329B01AC01C701B6010E947D31FF
:105AC0006B017C012AE0B301A201CE010E94DD2B13
:105AD000080F191FBB2039F066E472E0CE010E9466
