:100000000C9430070C9458070C9458070C9458071C
:100010000C9458070C9458070C9458070C94E90753
:100020000C9458070C9458070C94FC2C0C94DA2B65
:100030000C9458070C9458070C9458070C945807C4
:100040000C9458070C9458070C9458070C945807B4
:100050000C9458070C9458070C9458070C94C3241C
:100060000C9458070C9458070C9458070C94580794
:100070000C9458070C9458070C9458070C94580784
:100080000C9458070C9458070C9458070C94580774
:100090000C949A150C9458070C9458070C94580714
:1000A0000C9458070C9458070C945807036EDB36D1
:1000B0003D9A9999993DABAAAA2A3E000000803F3B
:1000C000084AD73B3BCE016E84BCBFFDC12F3D6CBF
:1000D00074319ABD56833DDA3D00C77F11BED9E425
:1000E000BB4C3E916BAAAABE000000803F072C7A51
:1000F000A5BA6CC590DA3B9365FC8BBC53F810FD38
:100100003C5692834DBD879D3AB63DCBC9BF5BBE81
:1001100073DA0FC93F0000007000000000240000E7
:1001200000020003000000650054FFEF0000FA80A9
:10013000000B12820001030C30C30E8C8CE914D525
:10014000400213710F8E3883F8833000F883258EB8
:10015000F8833000F883FFFFFFFF0FFEA9D62400CD
:1001600004001A8279A10000003CFFFF000000108B
:10017000000038836FA2003E03304000000002CA36
:10018000E3093E8000002000000000000000400065
:10019000000060000000000C0000000C186E000061
:1001A00006920A16C0DFFFFF0256FD8CD377FFE1EF
:1001B000C496E0C5BEAA00000000FFFF0B2B0000A4
:1001C0001657000003594000000000001DFA00020D
:1001D0006C1D000000003FFFDFEB003EB3B6000DDA
:1001E000227800002F3C00000000001942B50000FA
:1001F00039A20000B365D90E9FC91DCF4C34300021
:100200000000500000003BB67AE80064000000C81F
:10021000000000000000100000001000FA92100022
:10022000225E000D229F0001000000320000FF4608
:10023000000063D400001000000004D6000004CCCD
:10024000000004CC0000000010720000004000001C
:10025000000000000000000600020005000700008A
:100260000000006400000000000000000005000520
:1002700000640020000000000000000000000000FA
:1002800040000000030000000032F8980000FF6505
:100290000000830F0000FF9BFC0000000000000036
:1002A000000000000000000000000000000000004E
:1002B000000000000000000000000000000000003E
:1002C00000000000100040000000000000060000D8
:1002D000B26A000200000001FB830068000000D940
:1002E000FC007CF1FF83000000000065000000645A
:1002F00003E800640028000000250000000016A0AC
:1003000000000000100000001000002F000000009E
:1003100001F40000100000280000FFFF4581FFFFEE
:10032000FA72000000000000000000440005000513
:10033000BAC6004778A200000001000000000000DB
:100340000600000000140000254D002F706D000015
:1003500005AE000C02D0000000000000000000000C
:10036000000000000000001B000000000000000072
:100370000000000000000064000000080000000011
:10038000000000000000000000000000000000006D
:10039000000000000000000000000000000000005D
:1003A000000000000000000000000000000000004D
:1003B000000000000000000000000000000000003D
:1003C000000000000000000000000000000000002D
:1003D000000000000000001B000000000000000002
:1003E0000000000E000E00000AC70004000000001C
:1003F0000032FFFFFF9C00000B2B000000020000FA
:10040000000100000064FFE50000000000000000A3
:1004100000000000000000000001000000000001DA
:1004200000000000000000018000000180000001C9
:100430008000002426D30000000000000000000619
:1004400000100096003C00000000000000000000CA
:100450000000000000000C0A4E68CDCF770950164E
:100460006759C619CE82000000000000000000009D
:10047000000000000000000000000000000017D78E
:100480008400030000000000000000000000C7938B
:100490008F9D1E1B1C1900000000000000000000C2
:1004A0000000000000000000000000000000020347
:1004B0001885000040000000000300000003000059
:1004C00000000000000040000000000000000000EC
:1004D000000000000000000000000000000000001C
:1004E000000000000000000000000000000000000C
:1004F00000000000000000000000677DDF7E7290B9
:100500002E554CF6E68800000000000000000000B8
:10051000000000000000D8DCB4B8B0D8B9ABF3F8E4
:10052000FAB3B7BB8E9EAEF132F51BF1B4B8B08012
:1005300097F1A9DFDFDFAADFDFDFF2AAC5CDC7A908
:100540000CC92C97F1A989264666B28999A92D551F
:100550007DB0B08AA896365676F1BAA3B4B280C000
:10056000B8A89711B28398BAA3F02408441064186D
:10057000B2B9B49883F1A329557DBAB5B1A38393D9
:10058000F0002850F5B2B6AA839328547CF1B9A3A1
:10059000829361BAA2DADEDFDB819AB9AEF56068D8
:1005A00070F1DABAA2DFD9BAA2FAB9A38292DB312A
:1005B000BAA2D9BAA2F8DF85A4D0C1BBAD83C2C5A7
:1005C000C7B8A2DFDFDFBAA0DFDFDFD8D8F1B8AA73
:1005D000B38DB4980D355DB2B6BAAF8C96198F9FB6
:1005E000A70E161EB49AB8AA872C547CBAA4B08A57
:1005F000B691325676B28494A4C808CDD8B8B4B0B7
:10060000F19982A82D557D98A80E161EA22C547C17
:1006100092A4F02C5078F184A898C4CDFCD80DDBBE
:10062000A8FC2DF3D9BAA6F8DABAA6DED8BAB2B6C3
:100630008696A6D0F3C841DAA6C8F8D8B0B4B88276
:10064000A892F52C548898F135D9F418D8F1A2D095
:10065000F8F9A884D9C7DFF8F883C5DADF69DF8342
:10066000C1D8F40114F1A8824EA884F311D182F507
:10067000D992289788F109F41C1CD884A8F3C0F9F2
:10068000D1D99782F129F40DD8F3F9F9D1D982F4AF
:10069000C203D8DEDF1AD8F1A2FAF9A88498D9C724
:1006A000DFF8F8F883C7DADF69DFF883C3D8F4012D
:1006B00014F198A8822EA884F311D182F5D9925012
:1006C0009788F109F41CD884A8F3C0F8F9D1D99718
:1006D00082F149F40DD8F3F9F9D1D982F4C403D8E1
:1006E000DEDFD8F1AD8898CCA809F9D98292A8F5B7
:1006F0007CF1883ACF944A6E98DB6931DAADF2DE4C
:10070000F9D88795A8F221D1DAA5F9F417D9F1AE75
:100710008ED0C0C3AE82C684C3A88595C8A588F212
:10072000C0F1F4010EF18E9EA8C63E56F554F18834
:1007300072F40115F19845856EF58E9E0488F1429C
:10074000985A8E9E068869F4011CF1981E1108D0F3
:10075000F504F11E970202983625DBF9D985A5F339
:10076000C1DA85A5F3DFD88595A8F309DAA5FAD80B
:100770008292A8F578F1881A849F26889821DAF465
:100780001DF3D8879F39D1AFD9DFDFFBF9F40CF324
:10079000D8FAD0F8DAF9F9D0DFD9F9D8F40BD8F3D0
:1007A000879F39D1AFD9DFDFF41DF3D8FAFCA869F0
:1007B000F9F9AFD0DADEFAD9F88F9FA8F1CCF39827
:1007C000DB45D9AFDFD0F8D8F18F9FA8CAF38809ED
:1007D000DAAF8FCBF8D8F2AD978D0CD9A5DFF9BA87
:1007E000A6F3FAF412F2D8950DD1D9BAA6F3FADA33
:1007F000A5F2C1BAA6F3DFD8F1BAB2B68696A6D0F2
:10080000CAF349DAA6CBF8D8B0B4B8D8AD84F2C0F0
:10081000DFF18FCBC3A8B2B68696C8C1CBC3F3B005
:10082000B48898A821DB718D9D71859521D9ADF291
:10083000FAD88597A828D9F408D8F28D29DAF405D2
:10084000D9F285A4C2F2D8A88D9401D1D9F411F2BD
:10085000D88721D8F40AD8F28498A8C801D1D9F44D
:1008600011D8F3A4C8BBAFD0F2DEF8F8F8F8F8F866
:10087000F8F8D8F1B8F6B5B9B08A95A3DE3CA3D99B
:10088000F8D85CA3D9F8D87CA3D9F8D8F8F9D1A5C1
:10089000D9DFDAFAD8B18530F7D9DED8F830ADDA59
:1008A000DED8F2B48C99A32D557DA083DFDFDFB5B0
:1008B00091A0F629D9FBD8A0FC29D9FAD8A0D0510B
:1008C000D9F8D8FC51D9F9D879D9FBD8A0D0FC797E
:1008D000D9FAD8A1F9F9F9F9F9A0DADFDFDFD8A15F
:1008E000F8F8F8F8F8ACDEF8ADDE8393AC2C547C65
:1008F000F1A8DFDFDFF69D2CDAA0DFD9FADB2DF8D7
:10090000D8A850DAA0D0DED9D0F8F8F8DB55F8D85E
:10091000A878DAA0D0DFD9D0FAF8F8F8F8DB7DF8BB
:10092000D89CA88CF530DB38D9D0DEDFA0D0DEDF54
:10093000D8A848DB58D9DFD0DEA0DFD0DED8A86841
:10094000DB70D9DFDFA0DFDFD8F1A888902C547CE2
:1009500098A8D05C38D1DAF2AE8CDFF9D8B087A88D
:10096000C1C1B188A8C6F9F9DA36D8A8F9DA36D8FB
:10097000A8F9DA36D8A8F9DA36D8A8F9DA36D8F7E5
:100980008D9DADF818DAF2AEDFD8F7ADFA30D9A404
:10099000DEF9D8F2AEDEFAF983A7D9C3C5C7F1886C
:1009A0009BA77AADF7DEDFA4F8849408A797F3003D
:1009B000AEF29819A488C6A39488F632DFF2839326
:1009C000DB09D9F2AADFD8D8AEF8F9D1DAF3A4DE80
:1009D000A7F1889B7AD8F38494AE19F9DAAAF1DFEB
:1009E000D8A881C0C3C5C7A39283F628ADDED9F8C5
:1009F000D8A350ADD9F8D8A378ADD9F8D8F8F9D1A3
:100A0000A1DADEC3C5C7D8A18194F818F2B089ACC9
:100A1000C3C5C7F1D8B8B4B09786A8319B0699076B
:100A2000AB9728889BF00C201440B0B4B8F0A88A8B
:100A30009A285078B79BA82951792470594469386D
:100A4000644831F1BBAB88002C547CF0B38BB8A860
:100A500004285078F1B088B49726A85998BBABB356
:100A60008B02264666B0B8F08A9CA82951798B295A
:100A700051798A2470598B2058718A4469388B398E
:100A800040688A6448318B30496088F1AC002C544E
:100A90007CF08CA804285078F1889726A85998AC47
:100AA0008C02264666F0899CA82951792470594405
:100AB0006938644831A98809205970AB11384069F8
:100AC000A8193148608CA83C415C207C00F18798D3
:100AD0001986A86E767EA999882D557DD8B1B5B9AD
:100AE000A3DFDFDFAED0DFAAD0DEF2ABF8F9D9B0FA
:100AF00087C4AAF1DFDFBBAFDFDFB9D8B1F1A397BD
:100B00008E60DFB084F2C8F8F9D9DED89385F14A57
:100B1000B183A308B5839A0810B79F10D8F1B0BA73
:100B2000AEB08AC2B2B68E9EF1FBD9F41DD8F9D907
:100B30000CF1D8F8F8AD61D9AEFBD8F40CF1D8F8C7
:100B4000F8AD19D9AEFBDFD8F416F1D8F8AD8D6148
:100B5000D9F4F4ACF59C9C8DDF2BBAB6AEFAF8F460
:100B60000BD8F1AED0F8AD51DAAEFAF8F1D8B9B190
:100B7000B6A3839C08B9B1839AB5AAC0FD3083B7E8
:100B80009F10B58B93F20202D1ABDADED8F1B080C0
:100B9000BAABC0C3B284C1C3D8B1B9F38BA391B609
:100BA00009B4D9ABDEB0879CB9A3DDF1B38B8B8BD5
:100BB0008B8BB087A3A3A3A3B28BB69BF2A3A3A3F3
:100BC000A3A3A3A3A3A3A3F1B087B59AA3F39BA365
:100BD000A3DCBAACDFB9A3A3A3A3A3A3A3A3A3A33A
:100BE000A3A3A3A3A3A3D8D8D8BBB3B7F1AAF9DA18
:100BF000FFD9809AAA28B48098A720B79787A866BB
:100C000088F07951F1902C870CA781976293F0714D
:100C1000716085940129517990A5F1284C6C870C5D
:100C200095188578A38390284C6C886CD8F3A282A1
:100C300000F210A8921980A2F2D926D8F188A84D06
:100C4000D948D896A83980D93CD89580A839A686A5
:100C500098D92CDA87A72CD8A8899519A980D938D2
:100C6000D8A88939A980DA3CD8A82EA83990D90CFF
:100C7000D8A8953198D90CD8A809D9FFD801DAFF9E
:100C8000D89539A9DA26FFD890A80D8999A810809F
:100C90009821DA2ED88999A83180DA2ED8A886969C
:100CA0003180DA2ED8A8873180DA2ED8A88292F344
:100CB0004180F1D92ED8A882F31980F1D92ED8829B
:100CC000ACF3C0A28022F1A62EA72EA92298A829B3
:100CD000DAACDEFFD8A2F22AF1A92E8292A8F23174
:100CE00080A696F1D900AC8C9C0C30ACDED0DEFF37
:100CF000D88C9CACD010ACDE8092A2F24C82A8F1D1
:100D0000CAF235F19688A6D900D8F1FF000000029A
:100D100000090F0000030401000C000000000000A7
:100D20000000000000000000000004080201104064
:100D30008040102040804080080204018040201044
:100D40000201108010204040040404040403040540
:100D50000202020204030202020206060606060658
:100D600004040202020400000000230026002900FF
:100D70002C002F0000000000250028002B002E0072
:100D8000310000000000240027002A002D00300060
:100D9000080B000202020100090400000102020027
:100DA00000052400100105240101010424020605A8
:100DB0002406000107058103100040090401000218
:100DC0000A000000070502024000000705830240F8
:100DD00000000904020001030000000921010100D4
:100DE000012222000705840340000105010904A136
:100DF0000185010901A100050109300931093216F7
:100E0000008026FF7F751095038182C0C000C180DD
:100E100081C112010002020000404123368000011E
:100E2000010200011201000200000040412336804F
:100E300000010102000141726475696E6F204C4C23
:100E400043004544547261636B657220454454729B
:100E500061636B657232000403090400AB14602700
:100E600011241FBECFEFDAE0DEBFCDBF12E0A0E05D
:100E7000B1E0E4E9F3E602C005900D92A439B107B0
:100E8000D9F724E0A4E9B2E001C01D92A333B20770
:100E9000E1F717E0C0E3D7E004C02197FE010E940C
:100EA0007E31CE32D107C9F70E946F2D0C94C83124
:100EB0000C94000008951F93CF93DF93EC01162F3D
:100EC000472FBC016F5F7F4F86E093E00E94E713DE
:100ED000412FBE0186E093E0DF91CF911F910C94EA
:100EE000E7131F93CF93DF93EC01BC016F5F7F4F3C
:100EF00086E093E00E94E413182FBE0186E093E0A1
:100F00000E94E413912FDF91CF911F910895CF920A
:100F1000DF92EF92FF921F93CF93DF93EC01BC011E
:100F20006D5F7F4F86E093E00E94E413182FBE01AF
:100F30006E5F7F4F86E093E00E94E41390E0B0E0A4
:100F4000A0E07C01DD24CC24F12ABE016F5F7F4F3D
:100F500086E093E00E94E413182FBE0186E093E040
:100F60000E94E413C82AC701B601712BDF91CF910B
:100F70001F91FF90EF90DF90CF9008958091F50240
:100F80009091F602029731F46AE771E089ED93E0FF
:100F90000E9419281092CD021092CE021092CF0218
:100FA0001092D0021092D1021092D2021092D3026B
:100FB0001092D4021092D5021092D6021092D7024B
:100FC0001092D8021092A8021092A7021092A602C4
:100FD00008951F920F920FB60F9211248F9381E004
:100FE00080939B028F910F900FBE0F901F901895CA
:100FF00081EE92E00E94841D88E70E941C1D80ED16
:1010000097E00E94EB1982E00E94441A88E70E9450
:10101000C21A88EC90E00E94C11C0E94991FE091C6
:101020000001F0E0EF5EFD4F808190E00E94A31F81
:101030008AE597E00E949F2481E591E00E94C22208
:1010400088EC90E00E94622081E008958091FB028C
:10105000811106C080916A00806380936A00EE9AD5
:1010600081E00E942C1F81E080939A020895EF9204
:10107000FF920F931F93CF93DF9381ECE82E82E0D2
:10108000F82E05EB12E0C1E0D0E0CE010E94870708
:10109000F70161937193819391937F01CE010C9637
:1010A0000E948707F80161937193819391938F0157
:1010B0002496CD30D10549F781EC92E00E94461884
:1010C00085EB92E0DF91CF911F910F91FF90EF9010
:1010D0000C946F1840919E0250919F026091A00263
:1010E0007091A1028091DD029091DE02A091DF0259
:1010F000B091E00284179507A607B707F0F461E006
:1011000080919D02811160E060939D0281E10E94C7
:10111000442680919E0290919F02A091A002B091DE
:10112000A1028C509E4FAF4FBF4F8093DD02909332
:10113000DE02A093DF02B093E00208950F931F93A5
:10114000CF93DF93EC018C010A5F1F4F6991799176
:101150004AE050E089ED93E00E94D1286CE072E013
:1011600089ED93E00E94F627C017D10779F7DF9148
:10117000CF911F910F910895CF93DF93EB01BC01A5
:1011800089ED93E00E94F627488159816A817B812D
:101190002AE030E089ED93E00E9489286EE771E053
:1011A00089ED93E00E94F6274C815D816E817F81FD
:1011B0002AE030E089ED93E00E9489286EE771E033
:1011C00089ED93E00E94F627488559856A857B85DD
:1011D0002AE030E089ED93E0DF91CF910C94D8289C
:1011E0008F929F92AF92BF92CF92DF92EF92FF9237
:1011F0008091E202882309F485C06FE170E086E007
:1012000093E00E94E413682F70E090E080E00E9479
:101210002A2F20E030E040E85EE30E9444306093F3
:101220000701709308018093090190930A0160E21D
:1012300070E086E093E00E94E413682F70E090E095
:1012400080E00E942A2F20E030E040E85EE30E9428
:1012500044306B017C01C0920301D0920401E09202
:101260000501F09206018090070190900801A0907E
:101270000901B0900A0120E030E0A901C501B401E4
:101280000E947D2E882351F020E030E040E752E4B8
:10129000C501B4010E943730181664F480E090E074
:1012A000A0E6B1E48093070190930801A09309019F
:1012B000B0930A0120E030E0A901C701B6010E9405
:1012C0007D2E882351F020E030E040E752E4C70152
:1012D000B6010E943730181664F480E090E0A0E672
:1012E000B1E48093030190930401A0930501B093AE
:1012F0000601FF90EF90DF90CF90BF90AF909F904E
:101300008F9008956DE170E086E093E00E94E41311
:10131000682F70E090E080E00E942A2F20E030E00B
:1013200040E85EE30E944430609307017093080137
:101330008093090190930A016EE170E086E093E0EA
:101340000E94E413682F70E090E080E00E942A2F52
:1013500020E030E040E85EE30E9444306B017C0115
:10136000C0920301D0920401E0920501F0920601BF
:101370008090070190900801A0900901B0900A01A7
:1013800020E030E0A901C501B4010E947D2E882330
:1013900051F020E030E040E752E4C501B4010E9482
:1013A0003730181664F480E090E0A0EAB0E480934F
:1013B000070190930801A0930901B0930A0120E06E
:1013C00030E0A901C701B6010E947D2E882359F0A3
:1013D00020E030E040E752E4C701B6010E94373018
:1013E00018160CF086CF80E090E0A0EAB0E479CF48
:1013F00040E052EC61E070E089ED93E00E945A27F2
:1014000064EF71E080E090E00E943E2562E08AE0B7
:101410000E94082661E081E10E94082661E082E0E6
:101420000E94442660E082E00E94442669E170E068
:1014300086E093E00E94E41369E170E086E093E0C7
:101440000E94E413863008F061C069E170E086E034
:1014500093E00E94E413809300016CE170E086E069
:1014600093E00E94E4138093E2020E94F00861E29C
:1014700070E086E093E00E94E4138093FB0262E256
:1014800070E086E093E00E94E413809301018AE11A
:1014900090E00E947107BC01990F880B990B0E9484
:1014A0002C2F20E030E040E85BE30E944430609362
:1014B000F7027093F8028093F9029093FA0287E0A2
:1014C00093E00E9471148CE08093B8004498459892
:1014D0000E94F8078823E1F064E670E080E090E085
:1014E0000E943E250E94260864E670E080E090E0BD
:1014F0000E943E2589EA92E00E94151864E670E099
:1015000080E090E00E943E250C94370885E0A3CF50
:10151000FFCF20E030E040E850E460910701709197
:1015200008018091090190910A010E9444300E94B3
:10153000F42E462F8091E2028823E9F06FE170E0FB
:1015400086E093E00E94E71320E030E040E850E4BA
:101550006091030170910401809105019091060151
:101560000E9444300E94F42E462F60E270E086E034
:1015700093E00C94E7136DE170E086E093E00E9445
:10158000E71320E030E040E850E4609103017091FF
:10159000040180910501909106010E9444300E944F
:1015A000F42E462F6EE170E0E2CFCF93C62F682F66
:1015B00089ED93E00E94FE276CE072E089ED93E0F4
:1015C0000E94F6274AE050E06C2F89ED93E0CF911E
:1015D0000C94FE2862E871E089ED93E00E94F62702
:1015E00065E871E089ED93E00C94192869E971E0F0
:1015F00089ED93E00E94F6274AE050E06091E20214
:1016000089ED93E00E94F7286CE072E089ED93E0A9
:101610000E94F6274091070150910801609109014D
:1016200070910A0122E030E089ED93E00E94F629F2
:101630006CE072E089ED93E00E94F627409103018F
:1016400050910401609105017091060122E030E0A3
:1016500089ED93E00C94F829CF9389ED93E00E94F3
:10166000C526181619060CF097C089ED93E00E9464
:10167000D526C82F20E030E040E85EE3833631F025
:10168000833471F520E030E040E85FE360910701CA
:10169000709108018091090190910A010E94842DA6
:1016A00060930701709308018093090190930A01E8
:1016B0000E94890A0E94F60AC33509F05FC01092A1
:1016C000F6021092F5026CE971E089ED93E00E9458
:1016D000192810929C0288EC90E0CF910C94622023
:1016E00020E030E040E85EE3843631F0873479F47E
:1016F00020E030E040E85FE360910701709108016D
:101700008091090190910A010E94832DC9CF20E0A8
:1017100030E040E85EE3853631F08534B9F420E00E
:1017200030E040E85FE36091030170910401809133
:101730000501909106010E94842D6093030170932E
:1017400004018093050190930601B2CF20E030E0C0
:1017500040E85EE3863639F0863409F0ADCF20E00C
:1017600030E040E85FE360910301709104018091F3
:101770000501909106010E94832DDFCFCD3299F4AF
:101780008091F5029091F602019741F081E090E09E
:101790009093F6028093F502CF9108951092F6028D
:1017A0001092F502F9CFC83439F46EE971E089ED91
:1017B00093E0CF910C941928C437A1F481E0909163
:1017C000E202911180E08093E2020E94F0084091D1
:1017D000E2026CE170E086E093E00E94E713CF91B3
:1017E0000C94F60AC635A9F460EA71E089ED93E03D
:1017F0000E94192810929C020E94EA0A0E94F60A8E
:1018000082E090E09093F6028093F50284E690E007
:1018100064CFC93409F072C00E94EA0A62EA71E03A
:1018200089ED93E00E94192865EB71E089ED93E062
:101830000E94F6274091F7025091F8026091F90258
:101840007091FA0222E030E089ED93E00E94F829DD
:1018500062EC71E089ED93E00E94F6276091E3026B
:101860007091E402072E000C880B990B0E942C2F1C
:101870009B01AC016091ED027091EE028091EF024C
:101880009091F0020E94822EAB01BC0122E030E078
:1018900089ED93E00E94F82961EC72E080ED91E01F
:1018A0000E94BC0865EB72E08DED91E00E94BC08DF
:1018B00069EA72E08BEE91E00E94BC0868EF71E08B
:1018C00089ED93E00E94F6274AE050E06091E10242
:1018D00089ED93E00E94FE280E94F60A6091FB02C7
:1018E00080E70E94D50A609100018FE40E94D50A2A
:1018F0006091010183E2CF910C94D50AC03529F59E
:1019000080E00E942C1F8091000190E0019666E02B
:1019100070E00E942931809300018F5E9D4FFC0191
:10192000808190E00E94A31F81E00E942C1F6091A3
:1019300000018FE40E94D50A4091000169E170E046
:1019400086E093E0CF910C94E713C23519F4CF9160
:101950000C94BE07C43409F049C06091E302709151
:10196000E402072E000C880B990B0E942C2F9B0180
:10197000AC016091ED027091EE028091EF029091C6
:10198000F0020E94822E2091F7023091F8024091DD
:10199000F9025091FA020E94842D6093F70270932D
:1019A000F8028093F9029093FA0220E030E040E8D8
:1019B00053E40E9444300E94F42E8AE190E00E9499
:1019C0005B0768E072E089ED93E00E94F6274091A2
:1019D000F7025091F8026091F9027091FA0222E048
:1019E00030E089ED93E0CF910C94F829C33281F473
:1019F0004091010150E04F5F5F4F43705527409386
:101A0000010162E270E086E093E00E94E71370CF8C
:101A1000C13619F52AE037ED43E25CE36091F70245
:101A20007091F8028091F9029091FA020E94832D40
:101A30006093F7027093F8028093F9029093FA0290
:101A400020E030E040E853E40E9444300E94F42E4D
:101A50008AE190E0CF910C945B07C13479F42AE0DD
:101A600037ED43E25CE36091F7027091F8028091F8
:101A7000F9029091FA020E94842DDACFCE3509F056
:101A80008BCE60919C0281E0682760939C028EE57A
:101A900032CF2F923F924F925F926F927F928F92AE
:101AA0009F92AF92BF92CF92DF92EF92FF920F93ED
:101AB0001F93CF93DF93CDB7DEB7EF970FB6F894B0
:101AC000DEBF0FBECDBF0E940D2560939E027093B6
:101AD0009F028093A0029093A10280919B02882391
:101AE00021F080919A02811105C08091FB02882328
:101AF00009F4CCC11BA281E090E0A0E0B0E08093AB
:101B0000A2029093A302A093A402B093A502CE01D7
:101B100083967C018E010F5D1F4F22EA32E0AE01F9
:101B20004F5F5F4FBE016F5E7F4F0C970E94DC23BB
:101B30008BA1811102C010929B028091A202909110
:101B4000A302A091A402B091A502892B8A2B8B2B12
:101B500009F09CC16D857E858F859889BC01992788
:101B600077FD9095892F0E942C2F20E030E040E8EF
:101B700058E30E9444304B015C0169857A858B856E
:101B80009C85BC01992777FD9095892F0E942C2F69
:101B900020E030E040E858E30E9444302B013C0153
:101BA0006D817E818F819885BC01992777FD909505
:101BB000892F0E942C2F20E030E040E858E30E945B
:101BC00044306CA37DA38EA39FA369817A818B810E
:101BD0009C81BC01992777FD9095892F0E942C2F1D
:101BE00020E030E040E858E30E94443068A779A73D
:101BF0008AA79BA79B01AC010E9444306CA77DA7DC
:101C00008EA79FA72CA13DA14EA15FA1CA01B9013A
:101C10000E9444306CAB7DAB8EAB9FABA3019201B5
:101C2000C301B2010E94443068AF79AF8AAF9BAF65
:101C3000A5019401C501B4010E9444306CAF7DAF91
:101C40008EAF9FAF2CA93DA94EA95FA96CA57DA51C
:101C50008EA59FA50E94832D28AD39AD4AAD5BAD01
:101C60000E94832D2CAD3DAD4EAD5FAD0E94842D05
:101C70006B017C01A3019201C501B4010E944430B3
:101C800068AB79AB8AAB9BAB28A539A54AA55BA508
:101C90006CA17DA18EA19FA10E9444309B01AC014B
:101CA00068A979A98AA99BA90E94842D9B01AC01EE
:101CB0000E94842DA70196010E941E2E68AB79AB6D
:101CC0008AAB9BAB2CA13DA14EA15FA1C501B40184
:101CD0000E9444306B017C0128A539A54AA55BA56B
:101CE000C301B2010E9444309B01AC01C701B6019F
:101CF0000E94832D9B01AC010E94842D0E94F02D37
:101D00006B017C012CA93DA94EA95FA96CA57DA5FD
:101D10008EA59FA50E94842D28AD39AD4AAD5BAD3F
:101D20000E94832D2CAD3DAD4EAD5FAD0E94832D45
:101D30006CA77DA78EA79FA72CA13DA14EA15FA157
:101D4000C301B2010E9444302B013C0128A539A5F2
:101D50004AA55BA5C501B4010E9444309B01AC01BA
:101D6000C301B2010E94842D9B01AC010E94842D0D
:101D70002CA53DA54EA55FA50E941E2E90582DE3D3
:101D800038EF42E256E40E9444302B013C012DE33F
:101D900038EF42E256E4C701B6010E9444304B01DD
:101DA0005C012DE338EF42E256E468A979A98AA9DB
:101DB0009BA90E9444306B017C018091A602811195
:101DC000E4C00091A7021091A8028091D5029091E1
:101DD000D602A091D702B091D8028CA39DA3AEA346
:101DE000BFA38091D1029091D202A091D302B09171
:101DF000D40288A799A7AAA7BBA78091CD029091EA
:101E0000CE02A091CF02B091D0028CA79DA7AEA721
:101E1000BFA7809102018017110609F00CF44FC092
:101E20002CA13DA14EA15FA1C301B2010E94842D4E
:101E30006093D5027093D6028093D7029093D80214
:101E400028A539A54AA55BA5C501B4010E94842D2A
:101E50006093D1027093D2028093D3029093D40204
:101E60002CA53DA54EA55FA5C701B6010E94842DF6
:101E70006093CD027093CE028093CF029093D002F4
:101E80000F5F1F4F1093A8020093A702EF960FB6A3
:101E9000F894DEBF0FBECDBFDF91CF911F910F91A0
:101EA000FF90EF90DF90CF90BF90AF909F908F907A
:101EB0007F906F905F904F903F902F90089581E0BA
:101EC0008093A602B801110F880B990B0E942C2F4A
:101ED0006B017C01AC019B016CA17DA18EA19FA136
:101EE0000E94822E6093D5027093D6028093D7020F
:101EF0009093D802A701960168A579A58AA59BA50C
:101F00000E94822E6093D1027093D2028093D302FA
:101F10009093D402A70196016CA57DA58EA59FA5DF
:101F20000E94822E6093CD027093CE028093CF02E6
:101F30009093D0021092E5021092E6021092E7020E
:101F40001092E8021092E9021092EA021092EB025B
:101F50001092EC021092ED021092EE021092EF023B
:101F60001092F0028EEF9FEF9093E4028093E302D1
:101F70008AE0809302018091F5029091F602029727
:101F800009F084CF0E94EA0A81CF8AE00E9472267B
:101F9000892B19F40E94BE0779CF2091D502309188
:101FA000D6024091D7025091D802C301B2010E94DB
:101FB000832D2B013C0120E030E040E057EC0E94F3
:101FC0007D2E87FF0AC020E030E040E857E4C301DF
:101FD000B2010E94842D2B013C0120E030E040E062
:101FE00057E4C301B2010E943730181654F420E0C0
:101FF00030E040E857E4C301B2010E94832D2B0179
:102000003C012091D1023091D2024091D3025091F3
:10201000D402C501B4010E94832D4B015C012091C3
:10202000CD023091CE024091CF025091D002C70133
:10203000B6010E94832D6B017C0120E03CEF4FE74D
:1020400056ECC301B2010E947D2E87FDB2C220E092
:102050003CEF4FE756E4C301B2010E943730181637
:102060003CF4412CFCEF5F2EFFE76F2EF6E47F2E51
:1020700020E03CEF4FE756ECC501B4010E947D2EF5
:1020800087FD9FC220E03CEF4FE756E4C501B40155
:102090000E94373018163CF4812C7CEF972E7FE796
:1020A000A72E76E4B72E20E03CEF4FE756ECC701B1
:1020B000B6010E947D2E87FD8CC220E03CEF4FE7E9
:1020C00056E4C701B6010E94373018163CF4C12C03
:1020D0005CEFD52E5FE7E52E56E4F52E80910701E3
:1020E00090910801A0910901B0910A018CA39DA3D0
:1020F000AEA3BFA38091030190910401A0910501BB
:10210000B091060188A799A7AAA7BBA78091E20270
:10211000882309F466C227E831E040E059E3C301AF
:10212000B2010E944430A30192010E9444302CA1CC
:102130003DA14EA15FA10E9444306CA77DA78EA750
:102140009FA720E030E0A901C301B2010E9437300F
:10215000A301920118160CF05058C301B2010E945D
:10216000822E2CA53DA54EA55FA50E9444300E945D
:10217000F42E6CA77CAB88AF9CAF27E831E040E041
:1021800059E3C501B4010E944430A50194010E94A5
:10219000443028A539A54AA55BA50E94443068AB08
:1021A00079AB8AAB9BAB20E030E0A901C501B4015B
:1021B0000E943730A501940118160CF05058C50143
:1021C000B4010E94822E28A939A94AA95BA90E94BC
:1021D00044300E94F42EB62EA72E982E892E27E882
:1021E00031E040E059E3C701B6010E944430A70145
:1021F00096010E94443028A539A54AA55BA50E94F6
:10220000443068A779A78AA79BA720E030E0A901FE
:10221000C701B6010E943730A701960118160CF0CD
:102220005058C701B6010E94822E28A539A54AA59B
:102230005BA50E9444300E94F42E162F072F382EE3
:10224000292E20E030E044E052E46CA17DA18EA173
:102250009FA10E94443068A779A78AA79BA7909165
:10226000010198ABACA5ACA3BCA9BDA328AD2EA31E
:102270008CAD8FA38CA19DA1AEA1BFA1811590486B
:10228000A105B10544F08FEF9FE7A0E0B0E08CA37B
:102290009DA3AEA3BFA38CA19DA1AEA1BFA1813080
:1022A0009048AF4FBF4F44F481E090E8AFEFBFEFED
:1022B0008CA39DA3AEA3BFA3CB2CDA2CE92CF82CC6
:1022C000C11490E8D906E104F10434F0CC24CA9496
:1022D0003FE7D32EE12CF12CA1E0CA16A0E8DA06E4
:1022E000AFEFEA06FA063CF4CC24C39420E8D22EE1
:1022F000EE24EA94FE2C812E902EA32CB22C811475
:10230000B0E89B06A104B10434F088248A949FE7C6
:10231000992EA12CB12C21E0821620E892062FEFF5
:10232000A206B2063CF48824839480E8982EAA245E
:10233000AA94BA2C8CA19DA19093950280939402AB
:10234000D0929702C092960290929902809298023F
:102350008091F5029091F6020297D1F52AE030E0E3
:102360004CA15DA16EA17FA189ED93E00E94892817
:102370006CE072E089ED93E00E94F6272AE030E0FD
:10238000B701A60189ED93E00E9489286CE072E014
:1023900089ED93E00E94F6272AE030E0B501A40120
:1023A00089ED93E00E9489286CE072E089ED93E06A
:1023B0000E94F627CE0141960E949E08CE014796C4
:1023C0000E949E086DE072E089ED93E00E9419285A
:1023D00064E972E089E294E00E94C22780910101E1
:1023E000882309F49EC08091F5029091F60202972D
:1023F00009F497C0A8A96A2F70E090E080E00E94DD
:102400002A2F28A539A54AA55BA50E9444309B0127
:10241000AC01C301B2019F770E947D2E87FF10C1DE
:102420002091FE023091FF02409100035091010380
:10243000C301B2010E94832D9F7723E333E343EB73
:102440005FE30E947D2E87FFFBC0C701B6010E949B
:102450002C2F9F7720E030E04AE754E40E947D2E45
:1024600087FFEEC08091FC029091FD02019690934F
:10247000FD028093FC026CA17DA18EA19FA10E9410
:102480002C2F9B01AC01609102037091030380919A
:102490000403909105030E94842D609302037093BE
:1024A000030380930403909305034092FE0250922D
:1024B000FF0260920003709201038091FC029091F0
:1024C000FD020A9770F12AE037ED43E25CE3609188
:1024D00002037091030380910403909105030E940D
:1024E00044309B01AC016091D5027091D60280917D
:1024F000D7029091D8020E94842D6093D5027093E8
:10250000D6028093D7029093D8021092FD021092C7
:10251000FC02109202031092030310920403109223
:1025200005030E942C0B40919E0250919F026091E6
:10253000A0027091A1028091D9029091DA02A0913B
:10254000DB02B091DC0284179507A607B70708F0F5
:102550009DCC0E946A082091F7023091F8024091C8
:10256000F9025091FA026091D5027091D6028091E1
:10257000D7029091D8020E94842D6B017C0120E04B
:1025800030E040E857E40E94373018160CF065C080
:1025900020E030E040E857E4C701B6010E94832DF7
:1025A0006093D5027093D6028093D7029093D8029D
:1025B00066C0412CECEF5E2EEFE76E2EE6EC7E2E31
:1025C00057CD812C6CEF962E6FE7A62E66ECB62EBB
:1025D0006ACDC12C4CEFD42E4FE7E42E46ECF42EFE
:1025E0007DCD2CA13DA14EA15FA1C301B2010E94EE
:1025F00044300E94F42E6CA77CAB88AF9CAF28A51A
:1026000039A54AA55BA5C501B4010E9444300E94CA
:10261000F42EB62EA72E982E892E28A539A54AA5C8
:102620005BA5C701B6010E9444300E94F42E162F0C
:10263000072F382E292E20E030E040EF51E405CE60
:102640001092FD021092FC021092020310920303FA
:10265000109204031092050328CF20E030E040E8F8
:1026600057ECC701B6010E947D2E87FDA4C0C09221
:10267000D502D092D602E092D702F092D802809191
:102680009E0290919F02A091A002B091A1028C594C
:102690009F4FAF4FBF4F8093D9029093DA02A09320
:1026A000DB02B093DC028091E3029091E402019698
:1026B0009093E4028093E3021816190604F5209122
:1026C000F1023091F2024091F3025091F402C30101
:1026D000B2010E94832D9B01AC016091ED027091CB
:1026E000EE028091EF029091F0020E94842D60939F
:1026F000ED027093EE028093EF029093F00240920D
:10270000F1025092F2026092F3027092F402CE0152
:102710004D960E94C8178091F5029091F60202979B
:1027200009F0B4CB6BE072E089ED93E00E94F627EC
:102730006091E3027091E402072E000C880B990B64
:102740000E942C2F9B01AC016091ED027091EE0272
:102750008091EF029091F0020E94822EAB01BC01A9
:1027600025E030E089ED93E00E94F6296CE072E00C
:1027700089ED93E00E94F6274091F7025091F8020C
:102780006091F9027091FA0225E030E089ED93E062
:102790000E94F8296EE072E089ED93E00E94F6272E
:1027A0004D8D5E8D6F8D78A12AE030E089ED93E04C
:1027B0000E94D8286BCB20E030E040E857E4C70106
:1027C000B6010E94842DECCECB010C94B231CB012A
:1027D000642F0C94BA318091370390913803891B90
:1027E000990B089590913803809137032FEF3FEFB5
:1027F000981748F4E92FF0E0E75CFC4F208130E0C7
:102800009F5F90933803C9010895E0913803809148
:102810003703E81730F4F0E0E75CFC4F808190E08C
:1028200008958FEF9FEF08950895CF93DF931F9240
:10283000CDB7DEB76983209113032223F9F02091ED
:102840001403203258F021E030E0FC01338322836E
:1028500090E080E00F90DF91CF9108958091150373
:10286000E82FF0E0EA5EFC4F998190838F5F8093C0
:1028700015038093140381E090E0ECCF61E0CE017A
:1028800001960E947115F7CFCF92DF92EF92FF92DF
:102890000F931F93CF93DF937C01CB018A0120918B
:1028A0001303222389F0EB016B01C40ED51ECC1556
:1028B000DD0569F06991D701ED91FC910190F081FE
:1028C000E02DC7010995F3CF642F0E947115C8014F
:1028D000DF91CF911F910F91FF90EF90DF90CF90FC
:1028E0000895109238031092370310921503109236
:1028F00014030C94BC14862F413208F040E269E3C3
:1029000073E00E94DA14109238038093370308951D
:1029100021E00C947B1481E08093130360933603D1
:10292000109215031092140308950F93062F21E0BF
:102930004091140366E173E0809136030E941E15F6
:102940001092150310921403109213030F9108951F
:1029500061E00C949514E7E0F3E01382128288EEB4
:1029600093E0A0E0B0E084839583A683B7838BE1F6
:1029700092E09183808308951092C60381E0809352
:10298000C4031092C30361E082E00E94442661E028
:1029900083E00E944426E9EBF0E080818E7F808313
:1029A00080818D7F808388E48093B80085E4809364
:1029B000BC000895413208F03FC09091C6039111C8
:1029C000FCCF91E09093C6032093C4032FEF209394
:1029D000590310929E03240F20939D039093C503E7
:1029E0009091C503880F892B8093C5038091C30301
:1029F0008130E9F41092C3038091C5038093BB003A
:102A000085EC8093BC008091C6038130E1F3809116
:102A10009E03841710F440919E03AFE9B3E0962F14
:102A2000FB018E2F891B841720F0842F089585EEDB
:102A3000E8CF8D918193F5CF40E0F7CF0F934132EE
:102A400008F047C09091C6039111FCCF92E090939B
:102A5000C6030093C4039FEF9093590310929E0303
:102A600040939D03362FAFE9B3E0FB019E2F931BEC
:102A7000941750F11092C5039091C503880F892BCC
:102A80008093C5038091C303813009F51092C3037D
:102A90008091C5038093BB0085EC8093BC0022230A
:102AA00021F08091C6038230D1F3809159038F3F8A
:102AB00091F080915903803281F0809159038033E5
:102AC00071F084E00F91089591919D93CFCF85EEA1
:102AD000E4CF81E0F7CF80E0F5CF82E0F3CF83E071
:102AE000F1CF613298F42091C603243089F46093C9
:102AF0007B03282FADE7B3E0FC018E2F821B8617E6
:102B000010F080E0089581918D93F7CF81E00895D2
:102B100082E0089585ED8093BC008091BC0084FD27
:102B2000FCCF1092C603089585EC8093BC001092F0
:102B3000C60308951F920F920FB60F9211242F9380
:102B40003F934F935F936F937F938F939F93AF9335
:102B5000BF93EF93FF938091B900887F803609F48B
:102B60004CC008F03FC0883209F4A8C018F5803185
:102B700009F49CC0B8F4882309F4F9C0883009F43A
:102B800095C0FF91EF91BF91AF919F918F917F91F0
:102B90006F915F914F913F912F910F900FBE0F90CA
:102BA0001F901895883109F489C0803251F78093BD
:102BB000590315C0803409F49EC048F48033B9F33A
:102BC0008833F9F6809359030E949415DACF803543
:102BD00009F485C0883509F496C0883491F60E94BE
:102BE0008A15CFCF883909F48CC038F5883729F099
:102BF00050F4883611F0803721F683E08093C603C5
:102C000010925A0357C0883809F47BC0803919F0F4
:102C1000803809F0B6CF80915A03803208F071C035
:102C2000E0915A0381E08E0F80935A038091BB009C
:102C3000F0E0E55AFC4F80833DC0803B39F0E0F482
:102C4000803A09F479C0883A09F09BCF84E08093F8
:102C5000C60310927C0310927B03E091C103F091B4
:102C6000C203099580917B0381110FC081E080939D
:102C70007B0310927D0309C0803C09F476C0883C38
:102C800009F473C0883B09F07CCFE0917C0381E0BC
:102C90008E0F80937C03F0E0E358FC4F808180939B
:102CA000BB0090917C0380917B0329C08091C50378
:102CB0008093BB0085EC8093BC0063CF90919E0312
:102CC00080919D03981758F5E0919E0381E08E0F47
:102CD00080939E03F0E0E156FC4F8081E9CFE091C4
:102CE0009E0381E08E0F80939E038091BB00F0E0F5
:102CF000E156FC4F808390919E0380919D0398172D
:102D0000C8F285E8D8CFE0919E0381E08E0F8093D2
:102D10009E038091BB00F0E0E156FC4F80838091E0
:102D2000C40381115CCF81E08093C30384EA809364
:102D3000BC001092C60325CF80915A03803230F434
:102D4000E0915A03F0E0E55AFC4F10820E948A1588
:102D500060915A0370E0E091BF03F091C0038BE5EE
:102D600093E0099510925A032FCF85ECE0CF109293
:102D7000590335CFFF920F931F93CF93DF93C62F45
:102D8000042FF22E132F682F87E093E00E948B14FC
:102D90006C2F87E093E00E941514CF2DD12F0C0FDC
:102DA0001D2F111DC017D10731F0699187E093E005
:102DB0000E941514F7CF87E093E00E94A81491E0D9
:102DC000811190E0892FDF91CF911F910F91FF909A
:102DD00008952F923F924F925F926F927F928F92BF
:102DE0009F92AF92BF92CF92DF92EF92FF920F939A
:102DF0001F93CF93DF9300D01F92CDB7DEB7E82E9D
:102E000069834B8369010E940D254B015C01F12C04
:102E10001A822B81222E312C2801712C612C8B815E
:102E2000F81608F048C06E2D87E093E00E948B14DE
:102E3000698187E093E00E94151487E093E00E9487
:102E4000A8146E2D87E093E00E948B14A1014F1906
:102E500051094132510514F040E250E06E2D87E0F7
:102E600093E00E94881487E093E00E94EB13892B83
:102E7000E1F00115110571F487E093E00E94F2136F
:102E8000F6019A81E90FF11D97FDFA9580839F5F06
:102E90009A83E9CF0E940D25681979098A099B094F
:102EA000641575058605970538F38B81813208F026
:102EB00080E2F80EB4CF01151105C1F00E940D2576
:102EC000681979098A099B0930E020E060177107C9
:102ED0008207930758F02A81822F220F990B2B81AA
:102EE0002817190619F014F08FEF8A838A810F9042
:102EF0000F900F90DF91CF911F910F91FF90EF9066
:102F0000DF90CF90BF90AF909F908F907F906F9009
:102F10005F904F903F902F900895CF93DF931F9233
:102F2000CDB7DEB790912A019923F1F0882341F1C2
:102F300082E08983A0910D01B0910E01E0910F0113
:102F4000F09110019E012F5F3F4F41E051966C912F
:102F500080810E94A5240097A9F42981209319015A
:102F60000F90DF91CF91089590911301992351F023
:102F7000882331F080911901811107C081E0D9CFF8
:102F80001982D8CF8FEF9FEFEBCF90E080E0E8CFB2
:102F90000F931F93CF93DF9300D0CDB7DEB720916F
:102FA0001301211108C08FEF0F900F90DF91CF9187
:102FB0001F910F9108958C01A0910D01B0910E0108
:102FC000E0910F01F09110019E012F5F3F4F42E011
:102FD00050966C9180810E94AE24892B21F76981E3
:102FE0007A81762767277627072E000C880B990BA6
:102FF0000E942C2F20E030E04AEA53E40E94822E07
:1030000028EB3EE142E152E40E94842D20E030E0D2
:1030100040E857E40E9444300E94F42EF801608397
:1030200071838283938380E0BFCFFF920F931F93BE
:10303000CF93DF9300D0CDB7DEB78C0186E0F82EBA
:10304000E0910F01F09110019E012F5F3F4F42E090
:103050006F2D80810E94AE2489819A8198278927CB
:103060009827B0E0A0E0F80181939193A193B193E8
:103070008F01F394F394FCE0FF12E2CF0F900F90D6
:10308000DF91CF911F910F91FF900895EF92FF92E2
:103090001F93CF93DF9300D0CDB7DEB77C0113E150
:1030A000F70181919191A191B1917F0199838A83D7
:1030B000E0910F01F09110019E012F5F3F4F42E020
:1030C000612F80810E94A5241E5F193149F70F905E
:1030D0000F90DF91CF911F91FF90EF900895AF92E5
:1030E000BF92CF92DF92EF92FF920F931F93CF93F5
:1030F000DF93CDB7DEB762970FB6F894DEBF0FBE91
:10310000CDBF5C016E018DE0C80ED11C86E0F601DA
:1031100011928A95E9F719821A821B821C821D82FC
:103120001E821F82188619861A861B861C86CE016F
:1031300001960E9415188E010F5F1F4F750186E0E2
:10314000B82EF80181919191A191B1918F01F70170
:1031500041915191619171917F014E7F841B950B3B
:10316000A60BB70BF801349780839183A283B383B6
:103170009D878E87E0910F01F0911001960142E04A
:103180006B2D80810E94A524B394B394FCE0BF1200
:10319000D8CF62960FB6F894DEBF0FBECDBFDF91D9
:1031A000CF911F910F91FF90EF90DF90CF90BF9044
:1031B000AF900895CF93DF931F92CDB7DEB7809184
:1031C00013018823A1F01982A0910D01B0910E0185
:1031D000E0910F01F09110019E012F5F3F4F41E000
:1031E00051966C9180810E94A524892B11F08FEF5C
:1031F00094C0A0910D01B0910E01E0910F01F091EA
:1032000010019E012F5F3F4F41E015966C91808128
:103210000E94A524892B59F7A0910D01B0910E01B0
:10322000E0910F01F09110019E012F5F3F4F41E0AF
:1032300014966C9180810E94A524892BC1F6E0919F
:103240000D01F0910E016481E0910F01F0911001E8
:10325000808190912A01992309F465C09CE09983AB
:103260009E012F5F3F4F41E00E94A524892B09F06A
:10327000BECF62E370E080E090E00E943E2580ECEB
:1032800089838091130180FF02C080EE8983A09121
:103290000D01B0910E01E0910F01F09110019E011E
:1032A0002F5F3F4F41E014966C9180810E94A524CE
:1032B000892B09F09CCF80911901882391F182E03C
:1032C0008983A0910D01B0910E01E0910F01F09161
:1032D00010019E012F5F3F4F41E051966C9180811C
:1032E0000E94A524892B09F082CF1982A0910D019B
:1032F000B0910E01E0910F01F09110019E012F5F3E
:103300003F4F41E015966C9180810E94A52421E0F9
:10331000892B09F420E0822F81950F90DF91CF91C6
:1033200008951982CECF94E099839E012F5F3F4F7D
:1033300041E00E94A524892B09F059CF80911A0100
:10334000811104C08091130180FD41C080E4898314
:10335000A0910D01B0910E01E0910F01F0911001CB
:103360009E012F5F3F4F41E014966C9180810E9437
:10337000A524892B09F03BCF62E370E080E090E068
:103380000E943E2580911901882319F181E08983EB
:10339000A0910D01B0910E01E0910F01F09110018B
:1033A0009E012F5F3F4F41E051966C9180810E94BA
:1033B000A524892B09F01BCFA0910D01B0910E011E
:1033C000E0910F01F091100128E131E09ACF80E601
:1033D000BECF1982DDCFCF93DF931F92CDB7DEB77B
:1033E00020911301222369F1843F21E0920769F1C2
:1033F000883E23E0920761F18A3F910559F51982D1
:103400008981869586958695909111019817C9F0C6
:10341000A0910D01B0910E01E0910F01F09110010A
:103420009E012F5F3F4F41E016966C9180810E9474
:10343000A524892B31F4898186958695869580937C
:1034400011010F90DF91CF91089588E08983D8CF43
:1034500080E1FCCF88E1FACFFC018091120181303C
:1034600079F020F0823071F080E101C082E0808349
:1034700080911B01882319F08081880F8083089533
:1034800084E0F5CF88E0F3CFCF93DF931F92CDB7E1
:10349000DEB790911301992341F1843051F18830C6
:1034A00059F1823059F519828981869586958695DC
:1034B000909112019817C9F0A0910D01B0910E01E1
:1034C000E0910F01F09110019E012F5F3F4F41E00D
:1034D00017966C9180810E94A524892B31F48981F3
:1034E000869586958695809312010F90DF91CF91F6
:1034F000089588E08983D8CF80E1FCCF88E1FACFB6
:10350000CF93DF931F92CDB7DEB720911301222313
:1035100001F18C3B910508F181E0898390911401C0
:1035200089819817B1F0A0910D01B0910E01E09141
:103530000F01F09110019E012F5F3F4F41E0129665
:103540006C9180810E94A524892B19F48981809334
:1035500014010F90DF91CF9108958236910510F0FC
:1035600082E0DBCF8A32910510F083E0D6CF843140
:10357000910510F084E0D1CF0A9710F085E0CDCF0F
:1035800086E0CBCFCF93DF9390912A0191111BC09E
:10359000909113019923B9F0C82FCE7FD0911801D3
:1035A0009C2390931801C11104C080911C018823B1
:1035B00069F081E00E948D17CC2329F00E94DA186F
:1035C0008111D0931801DF91CF91089580E0DF91B0
:1035D000CF910C948D17AF92BF92CF92DF92EF9262
:1035E000FF920F931F93CF93DF9300D0CDB7DEB739
:1035F00020912A01222309F471C020911301222372
:1036000009F46EC06A015B018C01A0910D01B091BB
:103610000E01E0910F01F09110019E012F5F3F4FCD
:1036200042E01C966C9180810E94AE24892B71F03F
:1036300082E00F900F90DF91CF911F910F91FF903B
:10364000EF90DF90CF90BF90AF900895E980FA801F
:10365000FE24EF24FE24E016F10620F4F601108289
:1036600085E0E7CFE0910F01F09110018181928117
:10367000969587958E159F05B0F4A0910D01B09198
:103680000E019E012F5F3F4F41E053966C91808168
:103690000E94AE24892B61F6898184FF04C00E94B8
:1036A000DA1883E0C6CFA0910D01B0910E01E09130
:1036B0000F01F09110019501402F1D966C918081B2
:1036C0000E94AE24892B09F0B3CFC701B8010E9434
:1036D00015316150F601608380E0ABCF81E0A9CF66
:1036E00084E0A7CF1F93CF93DF931F92CDB7DEB7B0
:1036F00090911A01981709F45DC0182FE0910D01FF
:10370000F0910E016481E0910F01F0911001808130
:103710009E012F5F3F4F41E0112309F44DC00E94ED
:10372000AE24892B31F08FEF0F90DF91CF911F9155
:10373000089589818F7D8983A0910D01B0910E013B
:10374000E0910F01F09110019E012F5F3F4F41E08A
:1037500014966C9180810E94A524892B21F763E047
:1037600070E080E090E00E943E2582E089838091B5
:103770002801882311F082E8898380912901882318
:1037800019F0898180638983A0910D01B0910E01A8
:10379000E0910F01F09110019E012F5F3F4F41E03A
:1037A00057966C9180810E94A524892B09F0BBCF8C
:1037B00010931A0180E0B8CF0E94AE24892B09F043
:1037C000B2CF99818091130180FF22C090629983CA
:1037D000A0910D01B0910E01E0910F01F091100147
:1037E0009E012F5F3F4F41E014966C9180810E94B3
:1037F000A524892B09F097CF63E070E080E090E08A
:103800000E943E2580912801882321F080E8B4CFD2
:103810009F7DDDCF1982B1CF1F93CF93DF931F928E
:10382000CDB7DEB790912901981741F1882341F176
:1038300090E3998390911A01992319F099819260EC
:10384000998390912801992319F09981906899831F
:10385000182FA0910D01B0910E01E0910F01F09190
:1038600010019E012F5F3F4F41E057966C91808180
:103870000E94A524892B31F41093290180E003C014
:103880001982D8CF8FEF0F90DF91CF911F910895BC
:103890000F931F93CF93DF9300D0CDB7DEB789325C
:1038A000910510F08FEF1FC08C01892B19F580E076
:1038B0000E940C1C198287E08A83A0910D01B091AF
:1038C0000E01E0910F01F09110019E012F5F3F4F1B
:1038D00042E055966C9180810E94A524892B11F7B6
:1038E00010921C0180E00F900F90DF91CF911F91FB
:1038F0000F91089581E00E940C1C80E289830130C1
:10390000110561F51A8285E090E00E94801A8A8193
:1039100020E4829FC001112487608A83A0910D0159
:10392000B0910E01E0910F01F09110019E012F5F07
:103930003F4F42E055966C9180810E94A524892BCF
:1039400009F0B0CF88E0809313011092150181E057
:1039500080931C0180E00E94C21AC4CF063011057A
:1039600018F481E08A83CFCF0531110528F482E075
:103970008A838AE090E0C9CF83E08A8384E190E083
:10398000C4CF0F931F93CF93DF931F92CDB7DEB7B2
:1039900020911301222381F020912A0121110CC0D2
:1039A0008C0180911C01882389F0C80101978897B8
:1039B00048F4C8010E94481C0F90DF91CF911F91DD
:1039C0000F91089590E080E00E94481CB801093EE4
:1039D000134010F068EE73E06430710510F464E099
:1039E00070E008EE13E0C8010E9415316150698350
:1039F000A0910D01B0910E01E0910F01F091100125
:103A00009E012F5F3F4F41E011966C9180810E9493
:103A1000A524892B89F6698170E06F5F7F4FC8010B
:103A20000E9429317093170160931601CB0196957E
:103A300087950E94801AC0CF1F93CF93DF931F9268
:103A4000CDB7DEB7182F807719F081E0898303C0E6
:103A50001123D9F01982A0910D01B0910E01E091CE
:103A60000F01F09110019E012F5F3F4F41E05596ED
:103A70006C9180810E94A524892B49F0109213013A
:103A80000F90DF91CF911F91089580E4DFCF89815E
:103A90008F7B8093150116FF34C0198215FD03C07A
:103AA00089818260898314FD03C089818160898353
:103AB00013FD03C0898188638983A0910D01B091B2
:103AC0000E01E0910F01F09110019E012F5F3F4F19
:103AD00041E056966C9180810E94A524892B71F655
:103AE000812F877F19F080E00E940C1C1093130136
:103AF00010921C0162E370E080E090E00E943E259D
:103B0000BFCF84E08983CACF1F93CF93DF9300D0C8
:103B100000D000D0CDB7DEB71FEFDC011C9380E8EA
:103B20008983A0910D01B0910E01E0910F01F091F8
:103B300010019E012F5F3F4F41E055966C918081AF
:103B40000E94A524892B09F060C064E670E080E043
:103B500090E00E943E251982A0910D01B0910E01C6
:103B6000E0910F01F09110019E012F5F3F4F41E066
:103B700055966C9180810E94A524892B09F045C03F
:103B8000109313011093110110931201109314015B
:103B90008FEF9FEF909317018093160110931801F8
:103BA00010931A0181E080931501809328011092EF
:103BB000290110921D0110921C01EEE1F1E08AE052
:103BC000DF011D928A95E9F710922A0110922B01CC
:103BD00010922D0110922C0180ED97E00E94EB19BC
:103BE00082E00E94441A84E690E00E94C11C8AE2AE
:103BF00090E00E94801A80E00E94C21A80E00E9439
:103C0000721B811102C00E941C1D26960FB6F894EB
:103C1000DEBF0FBECDBFDF91CF911F910895EF9210
:103C2000FF920F931F93CF93DF9300D0CDB7DEB7F2
:103C30004115510591F120911301222371F19983CE
:103C40008A83E0910F01F0911001860F972F911D4B
:103C5000208531852817390700F17A018B01A09161
:103C60000D01B0910E019E012F5F3F4F42E05B9628
:103C70006C9180810E94A524892B79F4A0910D017B
:103C8000B0910E01E0910F01F09110019701402FCA
:103C900058966C9180810E94A5240F900F90DF911F
:103CA000CF911F910F91FF90EF900895EF92FF92A7
:103CB0000F931F93CF93DF9300D0CDB7DEB741159D
:103CC000510591F120911301222371F199838A8387
:103CD000E0910F01F0911001860F972F911D208523
:103CE00031852817390700F17A018B01A0910D0168
:103CF000B0910E019E012F5F3F4F42E05B966C91A9
:103D000080810E94A524892B79F4A0910D01B091A6
:103D10000E01E0910F01F09110019701402F58968C
:103D20006C9180810E94AE240F900F90DF91CF9113
:103D30001F910F91FF90EF9008954F925F926F92B5
:103D40007F928F929F92AF92BF92CF92DF92EF922B
:103D5000FF920F931F93CF93DF93CDB7DEB7A29758
:103D60000FB6F894DEBF0FBECDBFE0912B01E1117D
:103D700029C06115710531F14901652E742E5B0171
:103D80006C01F12CE12CEC14FD0498F169A27AA2EB
:103D9000A0910D01B0910E01E0910F01F091100181
:103DA0009E012F5D3F4F42E05D966C9180810E94A5
:103DB000A524892B39F481E080932B0190922D0169
:103DC00080922C01A2960FB6F894DEBF0FBECDBF35
:103DD000DF91CF911F910F91FF90EF90DF90CF90E7
:103DE000BF90AF909F908F907F906F905F904F901B
:103DF0000895C6018E199F098131910510F080E167
:103E000090E0DE01119610E000E02D0195012E0DED
:103E10003F1DF901E00FF11FE491ED930F5F1F4F7C
:103E200008171907B1F7A201B801C7010E940F1EB8
:103E3000AE014F5E5F4FB801C7010E94561EA80138
:103E4000BE016F5E7F4FC2010E949E31892B09F037
:103E5000B9CFE00EF11E97CFCF93DF931F92CDB76E
:103E6000DEB790912A01981731F1882341F18091B2
:103E70002B01882301F180E00E948D1780E00E94D1
:103E8000721B80912C0190912D010E94C11C1982FE
:103E9000E0910F01F09110019E012F5F3F4F41E033
:103EA00063E280810E94A52481E080932A010E9420
:103EB0008D170E94DA180F90DF91CF91089580E05E
:103EC0000E948D17809118018983E0910F01F09174
:103ED00010019E012F5F3F4F41E063E280810E940D
:103EE000A52410922A01E5CFCF93DF93CDB7DEB79B
:103EF00029970FB6F894DEBF0FBECDBF89E0EAE385
:103F0000F1E0DE01119601900D928A95E1F7AE0184
:103F10004F5F5F4F69E070E088EB94E00E940F1EF6
:103F200029960FB6F894DEBF0FBECDBFDF91CF91BB
:103F3000089528EC30E040E054E066E171E086EF5F
:103F40009BE00C949D1E6F927F928F92CF92DF9296
:103F5000EF920F931F93CF93DF93CDB7DEB72C97DC
:103F60000FB6F894DEBF0FBECDBF8C018091430128
:103F700090914401A09145018C839D83AE838091F3
:103F8000460190914701A091480189839A83AB83B0
:103F90006090490170904A0180904B01C0904C01A3
:103FA000D0904D01E0904E01980123703327E4E05A
:103FB000F0E0EC0FFD1FE20FF31F80818A87C8013C
:103FC00043E0969587954A95E1F783709927E4E059
:103FD000F0E0EC0FFD1FE80FF91F40814B87F8015F
:103FE00056E0F695E7955A95E1F7E370FF27A4E0D0
:103FF000B0E0AC0FBD1FAE0FBF1F4C914C8741E02E
:1040000050E04C0F5D1F240F351FD9012C912F83D9
:10401000840F951FDC018C918887E40FF51F808148
:104020008987AE01465F5F4F63E070E086E294E00F
:104030000E940F1EAE01495F5F4F63E070E08AE2AD
:1040400094E00E940F1E6A867B868C86CF82D8867B
:10405000E98602FF04C087E38A8787E28F8305FF32
:1040600004C087E58B8787E4888710FF04C087E753
:104070008C8787E68987AE01465F5F4F63E070E01B
:1040800080E494E00E940F1EAE01495F5F4F63E041
:1040900070E081E394E00E940F1E1093CA03009326
:1040A000C9032C960FB6F894DEBF0FBECDBFDF91CB
:1040B000CF911F910F91EF90DF90CF908F907F90D5
:1040C0006F9008950F931F93CF93DF93CDB7DEB713
:1040D00064970FB6F894DEBF0FBECDBF2CE0EFE4BF
:1040E000F1E0DE01119601900D922A95E1F7893CED
:1040F000910500F58C011D8688EC90E0B8010E94C6
:104100001531615071096E87AE01435F5F4F62E008
:1041100070E086E192E00E940F1EAE014F5F5F4F9C
:104120006CE070E081EC9AE00E940F1E1093CE03C9
:104130000093CD0364960FB6F894DEBF0FBECDBFDB
:10414000DF91CF911F910F9108958F929F92AF921F
:10415000BF92FF920F931F93CF93DF9300D000D0B5
:104160001F92CDB7DEB7982F9770E1F0613496E0DB
:104170007907C0F4F82E90E080E00E942A2F20E01A
:1041800030E048E453E40E94822E4B015C01CE01F2
:1041900005960E942C1A8D81843009F481C020F488
:1041A0008230C1F08FEF6DC0883009F48AC0803151
:1041B000C9F720E030E040E055E4C501B4010E94B9
:1041C00044300E94FB2E162F072F20E030E040ECF9
:1041D00054E410C020E030E040E856E4C501B401EA
:1041E0000E9444300E94FB2E162F072F20E030E063
:1041F00040E456E4C501B4010E9444300E94FB2E05
:1042000009831A837B836C83F0FE12C0AE014F5F7B
:104210005F4F62E070E084ED91E00E940F1EAE01FE
:104220004D5F5F4F62E070E084E291E00E940F1EFC
:10423000F1FE12C0AE014F5F5F4F62E070E088EDAB
:1042400091E00E940F1EAE014D5F5F4F62E070E093
:1042500088E291E00E940F1EF2FE12C0AE014F5F95
:104260005F4F62E070E08CED91E00E940F1EAE01A6
:104270004D5F5F4F62E070E08CE291E00E940F1EA4
:1042800080E00F900F900F900F900F90DF91CF91E3
:104290001F910F91FF90BF90AF909F908F900895C6
:1042A00020E030E040E056E4C501B4010E94443013
:1042B0000E94FB2E162F072F20E030E040EC55E443
:1042C00099CF20E030E040E855E4C501B4010E94F8
:1042D00044300E94FB2E162F072F20E030E040E4F0
:1042E00055E488CFCF93DF931F92CDB7DEB780FD23
:1042F00019C0198281FF03C099819C60998382FF54
:1043000003C0898183608983AE014F5F5F4F61E0A5
:1043100070E088E491E00E940F1E80E00F90DF9132
:10432000CF91089590E39983E5CFCF93DF931F92C8
:10433000CDB7DEB7882399F0853008F084E081504E
:104340008983AE014F5F5F4F61E070E08FE491E0E1
:104350000E940F1E80E00F90DF91CF91089581E0C1
:10436000EECFCF93DF9300D0CDB7DEB765E070E03E
:104370000E94153179836A83AE014F5F5F4F62E01F
:1043800070E08EED91E00E940F1E80E00F900F9084
:10439000DF91CF910895CF93DF9300D0CDB7DEB7F3
:1043A00065E070E00E94153179836A83AE014F5F4A
:1043B0005F4F62E070E08AED91E00E940F1E80E0A6
:1043C0000F900F90DF91CF9108950F931F93CF938C
:1043D000DF9300D000D0CDB7DEB78A0128EE33E0FE
:1043E00040E050E00E945F31D8010E9484319983FF
:1043F0008A837B836C83AE014F5F5F4F64E070E024
:104400008CE591E00E940F1E80E00F900F900F90BE
:104410000F90DF91CF911F910F910895CF93DF936C
:1044200000D0CDB7DEB765E070E00E94153179832A
:104430006A83AE014F5F5F4F62E070E08AE591E012
:104440000E940F1E80E00F900F90DF91CF91089592
:10445000CF93DF9300D0CDB7DEB765E070E00E9468
:10446000153179836A83AE014F5F5F4F62E070E080
:1044700088E591E00E940F1E80E00F900F90DF9181
:10448000CF910895CF93DF93CDB7DEB729970FB6BD
:10449000F894DEBF0FBECDBF882359F00E94741F71
:1044A00029960FB6F894DEBF0FBECDBFDF91CF9136
:1044B000089589E0EBE5F1E0DE01119601900D929F
:1044C0008A95E1F7AE014F5F5F4F69E070E088EBDE
:1044D00094E00E940F1EE4CFCF93DF9300D000D072
:1044E000CDB7DEB78823D1F080EC898382EC8A8354
:1044F00084EC8B8386EC8C83AE014F5F5F4F64E06E
:1045000070E088E99AE00E940F1E0E94DA180F906E
:104510000F900F900F90DF91CF91089544E050E0FD
:104520006BE870E0CE0101960E94AB31E5CFCF93EE
:10453000DF9300D000D0CDB7DEB78823D1F080E282
:10454000898388E28A8380E38B8388E38C83AE014E
:104550004F5F5F4F64E070E08EE99AE00E940F1EAB
:104560000E94DA180F900F900F900F90DF91CF916B
:10457000089544E050E063EA70E0CE0101960E94A5
:10458000AB31E5CFAF92BF92CF92DF92EF92FF9225
:104590000F931F93CF93DF93CDB7DEB72A970FB654
:1045A000F894DEBF0FBECDBF8C0182E089838AEC18
:1045B0008A8383EE8B8389E08C83AE014F5F5F4FEC
:1045C00064E070E088E690E00E940F1E83EA898331
:1045D000580190E4A922BB2406FFCBC080EC8A835B
:1045E00088EC8B8382EC8C83680180E8C82281E0B0
:1045F000D822C114D10409F4BFC084EC8D838CECA3
:104600008E8386EC8F8383EA888789878A87AE01C9
:104610004F5F5F4F6AE070E087EA9AE00E940F1EEA
:10462000780193E0E922FF2480E2E114F10409F427
:1046300088ED8983AE014F5F5F4F61E070E086EBEC
:104640009AE00E940F1E05FF9BC00E94741FC114B8
:10465000D10499F010FF98C082EB89838BE88A839C
:1046600086EB8B838BE98C83AE014F5F5F4F64E0F9
:1046700070E082EA9AE00E940F1E00FF8DC088EF72
:104680008983AE014F5F5F4F61E070E080EB98E09F
:104690000E940F1E6AEF70E087E00E94A52087E06D
:1046A0000E94722181E00E94952184E690E00E94A0
:1046B000B12184EF91E00E94CB2148EC50E069E009
:1046C00073EE8AEC92E00E94E52188E290E00E947D
:1046D0000E228AE090E00E94282289ED01FF88EDF9
:1046E0008983AE014F5F5F4F61E070E08DE397E03B
:1046F0000E940F1E81E002FF80E00E946C2281E098
:1047000004FF80E00E949722C80188609093CC0348
:104710008093CB030E94DA18AB2809F049C01092AD
:10472000CF03CD2829F08091CF038A5F8093CF03F8
:1047300004711127012B29F08091CF03805F8093B2
:10474000CF03EF2829F08091CF038C5F8093CF03B4
:104750002A960FB6F894DEBF0FBECDBFDF91CF9182
:104760001F910F91FF90EF90DF90CF90BF90AF908F
:1047700008958A838B8337CF83EA8D838E8342CFDC
:1047800080E00E94422263CF80EB898380E88A83A5
:1047900084EB8B8380E967CF88ED8983AE014F5F1F
:1047A0005F4F61E070E080EB98E00E940F1E95CFB4
:1047B00086E08093CF03B5CF6F927F928F929F92C6
:1047C000AF92BF92CF92DF92EF92FF920F931F931F
:1047D000CF93DF93CDB7DEB7A0970FB6F894DEBFC7
:1047E0000FBECDBF5C014B013A016901A701F80181
:1047F000118210828091CF03BE016F5F7F4F90E0E6
:104800000E94EB1A811186C02091CB033091CC031A
:10481000A90144715527452BD9F0FE013196D301EA
:10482000CE0141967080418150E070E060E0BA01B5
:1048300055274427772973804729728057294D933C
:104840005D936D937D9334968E179F0759F780E1A2
:1048500026FF1DC0A1E0B0E0AC0FBD1FA80FB11D29
:10486000F401B4016A5F7F4F4C9111969C911197AE
:10487000542F492F4193519312966E177F07A1F73A
:104880008A5FF80140815181486051834083A901CA
:1048900040785170452BE9F0A1E0B0E0AC0FBD1FAE
:1048A000A80FB11DF501B5016A5F7F4F4C911196BC
:1048B0009C911197542F492F4193519312966E1743
:1048C0007F07A1F78A5FF8014081518140675183DA
:1048D000408323703327232BC1F0E1E0F0E0EC0F9D
:1048E000FD1FE80FF11D818180FF0FC06381862FBE
:1048F000869586958695877067706F5FE091C70390
:10490000F091C803309709F00995F60110821182E1
:1049100012821382A0960FB6F894DEBF0FBECDBFF1
:10492000DF91CF911F910F91FF90EF90DF90CF908B
:10493000BF90AF909F908F907F906F9008959093CD
:10494000C8038093C70380E008950E94BA1691E0DF
:10495000892790E091958195910908950F931F9370
:1049600000910B0110910C010E94E91621E030E04A
:10497000882311F030E020E088279927821B930BD1
:104980001F910F9108951F920F920FB60F9211244D
:104990002F933F938F939F93AF93BF938091D103B6
:1049A0009091D203A091D303B091D4033091D0035E
:1049B00023E0230F2D3758F50196A11DB11D20933B
:1049C000D0038093D1039093D203A093D303B093E9
:1049D000D4038091D5039091D603A091D703B091D1
:1049E000D8030196A11DB11D8093D5039093D603E2
:1049F000A093D703B093D803BF91AF919F918F91AC
:104A00003F912F910F900FBE0F901F90189526E8A1
:104A1000230F0296A11DB11DD2CF2FB7F89460913C
:104A2000D1037091D2038091D3039091D4032FBF0F
:104A300008953FB7F8948091D5039091D603A09143
:104A4000D703B091D80326B5A89B05C02F3F19F016
:104A50000196A11DB11D3FBFBA2FA92F982F8827FE
:104A6000BC01CD01620F711D811D911D42E0660FD9
:104A7000771F881F991F4A95D1F70895CF92DF922B
:104A8000EF92FF92CF93DF936B017C010E94192577
:104A9000EB01C114D104E104F10439F4DF91CF91A9
:104AA000FF90EF90DF90CF9008950E94822D0E949A
:104AB00019256C1B7D0B683E734058F381E0C81AC2
:104AC000D108E108F108C851DC4FE3CF789484B5F0
:104AD000826084BD84B5816084BD85B5826085BDFA
:104AE00085B5816085BDEEE6F0E0808181608083E0
:104AF000E1E8F0E0108280818260808380818160C3
:104B00008083E0E8F0E0808181608083E1E9F0E08B
:104B1000808182608083808181608083E0E9F0E031
:104B2000808181608083E1ECF0E08081846080831B
:104B3000808182608083808181608083E3ECF0E00B
:104B4000808181608083E0ECF0E0808182608083FE
:104B5000E2ECF0E0808181608083EAE7F0E0808130
:104B60008460808380818260808380818160808393
:104B7000808180688083089581508F3008F047C01D
:104B8000E82FF0E0EA53FA4D0C947E31E325E72557
:104B9000D525DB25DF25072607260726EA25F0256C
:104BA000F425F825FE2507260226809180008F77C0
:104BB000809380000895809180008F7DF9CF80914F
:104BC0008000877FF5CF84B58F7784BD089584B545
:104BD0008F7DFBCF809190008F7780939000089518
:104BE000809190008F7DF9CF80919000877FF5CFE5
:104BF0008091C0008F778093C00008958091C0009D
:104C00008F7DF9CF8091C200877F8093C200089585
:104C1000CF93DF9390E0FC01E65DF24F2491885B37
:104C2000924FFC0184918823C9F090E0880F991F6E
:104C3000FC01EE57F24FA591B491FC01EC58F24FF4
:104C4000C591D49161110DC09FB7F8948C912095B6
:104C500082238C938881282328839FBFDF91CF9163
:104C60000895623051F49FB7F8943C91822F80955B
:104C700083238C93E8812E2BEFCF8FB7F894EC91A0
:104C80002E2B2C938FBFEACF1F93CF93DF93282F28
:104C900030E0F901E45FF24F8491F901E65DF24FF3
:104CA000D491F901E85BF24FC491CC23A9F0162FFF
:104CB00081110E94BC25EC2FF0E0EE0FFF1FEC5895
:104CC000F24FA591B4918FB7F894EC91111108C0EF
:104CD000D095DE23DC938FBFDF91CF911F91089594
:104CE000DE2BF8CFCF93DF93282F30E0F901E45F7C
:104CF000F24F8491F901E65DF24FD491F901E85B3E
:104D0000F24FC491CC23A1F081110E94BC25EC2F5D
:104D1000F0E0EE0FFF1FEA59F24FA591B491EC912C
:104D2000ED2381E090E009F480E0DF91CF910895D8
:104D300080E090E0FACFCF93DF931F92CDB7DEB73C
:104D40006983DC01ED91FC910280F381E02D41E06B
:104D500050E0BE016F5F7F4F09950F90DF91CF91BB
:104D60000895CF93DF93EC018C859D8597FF05C057
:104D700082E00E94C82A9D878C878C859D85DF9163
:104D8000CF91089583E00C94F22CFC0184859585E5
:104D900097FD06C082E00E94772A90E00196089570
:104DA00082E00E94772A90E00895FC018485958531
:104DB00097FD05C02FEF3FEF35872487089582E0E8
:104DC0000C94C82ACF93DF93EC018091370188239C
:104DD00031F083E00E94F92A1816190634F081E0B8
:104DE00090E09B838A8380E090E0DF91CF910895EB
:104DF000FC0190819E5F908342E450E060E97DE099
:104E000080E80C948F2BFC0181819081913A61F4B0
:104E1000813209F04DC047E050E060E371E080E08E
:104E20000E948F2B81E00895913209F041C08032B9
:104E300041F567E070E080E391E00E94B52B80913E
:104E4000300190913101A0913201B0913301803B4A
:104E50009440A105B105D9F48091370180FD17C0B8
:104E600087E797E7909301088093000888E19BE02B
:104E70000FB6F894A895809360000FBE90936000E1
:104E8000D1CF823279F6828180933701D8CF0FB6A5
:104E9000F894A895809160008861809360001092DA
:104EA00060000FBEA8951092010810920008BACFBA
:104EB00080E008952FEF3FEFFC01358724870895A8
:104EC000E9EDF3E01382128288EE93E0A0E0B0E017
:104ED00084839583A683B7838AE792E09183808356
:104EE0008FEF9FEF958784870895FC0190819F5FE6
:104EF000908349E150E062ED7DE080E80C948F2BD7
:104F000042E250E06BEE7DE080E80C948F2BEF9254
:104F1000FF920F931F93CF93DF931F92CDB7DEB70E
:104F200089838B017A0141E050E0BE016F5F7F4FC2
:104F300084E00E94F92AA701B80184E40E94F92ABA
:104F40000F90DF91CF911F910F91FF90EF900895F7
:104F5000FC0191818081813A31F49D7F81E0913023
:104F600009F080E008958132E1F79B3029F48281D5
:104F70008093390181E008959A3099F78281809376
:104F80003801F8CFCF93DF9300D000D000D0CDB759
:104F9000DEB7FB01808191819A838983828193812D
:104FA0009C838B83848195819E838D8346E050E032
:104FB000BE016F5F7F4F81E00E94872726960FB664
:104FC000F894DEBF0FBECDBFDF91CF910895FB01F6
:104FD00001900020E9F73197AF01461B570BDC0128
:104FE000ED91FC910280F381E02D0994611571052A
:104FF00011F00C94E72790E080E00895DC01ED913A
:10500000FC910190F081E02D09940F931F93CF93B1
:10501000DF93EC016DE00E94FE278C016AE0CE0177
:105020000E94FE27800F911FDF91CF911F910F915A
:1050300008950F931F93CF93DF938C01D0E0C0E0CE
:105040006115710519F00E94E727EC01C8010E9463
:1050500005288C0F9D1FDF91CF911F910F9108950F
:105060008F929F92AF92BF92CF92DF92EF92FF9278
:105070000F931F93CF93DF93CDB7DEB7A1970FB6F2
:10508000F894DEBF0FBECDBF6C01142FE52FCB010E
:10509000022F19A2223008F40AE07E0121E2E20E7A
:1050A000F11C802E912CB12CA12C612F7E2FA501FB
:1050B00094010E943D31029F101911241A303CF5D1
:1050C000105DF70112937F01122FE32FCA01232BEA
:1050D000242B252B51F790E080E0E114F10421F01E
:1050E000B701C6010E94E727A1960FB6F894DEBF6C
:1050F0000FBECDBFDF91CF911F910F91FF90EF9029
:10510000DF90CF90BF90AF909F908F900895195CE3
:10511000D8CFCF92DF92EF92FF920F931F93CF934E
:10512000DF932115310581F4DC01ED91FC910190B3
:10513000F081E02D642FDF91CF911F910F91FF90AF
:10514000EF90DF90CF9009942A30310501F52AE0E5
:1051500077FF1DC06A017B01EC016DE20E94FE2712
:105160008C0144275527BA014C195D096E097F0946
:105170002AE0CE010E943028800F911FDF91CF914D
:105180001F910F91FF90EF90DF90CF900895DF91E6
:10519000CF911F910F91FF90EF90DF90CF900C94E3
:1051A00030289A01AB01770F660B770B0C94892896
:1051B0000F931F93CF93DF93EC010E9489288C01FA
:1051C000CE010E940528800F911FDF91CF911F9182
:1051D0000F9108952115310541F4DC01ED91FC9109
:1051E0000190F081E02D642F09940C9430289A01ED
:1051F000462F50E070E060E00C94EA280F931F9374
:10520000CF93DF93EC010E94F7288C01CE010E941E
:105210000528800F911FDF91CF911F910F91089565
:105220002F923F924F925F926F927F928F929F92B6
:10523000AF92BF92CF92DF92EF92FF921F93CF93E4
:10524000DF93EC016A017B01722EAB019601CB0169
:10525000B6010E94FB3066E872E0811126C046016B
:105260005701E894B7F82FEF3FEF4FE75FE7C5012D
:10527000B4010E94FB3081110CC02FEF3FEF4FE7CC
:105280005FE7C501B4010E947D2E6AE872E018163E
:1052900064F02FEF3FEF4FE75FE4C701B6010E94D4
:1052A00037301816B4F46EE872E0CE01DF91CF917A
:1052B0001F91FF90EF90DF90CF90BF90AF909F90A5
:1052C0008F907F906F905F904F903F902F900C94B5
:1052D000E7272FEF3FEF4FE75FECC701B6010E94D2
:1052E0007D2E87FDE0CF20E030E0A901C701B601A7
:1052F0000E947D2E312C212C87FF09C06DE2CE014A
:105300000E94FE271C01F7FAF094F7F8F09410E0E1
:1053100060E070E080E09FE3711641F020E030E053
:1053200040E251E40E94822E1F5FF6CFA701960152
:105330000E94842D2B013C010E94FB2E4B015C013D
:105340002AE0BC01A401CE010E9430287C01E20CBD
:10535000F31C1123C1F1C501B4010E942A2F9B0146
:10536000AC01C301B2010E94832D4B015C0162E9D3
:1053700072E0CE010E94E727E80EF91E115018F1E5
:1053800020E030E040E251E4C501B4010E94443025
:105390002B013C010E94F42E4B014AE050E0CE016B
:1053A0000E94D128E80EF91EB401990C880B990BC4
:1053B0000E942C2F9B01AC01C301B2010E94832DDE
:1053C0004B015C01DBCFC701DF91CF911F91FF90B3
:1053D000EF90DF90CF90BF90AF909F908F907F9095
:1053E0006F905F904F903F902F9008950C941029EC
:1053F0000F931F93CF93DF93EC010E9410298C0130
:10540000CE010E940528800F911FDF91CF911F913F
:105410000F91089540912E0450912F0420912C0457
:1054200030912D0442175307B4F49091E800957021
:10543000E1F39091E80092FD19C08093F100809112
:105440002E0490912F0401968F739927892B19F4BC
:105450008EEF8093E80080912E0490912F040196A6
:1054600090932F0480932E0481E0089580E00895A6
:10547000EF92FF920F931F93CF93DF93182FE92E94
:10548000062F81E0860F880F0E940A2A83E00E947F
:105490000A2AF12EC12FDE2DFE0184910E940A2AD4
:1054A000182F80E00E940A2A812329F021969C2F40
:1054B0009F19901788F3DF91CF911F910F91FF9063
:1054C000EF900895615030F02091F100FC012083AD
:1054D0000196F8CF289884E68093310408952FB779
:1054E000FC012083F89467706093E9000895CF93DE
:1054F000DF931F92CDB7DEB7682FCE0101960E94D1
:105500006F2A8091F20099819FBF0F90DF91CF9118
:105510000895EF92FF920F931F93CF93DF931F9203
:10552000CDB7DEB790913004992379F157FD2DC0A6
:105530008A017B01682FCE0101960E946F2A80911B
:10554000F20090E0081719070CF4C801282FF701A2
:1055500044E6215038F02898409331043091F1000E
:105560003193F7CF009739F02091F200211103C059
:105570002BE62093E80029812FBF0F90DF91CF9178
:105580001F910F91FF90EF9008958FEF9FEFF5CF50
:10559000CF93DF931F92CDB7DEB741E050E0BE015D
:1055A0006F5F7F4F0E94892A019731F4898190E0D3
:1055B0000F90DF91CF9108958FEF9FEFF9CFCF93A9
:1055C000DF931F92CDB7DEB7682FCE0101960E9400
:1055D0006F2A9091E800892F807295FF04C0909106
:1055E000F20080E4891B99819FBF0F90DF91CF91DA
:1055F00008956F927F928F929F92AF92BF92CF92B7
:10560000DF92EF92FF920F931F93CF93DF931F923E
:10561000CDB7DEB7A82E6B01B42E052F80913004D4
:10562000811112C08FEF9FEF0F90DF91CF911F91EB
:105630000F91FF90EF90DF90CF90BF90AF909F9031
:105640008F907F906F900895E42EF52E8AEF982E1C
:105650008A2D8072882E9AE3792E8A2D8074682E86
:10566000E114F10409F449C08A2D0E94DF2A182FA1
:1056700081110AC09A949920A9F261E070E080E05B
:1056800090E00E943E25ECCF8E151F0411F00CF027
:105690001E2D6A2DCE0101960E946F2A8091E8008E
:1056A00085FD03C089818FBFDBCF812F90E0E81A91
:1056B000F90A882029F01150A0F01092F100FBCFD8
:1056C000F601A7FC0AC0115050F021912093F1007F
:1056D000FACF24912093F10031961150D0F7C80EE3
:1056E000D91E8091E80085FF05C0E114F104D1F6D0
:1056F0006620C1F27092E800D5CF5D9884E6809371
:1057000032048B2D902F90CF1092E90010922F042D
:1057100010922E0490932D0480932C040895DF9210
:10572000EF92FF920F931F93CF93DF93D82E8A01AE
:10573000EB017B01E40EF51ECE15DF0559F0D7FE17
:1057400012C0FE0184910E940A2A21968111F4CF91
:105750000FEF1FEFC801DF91CF911F910F91FF90C5
:10576000EF90DF9008958881EECFCF93DF93EB0128
:105770002091E80022FFFCCF6C2F0E94622A8BEF61
:105780008093E800CE01DF91CF910895CF93DF930E
:105790001F92CDB7DEB71982CE0101960E94F8267E
:1057A000CE0101960E947527898190E00F90DF91CC
:1057B000CF9108951F920F920FB60F921124EF927E
:1057C000FF921F932F933F934F935F936F937F931A
:1057D0008F939F93AF93BF93EF93FF93CF93DF93F9
:1057E000CDB7DEB76197DEBFCDBF1092E9008091E3
:1057F000E80083FF1DC068E0CE010A960E94622A7D
:1058000082EF8093E8009A8597FF2EC08091E80090
:1058100080FFFCCF892F807609F0D0C08B85811165
:1058200027C01092F1001092F1008EEF8093E800F3
:1058300061960FB6F894DEBF0FBECDBFDF91CF915A
:10584000FF91EF91BF91AF919F918F917F916F9158
:105850005F914F913F912F911F91FF90EF900F908B
:105860000FBE0F901F9018958EEF8093E800D2CF57
:10587000282F2D7F2130C9F2853049F48091E8002E
:1058800080FFFCCF8C8580688093E300CECF86308C
:1058900009F06BC01D85E888F988123039F590E071
:1058A00080E00E94842B0E94C62B1F8299E099837E
:1058B0001A8391E09E8390E898879AEF99872091C8
:1058C0002E0430912F04275F3F4F3C832B838D8321
:1058D000C7010E94842B49E050E0BE016F5F7F4FFB
:1058E00080E00E948F2B0E94C62B9FCFC7010E9491
:1058F000842B123259F482E290E00E948027892B97
:1059000009F093CF81E28093EB0092CF1130A9F49C
:1059100088899989089711F410932B0480912B049E
:1059200064E27EE0882311F062E17EE0FB014491B5
:1059300050E080E80E948F2B78CF133019F78C85C8
:10594000882381F0823041F464E182E49EE00E9489
:10595000382A81116ACFD6CF8130A1F66BE086E379
:105960009EE0F5CF67E57EE0E1CF873059F28830E1
:1059700021F481E08093F10058CF893009F055CFB0
:10598000937009F0BFCFEEE0FEE081E031E096E3F6
:105990008093E9003093EB0024912093EC009093E6
:1059A000ED008F5F3196853099F78EE78093EA009E
:1059B0001092EA008C858093300437CF88899989CA
:1059C0000E94842B8E85811105C0CE010A960E940B
:1059D0000327BFCF823009F095CFCE010A960E94EF
:1059E000A827B7CF8093E9008091F200882319F0AF
:1059F0008AE38093E80008951F920F920FB60F92EA
:105A000011242F933F934F935F936F937F938F93C3
:105A10009F93AF93BF93EF93FF938091E100109218
:105A2000E10083FF0FC01092E90091E09093EB003A
:105A30001092EC0092E39093ED001092300498E005
:105A40009093F00082FF1BC083E00E94F22C8091B3
:105A50003204882341F080913204815080933204D3
:105A6000811101C05D9A80913104882341F08091B9
:105A70003104815080933104811101C0289AFF9133
:105A8000EF91BF91AF919F918F917F916F915F91B6
:105A90004F913F912F910F900FBE0F901F9018952F
:105AA0001092300481E08093D70080EA8093D80080
:105AB00082E189BD09B400FEFDCF61E070E080E0C5
:105AC00090E00E943E2580E98093D8008CE080938E
:105AD000E2001092E000559A209A089508950E94DD
