:100000000C944E070C9476070C9476070C947607A4
:100010000C9476070C9476070C9476070C94AA0738
:100020000C9476070C9476070C94F5300C94C12F41
:100030000C9476070C9476070C9476070C9476074C
:100040000C9476070C9476070C9476070C9476073C
:100050000C9476070C9476070C9476070C94782809
:100060000C9476070C9476070C9476070C9476071C
:100070000C9476070C9476070C9476070C9476070C
:100080000C9476070C9476070C9476070C947607FC
:100090000C941B170C9476070C9476070C94760737
:1000A0000C9476070C9476070C94760787298A2996
:1000B00079297D298329AB29AB29AB298E2992295E
:1000C00096299C29A029AB29A629036EDB363D9AE7
:1000D0009999993DABAAAA2A3E000000803F084AA0
:1000E000D73B3BCE016E84BCBFFDC12F3D6C74314C
:1000F0009ABD56833DDA3D00C77F11BED9E4BB4CA3
:100100003E916BAAAABE000000803F072C7AA5BAD8
:100110006CC590DA3B9365FC8BBC53F810FD3C56E4
:1001200092834DBD879D3AB63DCBC9BF5BBE73DAA6
:100130000FC93F05A84CCDB2D44EB93836A9020C30
:1001400050B9918688083CA6AAAA2ABE0000008061
:100150003F000000700000000024000000020003C7
:10016000000000650054FFEF0000FA80000B1282CF
:100170000001030C30C30E8C8CE914D540021371BE
:100180000F8E3883F8833000F883258EF883300093
:10019000F883FFFFFFFF0FFEA9D6240004001A8298
:1001A00079A10000003CFFFF000000100000388330
:1001B0006FA2003E03304000000002CAE3093E8007
:1001C000000020000000000000004000000060006F
:1001D0000000000C0000000C186E000006920A16C9
:1001E000C0DFFFFF0256FD8CD377FFE1C496E0C568
:1001F000BEAA00000000FFFF0B2B000016570000F6
:1002000003594000000000001DFA00026C1D0000B0
:1002100000003FFFDFEB003EB3B6000D2278000088
:100220002F3C00000000001942B5000039A2000078
:10023000B365D90E9FC91DCF4C343000000050006B
:1002400000003BB67AE80064000000C8000000002F
:100250000000100000001000FA921000225E000D55
:10026000229F0001000000320000FF46000063D41E
:1002700000001000000004D6000004CC000004CCF4
:1002800000000000107200000040000000000000AC
:1002900000000006000200050007000000000064E6
:1002A00000000000000000000005000500640020C0
:1002B00000000000000000000000000040000000FE
:1002C000030000000032F8980000FF650000830F73
:1002D0000000FF9BFC000000000000000000000088
:1002E000000000000000000000000000000000000E
:1002F00000000000000000000000000000000000FE
:10030000100040000000000000060000B26A000279
:1003100000000001FB830068000000D9FC007CF1B4
:10032000FF830000000000650000006403E8006433
:100330000028000000250000000016A000000000BA
:10034000100000001000002F0000000001F4000069
:10035000100000280000FFFF4581FFFFFA72000037
:10036000000000000000004400050005BAC6004778
:1003700078A200000001000000000000060000005C
:1003800000140000254D002F706D000005AE000C1C
:1003900002D000000000000000000000000000008B
:1003A0000000001B00000000000000000000000032
:1003B00000000064000000080000000000000000D1
:1003C000000000000000000000000000000000002D
:1003D000000000000000000000000000000000001D
:1003E000000000000000000000000000000000000D
:1003F00000000000000000000000000000000000FD
:1004000000000000000000000000000000000000EC
:100410000000001B00000000000000000000000EB3
:10042000000E00000AC70004000000000032FFFFB9
:10043000FF9C00000B2B00000002000000010000E8
:100440000064FFE500000000000000000000000064
:10045000000000000001000000000001000000009A
:1004600000000001800000018000000180000024E5
:1004700026D30000000000000000000600100096D7
:10048000003C000000000000000000000000000030
:1004900000000C0A4E68CDCF770950166759C6196F
:1004A000CE820000000000000000000000000000FC
:1004B0000000000000000000000017D784000300C7
:1004C00000000000000000000000C7938F9D1E1B6D
:1004D0001C190000000000000000000000000000E7
:1004E000000000000000000000000203188500006A
:1004F00040000000000300000003000000000000B6
:1005000000004000000000000000000000000000AB
:1005100000000000000000000000000000000000DB
:1005200000000000000000000000000000000000CB
:10053000000000000000677DDF7E72902E554CF6B3
:10054000E68800000000000000000000000000003D
:100550000000D8DCB4B8B0D8B9ABF3F8FAB3B7BB85
:100560008E9EAEF132F51BF1B4B8B08097F1A9DFE1
:10057000DFDFAADFDFDFF2AAC5CDC7A90CC92C9740
:10058000F1A989264666B28999A92D557DB0B08A10
:10059000A896365676F1BAA3B4B280C0B8A897111F
:1005A000B28398BAA3F0240844106418B2B9B4987E
:1005B00083F1A329557DBAB5B1A38393F0002850E8
:1005C000F5B2B6AA839328547CF1B9A3829361BA99
:1005D000A2DADEDFDB819AB9AEF5606870F1DABAD3
:1005E000A2DFD9BAA2FAB9A38292DB31BAA2D9BAF0
:1005F000A2F8DF85A4D0C1BBAD83C2C5C7B8A2DF56
:10060000DFDFBAA0DFDFDFD8D8F1B8AAB38DB498A6
:100610000D355DB2B6BAAF8C96198F9FA70E161E18
:10062000B49AB8AA872C547CBAA4B08AB691325630
:1006300076B28494A4C808CDD8B8B4B0F19982A891
:100640002D557D98A80E161EA22C547C92A4F02C39
:100650005078F184A898C4CDFCD80DDBA8FC2DF30C
:10066000D9BAA6F8DABAA6DED8BAB2B68696A6D0B5
:10067000F3C841DAA6C8F8D8B0B4B882A892F52C6D
:10068000548898F135D9F418D8F1A2D0F8F9A88493
:10069000D9C7DFF8F883C5DADF69DF83C1D8F40191
:1006A00014F1A8824EA884F311D182F5D99228972B
:1006B00088F109F41C1CD884A8F3C0F9D1D9978219
:1006C000F129F40DD8F3F9F9D1D982F4C203D8DEB7
:1006D000DF1AD8F1A2FAF9A88498D9C7DFF8F8F898
:1006E00083C7DADF69DFF883C3D8F40114F198A86F
:1006F000822EA884F311D182F5D992509788F109FE
:10070000F41CD884A8F3C0F8F9D1D99782F149F440
:100710000DD8F3F9F9D1D982F4C403D8DEDFD8F1CA
:10072000AD8898CCA809F9D98292A8F57CF1883ACD
:10073000CF944A6E98DB6931DAADF2DEF9D887954D
:10074000A8F221D1DAA5F9F417D9F1AE8ED0C0C341
:10075000AE82C684C3A88595C8A588F2C0F1F4010D
:100760000EF18E9EA8C63E56F554F18872F401151E
:10077000F19845856EF58E9E0488F142985A8E9EBA
:10078000068869F4011CF1981E1108D0F504F11EC9
:10079000970202983625DBF9D985A5F3C1DA85A53C
:1007A000F3DFD88595A8F309DAA5FAD88292A8F5DF
:1007B00078F1881A849F26889821DAF41DF3D88767
:1007C0009F39D1AFD9DFDFFBF9F40CF3D8FAD0F8B9
:1007D000DAF9F9D0DFD9F9D8F40BD8F3879F39D1FA
:1007E000AFD9DFDFF41DF3D8FAFCA869F9F9AFD06F
:1007F000DADEFAD9F88F9FA8F1CCF398DB45D9AFB0
:10080000DFD0F8D8F18F9FA8CAF38809DAAF8FCB71
:10081000F8D8F2AD978D0CD9A5DFF9BAA6F3FAF4A2
:1008200012F2D8950DD1D9BAA6F3FADAA5F2C1BA67
:10083000A6F3DFD8F1BAB2B68696A6D0CAF349DAE3
:10084000A6CBF8D8B0B4B8D8AD84F2C0DFF18FCB66
:10085000C3A8B2B68696C8C1CBC3F3B0B48898A873
:1008600021DB718D9D71859521D9ADF2FAD88597DF
:10087000A828D9F408D8F28D29DAF405D9F285A48C
:10088000C2F2D8A88D9401D1D9F411F2D88721D819
:10089000F40AD8F28498A8C801D1D9F411D8F3A4E5
:1008A000C8BBAFD0F2DEF8F8F8F8F8F8F8F8D8F1ED
:1008B000B8F6B5B9B08A95A3DE3CA3D9F8D85CA345
:1008C000D9F8D87CA3D9F8D8F8F9D1A5D9DFDAFAC4
:1008D000D8B18530F7D9DED8F830ADDADED8F2B449
:1008E0008C99A32D557DA083DFDFDFB591A0F6297C
:1008F000D9FBD8A0FC29D9FAD8A0D051D9F8D8FC76
:1009000051D9F9D879D9FBD8A0D0FC79D9FAD8A196
:10091000F9F9F9F9F9A0DADFDFDFD8A1F8F8F8F88A
:10092000F8ACDEF8ADDE8393AC2C547CF1A8DFDFAD
:10093000DFF69D2CDAA0DFD9FADB2DF8D8A850DA43
:10094000A0D0DED9D0F8F8F8DB55F8D8A878DAA02E
:10095000D0DFD9D0FAF8F8F8F8DB7DF8D89CA88C6D
:10096000F530DB38D9D0DEDFA0D0DEDFD8A848DB19
:1009700058D9DFD0DEA0DFD0DED8A868DB70D9DFA1
:10098000DFA0DFDFD8F1A888902C547C98A8D05C39
:1009900038D1DAF2AE8CDFF9D8B087A8C1C1B188FE
:1009A000A8C6F9F9DA36D8A8F9DA36D8A8F9DA36C5
:1009B000D8A8F9DA36D8A8F9DA36D8F78D9DADF887
:1009C00018DAF2AEDFD8F7ADFA30D9A4DEF9D8F2F2
:1009D000AEDEFAF983A7D9C3C5C7F1889BA77AAD64
:1009E000F7DEDFA4F8849408A797F300AEF2981915
:1009F000A488C6A39488F632DFF28393DB09D9F288
:100A0000AADFD8D8AEF8F9D1DAF3A4DEA7F1889B33
:100A10007AD8F38494AE19F9DAAAF1DFD8A881C0A4
:100A2000C3C5C7A39283F628ADDED9F8D8A350ADCD
:100A3000D9F8D8A378ADD9F8D8F8F9D1A1DADEC3BE
:100A4000C5C7D8A18194F818F2B089ACC3C5C7F165
:100A5000D8B8B4B09786A8319B069907AB97288879
:100A60009BF00C201440B0B4B8F0A88A9A285078B3
:100A7000B79BA8295179247059446938644831F1E9
:100A8000BBAB88002C547CF0B38BB8A804285078FA
:100A9000F1B088B49726A85998BBABB38B02264611
:100AA00066B0B8F08A9CA82951798B2951798A249B
:100AB00070598B2058718A4469388B3940688A6430
:100AC00048318B30496088F1AC002C547CF08CA804
:100AD00004285078F1889726A85998AC8C022646AD
:100AE00066F0899CA8295179247059446938644872
:100AF00031A98809205970AB11384069A8193148CB
:100B0000608CA83C415C207C00F187981986A86E17
:100B1000767EA999882D557DD8B1B5B9A3DFDFDFE1
:100B2000AED0DFAAD0DEF2ABF8F9D9B087C4AAF113
:100B3000DFDFBBAFDFDFB9D8B1F1A3978E60DFB0E5
:100B400084F2C8F8F9D9DED89385F14AB183A308B5
:100B5000B5839A0810B79F10D8F1B0BAAEB08AC268
:100B6000B2B68E9EF1FBD9F41DD8F9D90CF1D8F8A4
:100B7000F8AD61D9AEFBD8F40CF1D8F8F8AD19D9BD
:100B8000AEFBDFD8F416F1D8F8AD8D61D9F4F4AC32
:100B9000F59C9C8DDF2BBAB6AEFAF8F40BD8F1AE0B
:100BA000D0F8AD51DAAEFAF8F1D8B9B1B6A3839C5A
:100BB00008B9B1839AB5AAC0FD3083B79F10B58B31
:100BC00093F20202D1ABDADED8F1B080BAABC0C387
:100BD000B284C1C3D8B1B9F38BA391B609B4D9AB70
:100BE000DEB0879CB9A3DDF1B38B8B8B8B8BB08789
:100BF000A3A3A3A3B28BB69BF2A3A3A3A3A3A3A374
:100C0000A3A3A3F1B087B59AA3F39BA3A3DCBAACCB
:100C1000DFB9A3A3A3A3A3A3A3A3A3A3A3A3A3A352
:100C2000A3A3D8D8D8BBB3B7F1AAF9DAFFD9809A71
:100C3000AA28B48098A720B79787A86688F079512A
:100C4000F1902C870CA781976293F0717160859465
:100C50000129517990A5F1284C6C870C951885785D
:100C6000A38390284C6C886CD8F3A28200F210A861
:100C7000921980A2F2D926D8F188A84DD948D896E1
:100C8000A83980D93CD89580A839A68698D92CDA7D
:100C900087A72CD8A8899519A980D938D8A88939C7
:100CA000A980DA3CD8A82EA83990D90CD8A89531BB
:100CB00098D90CD8A809D9FFD801DAFFD89539A955
:100CC000DA26FFD890A80D8999A810809821DA2EED
:100CD000D88999A83180DA2ED8A886963180DA2E64
:100CE000D8A8873180DA2ED8A88292F34180F1D932
:100CF0002ED8A882F31980F1D92ED882ACF3C0A2E5
:100D00008022F1A62EA72EA92298A829DAACDEFF10
:100D1000D8A2F22AF1A92E8292A8F23180A696F1E9
:100D2000D900AC8C9C0C30ACDED0DEFFD88C9CACF7
:100D3000D010ACDE8092A2F24C82A8F1CAF235F15A
:100D40009688A6D900D8F1FF0000000200090F0024
:100D500000030401000C000000000000000000007F
:100D60000000000000000408020110408040102034
:100D70004080408008020401804020100201108061
:100D8000102040400404040404030405020202028B
:100D90000403020202020606060606060404020214
:100DA0000204000000002300260029002C002F0070
:100DB00000000000250028002B002E00310000005C
:100DC0000000240027002A002D003000080B00023C
:100DD00002020100090400000102020000052400D3
:100DE0001001052401010104240206052406000166
:100DF0000705810310004009040100020A000000F9
:100E000007050202400000070583024000000904B4
:100E1000020001030000000921010100012222005B
:100E20000705840340000105010904A101850109AA
:100E300001A100050109300931093216008026FFA1
:100E40007F751095038182C0C000C18081C11201ED
:100E5000000202000040412336800001010200012F
:100E6000120100020000004041233680000101020F
:100E7000000141726475696E6F204C4C430045441B
:100E8000547261636B6572204544547261636B6593
:100E900072320004030904003916072B11241FBE07
:100EA000CFEFDAE0DEBFCDBF12E0A0E0B1E0E0E7D7
:100EB000FBE602C005900D92AC33B107D9F724E0F0
:100EC000ACE3B2E001C01D92A632B207E1F71EE02A
:100ED000CCE9DEE004C02297FE010E947535C839D6
:100EE000D107C9F70E946A310C94B6350C94000002
:100EF0001F93CF93DF93EC01162F472FBC016F5F39
:100F00007F4F89EF92E00E946415412FBE0189EF67
:100F100092E0DF91CF911F910C9464151F93CF93B2
:100F2000DF93EC01BC016F5F7F4F89EF92E00E947D
:100F30006115182FBE0189EF92E00E946115212FE3
:100F400030E0322F2227A901482BCA01DF91CF912F
:100F50001F9108951F920F920FB60F9211248F9335
:100F600081E0809346028F910F900FBE0F901F90EB
:100F7000189587EF92E00E94031F84E690E00E949C
:100F8000E11B89E70E944D1E88E70E94E71B88EC61
:100F900090E00E94E21D0E943F23E0910001F0E0FA
:100FA000E655FE4F808190E00E94492380ED90E05D
:100FB0000E94562688EC90E00C94F623EAE6F0E0D6
:100FC000808180638083EE9A81E00C944D22409171
:100FD000DE025091DF026091E0027091E1028091A7
:100FE000E6029091E702A091E802B091E90284172D
:100FF0009507A607B70738F561E08091DD028111FA
:1010000060E06093DD0281E10E94E5292091010109
:101010008091DE029091DF02A091E002B091E102A6
:10102000222329F08C599F4FAF4FBF4F04C08C50E3
:101030009E4FAF4FBF4F8093E6029093E702A0937D
:10104000E802B093E9020895CF92DF92EF92FF9207
:101050006B017C0120E030E040E057E40E9438342E
:10106000181654F420E030E040E857E4C701B60118
:101070000E947E316B017C0120E030E040E057ECC3
:10108000C701B6010E945C3287FF0AC020E030E051
:1010900040E857E4C701B6010E947F316B017C0133
:1010A000C701B601FF90EF90DF90CF900895CF92E7
:1010B000DF92EF92FF928091F802882331F064E78B
:1010C00071E08CEC93E00E94CC2B109260021092A5
:1010D0005F021092CD021092CE021092CF021092B7
:1010E000D0021092D1021092D2021092D30210922A
:1010F000D4021092D5021092D6021092D70210920A
:10110000D8021092D9021092DA021092DB021092E9
:10111000DC021092030110926102C0906902D0902B
:101120006A02E0906B02F0906C0220E030EC4AED35
:1011300056E4C701B6010E943834181654F020E076
:1011400030EC4AED56ECC701B6010E945C3287FFD5
:1011500003C081E080936102FF90EF90DF90CF9019
:1011600008958091F6028823E9F06FE170E089EF3D
:1011700092E00E946115682F70E080E090E00E948C
:10118000FC3220E030E040E85EE30E9443346093AC
:10119000EA027093EB028093EC029093ED0260E21E
:1011A00070E01CC06DE170E089EF92E00E94611573
:1011B000682F70E080E090E00E94FC3220E030E098
:1011C00040E85EE30E9443346093EA027093EB02CE
:1011D0008093EC029093ED026EE170E089EF92E073
:1011E0000E946115682F70E080E090E00E94FC3260
:1011F00020E030E040E85EE30E9443346093EE027A
:101200007093EF028093F0029093F1028091EE02CE
:101210009091EF02A091F002B091F1028093F2025E
:101220009093F302A093F402B093F5020895809195
:10123000F60220E030E040E850E4882339F1609184
:10124000EA027091EB028091EC029091ED020E9413
:1012500043340E94CB32462F6FE170E089EF92E079
:101260000E94641520E030E040E850E46091EE0216
:101270007091EF028091F0029091F1020E9443344C
:101280000E94CB32462F60E270E026C06091EA02F5
:101290007091EB028091EC029091ED020E94433438
:1012A0000E94CB32462F6DE170E089EF92E00E9400
:1012B000641520E030E040E850E46091EE02709167
:1012C000EF028091F0029091F1020E9443340E945B
:1012D000CB32462F6EE170E089EF92E00E946415F8
:1012E0008091EE029091EF02A091F002B091F10294
:1012F0008093F2029093F302A093F402B093F5026C
:1013000020E03EEF4FEF56E460910401709105013B
:1013100080910601909107010E9443340E94CB32D4
:101320008AE190E00C9478076CE771E08CEC93E034
:101330000E94AF2B66E971E08CEC93E00C94CC2B0F
:101340000E945708109245021092440281E0809357
:10135000010108956DE771E08CEC93E00C94AF2BE4
:101360000F931F93CF93DF938C01C3E0D0E0F8017C
:10137000619171918F014AE050E08CEC93E00E9402
:10138000812C0E94AA09219791F7DF91CF911F919B
:101390000F910895CF93C62F682F8CEC93E00E9495
:1013A000B12B0E94AA094AE050E06C2F8CEC93E02C
:1013B000CF910C94AF2C6FE771E08CEC93E00E941E
:1013C000AF2B4AE050E06091F6028CEC93E00E9473
:1013D000A82C0E94AA094091EA025091EB02609168
:1013E000EC027091ED0222E030E08CEC93E00E9480
:1013F000B12D0E94AA094091EE025091EF02609136
:10140000F0027091F10222E030E08CEC93E00E9457
:10141000B12D0E94AA0940910401509105016091EB
:1014200006017091070122E030E08CEC93E00C940F
:10143000B32D0F931F93CF93DF938C0162E871E07C
:101440008CEC93E00E94AF2BE80103E010E069917F
:1014500079914AE050E08CEC93E00E94812C0E944C
:10146000AA090150110999F76EE771E08CEC93E03D
:10147000DF91CF911F910F910C94CC2BCF93DF93E1
:1014800065E871E08CEC93E00E94AF2BC1ECD2E0F8
:10149000499159916991799126E030E08CEC93E083
:1014A0000E94B12D0E94AA0982E0CD3CD80781F7A5
:1014B000CDE9D2E049915991699179912DE030E0DF
:1014C0008CEC93E00E94B12D0E94AA0982E0C13CFD
:1014D000D80781F76EE771E08CEC93E0DF91CF9154
:1014E0000C94CC2B0F931F93CF93DF9301EC12E05E
:1014F000C8E2D0E0CE010E948E07BC01882777FDAC
:101500008095982F0E94FE3220E030E040E85CE3B6
:101510000E944334F80161937193819391938F01F9
:101520002296CE32D10531F709E712E0C2E3D0E0CE
:10153000CE010E948E07BC01882777FD8095982FE9
:101540000E94FE3220E030E040E059E30E94433444
:10155000F80161937193819391938F012296C6351F
:10156000D10531F7DF91CF911F910F91089569E176
:1015700070E089EF92E00E94611569E170E089EF07
:1015800092E00E946115843038F469E170E089EFDF
:1015900092E00E94611501C083E0809300016CE13C
:1015A00070E089EF92E00E9461158093F6020E943C
:1015B000B1088AE190E00E948E07BC01882777FD80
:1015C0008095982F0E94FE3220E03EEF4FEF56E4C8
:1015D0000E946332609304017093050180930601B9
:1015E00090930701089540E052EC61E070E08CECCC
:1015F00093E00E94012B62E08AE00E94AC2961E046
:1016000081E10E94AC2961E082E00E94E52960E06E
:1016100082E00E94E5290E94B70A0E94720A8AEFBE
:1016200092E00E94FF158CE08093B800589859987A
:101630000E94B9070C94DE07CF92DF92EF92FF92DF
:101640000F931F93CF93DF938CEC93E00E946E2A4D
:10165000181619060CF04FC18CEC93E00E947E2AFC
:10166000833409F063C06AEEE62E62E0F62E8CEC5D
:1016700093E00E947E2A6C018CEC93E00E947E2A0B
:10168000D82F80E0C82FBE016C297D29882777FDDF
:101690008095982F0E94FE3220E030E040E85BE326
:1016A0000E944334F70161937193819391937F0179
:1016B000F2EFEF16F2E0FF06D1F68CEC93E00E9419
:1016C0007E2A7C018CEC93E00E947E2A182F00E099
:1016D000B8016E297F29882777FD8095982F0E9471
:1016E000FE3220E03EEF4FEF56E40E9463326093FB
:1016F000040170930501809306019093070168E847
:1017000071E08CEC93E00E94AF2B4091040150916A
:101710000501609106017091070122E030E08CEC38
:1017200093E00E94B32D0E94170932C0833569F4FB
:101730001092F8026BE871E08CEC93E00E94CC2BE5
:1017400088EC90E00E94F6237FCF883471F480917A
:101750000101882319F06DE871E002C06FE871E0C3
:101760008CEC93E00E94CC2B6FCF8437A1F481E006
:101770009091F602911180E08093F6020E94B108E8
:101780004091F6026CE170E089EF92E00E946415EE
:101790000E94DB0959CF8635A1F461E971E08CEC38
:1017A00093E00E94CC2B0E9494090E94DB0981E007
:1017B0008093F80284E690E00E94F6230E943E0A9D
:1017C00043CF893461F40E9494090E94DB090E948E
:1017D0003E0A609100018FE40E94CA0935CF80352E
:1017E00019F580E00E944D228091000190E0019661
:1017F0008370992780930001FC01E655FE4F80819C
:1018000090E00E94492381E00E944D2260910001F6
:101810008FE40E94CA094091000169E170E089EFFC
:1018200092E00E94641510CF823519F40E94570887
:101830000BCF823719F40E94A00906CF873569F5CE
:101840008CEC93E00E947E2A6C01E12CF12CDD24CB
:10185000EC14FD0474F48CEC93E00E947E2A482F73
:10186000B70189EF92E00E9464158FEFE81AF80A39
:10187000EFCF0E94B70A0E94720A80E00E944D22B8
:10188000E0910001F0E0E655FE4F808190E00E947B
:10189000492381E00E944D22D7CE843209F0D4CE74
:1018A00058E2E52EF12C8CEC93E00E947E2A482F22
:1018B000B70189EF92E00E946415EFEFEE1AFE0A7D
:1018C000FEE2EF16F10479F742E3E42EF12C8CEC02
:1018D00093E00E947E2A482FB70189EF92E00E9490
:1018E00064158FEFE81AF80AE6E5EE16F10479F7C9
:1018F0000E94720AA9CEDF91CF911F910F91FF90A4
:10190000EF90DF90CF9008952F923F924F925F9289
:101910006F927F928F929F92AF92BF92CF92DF92FF
:10192000EF92FF920F931F93CF93DF93CDB7DEB764
:10193000C556D1090FB6F894DEBF0FBECDBF80915A
:1019400046028823E1F30E94C2286093DE0270936E
:10195000DF028093E0029093E10281E090E0A0E05A
:10196000B0E023968CAF9DAFAEAFBFAF23979E0183
:101970002B5B3F4F79018E010D5B1F4F26503109C4
:10198000AE014F5F5F4FBE01615D7F4FCE01C596D7
:101990000E94752726968FAD2697811102C010925E
:1019A000460223968CAD9DADAEADBFAD2397892B7E
:1019B0008A2B8B2B11F00C9447156D857E858F85B6
:1019C00098890E94FE3220E030E040E850E30E9417
:1019D00043342B013C0169857A858B859C850E9467
:1019E000FE3220E030E040E850E30E9443342A9683
:1019F0006CAF7DAF8EAF9FAF2A976D817E818F8157
:101A000098850E94FE3220E030E040E850E30E94DA
:101A100043342E966CAF7DAF8EAF9FAF2E9769810A
:101A20007A818B819C810E94FE3220E030E040E888
:101A300050E30E9443346B017C019B01AC010E9486
:101A400043346A966CAF7DAF8EAF9FAF6A972E9688
:101A50002CAD3DAD4EAD5FAD2E97CA01B9010E94D0
:101A600043346E966CAF7DAF8EAF9FAF6E972A9664
:101A70002CAD3DAD4EAD5FAD2A97CA01B9010E94B4
:101A80004334A2966CAF7DAF8EAF9FAFA297A301F8
:101A90009201C301B2010E944334A6966CAF7DAFA0
:101AA0008EAF9FAFA6976E962CAD3DAD4EAD5FADA0
:101AB0006E976A966CAD7DAD8EAD9FAD6A970E94B4
:101AC0007E31A2962CAD3DAD4EAD5FADA2970E948A
:101AD0007E31A6962CAD3DAD4EAD5FADA6970E9472
:101AE0007F314B015C01A30192012A966CAD7DAD63
:101AF0008EAD9FAD2A970E94433462966CAF7DAF46
:101B00008EAF9FAF62972E962CAD3DAD4EAD5FADC3
:101B10002E97C701B6010E9443349B01AC01629627
:101B20006CAD7DAD8EAD9FAD62970E947F319B0104
:101B3000AC010E947F31A50194010E940932629696
:101B40006CAF7DAF8EAF9FAF62976DA37EA38FA367
:101B500098A7A30192012E966CAD7DAD8EAD9FAD81
:101B60002E970E9443344B015C012A962CAD3DAD6B
:101B70004EAD5FAD2A97C701B6010E9443349B0169
:101B8000AC01C501B4010E947E319B01AC010E94F1
:101B90007F310E94E33166966CAF7DAF8EAF9FAF11
:101BA000669769A37AA38BA39CA36E962CAD3DADDB
:101BB0004EAD5FAD6E976A966CAD7DAD8EAD9FAD4F
:101BC0006A970E947F31A2962CAD3DAD4EAD5FADC0
:101BD000A2970E947E31A6962CAD3DAD4EAD5FAD75
:101BE000A6970E947E314B015C012A962CAD3DAD3B
:101BF0004EAD5FAD2A972E966CAD7DAD8EAD9FAD8F
:101C00002E970E9443342A966CAF7DAF8EAF9FAF64
:101C10002A97A3019201C701B6010E9443349B0198
:101C2000AC012A966CAD7DAD8EAD9FAD2A970E941A
:101C30007F319B01AC010E947F31A50194010E947C
:101C400009329B01AC0150582A962CAF3DAF4EAFE4
:101C50005FAF2A972D8F3E8F4F8F58A3CE01899665
:101C60000E949522882381F12DE338EF42E256E469
:101C70006D8D7E8D8F8D98A10E9443346D8F7E8FE8
:101C80008F8F98A32DE338EF42E256E469A17AA141
:101C90008BA19CA10E94433469A37AA38BA39CA32C
:101CA0002DE338EF42E256E46DA17EA18FA198A505
:101CB0000E9443346DA37EA38FA398A78091030154
:101CC000882309F415C3A9C38091F802882321F061
:101CD000CE0189960E94190A69A57AA5882777FD01
:101CE0008095982F0E94FE322091C1023091C2024D
:101CF0004091C3025091C4020E947E314B015C01AD
:101D00006BA57CA5882777FD8095982F0E94FE32D1
:101D10002091C5023091C6024091C7025091C8027D
:101D20000E947E316B017C016DA57EA5882777FD21
:101D30008095982F0E94FE322091C9023091CA02EC
:101D40004091CB025091CC020E947E312E966CAF16
:101D50007DAF8EAF9FAF2E97209185023091860286
:101D60004091870250918802C501B4010E9443341A
:101D70002B013C012091890230918A0240918B0213
:101D800050918C02C701B6010E9443349B01AC0103
:101D9000C301B2010E947F312B013C0120918D02D1
:101DA00030918E0240918F02509190022E966CAD30
:101DB0007DAD8EAD9FAD2E970E9443349B01AC014B
:101DC000C301B2010E947F316E966CAF7DAF8EAFC2
:101DD0009FAF6E97209191023091920240919302B1
:101DE00050919402C501B4010E9443342B013C017F
:101DF000209195023091960240919702509198025D
:101E0000C701B6010E9443349B01AC01C301B2017A
:101E10000E947F312B013C012091990230919A025E
:101E200040919B0250919C022E966CAD7DAD8EAD83
:101E30009FAD2E970E9443349B01AC01C301B201B8
:101E40000E947F312B013C0162966CAD7DAD8EAD61
:101E50009FAD62970E946032A2966CAF7DAF8EAF4D
:101E60009FAFA29762966CAD7DAD8EAD9FAD629730
:101E700090580E94A63462966CAF7DAF8EAF9FAF34
:101E8000629766966CAD7DAD8EAD9FAD66970E94F4
:101E9000A6346A966CAF7DAF8EAF9FAF6A97669699
:101EA0006CAD7DAD8EAD9FAD66970E94603266963B
:101EB0006CAF7DAF8EAF9FAF669720917902309166
:101EC0007A0240917B0250917C02C501B4010E94CC
:101ED00043344B015C0120917D0230917E024091A0
:101EE0007F0250918002C701B6010E9443349B01DA
:101EF000AC01C501B4010E947F316B017C012091CE
:101F000081023091820240918302509184022E9688
:101F10006CAD7DAD8EAD9FAD2E970E9443349B017D
:101F2000AC01C701B6010E947F31A2962CAD3DAD38
:101F30004EAD5FADA2970E9443346B017C01629667
:101F40002CAD3DAD4EAD5FAD62976E966CAD7DAD87
:101F50008EAD9FAD6E970E9443346A962CAD3DAD19
:101F60004EAD5FAD6A970E9443349B01AC01C7013F
:101F7000B6010E947F316B017C0162962CAD3DADB4
:101F80004EAD5FAD6297C301B2010E9443346696C5
:101F90002CAD3DAD4EAD5FAD66970E9443349B01C5
:101FA000AC01C701B6010E947F316B017C016A96CA
:101FB0002CAD3DAD4EAD5FAD6A97C301B2010E943D
:101FC00043344B015C0166962CAD3DAD4EAD5FAD2B
:101FD00066976E966CAD7DAD8EAD9FAD6E970E948F
:101FE00043349B01AC01C501B4010E947E3190587D
:101FF000A70196010E9409322DE338EF42E256EC28
:102000000E9443340E9424086093690270936A021C
:1020100080936B0290936C026093710270937202D2
:10202000809373029093740220910301222391F014
:102030002091D9023091DA024091DB025091DC020A
:102040000E947E31609371027093720280937302DA
:1020500090937402809161028823B1F020E030E017
:1020600040E057E4609171027091720280917302B6
:10207000909174020E947F3160937102709372029A
:102080008093730290937402609171027091720256
:1020900080917302909174020E94240860937102EF
:1020A0007093720280937302909374028091010185
:1020B000882309F4D9CD0E94E7070E941C0B809168
:1020C0004402909145020097E9F510925302109254
:1020D000540210925502109256021092470210922A
:1020E00048021092490210924A021092570210922E
:1020F00058021092590210925A0210924B021092FA
:102100004C0210924D0210924E0210925B021092FD
:102110005C0210925D0210925E0210924F021092C9
:102120005002109251021092520287E492E00E94F3
:10213000EE2281E090E0909345028093440284EF88
:1021400091E099C08130910509F09AC080914202D6
:1021500090914302892B09F067C0609153027091FE
:1021600054028091550290915602E6E0CE2EDD2475
:10217000DA94ED2CFD2CA70196010E945435209392
:102180004702309348024093490250934A026091BB
:102190005702709158028091590290915A02A701FA
:1021A00096010E94543520934B0230934C02409389
:1021B0004D0250934E0260915B0270915C028091DF
:1021C0005D0290915E02A70196010E945435209312
:1021D0004F0230935002409351025093520210929A
:1021E000750210927602109277021092780287E4BC
:1021F00092E00E94EE2282E090E09093450280936C
:10220000440210924302109242022A968CAD9DAD78
:10221000AEADBFAD2A978093650290936602A093FE
:102220006702B093680222C07E0195E3E90EF11CBB
:1022300023E532E08E01055C1F4FD7014D915D9182
:102240007D01662757FD6095762FF9018081918188
:10225000A281B381840F951FA61FB71F819391930D
:10226000A193B1939F01E016F10639F780914202E4
:10227000909143020197909343028093420207C4D6
:10228000029709F0F1CC80914202909143028C3D7B
:10229000954041F5209165023091660240916702B8
:1022A000509168022A966CAD7DAD8EAD9FAD2A9798
:1022B0000E947E3125E431E14BE852E40E94433430
:1022C0006093750270937602809377029093780200
:1022D000109201010E9457086FE871E08CEC93E0C6
:1022E0000E94CC2B80914202909143020196C3CF71
:1022F000C0905F02D09060028091020190E0C81609
:10230000D9060CF043C08E01035E1F4F7DECE72E13
:1023100072E0F72E5E0129E2A20EB11CD8012D91C8
:102320003D914D915D918D01F701608171818281B7
:1023300093810E947F31D7016D937D938D939D93FF
:102340007D010A151B0551F720917102309172022F
:1023500040917302509174026091D9027091DA0237
:102360008091DB029091DC020E947F316093D90260
:102370007093DA028093DB029093DC02BFEFCB1AFA
:10238000DB0AD0926002C0925F0281C381E0809339
:1023900003010DEC12E0EE24D7FCE094FE2CC70103
:1023A000B6010E94FE329B01AC01F801608171818F
:1023B000828193810E946332D8016D937D938D93C6
:1023C0009D938D01B2E00D3D1B0749F7809161029D
:1023D0008823B1F020E030E040E057E46091D9027A
:1023E0007091DA028091DB029091DC020E947E31D2
:1023F0006093D9027093DA028093DB029093DC023F
:102400001092610284E6809302018091F802882391
:1024100009F43DC30E9494093AC30DEC12E04E0149
:10242000EDE18E0E911C7401D8012D913D914D91DD
:102430005D918D01F70160817181828193810E949C
:102440007E31D7016D937D938D939D937D01B2E095
:10245000093D1B0749F7CD8CDE8CEF8CF8A020E0FE
:1024600030E040E057ECC701B6010E945C3287FFC4
:102470000CC020E030E040E857E4C701B6010E94FC
:102480007F316D8F7E8F8F8F98A3CD8CDE8CEF8CFC
:10249000F8A020E030E040E057E4C701B6010E9418
:1024A0003834181664F420E030E040E857E4C701FF
:1024B000B6010E947E316D8F7E8F8F8F98A3E09141
:1024C000F6022796EFAF27970AEE12E034019E013D
:1024D0002F5E3F4F590127963FAD27973323E9F1F0
:1024E000D301CD90DD90ED90FC9027E831E040E005
:1024F00059E3C701B6010E944334A70196010E9427
:102500004334F80120813181428153810E94433458
:102510000E94CB320E94FE321B012C0120E030E0F1
:10252000A901C701B6010E943834A7019601181607
:102530000CF05058C701B6010E9463329B01AC01F8
:10254000C201B1010E9443340E94CB32D5016D9388
:102550007D938D939C93139713C0F8012081318153
:1025600042815381D3016D917D918D919C910E9407
:1025700043340E94CB32F50160837183828393835D
:10258000F4E0AF0EB11C24E0620E711C0C5F1F4F13
:10259000A814B90409F09FCFFE0171968081918142
:1025A000A281B381811530E89307A105B10524F01C
:1025B0008FEF9FE7A0E0B0E0813040E894074FEF55
:1025C000A407B40724F481E090E8AFEFBFEF819354
:1025D0009193A193B193E815F90501F789889A8839
:1025E000AB88BC88D501C401805D9A48AF4FBF4F0E
:1025F000C0900401D0900501E0900601F090070121
:1026000081369A4EA105B10528F090923D02809244
:102610003C0230C060913C0270913D02882777FDFA
:102620008095982F0E94FE32A70196010E944334A4
:102630002B013C01C501B4010E94FE324B015C013B
:10264000A701960160E070E080E89FE30E947E3180
:102650009B01AC01C501B4010E9443349B01AC0154
:10266000C301B2010E947F310E94CB3270933D02C0
:1026700060933C02A701960160E070E080E89FE370
:102680000E947E314B015C0160913E0270913F02DD
:10269000882777FD8095982F0E94FE32A70196012A
:1026A0000E9443342B013C016D897E898F89988D6E
:1026B0000E94FE32A50194010E9443349B01AC01AB
:1026C000C301B2010E947F310E94CB3270933F025E
:1026D00060933E026091400270914102882777FD2D
:1026E0008095982F0E94FE32A70196010E944334E4
:1026F0006B017C01698D7A8D8B8D9C8D0E94FE32E1
:10270000A50194010E9443349B01AC01C701B601AD
:102710000E947F310E94CB3270934102609340024D
:102720006CE372E08CE194E00E94742B8AE00E94DA
:102730001B2A892B11F40E9457088091F8028823E4
:1027400091F160913C0270913D024AE050E08CECC6
:1027500093E00E94812C0E94AA0960913E02709130
:102760003F024AE050E08CEC93E00E94812C0E94F2
:10277000AA0960914002709141024AE050E08CEC5D
:1027800093E00E94812C0E94AA09CE018F960E949C
:10279000B009CE01C5960E94B0096EE771E08CECDD
:1027A00093E00E94CC2B4091DE025091DF026091B9
:1027B000E0027091E1028091E2029091E302A09127
:1027C000E402B091E50284179507A607B70708F061
:1027D00082C00E94E70720917502309176024091F5
:1027E0007702509178026091CD027091CE02809173
:1027F000CF029091D0020E947F316B017C0120E0DA
:1028000030E040E857E40E94383418164CF420E0D9
:1028100030E040E857E4C701B6010E947E311BC09A
:1028200020E030E040E857ECC701B6010E945C327E
:1028300087FD09C0C092CD02D092CE02E092CF02B5
:10284000F092D00210C020E030E040E857E4C70129
:10285000B6010E947F316093CD027093CE028093C7
:10286000CF029093D0028091DE029091DF02A0917E
:10287000E002B091E1028C599F4FAF4FBF4F809360
:10288000E2029093E302A093E402B093E5028D8DFF
:102890009E8DAF8DB8A18093650290936602A09340
:1028A0006702B09368028091F8028823A1F0CE01FC
:1028B000CB960E94A51963E971E08CEC93E00E942D
:1028C000AF2B4BAD5CAD6DAD7EAD2AE030E08CEC56
:1028D00093E00E94892CC9A0DAA0EBA0FCA020E024
:1028E00030E84BEB55E4C701B6010E945C3287FF2C
:1028F000CCC020E030E84BEB55ECC701B6010E949C
:10290000383418160CF0C1C06091710270917202D7
:10291000809173029091740260936D0270936E02C5
:1029200080936F02909370022D8D3E8D4F8D58A134
:102930000E947E316B017C0120E030E040E057E4F2
:102940000E94383418164CF4A701960160E070E03C
:1029500080E897E40E947E3112C020E03EEF4FEF06
:1029600056ECC701B6010E945C3287FF0AC020E026
:1029700030E040E857E4C701B6010E947F316B01A7
:102980007C0120E030E0A901C701B6010E94383483
:10299000909164021816A4F4992351F08091620278
:1029A000909163020197909363028093620204C046
:1029B000109263021092620281E08093640212C05E
:1029C00091110AC0809162029091630201969093E6
:1029D00063028093620204C010926302109262024A
:1029E000109264020091620210916302C80117FF05
:1029F00004C088279927801B910B089FB001099F6D
:102A0000700D189F700D1124882777FD8095982FE1
:102A10000E94FE3226EA3BE944E45CE30E94433430
:102A20009B01AC016091CD027091CE028091CF02EA
:102A30009091D0020E947F316093CD027093CE02BC
:102A40008093CF029093D002B801882777FD8095BC
:102A5000982F0E94FE322CEA35EC47E257E30E94A1
:102A600043349B01AC0160917502709176028091B4
:102A70007702909178020E947F3160937502709383
:102A8000760280937702909378020E941C0BCB59B8
:102A9000DF4F0FB6F894DEBF0FBECDBFDF91CF91F1
:102AA0001F910F91FF90EF90DF90CF90BF90AF906C
:102AB0009F908F907F906F905F904F903F902F905E
:102AC0000895CB010C94A035CB01642F0C94A8354C
:102AD00080912A0390E020912B03821B9109089595
:102AE00020912B0380912A03281750F4E22FF0E065
:102AF000E45DFC4F808190E02F5F20932B030895CD
:102B00008FEF9FEF0895E0912B0380912A03E81740
:102B100030F4F0E0E45DFC4F808190E008958FEFA9
:102B20009FEF08950895CF92DF92EF92FF920F9357
:102B30001F93CF93DF937C01CB018A012091060381
:102B4000222389F0EB016B01C40ED51ECC15DD05E7
:102B500069F06991D701ED91FC910190F081E02D30
:102B6000C7010995F3CF642F0E94F216C801DF91C7
:102B7000CF911F910F91FF90EF90DF90CF9008952C
:102B8000CF93DF931F92CDB7DEB769832091060301
:102B90002223D1F020910703203240F021E030E0E1
:102BA000FC013383228380E090E015C0809108030C
:102BB000E82FF0E0E75FFC4F998190838F5F80936F
:102BC00008038093070305C061E0CE0101960E94CF
:102BD000F21681E090E00F90DF91CF910895FC0113
:102BE0001382128248EE53E060E070E04483558324
:102BF0006683778384EB91E09183808308951092BC
:102C00002B0310922A0310920803109207030C94CE
:102C10003D16862F413208F040E26CE273E00E94DC
:102C20005B1610922B0380932A03089521E00C94E5
:102C3000091681E08093060360932903109208032C
:102C40001092070308950F93062F21E04091070388
:102C500069E073E0809129030E949F161092080397
:102C600010920703109206030F91089561E00C94EF
:102C700023168AEF92E00C94EF151092B90381E0CD
:102C80008093B7031092B60361E082E00E94E529C9
:102C900061E083E00E94E529E9EBF0E080818E7F2E
:102CA000808380818D7F808388E48093B80085E471
:102CB0008093BC000895413208F03FC09091B90361
:102CC0009111FCCF91E09093B9032093B7032FEFBC
:102CD00020934C0310929103240F20939003909320
:102CE000B8039091B803880F892B8093B803809123
:102CF000B603813041F41092B6038091B8038093FB
:102D0000BB0085EC01C085EE8093BC008091B903C7
:102D10008130E1F380919103841710F44091910385
:102D200022E933E0FB01D9018A2F821B841718F4B2
:102D30008D918193F9CF842F089580E008950F93AA
:102D4000413208F046C09091B9039111FCCF92E056
:102D50009093B9030093B7039FEF90934C031092A5
:102D6000910340939003FB0162E973E0DB019A2F2A
:102D7000961B941718F491919D93F9CF1092B80374
:102D80009091B803880F892B8093B8038091B60384
:102D9000813041F41092B6038091B8038093BB0058
:102DA00085EC01C085EE8093BC00222321F0809148
:102DB000B9038230E1F380914C038F3F61F0809141
:102DC0004C03803251F080914C03803341F483E016
:102DD00007C081E005C080E003C082E001C084E05C
:102DE0000F910895613298F42091B903243089F449
:102DF00060936E03FC0180E793E0DC012A2F281B1F
:102E0000261718F421912D93F9CF80E0089581E0E1
:102E1000089582E0089585ED8093BC008091BC0008
:102E200084FDFCCF1092B903089585EC8093BC001B
:102E30001092B90308951F920F920FB60F921124AA
:102E40002F933F934F935F936F937F938F939F93B2
:102E5000AF93BF93EF93FF938091B900887F803643
:102E600009F49CC068F5883209F45BC090F48031A5
:102E700009F454C038F4882309F4F5C0883009F403
:102E80004DC0F5C0883109F44CC0803209F45DC0F2
:102E9000EEC0803409F468C048F4803309F455C0AA
:102EA000883309F0E4C080934C03A8C0803509F44E
:102EB0004FC0883509F45DC0883409F0D8C0D5C04A
:102EC000883909F4C6C0A8F4883709F467C038F413
:102ED000883609F463C0803709F460C0C8C08838F8
:102EE00009F4B7C0803909F45FC0803809F0BFC069
:102EF0005BC0803B09F485C038F4803A09F466C0B1
:102F0000883A09F47EC0B3C0803C09F4A6C0883C6E
:102F100009F4A3C0883B09F489C0A9C08091B80313
:102F200010C09091910380919003981770F5E091F3
:102F3000910381E08E0F80939103F0E0EE56FC4FF9
:102F400080818093BB0085EC85C080934C038DC04D
:102F5000E091910381E08E0F809391038091BB00FB
:102F6000F0E0EE56FC4F80839091910380919003A6
:102F70006DC0E091910381E08E0F80939103809169
:102F8000BB00F0E0EE56FC4F80838091B7038111C7
:102F90006CC081E08093B60384EA60C083E08093D4
:102FA000B90310924D03CFCF80914D03803208F0CA
:102FB00050C0E0914D0381E08E0F80934D038091CE
:102FC000BB00F0E0E25BFC4F8083BDCF80914D03FE
:102FD000803230F4E0914D03F0E0E25BFC4F108270
:102FE0000E940B1760914D0370E0E091B203F091E5
:102FF000B3038EE493E0099510924D030E941517D8
:1030000036C084E08093B90310926F0310926E0370
:10301000E091B403F091B503099580916E0381119D
:1030200005C081E080936E0310927003E0916F03FE
:1030300081E08E0F80936F03F0E0E059FC4F8081B8
:103040008093BB0090916F0380916E03981708F4F2
:103050007ACF85E88093BC000AC085EC8093BC00E1
:103060001092B90304C010924C030E940B17FF91F9
:10307000EF91BF91AF919F918F917F916F915F91F0
:103080004F913F912F910F900FBE0F901F90189569
:10309000EF92FF920F931F93CF93DF9300D0CDB7A2
:1030A000DEB7062F142F682F8AEF92E029833A8328
:1030B0000E941916602F8AEF92E00E94C0152981A4
:1030C000022FE22E3A81F32E8E2D801B811740F4C1
:1030D000F70161917F018AEF92E00E94C015F4CF61
:1030E0008AEF92E00E94361691E0811190E0892FDC
:1030F0000F900F90DF91CF911F910F91FF90EF9064
:1031000008953F924F925F926F927F928F929F921B
:10311000AF92BF92CF92DF92EF92FF920F931F93E5
:10312000CF93DF9300D000D000D0CDB7DEB7682EAC
:10313000562E742E3A8329830E94C2286B017C018B
:10314000312C412C872D90E09C838B834801A12C4E
:10315000B12C3714B0F5662D8AEF92E00E94191653
:10316000652D8AEF92E00E94C0158AEF92E00E94DE
:103170003616662D8AEF92E00E9419164B815C810B
:10318000431951094132510514F040E250E0662DD7
:103190008AEF92E00E9416168AEF92E00E9468156C
:1031A000892B59F10115110579F10E94C2286C197A
:1031B0007D098E099F09681579058A059B0520F10F
:1031C0001CC00115110589F10E94C2286C197D09E6
:1031D0008E099F0920E030E060177107820793078E
:1031E00020F1872D90E0242D332727FD30952817D7
:1031F0003907DCF444244A9418C0872D90E29715CF
:1032000008F480E2380EA5CFE981FA81E40DF11DC2
:1032100047FCFA95FE83ED838AEF92E00E947015D9
:10322000ED81FE8180834394B7CF842D26960FB61F
:10323000F894DEBF0FBECDBFDF91CF911F910F91EC
:10324000FF90EF90DF90CF90BF90AF909F908F90C6
:103250007F906F905F904F903F900895CF93DF9352
:103260001F92CDB7DEB790912701992321F08823D3
:1032700079F082E00BC090911001992309F1882325
:1032800039F08091160181111EC081E0898301C04F
:103290001982A0910A01B0910B01E0910C01F0910B
:1032A0000D019E012F5F3F4F41E051966C9180814F
:1032B0000E945928009721F429812093160105C006
:1032C0008FEF9FEF02C080E090E00F90DF91CF91F1
:1032D0000895CF93DF931F92CDB7DEB7BC018091E5
:1032E0001301909114018617970710F48FEF29C0EE
:1032F00065367105D8F70E940A3561506983A0913F
:103300000A01B0910B01E0910C01F0910D019E01B9
:103310002F5F3F4F41E094966C9180810E94592825
:10332000892B21F7698170E06F5F7F4F80911301D6
:10333000909114010E940A3570932C0160932B0127
:1033400080E00F90DF91CF9108950F931F93CF935B
:10335000DF9300D0CDB7DEB78C01809110018111D1
:1033600002C08FEF39C0A0910A01B0910B01E0912A
:103370000C01F0910D019E012F5F3F4F42E05096EE
:103380006C9180810E946328892B59F7698170E0D4
:10339000762F66278A81682B882777FD8095982F5E
:1033A0000E94FE3220E030E04AEA53E40E94633299
:1033B00028EB3EE142E152E40E947F3120E030E020
:1033C00040E857E40E9443340E94CB32F801608306
:1033D00071838283938380E00F900F90DF91CF9170
:1033E0001F910F910895CF93DF931F92CDB7DEB752
:1033F00080911001882309F408C11982A0910A0163
:10340000B0910B01E0910C01F0910D019E012F5F35
:103410003F4F41E051966C9180810E945928892B41
:1034200009F0F3C0A0910A01B0910B01E0910C01E9
:10343000F0910D019E012F5F3F4F41E015966C9179
:1034400080810E945928892B09F0DFC0A0910A01D0
:10345000B0910B01E0910C01F0910D019E012F5FE5
:103460003F4F41E014966C9180810E945928892B2E
:1034700009F0CBC080912701A0910A01B0910B0106
:10348000E0910C01F0910D01882309F459C08CE002
:1034900089839E012F5F3F4F41E014966C9180819C
:1034A0000E945928892B09F0B0C062E370E080E0E7
:1034B00090E00E94F12880EC89838091100180FFC8
:1034C00002C080EE8983A0910A01B0910B01E091C6
:1034D0000C01F0910D019E012F5F3F4F41E01496CA
:1034E0006C9180810E945928892B09F08EC08091AF
:1034F0001601882319F082E0898301C01982A09106
:103500000A01B0910B01E0910C01F0910D019E01B7
:103510002F5F3F4F41E051966C9180810E94592866
:10352000892B09F072C01982A0910A01B0910B0198
:10353000E0910C01F0910D019E012F5F3F4F58C0AB
:1035400084E089839E012F5F3F4F41E014966C9188
:1035500080810E945928892B09F057C0809117015A
:10356000811104C08091100180FD02C080E401C07F
:1035700080E68983A0910A01B0910B01E0910C01D2
:10358000F0910D019E012F5F3F4F41E014966C9129
:1035900080810E945928892BC1F562E370E080E0A8
:1035A00090E00E94F12880911601882319F081E0B3
:1035B000898301C01982A0910A01B0910B01E091A9
:1035C0000C01F0910D019E012F5F3F4F41E051969C
:1035D0006C9180810E945928892BB9F4A0910A012D
:1035E000B0910B01E0910C01F0910D0125E131E06A
:1035F00041E015966C9180810E94592821E0892B29
:1036000009F420E0822F819501C08FEF0F90DF91A8
:10361000CF910895CF93DF931F92CDB7DEB720915E
:1036200010012223A1F1843F21E0920749F0883E56
:1036300023E0920739F08A3F910531F4198206C0E0
:1036400088E003C080E101C088E189838981869593
:103650008695869590910E019817C9F0A0910A0160
:10366000B0910B01E0910C01F0910D019E012F5FD3
:103670003F4F41E016966C9180810E945928892B1A
:1036800031F4898186958695869580930E010F90F9
:10369000DF91CF910895FC0180910F01813039F0C5
:1036A00020F0823031F488E005C082E003C084E07D
:1036B00001C080E1808380911801882319F0808106
:1036C000880F80830895CF93DF931F92CDB7DEB725
:1036D00090911001992379F1843031F0883031F0E4
:1036E000823031F4198206C088E003C080E101C055
:1036F00088E18983898186958695869590910F01C9
:103700009817C9F0A0910A01B0910B01E0910C014A
:10371000F0910D019E012F5F3F4F41E017966C9194
:1037200080810E945928892B31F48981869586955C
:10373000869580930F010F90DF91CF910895CF93DD
:10374000DF931F92CDB7DEB7209110012223A9F19C
:103750008C3B910510F081E014C08236910510F089
:1037600082E00FC08A32910510F083E00AC08431F4
:10377000910510F084E005C00A9710F085E001C0C3
:1037800086E089839091110189819817B1F0A09109
:103790000A01B0910B01E0910C01F0910D019E0125
:1037A0002F5F3F4F41E012966C9180810E94592813
:1037B000892B19F48981809311010F90DF91CF91AA
:1037C0000895009711F00C9469198FEF0895CF9325
:1037D000DF9390912701911121C0909110019923BD
:1037E000E9F0C82FCE7FD09115019C23909315014D
:1037F000C11104C080911901882331F081E00E9439
:103800002E19CC2359F005C080E0DF91CF910C94A4
:103810002E190E94F3198111D0931501DF91CF91D8
:103820000895AF92BF92CF92DF92EF92FF920F93E3
:103830001F93CF93DF9300D0CDB7DEB77C015B0140
:103840006A0180912701882309F463C080911001E7
:10385000882309F460C0A0910A01B0910B01E091A6
:103860000C01F0910D019E012F5F3F4F42E01C962D
:103870006C9180810E946328892B11F082E04CC0FA
:10388000098110E0102F00278A81082B0E151F05D3
:1038900020F4F601108285E03FC0E0910C01F09128
:1038A0000D01818192819695879580179107B0F4DB
:1038B000A0910A01B0910B019E012F5F3F4F41E0A3
:1038C00053966C9180810E946328892BB9F6898177
:1038D00084FF04C00E94F31983E01EC0A0910A0176
:1038E000B0910B01E0910C01F0910D0195014E2D6D
:1038F0001D966C9180810E946328892B09F0BECFB0
:10390000C801B7010E940A356150F601608380E06A
:1039100003C081E001C084E00F900F90DF91CF9150
:103920001F910F91FF90EF90DF90CF90BF90AF90DD
:1039300008951F93CF93DF931F92CDB7DEB7182F53
:1039400080911701811709F487C0A0910A01B091F5
:103950000B01E0910C01F0910D019E012F5F3F4F93
:1039600041E014966C918081112351F10E946328EB
:10397000892B11F08FEF71C089818F7D8983A09190
:103980000A01B0910B01E0910C01F0910D019E0133
:103990002F5F3F4F41E014966C9180810E9459281F
:1039A000892B41F763E070E080E090E00E94F1280D
:1039B00082E0898380912501882389F182E82CC0E7
:1039C0000E946328892BB1F690911001898190FFA4
:1039D00002C0806201C08F7D8983A0910A01B091ED
:1039E0000B01E0910C01F0910D019E012F5F3F4F03
:1039F00041E014966C9180810E945928892B09F02E
:103A0000B9CF63E070E080E090E00E94F1288091FF
:103A10002501882319F080E8898301C019828091EB
:103A20002601882319F0898180638983A0910A0186
:103A3000B0910B01E0910C01F0910D019E012F5FFF
:103A40003F4F41E057966C9180810E945928892B05
:103A500009F090CF1093170180E00F90DF91CF9184
:103A60001F9108951F93CF93DF931F92CDB7DEB7B9
:103A7000182F80912601811749F1112319F080E355
:103A8000898301C0198280911701882319F08981E7
:103A90008260898380912501882319F0898180685B
:103AA0008983A0910A01B0910B01E0910C01F09182
:103AB0000D019E012F5F3F4F41E057966C91808131
:103AC0000E945928892B21F41093260180E001C01F
:103AD0008FEF0F90DF91CF911F9108951F93CF9398
:103AE000DF9300D0CDB7DEB7182F893208F063C05E
:103AF00081111DC080E00E94321D198287E08A83F7
:103B0000A0910A01B0910B01E0910C01F0910D011F
:103B10009E012F5F3F4F42E055966C9180810E943D
:103B20005928892B09F047C01092190142C081E041
:103B30000E94321D80E28983113011F41A8204C080
:103B4000163028F481E08A8385E090E00BC01531BF
:103B500028F482E08A838AE090E004C083E08A83CC
:103B600084E190E00E949F1B8A8120E4829FC00133
:103B7000112487608A83A0910A01B0910B01E09122
:103B80000C01F0910D019E012F5F3F4F42E05596D1
:103B90006C9180810E945928892B69F488E0809378
:103BA00010011092120181E08093190180E00E94BF
:103BB000E71B80E001C08FEF0F900F90DF91CF9156
:103BC0001F9108950F931F93CF93DF931F92CDB74B
:103BD000DEB78C0180911001882309F458C08091D0
:103BE0002701811154C080911901882359F0C8011F
:103BF0000197889720F4802F0E946E1D48C080E0B6
:103C00000E946E1D0430110540F0B801093E83E0AA
:103C1000180728F068EE73E002C064E070E008EE78
:103C200013E0C8010E940A3561506983A0910A011E
:103C3000B0910B01E0910C01F0910D019E012F5FFD
:103C40003F4F41E011966C9180810E945928892B49
:103C5000F1F4698170E06F5F7F4FC8010E941E35EB
:103C6000709314016093130180912B0190912C01AA
:103C70008536910510F084E690E00E94E11B80916A
:103C8000130190911401969587950E949F1B0F90A8
:103C9000DF91CF911F910F9108951F93CF93DF93E1
:103CA00000D0CDB7DEB7182F807711F081E005C0C6
:103CB000112311F01A8202C080E48A83A0910A01C4
:103CC000B0910B01E0910C01F0910D019E012E5F6E
:103CD0003F4F41E055966C9180810E945928892B75
:103CE00061F58A818F7B8093120116FF02C01A82D0
:103CF00002C084E08A8315FD03C08A8182608A83C2
:103D000014FD03C08A8181608A8313FD03C08A8108
:103D100088638A83A0910A01B0910B01E0910C01A4
:103D2000F0910D019E012E5F3F4F41E056966C9140
:103D300080810E945928892B19F0109210015DC0D2
:103D4000812F877F19F080E00E94321DA0910A0127
:103D5000B0910B01E0910C01F0910D019E012F5FDC
:103D60003F4F41E014966C9180810E946328892B1B
:103D700009F043C0898110FF04C091E09A838062FA
:103D800002C01A828F7D89839091270189819923AE
:103D900011F0806801C08F778983A0910A01B091EA
:103DA0000B01E0910C01F0910D019E012E5F3F4F40
:103DB00041E096966C9180810E945928892BE9F404
:103DC000A0910A01B0910B01E0910C01F0910D015D
:103DD0009E012F5F3F4F41E014966C9180810E94BD
:103DE0005928892B51F4109310011092190162E3A4
:103DF00070E080E090E00E94F1280F900F90DF913A
:103E0000CF911F910895CF92DF92EF92FF920F937F
:103E10001F93CF93DF93CDB7DEB72A970FB6F894F1
:103E2000DEBF0FBECDBF6C018FEFD6018C9380E853
:103E30008983A0910A01B0910B01E0910C01F091EE
:103E40000D019E012F5F3F4F41E055966C9180819F
:103E50000E945928892B09F0F5C164E670E080E0E2
:103E600090E00E94F1281982A0910A01B0910B0103
:103E7000E0910C01F0910D019E012F5F3F4F41E059
:103E800055966C9180810E945928892B09F0DAC1DE
:103E9000A0910A01B0910B01E0910C01F0910D018C
:103EA0009E012F5F3F4F46E059966C9180810E94A2
:103EB0006328892B09F0C6C18E8180FBEE24E0F8CF
:103EC000F12CEE0CFF1CEE0CFF1C8C81082F0170F6
:103ED00010E0000F111F0E298A818170082BF60156
:103EE0000083002349F0013019F40093180124C025
:103EF000023009F0A7C11EC0A0910A01B0910B01C8
:103F0000E0910C01F0910D019E012F5F3F4F41E0C8
:103F100013966C9180810E946328892B09F092C1CD
:103F200089818F7009F48EC1843021F481E08093FF
:103F3000180102C0109218012FEF20931001209356
:103F40000E0120930F01209311018FEF9FEF9093AB
:103F5000140180931301209315012093170190936E
:103F60002C0180932B0181E0809312018093250125
:103F70001092260110921A01109219018AE0EBE1C9
:103F8000F1E0DF011D928A95E9F710922701109266
:103F9000280110922A011092290180ED97E00E94D9
:103FA0000A1B82E00E94631B84E690E00E94E21DEF
:103FB0008AE290E00E949F1B80E00E94E71B81E064
:103FC0000E94991C1CE09E01295F3F4F41E060E088
:103FD000812F0E946328892B19F48F81883421F066
:103FE0001F5F103181F720C010932D011F829E01A9
:103FF000295F3F4F41E06AE0812F0E945928892BB9
:1040000099F461E070E080E090E00E94F1288FE098
:104010008F839E01295F3F4F41E06AE080912D012F
:104020000E945928892B49F08AE090E00E94691982
:10403000811108C10E944D1E05C161E070E080E061
:1040400090E00E94F1289E01295F3F4F43E060E12C
:1040500080912D010E946328892B31F78F8190E098
:1040600080589F4F90932F0180932E01888590E078
:1040700080589F4F9093310180933001898590E063
:1040800080589F4F90933301809332011F829E018D
:10409000295F3F4F41E06AE080912D010E9459283D
:1040A000892B11F661E070E080E090E00E94F12839
:1040B00080E00E94991C80E48F83A0910A01B09156
:1040C0000B01E0910C01F0910D019E01295F3F4F22
:1040D00041E05A966C9180810E945928892B09F001
:1040E000A3CF80912D0180688F83A0910A01B091A8
:1040F0000B01E0910C01F0910D019E01295F3F4FF2
:1041000041E05E966C9180810E945928892B09F0CC
:104110008BCF82E08F83A0910A01B0910B01E091D7
:104120000C01F0910D019E01295F3F4F41E05F9628
:104130006C9180810E945928892B09F075CF88E8FD
:104140008F83A0910A01B0910B01E0910C01F091D5
:104150000D019E01295F3F4F41E090966C91808157
:104160000E945928892B09F05FCF80912D018F8300
:10417000A0910A01B0910B01E0910C01F0910D01A9
:104180009E01295F3F4F41E091966C9180810E9492
:104190005928892B09F048CF8AE08F83A0910A0122
:1041A000B0910B01E0910C01F0910D019E01295F8E
:1041B0003F4F41E092966C9180810E945928892B53
:1041C00009F032CF81E88F83A0910A01B0910B01F1
:1041D000E0910C01F0910D019E01295F3F4F41E0FC
:1041E00093966C9180810E945928892B09F01CCFED
:1041F00081E08F83A0910A01B0910B01E0910C0145
:10420000F0910D019E01295F3F4F41E096966C9120
:1042100080810E945928892B09F006CF83E08F8383
:10422000A0910A01B0910B01E0910C01F0910D01F8
:104230009E01295F3F4F41E097966C9180810E94DB
:104240005928F2CE2A960FB6F894DEBF0FBECDBF26
:10425000DF91CF911F910F91FF90EF90DF90CF9062
:104260000895EF92FF920F931F93CF93DF9300D0A7
:10427000CDB7DEB78B017A014115510581F120914F
:104280001001222361F199838A83E0910C01F0915E
:104290000D019B01280F311D8085918582179307A1
:1042A000F0F0A0910A01B0910B019E012F5F3F4FEA
:1042B00042E05B966C9180810E945928892B79F4A9
:1042C000A0910A01B0910B01E0910C01F0910D0158
:1042D0009701402F58966C9180810E9459280F9029
:1042E0000F90DF91CF911F910F91FF90EF90089564
:1042F000EF92FF920F931F93CF93DF9300D0CDB730
:10430000DEB78B017A014115510581F12091100131
:10431000222361F199838A83E0910C01F0910D01D0
:104320009B01280F311D8085918582179307F0F03E
:10433000A0910A01B0910B019E012F5F3F4F42E017
:104340005B966C9180810E945928892B79F4A09109
:104350000A01B0910B01E0910C01F0910D01970160
:10436000402F58966C9180810E9463280F900F9087
:10437000DF91CF911F910F91FF90EF9008956F9271
:104380007F928F929F92AF92BF92CF92DF92EF92E5
:10439000FF920F931F93CF93DF93CDB7DEB7A29712
:1043A0000FB6F894DEBF0FBECDBF6C015B01742E5B
:1043B000652E49018091280181115AC0611571054E
:1043C00009F456C0E12CF12CEC14FD04A8F5C6014B
:1043D0008E199F098131910510F080E190E09501DF
:1043E0002E0D3F1DDE01119600E010E008171907A1
:1043F00041F0F901E00FF11FE491ED930F5F1F4FC2
:10440000F5CFAE014F5F5F4FB801C7010E94312168
:10441000AE014F5E5F4FB801C7010E947821A8012D
:10442000BE016F5E7F4FCE0101960E949335892BAE
:10443000F9F4E00EF11EC8CF69A27AA2A0910A0198
:10444000B0910B01E0910C01F0910D019E012F5DE7
:104450003F4F42E05D966C9180810E945928892BE4
:1044600039F481E08093280190922A0180922901F9
:10447000A2960FB6F894DEBF0FBECDBFDF91CF91ED
:104480001F910F91FF90EF90DF90CF90BF90AF9072
:104490009F908F907F906F900895CF93DF931F929E
:1044A000CDB7DEB7909127019817D9F1882319F17C
:1044B000809128018823A9F180E00E942E1980E0D4
:1044C0000E94991C8091290190912A010E94E21D6D
:1044D0001982E0910C01F0910D019E012F5F3F4F79
:1044E00041E063E280810E94592881E080932701A6
:1044F0000E942E1914C080E00E942E19809115018F
:104500008983E0910C01F0910D019E012F5F3F4FD7
:1045100041E063E280810E945928109227010E94A5
:10452000F3190F90DF91CF9108950F931F93CF93BD
:10453000DF93CDB7DEB729970FB6F894DEBF0FBE75
:10454000CDBF8C018091100180FF36C0A0910A017F
:10455000B0910B01E0910C01F0910D019E012F5FD4
:104560003F4F48E098966C9180810E946328892B88
:1045700029F5898180FF24C0888587FD23C086FDB9
:1045800021C08B8190E0982F88272A81822BF80107
:10459000918380838D8190E0982F88272C81822BB6
:1045A000938382838F8190E0982F88272E81822B9E
:1045B0009583848380E007C081E005C084E003C068
:1045C00085E001C086E029960FB6F894DEBF0FBEE5
:1045D000CDBFDF91CF911F910F910895FF920F935F
:1045E0001F93CF93DF9300D0CDB7DEB78C0173E17B
:1045F000F72EF80141915191619171918F01598389
:104600004A83E0910C01F0910D019E012F5F3F4F15
:1046100042E06F2D80810E945928F394F394F9E1D0
:10462000FF12E7CF0F900F90DF91CF911F910F9165
:10463000FF900895CF93DF93CDB7DEB729970FB6DC
:10464000F894DEBF0FBECDBF89E0E0E4F1E0DE010B
:10465000119601900D928A95E1F7AE014F5F5F4F81
:1046600069E070E088EB94E00E94312129960FB652
:10467000F894DEBF0FBECDBFDF91CF91089528EC37
:1046800030E040E054E062E571E086EF9BE00C949E
:10469000BF210F931F93CF93DF93CDB7DEB72C9736
:1046A0000FB6F894DEBF0FBECDBF8C018CE48C83B7
:1046B0008DEC8D838CE68E838CE0898389EC8A83F4
:1046C0008CE28B83A80143705527E4E0F0E0EC0F07
:1046D000FD1FE40FF51F80818A87980183E03695DE
:1046E00027958A95E1F723703327E4E0F0E0EC0F9B
:1046F000FD1FE20FF31F80818B87C80166E096954E
:1047000087956A95E1F783709927E4E0F0E0EC0F74
:10471000FD1FE80FF91F60816C87E1E0F0E0EC0F0E
:10472000FD1FE40FF51F40814F83E1E0F0E0EC0F47
:10473000FD1FE20FF31F20812887E1E0F0E0EC0F7E
:10474000FD1FE80FF91F80818987AE01465F5F4F2B
:1047500063E070E086E294E00E943121AE01495F9F
:104760005F4F63E070E08AE294E00E94312186E3CB
:104770008A8786E58B8786E78C8786E28F8386E447
:10478000888786E6898702FF04C087E38A8787E2F5
:104790008F8305FF04C087E58B8787E4888710FF38
:1047A00004C087E78C8787E68987AE01465F5F4F45
:1047B00063E070E080E494E00E943121AE01495F43
:1047C0005F4F63E070E081E394E00E943121109339
:1047D000BD030093BC032C960FB6F894DEBF0FBE4A
:1047E000CDBFDF91CF911F910F9108950F931F932C
:1047F000CF93DF93CDB7DEB764970FB6F894DEBFE3
:104800000FBECDBF8C018CE0E9E4F1E0DE01119632
:1048100001900D928A95E1F7093C1105F8F488ECB6
:1048200090E0B8010E940A35615071097D876E875A
:10483000AE01435F5F4F62E070E086E192E00E946C
:104840003121AE014F5F5F4F6CE070E081EC9AE088
:104850000E9431211093C1030093C00364960FB6E8
:10486000F894DEBF0FBECDBFDF91CF911F910F91A6
:104870000895BF92CF92DF92EF92FF920F931F9312
:10488000CF93DF9300D000D01F92CDB7DEB7182FA3
:10489000877009F4ABC0613486E0780708F0A6C0E1
:1048A00080E090E00E94FC3220E030E048E453E4F5
:1048B0000E9463326B017C01CE0105960E944B1B66
:1048C0008D81843059F1A0F4823009F08FC020E04E
:1048D00030E040E856E4C701B6010E9443340E942C
:1048E000D032062FB72E20E030E040E456E437C047
:1048F000883029F1803109F079C020E030E040E0D3
:1049000055E4C701B6010E9443340E94D032062FFD
:10491000B72E20E030E040EC54E421C020E030E04D
:1049200040E056E4C701B6010E9443340E94D032F1
:10493000062FB72E20E030E040EC55E410C020E018
:1049400030E040E855E4C701B6010E9443340E94BC
:10495000D032062FB72E20E030E040E455E4C70106
:10496000B6010E9443340E94D032B9820A837B830D
:104970006C8310FF12C0AE014F5F5F4F62E070E0CA
:1049800084ED91E00E943121AE014D5F5F4F62E006
:1049900070E084E291E00E94312111FF12C0AE016B
:1049A0004F5F5F4F62E070E088ED91E00E9431213F
:1049B000AE014D5F5F4F62E070E088E291E00E94DF
:1049C000312112FF15C0AE014F5F5F4F62E070E012
:1049D0008CED91E00E943121AE014D5F5F4F62E0AE
:1049E00070E08CE291E00E94312102C08FEF01C0A3
:1049F00080E00F900F900F900F900F90DF91CF916C
:104A00001F910F91FF90EF90DF90CF90BF9008958E
:104A1000CF93DF931F92CDB7DEB780FD02C019821E
:104A200002C090E3998381FF03C099819C609983C0
:104A300082FF03C0898183608983AE014F5F5F4F2E
:104A400061E070E088E491E00E94312180E00F9005
:104A5000DF91CF910895CF93DF931F92CDB7DEB74B
:104A6000882321F0853018F084E001C081E0815076
:104A70008983AE014F5F5F4F61E070E08FE491E0AA
:104A80000E94312180E00F90DF91CF910895CF9364
:104A9000DF9300D0CDB7DEB765E070E00E940A3545
:104AA00079836A83AE014F5F5F4F62E070E08EED05
:104AB00091E00E94312180E00F900F90DF91CF9123
:104AC0000895CF93DF9300D0CDB7DEB765E070E0F7
:104AD0000E940A3579836A83AE014F5F5F4F62E0BF
:104AE00070E08AED91E00E94312180E00F900F90FC
:104AF000DF91CF9108950F931F93CF93DF9300D051
:104B000000D0CDB7DEB78A0128EE33E040E050E0B8
:104B10000E945435D8010E94793599838A837B831A
:104B20006C83AE014F5F5F4F64E070E08CE591E015
:104B30000E94312180E00F900F900F900F90DF9135
:104B4000CF911F910F910895CF93DF9300D0CDB7F0
:104B5000DEB765E070E00E940A3579836A83AE01B2
:104B60004F5F5F4F62E070E08AE591E00E94312183
:104B700080E00F900F90DF91CF910895CF93DF9356
:104B800000D0CDB7DEB765E070E00E940A357983CA
:104B90006A83AE014F5F5F4F62E070E088E591E0AD
:104BA0000E94312180E00F900F90DF91CF91089506
:104BB000CF93DF93CDB7DEB729970FB6F894DEBF5A
:104BC0000FBECDBF882319F00E941A2312C089E0BE
:104BD000E5E5F1E0DE01119601900D928A95E1F78D
:104BE000AE014F5F5F4F69E070E088EB94E00E9498
:104BF000312129960FB6F894DEBF0FBECDBFDF91ED
:104C0000CF910895CF93DF9300D000D0CDB7DEB71A
:104C1000882349F080EC898382EC8A8384EC8B833F
:104C200086EC8C8307C08BE89BE8DC0189839A8340
:104C3000AB83BC83AE014F5F5F4F64E070E088E9F7
:104C40009AE00E9431210E94F3190F900F900F906B
:104C50000F90DF91CF910895CF93DF9300D000D0D4
:104C6000CDB7DEB7882349F080E2898388E28A8362
:104C700080E38B8388E38C8307C083EA93EADC01BB
:104C800089839A83AB83BC83AE014F5F5F4F64E03F
:104C900070E08EE99AE00E9431210E94F3190F9092
:104CA0000F900F900F90DF91CF910895AF92BF9228
:104CB000CF92DF92EF92FF920F931F93CF93DF93E8
:104CC000CDB7DEB72A970FB6F894DEBF0FBECDBFC3
:104CD0008C0182E089838AEC8A8383EE8B8389E06E
:104CE0008C83AE014F5F5F4F64E070E088E690E038
:104CF0000E94312183EA8983580190E4A922BB24D0
:104D000006FF06C080EC8A8388EC8B8382EC02C0AD
:104D10008A838B838C83780180E8E82281E0F82203
:104D2000E114F10431F084EC8D838CEC8E8386ECFD
:104D300003C083EA8D838E838F8383EA8887898784
:104D40008A87AE014F5F5F4F6AE070E087EA9AE0C2
:104D50000E943121680193E0C922DD24C114D104ED
:104D600011F080E201C088ED8983AE014F5F5F4F93
:104D700061E070E086EB9AE00E94312105FF03C0FC
:104D80000E941A2303C080E00E94D825E114F10498
:104D9000D9F010FF08C082EB89838BE88A8386EB09
:104DA0008B838BE907C080EB898380E88A8384EB5F
:104DB0008B8380E98C83AE014F5F5F4F64E070E0CE
:104DC00082EA9AE00E94312100FF2FC088EF898398
:104DD000AE014F5F5F4F61E070E080EB98E00E94B2
:104DE00031216AEF70E087E00E94392487E00E9459
:104DF000082581E00E942B2584E690E00E9447254B
:104E000084EF91E00E94612548EC50E069E073EE88
:104E10008AEC92E00E947B2588E290E00E94A42523
:104E20008AE090E00E94BE250BC088ED8983AE0128
:104E30004F5F5F4F61E070E080EB98E00E943121AE
:104E400001FF02C089ED01C088ED8983AE014F5F8B
:104E50005F4F61E070E08DE397E00E94312102FF37
:104E600002C081E001C080E00E94022604FF02C06F
:104E700081E001C080E00E942C26C80188609093E8
:104E8000BF038093BE030E94F319AB2819F410925C
:104E9000C20303C086E08093C203EF2829F080910B
:104EA000C2038A5F8093C20304711127012B29F08A
:104EB0008091C203805F8093C203CD2829F0809146
:104EC000C2038C5F8093C2032A960FB6F894DEBFAC
:104ED0000FBECDBFDF91CF911F910F91FF90EF904B
:104EE000DF90CF90BF90AF9008954F925F926F92F6
:104EF0007F928F929F92AF92BF92CF92DF92EF926A
:104F0000FF920F931F93CF93DF93CDB7DEB7A09798
:104F10000FB6F894DEBF0FBECDBF5C014B013A0166
:104F20006901A701D8011D921C928091C203BE01A4
:104F30006F5F7F4F90E00E94111C8111A3C0809190
:104F4000BE039091BF039C0124713327232B49F1A9
:104F5000FE01349673019E012C5E3F4FAF0143501A
:104F60005109DA016C914F5F5F4FDA014C90512C7F
:104F7000612C712C320155244424762A4081442A24
:104F8000AF0141505109DA014C91542AD7014D9299
:104F90005D926D927D927D013496E217F307F1F6F2
:104FA00002C0712C02C020E1722E86FF22C0F401E3
:104FB00020E030E061E070E06C0F7D1F670D711D37
:104FC000DB01A20FB31F4C9150E0542F44271196E0
:104FD000AC914A2B419351932E5F3F4F26303105C0
:104FE00079F7B6E07B0EF8012081318128603183AA
:104FF00020839C0120783170232B19F1F50120E0EA
:1050000030E061E070E06C0F7D1F670D711DDB010A
:10501000A20FB31F4C9150E0542F44271196AC912E
:105020004A2B419351932E5F3F4F2630310579F73C
:10503000F6E07F0ED8012D913C91119720672D93BA
:105040003C9383709927892BC1F0E1E0F0E0EC0FED
:10505000FD1FE70DF11D6381818180FF0EC0862F4A
:105060008F7386958695869567706F5FE091BA031A
:10507000F091BB03309709F00995F6011082118277
:1050800012821382A0960FB6F894DEBF0FBECDBF7A
:10509000DF91CF911F910F91FF90EF90DF90CF9014
:1050A000BF90AF909F908F907F906F905F904F9048
:1050B00008950E94481891E09827892F90E09195D3
:1050C0008195910908950F931F9300910801109104
:1050D00009010E94811821E030E0882311F020E0CE
:1050E00030E088279927821B930B1F910F91089519
:1050F0001F920F920FB60F9211242F933F938F930D
:105100009F93AF93BF938091C4039091C503A091E7
:10511000C603B091C7033091C30323E0230F2D379B
:1051200020F40196A11DB11D05C026E8230F0296AB
:10513000A11DB11D2093C3038093C4039093C503A5
:10514000A093C603B093C7038091C8039091C9038D
:10515000A091CA03B091CB030196A11DB11D80930C
:10516000C8039093C903A093CA03B093CB03BF9124
:10517000AF919F918F913F912F910F900FBE0F9004
:105180001F9018952FB7F8946091C4037091C503D0
:105190008091C6039091C7032FBF08953FB7F8943D
:1051A0008091C8039091C903A091CA03B091CB0329
:1051B00026B5A89B05C02F3F19F00196A11DB11D72
:1051C0003FBF6627782F892F9A2F620F711D811D8F
:1051D000911D42E0660F771F881F991F4A95D1F7EE
:1051E0000895CF92DF92EF92FF92CF93DF936B01FE
:1051F0007C010E94CE28EB01C114D104E104F1042A
:1052000089F00E947D310E94CE286C1B7D0B683E88
:10521000734090F381E0C81AD108E108F108C85141
:10522000DC4FEACFDF91CF91FF90EF90DF90CF90EE
:105230000895789484B5826084BD84B5816084BD0E
:1052400085B5826085BD85B5816085BDEEE6F0E0FF
:10525000808181608083E1E8F0E01082808182605B
:105260008083808181608083E0E8F0E080818160DC
:105270008083E1E9F0E080818260808380818160C9
:105280008083E0E9F0E0808181608083E1ECF0E000
:10529000808184608083808182608083808181605E
:1052A0008083E3ECF0E0808181608083E0ECF0E0DB
:1052B000808182608083E2ECF0E080818160808385
:1052C000EAE7F0E08081846080838081826080836F
:1052D000808181608083808180688083089590E0F0
:1052E000FC013197EF30F105B0F5EA5AFF4F0C940D
:1052F0007335809180008F7703C0809180008F7D0F
:1053000080938000089580918000877FF9CF84B5D5
:105310008F7702C084B58F7D84BD08958091900001
:105320008F7707C0809190008F7D03C0809190009F
:10533000877F8093900008958091C0008F7703C08D
:105340008091C0008F7D8093C00008958091C2003D
:10535000877F8093C2000895CF93DF9390E0FC0194
:10536000EA59F24F2491FC01EC57F24F84918823C3
:1053700049F190E0880F991FFC01E254F24FA5918A
:10538000B4918055924FFC01C591D4919FB76111A2
:1053900008C0F8948C91209582238C938881822375
:1053A0000AC0623051F4F8948C91322F30958323E7
:1053B0008C938881822B888304C0F8948C91822BF3
:1053C0008C939FBFDF91CF9108950F931F93CF933D
:1053D000DF931F92CDB7DEB7282F30E0F901E85BED
:1053E000F24F8491F901EA59F24F1491F901EC5707
:1053F000F24F04910023C9F0882321F069830E94B1
:105400006F296981E02FF0E0EE0FFF1FE055F24FAA
:10541000A591B4919FB7F8948C91611103C0109538
:10542000812301C0812B8C939FBF0F90DF91CF917F
:105430001F910F910895CF93DF93282F30E0F9014A
:10544000E85BF24F8491F901EA59F24FD491F901E6
:10545000EC57F24FC491CC2391F081110E946F2937
:10546000EC2FF0E0EE0FFF1FEE55F24FA591B49137
:105470002C912D2381E090E021F480E002C080E0B7
:1054800090E0DF91CF910895CF93DF931F92CDB736
:10549000DEB76983DC01ED91FC910280F381E02DA0
:1054A00041E050E0BE016F5F7F4F09950F90DF91A3
:1054B000CF910895CF93DF93EC018C859D8597FF65
:1054C00005C082E00E94962E9D878C878C859D85E5
:1054D000DF91CF91089583E00C94EB30FC0184853B
:1054E000958597FD06C082E00E943E2E90E00196D1
:1054F000089582E00E943E2E90E00895FC0184858C
:10550000958597FD05C02FEF3FEF358724870895D8
:1055100082E00C94962ECF93DF93EC0180913D01B5
:10552000882331F083E00E94C72E1816190634F044
:1055300081E090E09B838A8380E090E0DF91CF91CF
:105540000895FC0120812E5F208342E450E06CEC42
:105550007DE080E80C94622FFC0181819081913A7A
:1055600059F4813209F03CC047E050E066E371E055
:1055700080E00E94622F43C0913291F5803239F46D
:1055800067E070E086E391E00E94932F06C08232CC
:1055900009F035C0828180933D0180913601909160
:1055A0003701A0913801B0913901803B9440A105A9
:1055B000B105C1F480913D0180FD14C087E797E7F4
:1055C00090930108809300082BE088E190E00FB6EB
:1055D000F894A895809360000FBE209360000FC0E0
:1055E00080E0089588E10FB6F894809360001092EF
:1055F00060000FBEA895109201081092000881E08B
:1056000008952FEF3FEFFC0135872487089510920E
:10561000CF031092CE0388EE93E0A0E0B0E0809339
:10562000D0039093D103A093D203B093D30381E22C
:1056300092E09093CD038093CC038FEF9FEF9093F4
:10564000D9038093D8030895FC0120812F5F208324
:1056500049E150E06EE07EE080E80C94622F42E287
:1056600050E067E27EE080E80C94622FEF92FF92B8
:105670000F931F93CF93DF931F92CDB7DEB789832C
:105680008B017A0141E050E0BE016F5F7F4F84E003
:105690000E94C72EA701B80184E40E94C72E0F9074
:1056A000DF91CF911F910F91FF90EF900895FC0132
:1056B00091818081813A31F481E0913091F0933091
:1056C00089F411C0813271F49B3021F4828180937E
:1056D0003F0105C09A3031F4828180933E0181E020
:1056E0000895089580E00895CF93DF9300D000D00F
:1056F00000D0CDB7DEB7FB01808191819A83898389
:10570000828193819C838B83848195819E838D8309
:1057100046E050E0BE016F5F7F4F81E00E94362B74
:1057200026960FB6F894DEBF0FBECDBFDF91CF91A6
:1057300008956115710581F0DB010D900020E9F7F6
:10574000AD0141505109461B570BDC01ED91FC9115
:105750000280F381E02D099480E090E008950C949C
:10576000992BDC01ED91FC910190F081E02D0994E1
:105770000F931F93CF93DF93EC016DE00E94B12B49
:105780008C016AE0CE010E94B12B800F911FDF9146
:10579000CF911F910F9108950F931F93CF93DF9394
:1057A000EC010E94992B8C01CE010E94B82B800F36
:1057B000911FDF91CF911F910F9108958F929F922A
:1057C000AF92BF92CF92DF92EF92FF920F931F930F
:1057D000CF93DF93CDB7DEB7A1970FB6F894DEBFB6
:1057E0000FBECDBF7C01C42EE52FCB01D22E19A256
:1057F00021E02D1510F02AE0D22E8E010F5D1F4FF3
:105800008D2C912CA12CB12C6C2D7E2FA5019401F7
:105810000E9432358C2DD29E80191124015011091D
:105820008A3014F4805D01C0895CF8018083211501
:1058300031054105510521F0C22EE32FCA01E4CF05
:10584000B801C7010E94992BA1960FB6F894DEBF4C
:105850000FBECDBFDF91CF911F910F91FF90EF90C1
:10586000DF90CF90BF90AF909F908F900895CF9290
:10587000DF92EF92FF920F931F93CF93DF93EC0190
:105880006A017B012115310579F4E881F9810190E4
:10589000F081E02D642FDF91CF911F910F91FF9048
:1058A000EF90DF90CF9009942A303105E9F477FF2B
:1058B0001AC06DE20E94B12B8C0144275527BA0112
:1058C0004C195D096E097F092AE0CE010E94DE2B8A
:1058D000800F911FDF91CF911F910F91FF90EF905B
:1058E000DF90CF9008952AE0B701A601CE01DF91A5
:1058F000CF911F910F91FF90EF90DF90CF900C947C
:10590000DE2B9A01AB01662757FD6095762F0C942C
:10591000372C0F931F93CF93DF93EC010E94372C0A
:105920008C01CE010E94B82B800F911FDF91CF9187
:105930001F910F9108952115310541F4DC01ED917E
:10594000FC910190F081E02D642F09940C94DE2BE2
:105950009A01462F50E060E070E00C949B2C0F936E
:105960001F93CF93DF93EC019A01462F50E060E044
:1059700070E00E949B2C8C01CE010E94B82B800FFE
:10598000911FDF91CF911F910F9108954F925F92D8
:105990006F927F928F929F92AF92BF92CF92DF923F
:1059A000EF92FF920F931F93CF93DF93EC016A0165
:1059B0007B01B22E9A01AB01C701B6010E94F134FE
:1059C000882319F06DE272E027C026013701E894C0
:1059D00077F82FEF3FEF4FE75FE7C301B2010E9477
:1059E000F13481110DC02FEF3FEF4FE75FE7C301A7
:1059F000B2010E945C3218161CF461E372E00CC024
:105A00002FEF3FEF4FE75FE4C701B6010E94383444
:105A10001816ACF465E372E0CE01DF91CF911F91CF
:105A20000F91FF90EF90DF90CF90BF90AF909F903D
:105A30008F907F906F905F904F900C94992B2FEFE9
:105A40003FEF4FE75FECC701B6010E945C3287FD74
:105A5000E1CF20E030E0A901C701B6010E945C322D
:105A600087FF0AC06DE2CE010E94B12B8C01F7FACC
:105A7000F094F7F8F09402C000E010E0A12C60E090
:105A800070E080E09FE3AB1441F020E030E040E2C2
:105A900051E40E946332A394F6CF9B01AC01C7018D
:105AA000B6010E947F316B017C010E94D0322B0134
:105AB0003C010E94FC329B01AC01C701B6010E946F
:105AC0007E316B017C012AE0B301A201CE010E946C
:105AD000DE2B080F191FBB2039F069E372E0CE01FD
