:100000000C944E070C9476070C9476070C947607A4
:100010000C9476070C9476070C9476070C94AA0738
:100020000C9476070C9476070C9493300C945C2F08
:100030000C9476070C9476070C9476070C9476074C
:100040000C9476070C9476070C9476070C9476073C
:100050000C9476070C9476070C9476070C9434284D
:100060000C9476070C9476070C9476070C9476071C
:100070000C9476070C9476070C9476070C9476070C
:100080000C9476070C9476070C9476070C947607FC
:100090000C9424170C9476070C9476070C9476072E
:1000A0000C9476070C9476070C947607452948291A
:1000B00037293B2941296929692969294C2950296E
:1000C00054295A295E2969296429036EDB363D9A31
:1000D0009999993DABAAAA2A3E000000803F084AA0
:1000E000D73B3BCE016E84BCBFFDC12F3D6C74314C
:1000F0009ABD56833DDA3D00C77F11BED9E4BB4CA3
:100100003E916BAAAABE000000803F072C7AA5BAD8
:100110006CC590DA3B9365FC8BBC53F810FD3C56E4
:1001200092834DBD879D3AB63DCBC9BF5BBE73DAA6
:100130000FC93F05A84CCDB2D44EB93836A9020C30
:1001400050B9918688083CA6AAAA2ABE0000008061
:100150003F000000700000000024000000020003C7
:10016000000000650054FFEF0000FA80000B1282CF
:100170000001030C30C30E8C8CE914D540021371BE
:100180000F8E3883F8833000F883258EF883300093
:10019000F883FFFFFFFF0FFEA9D6240004001A8298
:1001A00079A10000003CFFFF000000100000388330
:1001B0006FA2003E03304000000002CAE3093E8007
:1001C000000020000000000000004000000060006F
:1001D0000000000C0000000C186E000006920A16C9
:1001E000C0DFFFFF0256FD8CD377FFE1C496E0C568
:1001F000BEAA00000000FFFF0B2B000016570000F6
:1002000003594000000000001DFA00026C1D0000B0
:1002100000003FFFDFEB003EB3B6000D2278000088
:100220002F3C00000000001942B5000039A2000078
:10023000B365D90E9FC91DCF4C343000000050006B
:1002400000003BB67AE80064000000C8000000002F
:100250000000100000001000FA921000225E000D55
:10026000229F0001000000320000FF46000063D41E
:1002700000001000000004D6000004CC000004CCF4
:1002800000000000107200000040000000000000AC
:1002900000000006000200050007000000000064E6
:1002A00000000000000000000005000500640020C0
:1002B00000000000000000000000000040000000FE
:1002C000030000000032F8980000FF650000830F73
:1002D0000000FF9BFC000000000000000000000088
:1002E000000000000000000000000000000000000E
:1002F00000000000000000000000000000000000FE
:10030000100040000000000000060000B26A000279
:1003100000000001FB830068000000D9FC007CF1B4
:10032000FF830000000000650000006403E8006433
:100330000028000000250000000016A000000000BA
:10034000100000001000002F0000000001F4000069
:10035000100000280000FFFF4581FFFFFA72000037
:10036000000000000000004400050005BAC6004778
:1003700078A200000001000000000000060000005C
:1003800000140000254D002F706D000005AE000C1C
:1003900002D000000000000000000000000000008B
:1003A0000000001B00000000000000000000000032
:1003B00000000064000000080000000000000000D1
:1003C000000000000000000000000000000000002D
:1003D000000000000000000000000000000000001D
:1003E000000000000000000000000000000000000D
:1003F00000000000000000000000000000000000FD
:1004000000000000000000000000000000000000EC
:100410000000001B00000000000000000000000EB3
:10042000000E00000AC70004000000000032FFFFB9
:10043000FF9C00000B2B00000002000000010000E8
:100440000064FFE500000000000000000000000064
:10045000000000000001000000000001000000009A
:1004600000000001800000018000000180000024E5
:1004700026D30000000000000000000600100096D7
:10048000003C000000000000000000000000000030
:1004900000000C0A4E68CDCF770950166759C6196F
:1004A000CE820000000000000000000000000000FC
:1004B0000000000000000000000017D784000300C7
:1004C00000000000000000000000C7938F9D1E1B6D
:1004D0001C190000000000000000000000000000E7
:1004E000000000000000000000000203188500006A
:1004F00040000000000300000003000000000000B6
:1005000000004000000000000000000000000000AB
:1005100000000000000000000000000000000000DB
:1005200000000000000000000000000000000000CB
:10053000000000000000677DDF7E72902E554CF6B3
:10054000E68800000000000000000000000000003D
:100550000000D8DCB4B8B0D8B9ABF3F8FAB3B7BB85
:100560008E9EAEF132F51BF1B4B8B08097F1A9DFE1
:10057000DFDFAADFDFDFF2AAC5CDC7A90CC92C9740
:10058000F1A989264666B28999A92D557DB0B08A10
:10059000A896365676F1BAA3B4B280C0B8A897111F
:1005A000B28398BAA3F0240844106418B2B9B4987E
:1005B00083F1A329557DBAB5B1A38393F0002850E8
:1005C000F5B2B6AA839328547CF1B9A3829361BA99
:1005D000A2DADEDFDB819AB9AEF5606870F1DABAD3
:1005E000A2DFD9BAA2FAB9A38292DB31BAA2D9BAF0
:1005F000A2F8DF85A4D0C1BBAD83C2C5C7B8A2DF56
:10060000DFDFBAA0DFDFDFD8D8F1B8AAB38DB498A6
:100610000D355DB2B6BAAF8C96198F9FA70E161E18
:10062000B49AB8AA872C547CBAA4B08AB691325630
:1006300076B28494A4C808CDD8B8B4B0F19982A891
:100640002D557D98A80E161EA22C547C92A4F02C39
:100650005078F184A898C4CDFCD80DDBA8FC2DF30C
:10066000D9BAA6F8DABAA6DED8BAB2B68696A6D0B5
:10067000F3C841DAA6C8F8D8B0B4B882A892F52C6D
:10068000548898F135D9F418D8F1A2D0F8F9A88493
:10069000D9C7DFF8F883C5DADF69DF83C1D8F40191
:1006A00014F1A8824EA884F311D182F5D99228972B
:1006B00088F109F41C1CD884A8F3C0F9D1D9978219
:1006C000F129F40DD8F3F9F9D1D982F4C203D8DEB7
:1006D000DF1AD8F1A2FAF9A88498D9C7DFF8F8F898
:1006E00083C7DADF69DFF883C3D8F40114F198A86F
:1006F000822EA884F311D182F5D992509788F109FE
:10070000F41CD884A8F3C0F8F9D1D99782F149F440
:100710000DD8F3F9F9D1D982F4C403D8DEDFD8F1CA
:10072000AD8898CCA809F9D98292A8F57CF1883ACD
:10073000CF944A6E98DB6931DAADF2DEF9D887954D
:10074000A8F221D1DAA5F9F417D9F1AE8ED0C0C341
:10075000AE82C684C3A88595C8A588F2C0F1F4010D
:100760000EF18E9EA8C63E56F554F18872F401151E
:10077000F19845856EF58E9E0488F142985A8E9EBA
:10078000068869F4011CF1981E1108D0F504F11EC9
:10079000970202983625DBF9D985A5F3C1DA85A53C
:1007A000F3DFD88595A8F309DAA5FAD88292A8F5DF
:1007B00078F1881A849F26889821DAF41DF3D88767
:1007C0009F39D1AFD9DFDFFBF9F40CF3D8FAD0F8B9
:1007D000DAF9F9D0DFD9F9D8F40BD8F3879F39D1FA
:1007E000AFD9DFDFF41DF3D8FAFCA869F9F9AFD06F
:1007F000DADEFAD9F88F9FA8F1CCF398DB45D9AFB0
:10080000DFD0F8D8F18F9FA8CAF38809DAAF8FCB71
:10081000F8D8F2AD978D0CD9A5DFF9BAA6F3FAF4A2
:1008200012F2D8950DD1D9BAA6F3FADAA5F2C1BA67
:10083000A6F3DFD8F1BAB2B68696A6D0CAF349DAE3
:10084000A6CBF8D8B0B4B8D8AD84F2C0DFF18FCB66
:10085000C3A8B2B68696C8C1CBC3F3B0B48898A873
:1008600021DB718D9D71859521D9ADF2FAD88597DF
:10087000A828D9F408D8F28D29DAF405D9F285A48C
:10088000C2F2D8A88D9401D1D9F411F2D88721D819
:10089000F40AD8F28498A8C801D1D9F411D8F3A4E5
:1008A000C8BBAFD0F2DEF8F8F8F8F8F8F8F8D8F1ED
:1008B000B8F6B5B9B08A95A3DE3CA3D9F8D85CA345
:1008C000D9F8D87CA3D9F8D8F8F9D1A5D9DFDAFAC4
:1008D000D8B18530F7D9DED8F830ADDADED8F2B449
:1008E0008C99A32D557DA083DFDFDFB591A0F6297C
:1008F000D9FBD8A0FC29D9FAD8A0D051D9F8D8FC76
:1009000051D9F9D879D9FBD8A0D0FC79D9FAD8A196
:10091000F9F9F9F9F9A0DADFDFDFD8A1F8F8F8F88A
:10092000F8ACDEF8ADDE8393AC2C547CF1A8DFDFAD
:10093000DFF69D2CDAA0DFD9FADB2DF8D8A850DA43
:10094000A0D0DED9D0F8F8F8DB55F8D8A878DAA02E
:10095000D0DFD9D0FAF8F8F8F8DB7DF8D89CA88C6D
:10096000F530DB38D9D0DEDFA0D0DEDFD8A848DB19
:1009700058D9DFD0DEA0DFD0DED8A868DB70D9DFA1
:10098000DFA0DFDFD8F1A888902C547C98A8D05C39
:1009900038D1DAF2AE8CDFF9D8B087A8C1C1B188FE
:1009A000A8C6F9F9DA36D8A8F9DA36D8A8F9DA36C5
:1009B000D8A8F9DA36D8A8F9DA36D8F78D9DADF887
:1009C00018DAF2AEDFD8F7ADFA30D9A4DEF9D8F2F2
:1009D000AEDEFAF983A7D9C3C5C7F1889BA77AAD64
:1009E000F7DEDFA4F8849408A797F300AEF2981915
:1009F000A488C6A39488F632DFF28393DB09D9F288
:100A0000AADFD8D8AEF8F9D1DAF3A4DEA7F1889B33
:100A10007AD8F38494AE19F9DAAAF1DFD8A881C0A4
:100A2000C3C5C7A39283F628ADDED9F8D8A350ADCD
:100A3000D9F8D8A378ADD9F8D8F8F9D1A1DADEC3BE
:100A4000C5C7D8A18194F818F2B089ACC3C5C7F165
:100A5000D8B8B4B09786A8319B069907AB97288879
:100A60009BF00C201440B0B4B8F0A88A9A285078B3
:100A7000B79BA8295179247059446938644831F1E9
:100A8000BBAB88002C547CF0B38BB8A804285078FA
:100A9000F1B088B49726A85998BBABB38B02264611
:100AA00066B0B8F08A9CA82951798B2951798A249B
:100AB00070598B2058718A4469388B3940688A6430
:100AC00048318B30496088F1AC002C547CF08CA804
:100AD00004285078F1889726A85998AC8C022646AD
:100AE00066F0899CA8295179247059446938644872
:100AF00031A98809205970AB11384069A8193148CB
:100B0000608CA83C415C207C00F187981986A86E17
:100B1000767EA999882D557DD8B1B5B9A3DFDFDFE1
:100B2000AED0DFAAD0DEF2ABF8F9D9B087C4AAF113
:100B3000DFDFBBAFDFDFB9D8B1F1A3978E60DFB0E5
:100B400084F2C8F8F9D9DED89385F14AB183A308B5
:100B5000B5839A0810B79F10D8F1B0BAAEB08AC268
:100B6000B2B68E9EF1FBD9F41DD8F9D90CF1D8F8A4
:100B7000F8AD61D9AEFBD8F40CF1D8F8F8AD19D9BD
:100B8000AEFBDFD8F416F1D8F8AD8D61D9F4F4AC32
:100B9000F59C9C8DDF2BBAB6AEFAF8F40BD8F1AE0B
:100BA000D0F8AD51DAAEFAF8F1D8B9B1B6A3839C5A
:100BB00008B9B1839AB5AAC0FD3083B79F10B58B31
:100BC00093F20202D1ABDADED8F1B080BAABC0C387
:100BD000B284C1C3D8B1B9F38BA391B609B4D9AB70
:100BE000DEB0879CB9A3DDF1B38B8B8B8B8BB08789
:100BF000A3A3A3A3B28BB69BF2A3A3A3A3A3A3A374
:100C0000A3A3A3F1B087B59AA3F39BA3A3DCBAACCB
:100C1000DFB9A3A3A3A3A3A3A3A3A3A3A3A3A3A352
:100C2000A3A3D8D8D8BBB3B7F1AAF9DAFFD9809A71
:100C3000AA28B48098A720B79787A86688F079512A
:100C4000F1902C870CA781976293F0717160859465
:100C50000129517990A5F1284C6C870C951885785D
:100C6000A38390284C6C886CD8F3A28200F210A861
:100C7000921980A2F2D926D8F188A84DD948D896E1
:100C8000A83980D93CD89580A839A68698D92CDA7D
:100C900087A72CD8A8899519A980D938D8A88939C7
:100CA000A980DA3CD8A82EA83990D90CD8A89531BB
:100CB00098D90CD8A809D9FFD801DAFFD89539A955
:100CC000DA26FFD890A80D8999A810809821DA2EED
:100CD000D88999A83180DA2ED8A886963180DA2E64
:100CE000D8A8873180DA2ED8A88292F34180F1D932
:100CF0002ED8A882F31980F1D92ED882ACF3C0A2E5
:100D00008022F1A62EA72EA92298A829DAACDEFF10
:100D1000D8A2F22AF1A92E8292A8F23180A696F1E9
:100D2000D900AC8C9C0C30ACDED0DEFFD88C9CACF7
:100D3000D010ACDE8092A2F24C82A8F1CAF235F15A
:100D40009688A6D900D8F1FF0000000200090F0024
:100D500000030401000C000000000000000000007F
:100D60000000000000000408020110408040102034
:100D70004080408008020401804020100201108061
:100D8000102040400404040404030405020202028B
:100D90000403020202020606060606060404020214
:100DA0000204000000002300260029002C002F0070
:100DB00000000000250028002B002E00310000005C
:100DC0000000240027002A002D003000080B00023C
:100DD00002020100090400000102020000052400D3
:100DE0001001052401010104240206052406000166
:100DF0000705810310004009040100020A000000F9
:100E000007050202400000070583024000000904B4
:100E1000020001030000000921010100012222005B
:100E20000705840340000105010904A101850109AA
:100E300001A100050109300931093216008026FFA1
:100E40007F751095038182C0C000C18081C11201ED
:100E5000000202000040412336800001010200012F
:100E6000120100020000004041233680000101020F
:100E7000000141726475696E6F204C4C430045441B
:100E8000547261636B6572204544547261636B6593
:100E900072320004030904004316C42A11241FBE41
:100EA000CFEFDAE0DEBFCDBF12E0A0E0B1E0E0E5D9
:100EB000FBE602C005900D92AC33B107D9F724E0F0
:100EC000ACE3B2E001C01D92A632B207E1F717E031
:100ED000CEE4D7E004C02197FE010E946335CC34F4
:100EE000D107C9F70E9408310C94A6350C94000074
:100EF0001F93CF93DF93EC01162F472FBC016F5F39
:100F00007F4F89EF92E00E946A15412FBE0189EF61
:100F100092E0DF91CF911F910C946A150F931F936C
:100F2000CF938C01BC016F5F7F4F89EF92E00E94ED
:100F30006715C82FB80189EF92E00E9467152C2F22
:100F400030E0322F2227A901482BCA01CF911F91EF
:100F50000F9108951F920F920FB60F9211248F9345
:100F600081E0809346028F910F900FBE0F901F90EB
:100F7000189587EF92E00E943A1F84E690E00E9465
:100F8000191C89E70E948B1E88E70E941F1C88ECB1
:100F900090E00E94201E0E94E822E0910001F0E013
:100FA000E655FE4F808190E00E94F22280ED90E0B5
:100FB0000E94012688EC90E00C949F23EAE6F0E082
:100FC000808180638083EE9A81E00C94212240919D
:100FD000DE025091DF026091E0027091E1028091A7
:100FE000E6029091E702A091E802B091E90284172D
:100FF0009507A607B70738F561E08091DD028111FA
:1010000060E06093DD0281E10E94A6292091010148
:101010008091DE029091DF02A091E002B091E102A6
:10102000222329F08C599F4FAF4FBF4F04C08C50E3
:101030009E4FAF4FBF4F8093E6029093E702A0937D
:10104000E802B093E9020895CF92DF92EF92FF9207
:101050006B017C0120E030E040E057E40E94143452
:10106000181654F420E030E040E857E4C701B60118
:101070000E941C316B017C0120E030E040E057EC25
:10108000C701B6010E94163287FF0AC020E030E097
:1010900040E857E4C701B6010E941D316B017C0195
:1010A000C701B601FF90EF90DF90CF900895CF92E7
:1010B000DF92EF92FF928091F802882331F064E78B
:1010C00071E08CEC93E00E94802B109260021092F1
:1010D0005F021092CD021092CE021092CF021092B7
:1010E000D0021092D1021092D2021092D30210922A
:1010F000D4021092D5021092D6021092D70210920A
:10110000D8021092D9021092DA021092DB021092E9
:10111000DC021092030110926102C0906902D0902B
:101120006A02E0906B02F0906C0220E030EC4AED35
:1011300056E4C701B6010E941434181654F020E09A
:1011400030EC4AED56ECC701B6010E94163287FF1B
:1011500003C081E080936102FF90EF90DF90CF9019
:1011600008958091F6028823E9F06FE170E089EF3D
:1011700092E00E946715682F70E080E090E00E9486
:10118000C83220E030E040E85EE30E942134609302
:10119000EA027093EB028093EC029093ED0260E21E
:1011A00070E01CC06DE170E089EF92E00E9467156D
:1011B000682F70E080E090E00E94C83220E030E0CC
:1011C00040E85EE30E9421346093EA027093EB02F0
:1011D0008093EC029093ED026EE170E089EF92E073
:1011E0000E946715682F70E080E090E00E94C8328E
:1011F00020E030E040E85EE30E9421346093EE029C
:101200007093EF028093F0029093F1028091EE02CE
:101210009091EF02A091F002B091F1028093F2025E
:101220009093F302A093F402B093F5020895809195
:10123000F60220E030E040E850E4882339F1609184
:10124000EA027091EB028091EC029091ED020E9413
:1012500021340E949232462F6FE170E089EF92E0D4
:101260000E946A1520E030E040E850E46091EE0210
:101270007091EF028091F0029091F1020E9421346E
:101280000E949232462F60E270E026C06091EA022E
:101290007091EB028091EC029091ED020E9421345A
:1012A0000E949232462F6DE170E089EF92E00E9439
:1012B0006A1520E030E040E850E46091EE02709161
:1012C000EF028091F0029091F1020E9421340E947D
:1012D0009232462F6EE170E089EF92E00E946A152B
:1012E0008091EE029091EF02A091F002B091F10294
:1012F0008093F2029093F302A093F402B093F5026C
:1013000020E03EEF4FEF56E460910401709105013B
:1013100080910601909107010E9421340E9492322F
:101320008AE190E00C9478076CE771E08CEC93E034
:101330000E94632B66E971E08CEC93E00C94802BA7
:101340000E945708109245021092440281E0809357
:10135000010108956DE771E08CEC93E00C94632B30
:101360000F931F93CF93DF93EC018C010A5F1F4F04
:10137000699179914AE050E08CEC93E00E94322C24
:101380000E94AA09C017D10799F7DF91CF911F9149
:101390000F910895CF93C62F682F8CEC93E00E9495
:1013A000652B0E94AA094AE050E06C2F8CEC93E078
:1013B000CF910C945F2CCF93DF936FE771E08CECAF
:1013C00093E00E94632B4AE050E06091F6028CECBF
:1013D00093E00E94582C0E94AA09CAEED2E04881EC
:1013E00059816A817B8122E030E08CEC93E00E949D
:1013F0005B2D0E94AA094C815D816E817F8122E074
:1014000030E08CEC93E00E945B2D0E94AA09409191
:10141000040150910501609106017091070122E0DD
:1014200030E08CEC93E0DF91CF910C945D2D0F9325
:101430001F93CF93DF938C0162E871E08CEC93E013
:101440000E94632BE8010A5F1F4F699179914AE07E
:1014500050E08CEC93E00E94322C0E94AA09C01745
:10146000D10799F76EE771E08CEC93E0DF91CF91B3
:101470001F910F910C94802BCF93DF9365E871E05F
:101480008CEC93E00E94632BC1ECD2E0499159911E
:101490006991799126E030E08CEC93E00E945B2D1D
:1014A0000E94AA0982E0CD3CD80781F7CDE9D2E0BD
:1014B00049915991699179912DE030E08CEC93E05C
:1014C0000E945B2D0E94AA0982E0C13CD80781F7E7
:1014D0006EE771E08CEC93E0DF91CF910C94802B60
:1014E0000F931F93CF93DF9301EC12E0C0E0D0E0A5
:1014F000CE0188960E948E07BC01990F880B990B2C
:101500000E94CA3220E030E040E85CE30E942134CF
:10151000F80161937193819391938F012296C63064
:10152000D10531F709E712E0C0E0D0E0CE01C29664
:101530000E948E07BC01990F880B990B0E94CA323A
:1015400020E030E040E059E30E942134F80161934B
:101550007193819391938F012296C432D10531F713
:10156000DF91CF911F910F91089569E170E089EFAC
:1015700092E00E94671569E170E089EF92E00E94B5
:101580006715843038F469E170E089EF92E00E94D9
:10159000671501C083E0809300016CE170E089EF82
:1015A00092E00E9467158093F6020E94B1088AE1DA
:1015B00090E00E948E07BC01990F880B990B0E9446
:1015C000CA3220E03EEF4FEF56E40E942032609393
:1015D000040170930501809306019093070108951B
:1015E00040E052EC61E070E08CEC93E00E94BE2A97
:1015F00062E08AE00E946A2961E081E10E946A2932
:1016000061E082E00E94A62960E082E00E94A629B3
:101610000E94B50A0E94700A8AEF92E00E940916A1
:101620008CE08093B800589859980E94B9070C94A0
:10163000DE07CF92DF92EF92FF920F931F93CF932B
:10164000DF938CEC93E00E94292A181619060CF0FF
:101650004FC18CEC93E00E94392A833409F063C0B7
:101660002AEEE22E22E0F22E8CEC93E00E94392A40
:101670006C018CEC93E00E94392AD82F80E0C82FAF
:10168000BE016C297D29072E000C880B990B0E9446
:10169000CA3220E030E040E85BE30E942134F701E9
:1016A00061937193819391937F01F2EFEF16F2E0D2
:1016B000FF06D1F68CEC93E00E94392A7C018CEC79
:1016C00093E00E94392A182F00E0B8016E297F2983
:1016D000072E000C880B990B0E94CA3220E03EEFC7
:1016E0004FEF56E40E94203260930401709305018D
:1016F000809306019093070168E871E08CEC93E019
:101700000E94632B409104015091050160910601F4
:101710007091070122E030E08CEC93E00E945D2D97
:101720000E94170932C0833569F41092F8026BE801
:1017300071E08CEC93E00E94802B88EC90E00E949A
:101740009F237FCF883471F480910101882319F0A1
:101750006DE871E002C06FE871E08CEC93E00E94EC
:10176000802B6FCF8437A1F481E09091F602911124
:1017700080E08093F6020E94B1084091F6026CE18D
:1017800070E089EF92E00E946A150E94DB0959CF50
:101790008635A1F461E971E08CEC93E00E94802B26
:1017A0000E9494090E94DB0981E08093F80284E69C
:1017B00090E00E949F230E943C0A43CF893461F449
:1017C0000E9494090E94DB090E943C0A609100017A
:1017D0008FE40E94CA0935CF803519F580E00E9458
:1017E00021228091000190E00196837099278093D7
:1017F0000001FC01E655FE4F808190E00E94F2223C
:1018000081E00E942122609100018FE40E94CA09B8
:101810004091000169E170E089EF92E00E946A1551
:1018200010CF823519F40E9457080BCF823719F474
:101830000E94A00906CF873569F58CEC93E00E94E1
:10184000392AE12CF12C6C01DD24EC14FD0474F434
:101850008CEC93E00E94392A482FB70189EF92E07F
:101860000E946A158FEFE81AF80AEFCF0E94B50AB6
:101870000E94700A80E00E942122E0910001F0E0C5
:10188000E655FE4F808190E00E94F22281E00E94A6
:101890002122D7CE843209F0D4CE98E2E92EF12C61
:1018A0008CEC93E00E94392A482FB70189EF92E02F
:1018B0000E946A15EFEFEE1AFE0AFEE2EF16F1043F
:1018C00079F782E3E82EF12C8CEC93E00E94392A20
:1018D000482FB70189EF92E00E946A158FEFE81A4E
:1018E000F80AE6E5EE16F10479F70E94700AA9CE2F
:1018F000DF91CF911F910F91FF90EF90DF90CF90EC
:1019000008952F923F924F925F926F927F928F92A3
:101910009F92AF92BF92CF92DF92EF92FF920F937E
:101920001F93CF93DF93CDB7DEB7C756D1090FB65C
:10193000F894DEBF0FBECDBF809146028823E1F34D
:101940000E947E286093DE027093DF028093E002A3
:101950009093E10281E090E0A0E0B0E023968CAFAC
:101960009DAFAEAFBFAF23979E012B5B3F4F790179
:101970008E010D5B1F4F26503109AE014F5F5F4F47
:10198000BE01615D7F4FCE01C5960E94202726963D
:101990008FAD2697811102C01092460223968CAD1E
:1019A0009DADAEADBFAD2397892B8A2B8B2B11F04C
:1019B0000C944D156D857E858F8598890E94CA325D
:1019C00020E030E040E850E30E9421342B013C014C
:1019D00069857A858B859C850E94CA3220E030E03B
:1019E00040E850E30E9421342C966CAF7DAF8EAF5F
:1019F0009FAF2C976D817E818F8198850E94CA321E
:101A000020E030E040E850E30E94213460966CAF63
:101A10007DAF8EAF9FAF609769817A818B819C810A
:101A20000E94CA3220E030E040E850E30E942134B6
:101A30006B017C019B01AC010E9421346C966CAF60
:101A40007DAF8EAF9FAF6C9760962CAD3DAD4EAD28
:101A50005FAD6097CA01B9010E942134A0966CAFB6
:101A60007DAF8EAF9FAFA0972C962CAD3DAD4EAD08
:101A70005FAD2C97CA01B9010E942134A4966CAFC6
:101A80007DAF8EAF9FAFA497A3019201C301B201B6
:101A90000E942134A8966CAF7DAF8EAF9FAFA89700
:101AA000A0962CAD3DAD4EAD5FADA0976C966CADE4
:101AB0007DAD8EAD9FAD6C970E941C31A4962CAD70
:101AC0003DAD4EAD5FADA4970E941C31A8962CADE4
:101AD0003DAD4EAD5FADA8970E941D314B015C013D
:101AE000A30192012C966CAD7DAD8EAD9FAD2C9770
:101AF0000E94213464966CAF7DAF8EAF9FAF649728
:101B000060962CAD3DAD4EAD5FAD6097C701B6019F
:101B10000E9421349B01AC0164966CAD7DAD8EAD0D
:101B20009FAD64970E941D319B01AC010E941D3145
:101B3000A50194010E94B73164966CAF7DAF8EAF62
:101B40009FAF64976DA37EA38FA398A7A301920173
:101B500060966CAD7DAD8EAD9FAD60970E942134D7
:101B60004B015C012C962CAD3DAD4EAD5FAD2C977D
:101B7000C701B6010E9421349B01AC01C501B4012B
:101B80000E941C319B01AC010E941D310E948931D1
:101B900068966CAF7DAF8EAF9FAF689769A37AA34D
:101BA0008BA39CA3A0962CAD3DAD4EAD5FADA09791
:101BB0006C966CAD7DAD8EAD9FAD6C970E941D3166
:101BC000A4962CAD3DAD4EAD5FADA4970E941C31E7
:101BD000A8962CAD3DAD4EAD5FADA8970E941C31CF
:101BE0004B015C012C962CAD3DAD4EAD5FAD2C97FD
:101BF00060966CAD7DAD8EAD9FAD60970E94213437
:101C00002C966CAF7DAF8EAF9FAF2C97A301920146
:101C1000C701B6010E9421349B01AC012C966CAD2A
:101C20007DAD8EAD9FAD2C970E941D319B01AC0107
:101C30000E941D31A50194010E94B7319B01AC01A6
:101C400050582C962CAF3DAF4EAF5FAF2C972D8FD9
:101C50003E8F4F8F58A3CE0189960E946922882318
:101C600081F12DE338EF42E256E46D8D7E8D8F8D4C
:101C700098A10E9421346D8F7E8F8F8F98A32DE3C2
:101C800038EF42E256E469A17AA18BA19CA10E949F
:101C9000213469A37AA38BA39CA32DE338EF42E2FE
:101CA00056E46DA17EA18FA198A50E9421346DA359
:101CB0007EA38FA398A780910301882309F410C302
:101CC000A0C38091F802882321F0CE0189960E945A
:101CD000170A69A57AA5072E000C880B990B0E949C
:101CE000CA322091C1023091C2024091C302509188
:101CF000C4020E941C314B015C016BA57CA5072E20
:101D0000000C880B990B0E94CA322091C5023091B9
:101D1000C6024091C7025091C8020E941C316B015B
:101D20007C016DA57EA5072E000C880B990B0E94E7
:101D3000CA322091C9023091CA024091CB0250911F
:101D4000CC020E941C3160966CAF7DAF8EAF9FAF0E
:101D500060972091850230918602409187025091D0
:101D60008802C501B4010E9421342B013C0120915D
:101D7000890230918A0240918B0250918C02C701F6
:101D8000B6010E9421349B01AC01C301B2010E9443
:101D90001D312B013C0120918D0230918E0240912A
:101DA0008F025091900260966CAD7DAD8EAD9FAD6F
:101DB00060970E9421349B01AC01C301B2010E94D3
:101DC0001D31A0966CAF7DAF8EAF9FAFA0972091D5
:101DD0009102309192024091930250919402C50178
:101DE000B4010E9421342B013C01209195023091D5
:101DF00096024091970250919802C701B6010E9445
:101E000021349B01AC01C301B2010E941D312B01A1
:101E10003C012091990230919A0240919B0250918D
:101E20009C0260966CAD7DAD8EAD9FAD60970E94BB
:101E300021349B01AC01C301B2010E941D312B0171
:101E40003C0164966CAD7DAD8EAD9FAD64970E94F4
:101E50001B32A4966CAF7DAF8EAF9FAFA4976496F4
:101E60006CAD7DAD8EAD9FAD649790580E948E3461
:101E700064966CAF7DAF8EAF9FAF649768966CAD84
:101E80007DAD8EAD9FAD68970E948E346C966CAF21
:101E90007DAF8EAF9FAF6C9768966CAD7DAD8EAD0C
:101EA0009FAD68970E941B3268966CAF7DAF8EAF76
:101EB0009FAF68972091790230917A0240917B021E
:101EC00050917C02C501B4010E9421344B015C0198
:101ED00020917D0230917E0240917F0250918002DC
:101EE000C701B6010E9421349B01AC01C501B401B8
:101EF0000E941D316B017C01209181023091820290
:101F0000409183025091840260966CAD7DAD8EADA0
:101F10009FAD60970E9421349B01AC01C701B601BF
:101F20000E941D31A4962CAD3DAD4EAD5FADA49782
:101F30000E9421346B017C0164962CAD3DAD4EAD09
:101F40005FAD6497A0966CAD7DAD8EAD9FADA09753
:101F50000E9421346C962CAD3DAD4EAD5FAD6C97BB
:101F60000E9421349B01AC01C701B6010E941D31C2
:101F70006B017C0164962CAD3DAD4EAD5FAD6497B9
:101F8000C301B2010E94213468962CAD3DAD4EAD27
:101F90005FAD68970E9421349B01AC01C701B60177
:101FA0000E941D316B017C016C962CAD3DAD4EAD98
:101FB0005FAD6C97C301B2010E9421344B015C01FB
:101FC00068962CAD3DAD4EAD5FAD6897A0966CADFB
:101FD0007DAD8EAD9FADA0970E9421349B01AC01D9
:101FE000C501B4010E941C319058A70196010E94BE
:101FF000B7312DE338EF42E256EC0E9421340E94C3
:1020000024086093690270936A0280936B02909334
:102010006C026093710270937202809373029093CA
:10202000740220910301222391F02091D902309172
:10203000DA024091DB025091DC020E941C31609375
:102040007102709372028093730290937402809174
:1020500061028823B1F020E030E040E057E4609175
:1020600071027091720280917302909174020E94C9
:102070001D3160937102709372028093730290938A
:10208000740260917102709172028091730290915A
:1020900074020E942408609371027093720280930C
:1020A00073029093740280910101882309F4D9CDC1
:1020B0000E94E7070E94190B80914402909145020B
:1020C0000097E9F5109253021092540210925502B3
:1020D0001092560210924702109248021092490242
:1020E00010924A021092570210925802109259020E
:1020F00010925A0210924B0210924C0210924D0212
:1021000010924E0210925B0210925C0210925D02DD
:1021100010925E0210924F021092500210925102E1
:102120001092520287E492E00E94011A81E090E04E
:10213000909345028093440284EF91E094C08130F3
:10214000910509F095C08091420290914302892B3C
:1021500009F067C06091530270915402809155025A
:102160009091560226E0C22EDD24DA94ED2CFD2C4F
:10217000A70196010E9444352093470230934802FC
:102180004093490250934A0260915702709158025D
:102190008091590290915A02A70196010E944435FC
:1021A00020934B0230934C0240934D0250934E02C9
:1021B00060915B0270915C0280915D0290915E0281
:1021C000A70196010E94443520934F02309350029C
:1021D000409351025093520210927502109276026F
:1021E000109277021092780287E492E00E94011A1E
:1021F00082E090E090934502809344021092430263
:10220000109242022C968CAD9DADAEADBFAD2C9719
:102210008093650290936602A0936702B093680270
:102220001DC09E012B5C3F4FE3E5F2E0D9018D918B
:102230009D919D01092E000CAA0BBB0B4081518181
:1022400062817381840F951FA61FB71F819391939D
:10225000A193B193B2E0EF35FB0741F780914202C1
:10226000909143020197909343028093420215C4D8
:10227000029709F0F6CC80914202909143028C3D86
:10228000954041F5209165023091660240916702C8
:10229000509168022C966CAD7DAD8EAD9FAD2C97A4
:1022A0000E941C3125E431E14BE852E40E942134C4
:1022B0006093750270937602809377029093780210
:1022C000109201010E9457086FE871E08CEC93E0D6
:1022D0000E94802B80914202909143020196C3CFCD
:1022E000C0905F02D09060028091020190E0C81619
:1022F000D9060CF03FC07E01FDE1EF0EF11C0DECA4
:1023000012E0D7012D913D914D915D917D01F80134
:1023100060817181828193810E941D31D8016D930A
:102320007D938D939D938D01B2E0093D1B0749F785
:1023300020917102309172024091730250917402A7
:102340006091D9027091DA028091DB029091DC02F7
:102350000E941D316093D9027093DA028093DB02F0
:102360009093DC02EFEFCE1ADE0AD0926002C092A8
:102370005F0293C381E0809303010DEC12E00D2C0A
:10238000000CEE08FF08C701B6010E94CA329B018B
:10239000AC01D8016D917D918D919C910E9420326C
:1023A000F80161937193819391938F01F2E00D3D58
:1023B0001F0749F7809161028823B1F020E030E0E7
:1023C00040E057E46091D9027091DA028091DB021B
:1023D0009091DC020E941C316093D9027093DA0262
:1023E0008093DB029093DC021092610284E680937A
:1023F00002018091F802882309F44FC30E949409D6
:102400004CC39DECC92E92E0D92E8E01035E1F4F66
:102410005E0129E2A20EB11C780128961FAF0EAF13
:102420002897D6012D913D914D915D916D01F70158
:1024300060817181828193810E941C31D7016D93EB
:102440007D938D939D937D01AA15BB0551F7CD8C8E
:10245000DE8CEF8CF8A020E030E040E057ECC701C4
:10246000B6010E94163287FF0CC020E030E040E841
:1024700057E4C701B6010E941D316D8F7E8F8F8F8B
:1024800098A3CD8CDE8CEF8CF8A020E030E040E00B
:1024900057E4C701B6010E941434181664F420E012
:1024A00030E040E857E4C701B6010E941C316D8F4F
:1024B0007E8F8F8F98A3B091F6022996BFAF299790
:1024C0005E01E1E1AE0EB11C8AEE282E82E0382ECC
:1024D00045012996FFAD2997FF23E9F1D801CD9059
:1024E000DD90ED90FC9027E831E040E059E3C70132
:1024F000B6010E942134A70196010E942134F10106
:1025000020813181428153810E9421340E94923284
:102510000E94CA322B013C0120E030E0A901C70132
:10252000B6010E941434A701960118160CF05058F9
:10253000C701B6010E9420329B01AC01C301B20168
:102540000E9421340E949232D4016D937D938D9329
:102550009C93139713C0F1012081318142815381F3
:10256000D8016D917D918D919C910E9421340E94A2
:102570009232F4016083718382839383F4E08F0E3F
:10258000911C0C5F1F4F24E0220E311C28964EAD8B
:102590005FAD28978416950609F09BCFF5018081E1
:1025A0009181A281B3818115F0E89F07A105B10552
:1025B00024F08FEF9FE7A0E0B0E0813020E89207A1
:1025C0002FEFA207B20724F481E090E8AFEFBFEF4E
:1025D000F50181939193A193B1935F0128962EAD5C
:1025E0003FAD2897E217F307C9F689889A88AB8828
:1025F000BC88D501C401805D9A48AF4FBF4FC090E1
:102600000401D0900501E0900601F09007018136A9
:102610009A4EA105B10528F090923D0280923C02AD
:1026200030C060913C0270913D02072E000C880B77
:10263000990B0E94CA32A70196010E9421342B01F6
:102640003C01C501B4010E94CA324B015C01A701E3
:10265000960160E070E080E89FE30E941C319B01DE
:10266000AC01C501B4010E9421349B01AC01C3013E
:10267000B2010E941D310E94923270933D0260931C
:102680003C02A701960160E070E080E89FE30E94B1
:102690001C314B015C0160913E0270913F02072E9C
:1026A000000C880B990B0E94CA32A70196010E9468
:1026B00021342B013C016D897E898F89988D0E9480
:1026C000CA32A50194010E9421349B01AC01C301CF
:1026D000B2010E941D310E94923270933F026093BA
:1026E0003E028091400290914102BC01990F880BFB
:1026F000990B0E94CA32A70196010E9421346B01F6
:102700007C01698D7A8D8B8D9C8D0E94CA32A501CA
:1027100094010E9421349B01AC01C701B6010E94C3
:102720001D310E94923270934102609340026CE32B
:1027300072E08CE194E00E94292B8AE00E94D62965
:10274000892B11F40E9457088091F802882391F197
:1027500060913C0270913D024AE050E08CEC93E0C5
:102760000E94322C0E94AA0960913E0270913F02A1
:102770004AE050E08CEC93E00E94322C0E94AA09BF
:1027800060914002709141024AE050E08CEC93E08D
:102790000E94322C0E94AA09CE018F960E94B00995
:1027A000CE01C5960E94B0096EE771E08CEC93E013
:1027B0000E94802B4091DE025091DF026091E00286
:1027C0007091E1028091E2029091E302A091E40213
:1027D000B091E50284179507A607B70708F082C0F5
:1027E0000E94E707209175023091760240917702AE
:1027F000509178026091CD027091CE028091CF020B
:102800009091D0020E941D316B017C0120E030E0EC
:1028100040E857E40E94143418164CF420E030E0ED
:1028200040E857E4C701B6010E941C311BC020E0FC
:1028300030E040E857ECC701B6010E94163287FD30
:1028400009C0C092CD02D092CE02E092CF02F092A7
:10285000D00210C020E030E040E857E4C701B601E4
:102860000E941D316093CD027093CE028093CF02FF
:102870009093D0028091DE029091DF02A091E0025D
:10288000B091E1028C599F4FAF4FBF4F8093E2024E
:102890009093E302A093E402B093E5028D8D9E8DA8
:1028A000AF8DB8A18093650290936602A0936702F2
:1028B000B09368028091F8028823A1F0CE01CB96F4
:1028C0000E94B31963E971E08CEC93E00E94632BE2
:1028D0004BAD5CAD6DAD7EAD2AE030E08CEC93E0AD
:1028E0000E94392CC9A0DAA0EBA0FCA020E030E8BF
:1028F0004BEB55E4C701B6010E94163287FFCBC0EF
:1029000020E030E84BEB55ECC701B6010E941434CF
:1029100018160CF0C0C06091710270917202809123
:1029200073029091740260936D0270936E028093B3
:102930006F02909370022D8D3E8D4F8D58A10E9495
:102940001C316B017C0120E030E040E057E40E9444
:10295000143418164CF4A701960160E070E080E88A
:1029600097E40E941C3112C020E03EEF4FEF56EC7E
:10297000C701B6010E94163287FF0AC020E030E08E
:1029800040E857E4C701B6010E941D316B017C018C
:1029900020E030E0A901C701B6010E9414349091F3
:1029A00064021816A4F4992351F080916202909168
:1029B00063020197909363028093620204C01092B5
:1029C00063021092620281E08093640212C091114E
:1029D0000AC0809162029091630201969093630213
:1029E0008093620204C010926302109262021092FD
:1029F00064020091620210916302C80117FF04C0D3
:102A000088279927801B910B089FB001099F700DA3
:102A1000189F700D1124072E000C880B990B0E9433
:102A2000CA3226EA3BE944E45CE30E9421349B017C
:102A3000AC016091CD027091CE028091CF02909155
:102A4000D0020E941D316093CD027093CE0280931C
:102A5000CF029093D002B801110F880B990B0E94FE
:102A6000CA322CEA35EC47E257E30E9421349B013D
:102A7000AC0160917502709176028091770290911D
:102A800078020E941D3160937502709376028093E4
:102A90007702909378020E94190BC959DF4F0FB645
:102AA000F894DEBF0FBECDBFDF91CF911F910F9184
:102AB000FF90EF90DF90CF90BF90AF909F908F905E
:102AC0007F906F905F904F903F902F900895CB0133
:102AD0000C949035CB01642F0C94983580912A0387
:102AE00090E020912B03821B9109089590912B0374
:102AF00080912A03981750F4E92FF0E0E45DFC4F31
:102B0000208130E09F5F90932B0302C02FEF3FEFB7
:102B1000C9010895E0912B0380912A03E81730F44E
:102B2000F0E0E45DFC4F808190E008958FEF9FEF2F
:102B300008950895CF92DF92EF92FF920F931F9323
:102B4000CF93DF937C01262F972F8A018091060374
:102B5000882391F0C62FD72F6E01C40ED51ECC1539
:102B6000DD0571F06991D701ED91FC910190F08143
:102B7000E02DC7010995F3CF642F822F0E94FB1629
:102B8000C801DF91CF911F910F91FF90EF90DF90DF
:102B9000CF900895CF93DF931F92CDB7DEB76983AF
:102BA000209106032223D1F020910703203240F028
:102BB00021E030E0FC013383228380E090E015C007
:102BC00080910803E82FF0E0E75FFC4F9981908344
:102BD0008F5F809308038093070305C061E0CE01F7
:102BE00001960E94FB1681E090E00F90DF91CF915B
:102BF0000895FC011382128288EE93E0A0E0B0E019
:102C000084839583A683B78384EB91E0918380834B
:102C1000089510922B0310922A0310920803109229
:102C200007030C944716862F413208F040E26CE20D
:102C300073E00E94651610922B0380932A03089577
:102C400021E00C94131681E080930603609329031E
:102C5000109208031092070308950F93062F21E0A6
:102C60004091070369E073E0809129030E94A9164F
:102C70001092080310920703109206030F91089513
:102C800061E00C942D168AEF92E00C94F9151092E5
:102C9000B90381E08093B7031092B60361E082E04C
:102CA0000E94A62961E083E00E94A629E9EBF0E0FA
:102CB00080818E7F808380818D7F808388E4809374
:102CC000B80085E48093BC000895413208F03FC00D
:102CD0009091B9039111FCCF91E09093B9032093A7
:102CE000B7032FEF20934C0310929103240F2093EE
:102CF00090039093B8039091B803880F892B809329
:102D0000B8038091B603813041F41092B6038091EC
:102D1000B8038093BB0085EC01C085EE8093BC00B6
:102D20008091B9038130E1F380919103841710F40D
:102D30004091910322E933E0FB01D9018A2F821BE4
:102D4000841718F48D918193F9CF842F089580E032
:102D500008950F93413208F046C09091B903911144
:102D6000FCCF32E03093B9030093B7033FEF3093C9
:102D70004C031092910340939003FB0162E973E0CE
:102D8000DB013A2F361B341718F431913D93F9CFFC
:102D90001092B8033091B803880F832B8093B80347
:102DA0008091B603813041F41092B6038091B8034C
:102DB0008093BB0085EC01C085EE8093BC0022238C
:102DC00021F08091B9038230D1F380914C038F3F81
:102DD00079F080914C03803241F080914C03803334
:102DE00031F094E005C091E003C092E001C093E0AF
:102DF000892F0F910895613298F42091B9032430FE
:102E000089F460936E03FC0120E733E0D9018A2F37
:102E1000821B861718F481918D93F9CF80E0089575
:102E200081E0089582E0089585ED8093BC00809153
:102E3000BC0084FDFCCF1092B903089585EC80930B
:102E4000BC001092B90308951F920F920FB60F9213
:102E500011242F933F934F935F936F937F938F939F
:102E60009F93AF93BF93EF93FF938091B900887FB7
:102E7000803609F49CC068F5883209F45BC090F490
:102E8000803109F454C038F4882309F4F5C088303F
:102E900009F44DC0F5C0883109F44CC0803209F402
:102EA0005DC0EEC0803409F468C048F4803309F492
:102EB00055C0883309F0E4C080934C03A8C0803526
:102EC00009F44FC0883509F45DC0883409F0D8C0D2
:102ED000D5C0883909F4C6C0A8F4883709F467C09A
:102EE00038F4883609F463C0803709F460C0C8C07C
:102EF000883809F4B7C0803909F45FC0803809F018
:102F0000BFC05BC0803B09F485C038F4803A09F447
:102F100066C0883A09F47EC0B3C0803C09F4A6C0FC
:102F2000883C09F4A3C0883B09F489C0A9C08091FA
:102F3000B80310C09091910380919003981770F599
:102F4000E091910381E08E0F80939103F0E0EE56C3
:102F5000FC4F80818093BB0085EC85C080934C033F
:102F60008DC0E091910381E08E0F80939103809159
:102F7000BB00F0E0EE56FC4F80839091910380916E
:102F800090036DC0E091910381E08E0F80939103D7
:102F90008091BB00F0E0EE56FC4F80838091B70338
:102FA00081116CC081E08093B60384EA60C083E045
:102FB0008093B90310924D03CFCF80914D0380329F
:102FC00008F050C0E0914D0381E08E0F80934D03D7
:102FD0008091BB00F0E0E25BFC4F8083BDCF80912D
:102FE0004D03803230F4E0914D03F0E0E25BFC4FA2
:102FF00010820E94141760914D0370E0E091B203BB
:10300000F091B3038EE493E0099510924D030E9472
:103010001E1736C084E08093B90310926F0310929C
:103020006E03E091B403F091B503099580916E03AE
:10303000811105C081E080936E0310927003E091CE
:103040006F0381E08E0F80936F03F0E0E059FC4F37
:1030500080818093BB0090916F0380916E039817DD
:1030600008F47ACF85E88093BC000AC085EC809391
:10307000BC001092B90304C010924C030E941417B4
:10308000FF91EF91BF91AF919F918F917F916F9140
:103090005F914F913F912F910F900FBE0F901F9016
:1030A0001895EF92FF920F931F93CF93DF9300D069
:1030B000CDB7DEB7062F142F682F8AEF92E0298351
:1030C0003A830E942316602F8AEF92E00E94CA156D
:1030D0002981022FE22E3A81F32E8E2D801B81173B
:1030E00040F4F70161917F018AEF92E00E94CA15D6
:1030F000F4CF8AEF92E00E94401691E0811190E0B7
:10310000892F0F900F90DF91CF911F910F91FF901A
:10311000EF9008952F923F924F925F926F927F921D
:103120008F929F92AF92BF92CF92DF92EF92FF92D7
:103130000F931F93CF93DF9300D000D01F92CDB792
:10314000DEB7F82EE62E242E69010E947E284B0160
:103150005C01312C1D82822D90E09C838B832801A1
:10316000612C712C321408F051C06F2D8AEF92E05F
:103170000E9423166E2D8AEF92E00E94CA158AEFF4
:1031800092E00E9440166F2D8AEF92E00E94231673
:103190004B815C81431951094132510514F040E2E1
:1031A00050E06F2D8AEF92E00E9420168AEF92E0A5
:1031B0000E946E15892B19F10115110599F4F6017C
:1031C0002D81E20FF11D27FDFA95FA83E9838AEF3D
:1031D00092E00E947615E981FA8180832D812F5F2C
:1031E0002D83E4CF0E947E28DC01CB018819990948
:1031F000AA09BB0984159505A605B70500F3822D1C
:1032000040E2421508F480E2380EACCF01151105FA
:10321000D1F00E947E28DC01CB0188199909AA0906
:10322000BB0920E030E080179107A207B30758F0F0
:10323000822D90E0ED812E2FEE0F330B28173907EA
:1032400014F42FEF2D838D810F900F900F900F901E
:103250000F90DF91CF911F910F91FF90EF90DF9032
:10326000CF90BF90AF909F908F907F906F905F9026
:103270004F903F902F900895CF93DF931F92CDB73B
:10328000DEB790912701992321F0882379F082E01D
:103290000BC090911001992309F1882339F0809196
:1032A000160181111EC081E0898301C01982A0919D
:1032B0000A01B0910B01E0910C01F0910D019E010A
:1032C0002F5F3F4F41E051966C9180810E941628FC
:1032D000009721F429812093160105C08FEF9FEFFD
:1032E00002C080E090E00F90DF91CF910895CF93DE
:1032F000DF931F92CDB7DEB7BC018091130190918F
:1033000014018617970710F48FEF29C065367105F1
:10331000D8F70E94FA3461506983A0910A01B091F4
:103320000B01E0910C01F0910D019E012F5F3F4FC9
:1033300041E094966C9180810E941628892B21F798
:10334000698170E06F5F7F4F80911301909114014C
:103350000E94FA3470932C0160932B0180E00F904F
:10336000DF91CF9108950F931F93CF93DF9300D0F8
:10337000CDB7DEB720911001211102C08FEF3AC006
:103380008C01A0910A01B0910B01E0910C01F09128
:103390000D019E012F5F3F4F42E050966C9180815E
:1033A0000E941F28892B51F7698170E0762F6627CC
:1033B0008A81682B072E000C880B990B0E94CA3259
:1033C00020E030E04AEA53E40E94203228EB3EE15C
:1033D00042E152E40E941D3120E030E040E857E431
:1033E0000E9421340E949232F801608371838283AB
:1033F000938380E00F900F90DF91CF911F910F91F9
:103400000895EF92FF921F93CF93DF9300D0CDB733
:10341000DEB77C0110E0F70141915191619171910A
:103420007F0159834A8363E1610FE0910C01F091C0
:103430000D019E012F5F3F4F42E080810E941628C0
:103440001E5F163041F70F900F90DF91CF911F91C3
:10345000FF90EF900895CF93DF931F92CDB7DEB723
:1034600080911001882309F408C11982A0910A01F2
:10347000B0910B01E0910C01F0910D019E012F5FC5
:103480003F4F41E051966C9180810E941628892B14
:1034900009F0F3C0A0910A01B0910B01E0910C0179
:1034A000F0910D019E012F5F3F4F41E015966C9109
:1034B00080810E941628892B09F0DFC0A0910A01A3
:1034C000B0910B01E0910C01F0910D019E012F5F75
:1034D0003F4F41E014966C9180810E941628892B01
:1034E00009F0CBC080912701A0910A01B0910B0196
:1034F000E0910C01F0910D01882309F459C08CE092
:1035000089839E012F5F3F4F41E014966C9180812B
:103510000E941628892B09F0B0C062E370E080E0B9
:1035200090E00E94AF2880EC89838091100180FF99
:1035300002C080EE8983A0910A01B0910B01E09155
:103540000C01F0910D019E012F5F3F4F41E0149659
:103550006C9180810E941628892B09F08EC0809181
:103560001601882319F082E0898301C01982A09195
:103570000A01B0910B01E0910C01F0910D019E0147
:103580002F5F3F4F41E051966C9180810E94162839
:10359000892B09F072C01982A0910A01B0910B0128
:1035A000E0910C01F0910D019E012F5F3F4F58C03B
:1035B00084E089839E012F5F3F4F41E014966C9118
:1035C00080810E941628892B09F057C0809117012D
:1035D000811104C08091100180FD02C080E401C00F
:1035E00080E68983A0910A01B0910B01E0910C0162
:1035F000F0910D019E012F5F3F4F41E014966C91B9
:1036000080810E941628892BC1F562E370E080E07A
:1036100090E00E94AF2880911601882319F081E084
:10362000898301C01982A0910A01B0910B01E09138
:103630000C01F0910D019E012F5F3F4F41E051962B
:103640006C9180810E941628892BB9F4A0910A01FF
:10365000B0910B01E0910C01F0910D0125E131E0F9
:1036600041E015966C9180810E94162821E0892BFB
:1036700009F420E0822F819501C08FEF0F90DF9138
:10368000CF910895CF93DF931F92CDB7DEB72091EE
:1036900010012223A1F1843F21E0920749F0883EE6
:1036A00023E0920739F08A3F910531F4198206C070
:1036B00088E003C080E101C088E189838981869523
:1036C0008695869590910E019817C9F0A0910A01F0
:1036D000B0910B01E0910C01F0910D019E012F5F63
:1036E0003F4F41E016966C9180810E941628892BED
:1036F00031F4898186958695869580930E010F9089
:10370000DF91CF910895FC0180910F01813039F054
:1037100020F0823031F488E005C082E003C084E00C
:1037200001C080E1808380911801882319F0808195
:10373000880F80830895CF93DF931F92CDB7DEB7B4
:1037400090911001992379F1843031F0883031F073
:10375000823031F4198206C088E003C080E101C0E4
:1037600088E18983898186958695869590910F0158
:103770009817C9F0A0910A01B0910B01E0910C01DA
:10378000F0910D019E012F5F3F4F41E017966C9124
:1037900080810E941628892B31F48981869586952F
:1037A000869580930F010F90DF91CF910895CF936D
:1037B000DF931F92CDB7DEB7209110012223A9F12C
:1037C0008C3B910510F081E014C08236910510F019
:1037D00082E00FC08A32910510F083E00AC0843184
:1037E000910510F084E005C00A9710F085E001C053
:1037F00086E089839091110189819817B1F0A09199
:103800000A01B0910B01E0910C01F0910D019E01B4
:103810002F5F3F4F41E012966C9180810E941628E5
:10382000892B19F48981809311010F90DF91CF9139
:103830000895009711F00C9477198FEF0895CF93A6
:10384000DF9390912701911121C09091100199234C
:10385000E9F0C82FCE7FD09115019C2390931501DC
:10386000C11104C080911901882331F081E00E94C8
:103870003C19CC2359F005C080E0DF91CF910C9426
:103880003C190E942B1A8111D0931501DF91CF9121
:103890000895AF92BF92CF92DF92EF92FF920F9373
:1038A0001F93CF93DF9300D0CDB7DEB77C015B01D0
:1038B0006A0180912701882309F463C08091100177
:1038C000882309F460C0A0910A01B0910B01E09136
:1038D0000C01F0910D019E012F5F3F4F42E01C96BD
:1038E0006C9180810E941F28892B11F082E04CC0CE
:1038F000098110E0102F00278A81082B0E151F0563
:1039000020F4F601108285E03FC0E0910C01F091B7
:103910000D01818192819695879580179107B0F46A
:10392000A0910A01B0910B019E012F5F3F4F41E032
:1039300053966C9180810E941F28892BB9F689814A
:1039400084FF04C00E942B1A83E01EC0A0910A01CC
:10395000B0910B01E0910C01F0910D0195014E2DFC
:103960001D966C9180810E941F28892B09F0BECF83
:10397000C801B7010E94FA346150F601608380E00B
:1039800003C081E001C084E00F900F90DF91CF91E0
:103990001F910F91FF90EF90DF90CF90BF90AF906D
:1039A00008951F93CF93DF931F92CDB7DEB7909109
:1039B0001701981709F488C0182FA0910A01B09137
:1039C0000B01E0910C01F0910D019E012F5F3F4F23
:1039D00041E014966C918081112351F10E941F28BF
:1039E000892B11F08FEF71C089818F7D8983A09120
:1039F0000A01B0910B01E0910C01F0910D019E01C3
:103A00002F5F3F4F41E014966C9180810E941628F1
:103A1000892B41F763E070E080E090E00E94AF28DE
:103A200082E0898380912501882389F182E82CC076
:103A30000E941F28892BB1F680911001998180FF87
:103A400002C0906201C09F7D9983A0910A01B0914C
:103A50000B01E0910C01F0910D019E012F5F3F4F92
:103A600041E014966C9180810E941628892B09F000
:103A7000B9CF63E070E080E090E00E94AF288091D1
:103A80002501882319F080E8898301C0198280917B
:103A90002601882319F0898180638983A0910A0116
:103AA000B0910B01E0910C01F0910D019E012F5F8F
:103AB0003F4F41E057966C9180810E941628892BD8
:103AC00009F090CF1093170180E00F90DF91CF9114
:103AD0001F9108951F93CF93DF931F92CDB7DEB749
:103AE00090912601981751F1882319F090E399835A
:103AF00001C0198290911701992319F09981926060
:103B0000998390912501992319F09981906899835F
:103B1000182FA0910A01B0910B01E0910C01F091D6
:103B20000D019E012F5F3F4F41E057966C918081C0
:103B30000E941628892B21F41093260180E001C0F1
:103B40008FEF0F90DF91CF911F9108950F931F93E7
:103B5000CF93DF9300D0CDB7DEB78932910508F05F
:103B600067C08C01892BE9F480E00E946A1D1982EC
:103B700087E08A83A0910A01B0910B01E0910C01CA
:103B8000F0910D019E012F5F3F4F42E055966C91E1
:103B900080810E941628892B09F04AC010921901D1
:103BA00045C081E00E946A1D80E2898301301105D1
:103BB00011F41A8205C00630110528F481E08A83C9
:103BC00085E090E00CC00531110528F482E08A837D
:103BD0008AE090E004C083E08A8384E190E00E9460
:103BE000D71B8A8120E4829FC001112487608A83C9
:103BF000A0910A01B0910B01E0910C01F0910D012F
:103C00009E012F5F3F4F42E055966C9180810E944C
:103C10001628892B69F488E0809310011092120114
:103C200081E08093190180E00E941F1C80E001C0A8
:103C30008FEF0F900F90DF91CF911F910F9108950B
:103C40000F931F93CF93DF931F92CDB7DEB72091D1
:103C50001001222309F459C020912701211155C0D8
:103C60008C0180911901882361F0C8010197889720
:103C700020F4C8010E94A61D48C080E090E00E9488
:103C8000A61D0430110538F0B801093E134028F094
:103C900068EE73E002C064E070E008EE13E0C80173
:103CA0000E94FA3461506983A0910A01B0910B011E
:103CB000E0910C01F0910D019E012F5F3F4F41E01B
:103CC00011966C9180810E941628892BF1F46981EC
:103CD00070E06F5F7F4FC8010E940E357093140132
:103CE0006093130180912B0190912C0185369105F1
:103CF00010F084E690E00E94191C809113019091CD
:103D00001401969587950E94D71B0F90DF91CF9154
:103D10001F910F9108951F93CF93DF9300D0CDB7DC
:103D2000DEB7182F807711F081E005C0112311F064
:103D30001A8202C080E48A83A0910A01B0910B012B
:103D4000E0910C01F0910D019E012E5F3F4F41E08B
:103D500055966C9180810E941628892B19F010923B
:103D6000100182C08A818F7B8093120116FF02C0EE
:103D70001A8202C084E08A8315FD03C08A818260B2
:103D80008A8314FD03C08A8181608A8313FD03C086
:103D90008A8188638A83A0910A01B0910B01E09126
:103DA0000C01F0910D019E012E5F3F4F41E05696B0
:103DB0006C9180810E941628892B89F6812F877F3C
:103DC00019F080E00E946A1DA0910A01B0910B01D8
:103DD000E0910C01F0910D019E012F5F3F4F41E0FA
:103DE00014966C9180810E941F28898110FF04C065
:103DF00091E09A83806202C01A828F7D89839091BC
:103E000027018981992311F0806801C08F77898308
:103E1000A0910A01B0910B01E0910C01F0910D010C
:103E20009E012E5F3F4F41E096966C9180810E94EB
:103E30001628A0910A01B0910B01E0910C01F091BC
:103E40000D019E012F5F3F4F41E014966C918081E0
:103E50000E941628109310011092190162E370E07D
:103E600080E090E00E94AF280F900F90DF91CF91FB
:103E70001F9108951F93CF93DF93CDB7DEB72A9795
:103E80000FB6F894DEBF0FBECDBF1FEFDC011C9351
:103E900080E88983A0910A01B0910B01E0910C01A7
:103EA000F0910D019E012F5F3F4F41E055966C91BF
:103EB00080810E941628892B09F0A0C164E670E079
:103EC00080E090E00E94AF281982A0910A01B09191
:103ED0000B01E0910C01F0910D019E012F5F3F4F0E
:103EE00041E055966C9180810E941628892B09F03B
:103EF00085C11093100110930E0110930F011093C0
:103F000011018FEF9FEF9093140180931301109391
:103F100015011093170190932C0180932B0181E0E0
:103F200080931201809325011092260110921A01AC
:103F3000109219018AE0EBE1F1E0DF011D928A9510
:103F4000E9F7109227011092280110922A0110928D
:103F5000290180ED97E00E94421B82E00E949B1B9A
:103F600084E690E00E94201E8AE290E00E94D71B27
:103F700080E00E941F1C81E00E94D11C1CE09E0179
:103F8000295F3F4F41E060E0812F0E941F28892B6D
:103F900019F48F81883421F01F5F103181F720C020
:103FA00010932D011F829E01295F3F4F41E06AE07F
:103FB000812F0E941628892B99F461E070E080E03F
:103FC00090E00E94AF288FE08F839E01295F3F4FD2
:103FD00041E06AE080912D010E941628892B49F06A
:103FE0008AE090E00E947719811108C10E948B1E1F
:103FF00005C161E070E080E090E00E94AF289E0182
:10400000295F3F4F43E060E180912D010E941F280E
:10401000892B31F78F8190E080589F4F90932F012B
:1040200080932E01888590E080589F4F90933101B6
:1040300080933001898590E080589F4F90933301A1
:10404000809332011F829E01295F3F4F41E06AE069
:1040500080912D010E941628892B11F661E070E0F5
:1040600080E090E00E94AF2880E00E94D11C80E4B4
:104070008F83A0910A01B0910B01E0910C01F091A6
:104080000D019E01295F3F4F41E05A966C9180815E
:104090000E941628892B09F0A3CF80912D018068FA
:1040A0008F83A0910A01B0910B01E0910C01F09176
:1040B0000D019E01295F3F4F41E05E966C9180812A
:1040C0000E941628892B09F08BCF82E08F83A09164
:1040D0000A01B0910B01E0910C01F0910D019E01DC
:1040E000295F3F4F41E05F966C9180810E941628C6
:1040F000892B09F075CF88E88F83A0910A01B091D0
:104100000B01E0910C01F0910D019E01295F3F4FE1
:1041100041E090966C9180810E941628892B09F0CD
:104120005FCF80912D018F83A0910A01B0910B0187
:10413000E0910C01F0910D019E01295F3F4F41E09C
:1041400091966C9180810E941628892B09F048CFA6
:104150008AE08F83A0910A01B0910B01E0910C01DC
:10416000F0910D019E01295F3F4F41E092966C91C5
:1041700080810E941628892B09F032CF81E88F8335
:10418000A0910A01B0910B01E0910C01F0910D0199
:104190009E01295F3F4F41E093966C9180810E9480
:1041A0001628892B09F01CCF81E08F83A0910A018A
:1041B000B0910B01E0910C01F0910D019E01295F7E
:1041C0003F4F41E096966C9180810E941628892B82
:1041D00009F006CF83E08F83A0910A01B0910B0113
:1041E000E0910C01F0910D019E01295F3F4F41E0EC
:1041F00097966C9180810E941628F2CE2A960FB66F
:10420000F894DEBF0FBECDBFDF91CF911F9108950F
:10421000EF92FF920F931F93CF93DF9300D0CDB710
:10422000DEB78B017A01452B81F120911001222309
:1042300061F199838A83E0910C01F0910D019B015A
:10424000280F311D8085918582179307F0F0A0918A
:104250000A01B0910B019E012F5F3F4F42E05B9638
:104260006C9180810E941628892B79F4A0910A0113
:10427000B0910B01E0910C01F0910D019701402FDD
:1042800058966C9180810E9416280F900F90DF91B4
:10429000CF911F910F91FF90EF900895EF92FF92B1
:1042A0000F931F93CF93DF9300D0CDB7DEB78B0171
:1042B0007A01452B81F120911001222361F199832C
:1042C0008A83E0910C01F0910D019B01280F311DB3
:1042D0008085918582179307F0F0A0910A01B09133
:1042E0000B019E012F5F3F4F42E05B966C918081F6
:1042F0000E941628892B79F4A0910A01B0910B0134
:10430000E0910C01F0910D019701402F58966C91AE
:1043100080810E941F280F900F90DF91CF911F91F5
:104320000F91FF90EF9008956F927F928F929F92DE
:10433000AF92BF92CF92DF92EF92FF920F931F93B3
:10434000CF93DF93CDB7DEB7A2970FB6F894DEBF59
:104350000FBECDBFE0912801E1115EC0611571056E
:1043600009F45AC05901652E742E4B016C01E12CE1
:10437000F12CEC14FD04A0F5C6018E199F098131C2
:10438000910510F080E190E0DE01119600E010E070
:104390000817190751F0F801EE0DFF1DE80DF91D82
:1043A000E491ED930F5F1F4FF3CFAE014F5F5F4F6F
:1043B000B801C7010E940821AE014F5E5F4FB801EE
:1043C000C7010E944E21A801BE016F5E7F4FCE0142
:1043D00001960E948335892BF9F4E00EF11EC9CFB6
:1043E00069A27AA2A0910A01B0910B01E0910C019F
:1043F000F0910D019E012F5D3F4F42E05D966C9163
:1044000080810E941628892B39F481E0809328014D
:10441000B0922A01A0922901A2960FB6F894DEBFAD
:104420000FBECDBFDF91CF911F910F91FF90EF9005
:10443000DF90CF90BF90AF909F908F907F906F90C4
:104440000895CF93DF931F92CDB7DEB790912701E8
:104450009817D9F1882319F1809128018823A9F1AF
:1044600080E00E943C1980E00E94D11C80912901CB
:1044700090912A010E94201E1982E0910C01F09176
:104480000D019E012F5F3F4F41E063E280810E945A
:10449000162881E0809327010E943C1914C080E017
:1044A0000E943C19809115018983E0910C01F091E3
:1044B0000D019E012F5F3F4F41E063E280810E942A
:1044C0001628109227010E942B1A0F90DF91CF918E
:1044D00008950F931F93CF93DF93CDB7DEB729973E
:1044E0000FB6F894DEBF0FBECDBF2091100120FFA4
:1044F00038C08C01A0910A01B0910B01E0910C0130
:10450000F0910D019E012F5F3F4F48E098966C910E
:1045100080810E941F28892B31F5898180FF25C069
:10452000988597FD24C0892F807496FD20C02B812B
:1045300030E0322F22279A81292BF8013183208302
:104540002D8130E0322F22279C81292B3383228337
:104550002F8130E0322F22279E81292B358324831F
:1045600007C081E005C084E003C085E001C086E0AB
:1045700029960FB6F894DEBF0FBECDBFDF91CF9165
:104580001F910F910895CF93DF93CDB7DEB7299791
:104590000FB6F894DEBF0FBECDBF89E0E0E4F1E0D6
:1045A000DE01119601900D928A95E1F7AE014F5F01
:1045B0005F4F69E070E088EB94E00E940821299643
:1045C0000FB6F894DEBF0FBECDBFDF91CF91089537
:1045D00028EC30E040E054E062E571E086EF9BE0DB
:1045E0000C9494210F931F93CF93DF93CDB7DEB735
:1045F0002C970FB6F894DEBF0FBECDBF8C018CE4B4
:104600008C838DEC8D838CE68E838CE0898389ECA2
:104610008A838CE28B83A80143705527E4E0F0E0A5
:10462000EC0FFD1FE40FF51F80818A87980183E05E
:10463000369527958A95E1F723703327E4E0F0E07B
:10464000EC0FFD1FE20FF31F80818B87C80166E02E
:10465000969587956A95E1F783709927E4E0F0E0F5
:10466000EC0FFD1FE80FF91F60816C87E1E0F0E0BF
:10467000EC0FFD1FE40FF51F40814F83E1E0F0E0F8
:10468000EC0FFD1FE20FF31F20812887E1E0F0E02F
:10469000EC0FFD1FE80FF91F80818987AE01465F8F
:1046A0005F4F63E070E086E294E00E940821AE0173
:1046B000495F5F4F63E070E08AE294E00E94082166
:1046C00086E38A8786E58B8786E78C8786E28F83F9
:1046D00086E4888786E6898702FF04C087E38A87A5
:1046E00087E28F8305FF04C087E58B8787E488878F
:1046F00010FF04C087E78C8787E68987AE01465F95
:104700005F4F63E070E080E494E00E940821AE0116
:10471000495F5F4F63E070E081E394E00E9408210D
:104720001093BD030093BC032C960FB6F894DEBF24
:104730000FBECDBFDF91CF911F910F9108950F93C1
:104740001F93CF93DF93CDB7DEB764970FB6F8947E
:10475000DEBF0FBECDBF2CE0E9E4F1E0DE01119633
:1047600001900D922A95E1F7893C910500F58C01A5
:1047700088EC90E0B8010E94FA34615071097D879D
:104780006E87AE01435F5F4F62E070E086E192E0CA
:104790000E940821AE014F5F5F4F6CE070E081EC3A
:1047A0009AE00E9408211093C1030093C00364960D
:1047B0000FB6F894DEBF0FBECDBFDF91CF911F9132
:1047C0000F9108958F929F92AF92BF92FF920F9395
:1047D0001F93CF93DF9300D000D01F92CDB7DEB7E9
:1047E000982F977009F4AFC0613496E0790708F00C
:1047F000AAC0F82E80E090E00E94C83220E030E0AD
:1048000048E453E40E9420324B015C01CE0105963E
:104810000E94831B8D81843059F1A0F4823009F00D
:1048200092C020E030E040E856E4C501B4010E94A7
:1048300021340E949932162F072F20E030E040E407
:1048400056E437C0883029F1803109F07CC020E07F
:1048500030E040E055E4C501B4010E9421340E94DB
:104860009932162F072F20E030E040EC54E421C0AD
:1048700020E030E040E056E4C501B4010E9421345C
:104880000E949932162F072F20E030E040EC55E4CB
:1048900010C020E030E040E855E4C501B4010E94BA
:1048A00021340E949932162F072F20E030E040E497
:1048B00055E4C501B4010E9421340E949932098354
:1048C0001A837B836C83F0FE12C0AE014F5F5F4F93
:1048D00062E070E084ED91E00E940821AE014D5F3E
:1048E0005F4F62E070E084E291E00E940821F1FEF7
:1048F00012C0AE014F5F5F4F62E070E088ED91E063
:104900000E940821AE014D5F5F4F62E070E088E2D7
:1049100091E00E9408218F2D8470F2FE15C0AE0137
:104920004F5F5F4F62E070E08CED91E00E940821E4
:10493000AE014D5F5F4F62E070E08CE291E00E945B
:10494000082180E001C08FEF0F900F900F900F9023
:104950000F90DF91CF911F910F91FF90BF90AF907B
:104960009F908F900895CF93DF931F92CDB7DEB7BE
:1049700080FD02C0198202C090E3998381FF03C0C9
:1049800099819C60998382FF03C0898183608983B8
:10499000AE014F5F5F4F61E070E088E491E00E94FC
:1049A000082180E00F90DF91CF910895CF93DF939E
:1049B0001F92CDB7DEB7882321F0853018F084E050
:1049C00001C081E081508983AE014F5F5F4F61E09C
:1049D00070E08FE491E00E94082180E00F90DF9169
:1049E000CF910895CF93DF9300D0CDB7DEB765E0C8
:1049F00070E00E94FA3479836A83AE014F5F5F4FA3
:104A000062E070E08EED91E00E94082180E00F905E
:104A10000F90DF91CF910895CF93DF9300D0CDB762
:104A2000DEB765E070E00E94FA3479836A83AE01F4
:104A30004F5F5F4F62E070E08AED91E00E940821D5
:104A400080E00F900F90DF91CF9108950F931F9307
:104A5000CF93DF9300D000D0CDB7DEB78A0128EE28
:104A600033E040E050E00E944435D8010E946935AF
:104A700099838A837B836C83AE014F5F5F4F64E0D1
:104A800070E08CE591E00E94082180E00F900F908B
:104A90000F900F90DF91CF911F910F910895CF93B9
:104AA000DF9300D0CDB7DEB765E070E00E94FA3446
:104AB00079836A83AE014F5F5F4F62E070E08AE501
:104AC00091E00E94082180E00F900F90DF91CF913C
:104AD0000895CF93DF9300D0CDB7DEB765E070E0E7
:104AE0000E94FA3479836A83AE014F5F5F4F62E0C0
:104AF00070E088E591E00E94082180E00F900F901F
:104B0000DF91CF910895CF93DF93CDB7DEB729978B
:104B10000FB6F894DEBF0FBECDBF882319F00E94F8
:104B2000C32212C089E0E5E5F1E0DE0111960190B3
:104B30000D928A95E1F7AE014F5F5F4F69E070E03B
:104B400088EB94E00E94082129960FB6F894DEBF06
:104B50000FBECDBFDF91CF910895CF93DF9300D0EB
:104B600000D0CDB7DEB7882349F080EC898382EC92
:104B70008A8384EC8B8386EC8C8307C08BE89BE86C
:104B8000DC0189839A83AB83BC83AE014F5F5F4FA7
:104B900064E070E088E99AE00E9408210E942B1AE4
:104BA0000F900F900F900F90DF91CF910895CF93BA
:104BB000DF9300D000D0CDB7DEB7882349F080E284
:104BC000898388E28A8380E38B8388E38C8307C0B0
:104BD00083EA93EADC0189839A83AB83BC83AE01C9
:104BE0004F5F5F4F64E070E08EE99AE00E94082119
:104BF0000E942B1A0F900F900F900F90DF91CF9182
:104C00000895AF92BF92CF92DF92EF92FF920F93EF
:104C10001F93CF93DF93CDB7DEB72A970FB6F894E3
:104C2000DEBF0FBECDBF8C0182E089838AEC8A8310
:104C300083EE8B8389E08C83AE014F5F5F4F64E02E
:104C400070E088E690E00E94082183EA8983580199
:104C500090E4A922BB2406FF06C080EC8A8388EC7E
:104C60008B8382EC02C08A838B838C83680180E80B
:104C7000C82281E0D822C114D10431F084EC8D83A4
:104C80008CEC8E8386EC03C083EA8D838E838F83C6
:104C900083EA888789878A87AE014F5F5F4F6AE022
:104CA00070E087EA9AE00E940821780193E0E92207
:104CB000FF24E114F10411F080E201C088ED898342
:104CC000AE014F5F5F4F61E070E086EB9AE00E94BB
:104CD000082105FF03C00E94C32203C080E00E9498
:104CE0008325C114D104D9F010FF08C082EB898359
:104CF0008BE88A8386EB8B838BE907C080EB898303
:104D000080E88A8384EB8B8380E98C83AE014F5FDC
:104D10005F4F64E070E082EA9AE00E94082100FFA1
:104D20002FC088EF8983AE014F5F5F4F61E070E075
:104D300080EB98E00E9408216AEF70E087E00E9413
:104D4000E22387E00E94B32481E00E94D62484E617
:104D500090E00E94F22484EF91E00E940C2548EC40
:104D600050E069E073EE8AEC92E00E94262588E22A
:104D700090E00E944F258AE090E00E9469250BC0D8
:104D800088ED8983AE014F5F5F4F61E070E080EB9B
:104D900098E00E94082101FF02C089ED01C088ED62
:104DA0008983AE014F5F5F4F61E070E08DE397E074
:104DB0000E94082102FF02C081E001C080E00E9441
:104DC000AD2504FF02C081E001C080E00E94D7252C
:104DD000C80188609093BF038093BE030E942B1A82
:104DE000AB2819F41092C20303C086E08093C2037B
:104DF000CD2829F08091C2038A5F8093C203047199
:104E00001127012B29F08091C203805F8093C20398
:104E1000EF2829F08091C2038C5F8093C2032A9609
:104E20000FB6F894DEBF0FBECDBFDF91CF911F91BB
:104E30000F91FF90EF90DF90CF90BF90AF900895CB
:104E40002F923F924F925F926F927F928F929F929A
:104E5000AF92BF92CF92DF92EF92FF920F931F9388
:104E6000CF93DF93CDB7DEB7A2970FB6F894DEBF2E
:104E70000FBECDBF5C014B013A013AA329A3A701A4
:104E8000D8011D921C928091C203BE016F5F7F4FBB
:104E900090E00E94491C8111B0C08091BE039091A6
:104EA000BF039C0124713327232B79F1FE01349633
:104EB00013019E012C5E3F4FAF0143505109DA01AF
:104EC0007C904F5F5F4FDA014C9150E060E070E002
:104ED000BA0155274427772970806A017B01C728CA
:104EE000BF0161507109DB014C91D42AB701A601C1
:104EF000D1014D935D936D937D931D013496E2171F
:104F0000F307D1F620E1722E01C0712C86FF27C075
:104F1000F40140E050E0672D70E0DA01A60FB71F02
:104F2000CC24C394D12CCC0EDD1EAC0DBD1D2C9118
:104F300030E0322F22271196AC912A2B2193319306
:104F40004E5F5F4F4630510541F726E0D22E7D0C73
:104F5000D8012D913C91119728602D933C939C0191
:104F600020783170232B39F1F50140E050E0672DB6
:104F700070E0DA01A60FB71FCC24C394D12CCC0E5D
:104F8000DD1EAC0DBD1D2C9130E0322F2227119675
:104F9000AC912A2B219331934E5F5F4F46305105E0
:104FA00041F726E0D22E7D0CD8012D913C9111972E
:104FB00020672D933C9383709927892BC1F0E1E002
:104FC000F0E0EC0FFD1FE70DF11D6381818180FF93
:104FD0000EC0862F8F7386958695869567706F5F56
:104FE000E091BA03F091BB03309709F00995E9A16C
:104FF000FAA11082118212821382A2960FB6F8943F
:10500000DEBF0FBECDBFDF91CF911F910F91FF90FB
:10501000EF90DF90CF90BF90AF909F908F907F9058
:105020006F905F904F903F902F9008950E9451187D
:1050300091E0892790E091958195910908950F93CA
:105040001F9300910801109109010E948A1821E024
:1050500030E0882311F020E030E088279927821B78
:10506000930B1F910F9108951F920F920FB60F92FD
:1050700011242F933F938F939F93AF93BF9380916E
:10508000C4039091C503A091C603B091C7033091AA
:10509000C30323E0230F2D3720F40196A11DB11D7A
:1050A00005C026E8230F0296A11DB11D2093C3035E
:1050B0008093C4039093C503A093C603B093C70322
:1050C0008091C8039091C903A091CA03B091CB030A
:1050D0000196A11DB11D8093C8039093C903A093AD
:1050E000CA03B093CB03BF91AF919F918F913F9132
:1050F0002F910F900FBE0F901F9018952FB7F89417
:105100006091C4037091C5038091C6039091C70359
:105110002FBF08953FB7F8948091C8039091C903B9
:10512000A091CA03B091CB0326B5A89B05C02F3F21
:1051300019F00196A11DB11D3FBFBA2FA92F982FBD
:105140008827820F911DA11DB11DBC01CD0142E038
:10515000660F771F881F991F4A95D1F70895CF9240
:10516000DF92EF92FF92CF93DF936B017C010E945D
:105170008A28EB01C114D104E104F10489F00E94F2
:105180001B310E948A286C1B7D0B683E734090F394
:1051900081E0C81AD108E108F108C851DC4FEACF14
:1051A000DF91CF91FF90EF90DF90CF9008957894AA
:1051B00084B5826084BD84B5816084BD85B582601C
:1051C00085BD85B5816085BDEEE6F0E080818160BA
:1051D0008083E1E8F0E010828081826080838081BA
:1051E00081608083E0E8F0E0808181608083E1E994
:1051F000F0E0808182608083808181608083E0E94B
:10520000F0E0808181608083E1ECF0E08081846067
:105210008083808182608083808181608083E3ECF1
:10522000F0E0808181608083E0ECF0E0808182604A
:105230008083E2ECF0E0808181608083EAE7F0E047
:1052400080818460808380818260808380818160AE
:105250008083808180688083089590E0FC0131978D
:10526000EF30F105B0F5EA5AFF4F0C9463358091A9
:1052700080008F7703C0809180008F7D80938000B5
:10528000089580918000877FF9CF84B58F7702C021
:1052900084B58F7D84BD0895809190008F7707C07D
:1052A000809190008F7D03C080919000877F8093D4
:1052B000900008958091C0008F7703C08091C00056
:1052C0008F7D8093C00008958091C200877F809376
:1052D000C2000895CF93DF9390E0FC01EA59F24FAA
:1052E0002491FC01EC57F24F8491882361F190E006
:1052F000880F991FFC01E254F24FC591D491FC0133
:10530000E055F24FA591B491611109C09FB7F8948F
:105310008881209582238883EC912E230BC06230F4
:1053200061F49FB7F8943881822F80958323888316
:10533000EC912E2B2C939FBF06C08FB7F894E88179
:105340002E2B28838FBFDF91CF9108951F93CF938A
:10535000DF93282F30E0F901E85BF24F8491F901E7
:10536000EA59F24FD491F901EC57F24FC491CC2392
:10537000C9F0162F81110E942D29EC2FF0E0EE0FBD
:10538000FF1FE055F24FA591B4918FB7F89411111A
:1053900005C09C91ED2FE095E92302C0EC91ED2B27
:1053A000EC938FBFDF91CF911F910895CF93DF933F
:1053B000282F30E0F901E85BF24F8491F901EA59B6
:1053C000F24FD491F901EC57F24FC491CC2391F0F4
:1053D00081110E942D29EC2FF0E0EE0FFF1FEE55FA
:1053E000F24FA591B491EC91ED2381E090E021F48E
:1053F00080E002C080E090E0DF91CF910895CF93EC
:10540000DF931F92CDB7DEB76983DC01ED91FC918C
:105410000280F381E02D41E050E0BE016F5F7F4FDD
:1054200009950F90DF91CF910895CF93DF93EC0111
:105430008C859D8597FF05C082E00E943E2E9D874A
:105440008C878C859D85DF91CF91089583E00C94A6
:105450008930FC018485958597FD06C082E00E9415
:10546000E82D90E00196089582E00E94E82D90E0FA
:105470000895FC018485958597FD05C02FEF3FEFCA
:1054800035872487089582E00C943E2ECF93DF93D6
:10549000EC0180913D01882331F083E00E946F2E62
:1054A0001816190634F081E090E09B838A8380E02F
:1054B00090E0DF91CF910895FC0190819E5F9083F1
:1054C00042E450E06CEC7DE080E80C94072FFC0196
:1054D00081819081913A59F4813209F03BC047E0D3
:1054E00050E066E371E080E00E94072F45C09132F2
:1054F00089F5803239F467E070E086E391E00E943C
:105500002E2F06C0823209F037C0828180933D0180
:105510008091360190913701A0913801B091390105
:10552000803B9440A105B105B9F480913D0180FD17
:1055300013C087E797E790930108809300089BE0EA
:1055400088E10FB6F894A895809360000FBE909301
:10555000600012C080E008950FB6F894A89580917D
:105560006000886180936000109260000FBEA89573
:10557000109201081092000881E008952FEF3FEF8C
:10558000FC01358724870895ECECF3E01382128246
:1055900088EE93E0A0E0B0E084839583A683B78390
:1055A00081E292E0918380838FEF9FEF95878487DC
:1055B0000895FC0190819F5F908349E150E06EE087
:1055C0007EE080E80C94072F42E250E067E27EE044
:1055D00080E80C94072FEF92FF920F931F93CF93C5
:1055E000DF931F92CDB7DEB789838B017A0141E04B
:1055F00050E0BE016F5F7F4F84E00E946F2EA701D5
:10560000B80184E40E946F2E0F90DF91CF911F911B
:105610000F91FF90EF900895FC0191818081813A74
:1056200031F481E0913091F0933089F411C08132EE
:1056300071F49B3021F4828180933F0105C09A3040
:1056400031F4828180933E0181E00895089580E0E5
:105650000895CF93DF9300D000D000D0CDB7DEB750
:10566000FB01808191819A838983828193819C83CC
:105670008B83848195819E838D8346E050E0BE01BB
:105680006F5F7F4F81E00E94EB2A26960FB6F89459
:10569000DEBF0FBECDBFDF91CF91089561157105BB
:1056A00079F0FB0101900020E9F73197AF01461B2B
:1056B000570BDC01ED91FC910280F381E02D099400
:1056C00080E090E008950C944E2BDC01ED91FC916C
:1056D0000190F081E02D09940F931F93CF93DF93F6
:1056E000EC016DE00E94652B8C016AE0CE010E9406
:1056F000652B800F911FDF91CF911F910F9108951E
:105700000F931F93CF93DF93EC010E944E2B8C01DC
:10571000CE010E946C2B800F911FDF91CF911F91C2
:105720000F9108958F929F92AF92BF92CF92DF9286
:10573000EF92FF920F931F93CF93DF93CDB7DEB716
:10574000A1970FB6F894DEBF0FBECDBF6C01142F2A
:10575000E52FCB01022F19A2223008F40AE07E01C6
:1057600021E2E20EF11C802E912CA12CB12C612F94
:105770007E2FA50194010E942235029F1019112449
:1057800081E0E81AF1081A3014F4105D01C0195CC8
:10579000F7011083122FE32FCA01232B242B252B73
:1057A00031F7B701C6010E944E2BA1960FB6F894AF
:1057B000DEBF0FBECDBFDF91CF911F910F91FF9044
:1057C000EF90DF90CF90BF90AF909F908F90089513
:1057D000CF92DF92EF92FF920F931F93CF93DF93BD
:1057E000EC016A017B012115310579F4E881F98129
:1057F0000190F081E02D642FDF91CF911F910F91E7
:10580000FF90EF90DF90CF9009942A303105E9F4B2
:1058100077FF1AC06DE20E94652B8C014427552743
:10582000BA014C195D096E097F092AE0CE010E9478
:10583000922B800F911FDF91CF911F910F91FF90BD
:10584000EF90DF90CF9008952AE0B701A601CE0136
:10585000DF91CF911F910F91FF90EF90DF90CF904C
:105860000C94922B9A01AB01770F660B770B0C947B
:10587000E82B0F931F93CF93DF93EC010E94E82B4B
:105880008C01CE010E946C2B800F911FDF91CF9174
:105890001F910F9108952115310541F4DC01ED911F
:1058A000FC910190F081E02D642F09940C94922BCF
:1058B0009A01462F50E060E070E00C944B2C0F935F
:1058C0001F93CF93DF93EC019A01462F50E060E0E5
:1058D00070E00E944B2C8C01CE010E946C2B800F3B
:1058E000911FDF91CF911F910F9108954F925F9279
:1058F0006F927F928F929F92AF92BF92CF92DF92E0
:10590000EF92FF92CF93DF93EC016A017B01B22EFD
:105910009A01AB01C701B6010E94E034882319F057
:105920006DE272E027C026013701E89477F82FEF87
:105930003FEF4FE75FE7C301B2010E94E0348111FE
:105940000DC02FEF3FEF4FE75FE7C301B2010E94A9
:10595000163218161CF461E372E00CC02FEF3FEF13
:105960004FE75FE4C701B6010E94143418169CF497
:1059700065E372E0CE01DF91CF91FF90EF90DF9071
:10598000CF90BF90AF909F908F907F906F905F90DF
:105990004F900C944E2B2FEF3FEF4FE75FECC7017A
:1059A000B6010E94163287FDE3CF20E030E0A90166
:1059B000C701B6010E94163287FF0AC06DE2CE0110
:1059C0000E94652B4C01F7FAF094F7F8F09402C0AE
:1059D000812C912CA12C60E070E080E09FE3AB145F
:1059E00041F020E030E040E251E40E942032A394F4
:1059F000F6CF9B01AC01C701B6010E941D312B01FE
:105A00003C010E9499326B017C010E94C8329B01CB
:105A1000AC01C301B2010E941C312B013C012AE000
:105A2000B701A601CE010E94922B7C01E80CF91C63
:105A3000BB2039F069E372E0CE010E944E2BE80EE4
:105A4000F91EDB2CDD2039F120E030E040E251E4AA
:105A5000C301B2010E9421342B013C010E94923209
:105A60004B01770FAA08BB082AE030E0B501A4017A
:105A7000CE010E94E82BE80EF91EC501B4010E9478
:105A8000CA329B01AC01C301B2010E941C312B013F
:105A90003C01DA94D7CFC701DF91CF91FF90EF900F
:105AA000DF90CF90BF90AF909F908F907F906F903E
:105AB0005F904F9008950C94762C0F931F93CF9383
:105AC000DF93EC010E94762C8C01CE010E946C2B9E
:105AD000800F911FDF91CF911F910F9108954091F9
