:100000000C943F070C9467070C9467070C946707E0
:100010000C9467070C9467070C9467070C9403080B
:100020000C9467070C9467070C94A92D0C94722C00
:100030000C9467070C9467070C9467070C94670788
:100040000C9467070C9467070C9467070C94670778
:100050000C9467070C9467070C9467070C944A2567
:100060000C9467070C9467070C9467070C94670758
:100070000C9467070C9467070C9467070C94670748
:100080000C9467070C9467070C9467070C94670738
:100090000C94C6150C9467070C9467070C946707BB
:1000A0000C9467070C9467070C9467075B265E2621
:1000B0004D26512657267F267F267F2662266626D6
:1000C0006A26702674267F267A26036EDB363D9AD2
:1000D0009999993DABAAAA2A3E000000803F084AA0
:1000E000D73B3BCE016E84BCBFFDC12F3D6C74314C
:1000F0009ABD56833DDA3D00C77F11BED9E4BB4CA3
:100100003E916BAAAABE000000803F072C7AA5BAD8
:100110006CC590DA3B9365FC8BBC53F810FD3C56E4
:1001200092834DBD879D3AB63DCBC9BF5BBE73DAA6
:100130000FC93F0000007000000000240000000212
:100140000003000000650054FFEF0000FA80000B80
:1001500012820001030C30C30E8C8CE914D54002CE
:1001600013710F8E3883F8833000F883258EF8835F
:100170003000F883FFFFFFFF0FFEA9D62400040024
:100180001A8279A10000003CFFFF0000001000006F
:1001900038836FA2003E03304000000002CAE3092A
:1001A0003E80000020000000000000004000000031
:1001B00060000000000C0000000C186E00000692A9
:1001C0000A16C0DFFFFF0256FD8CD377FFE1C4960D
:1001D000E0C5BEAA00000000FFFF0B2B0000165771
:1001E000000003594000000000001DFA00026C1DD1
:1001F000000000003FFFDFEB003EB3B6000D2278A9
:1002000000002F3C00000000001942B5000039A298
:100210000000B365D90E9FC91DCF4C3430000000DB
:10022000500000003BB67AE80064000000C80000FF
:1002300000000000100000001000FA921000225E82
:10024000000D229F0001000000320000FF46000068
:1002500063D400001000000004D6000004CC0000AD
:1002600004CC0000000010720000004000000000FC
:10027000000000000006000200050007000000006A
:10028000006400000000000000000005000500649C
:1002900000200000000000000000000000004000FE
:1002A0000000030000000032F8980000FF65000025
:1002B000830F0000FF9BFC00000000000000000016
:1002C000000000000000000000000000000000002E
:1002D000000000000000000000000000000000001E
:1002E0000000100040000000000000060000B26A9C
:1002F000000200000001FB830068000000D9FC0040
:100300007CF1FF830000000000650000006403E84A
:1003100000640028000000250000000016A0000076
:100320000000100000001000002F0000000001F489
:100330000000100000280000FFFF4581FFFFFA7257
:100340000000000000000000004400050005BAC6DF
:10035000004778A200000001000000000000060035
:10036000000000140000254D002F706D000005AE48
:10037000000C02D00000000000000000000000009F
:1003800000000000001B0000000000000000000052
:1003900000000000006400000008000000000000F1
:1003A000000000000000000000000000000000004D
:1003B000000000000000000000000000000000003D
:1003C000000000000000000000000000000000002D
:1003D000000000000000000000000000000000001D
:1003E000000000000000000000000000000000000D
:1003F00000000000001B00000000000000000000E2
:10040000000E000E00000AC70004000000000032C9
:10041000FFFFFF9C00000B2B00000002000000010A
:1004200000000064FFE50000000000000000000084
:1004300000000000000000010000000000010000BA
:100440000000000000018000000180000001800029
:10045000002426D300000000000000000006001069
:100460000096003C000000000000000000000000BA
:10047000000000000C0A4E68CDCF7709501667596E
:10048000C619CE820000000000000000000000003D
:1004900000000000000000000000000017D78400EA
:1004A000030000000000000000000000C7938F9DC3
:1004B0001E1B1C19000000000000000000000000CE
:1004C000000000000000000000000000020318858A
:1004D00000004000000000030000000300000000D6
:1004E00000000000400000000000000000000000CC
:1004F00000000000000000000000000000000000FC
:1005000000000000000000000000000000000000EB
:100510000000000000000000677DDF7E72902E5515
:100520004CF6E6880000000000000000000000001B
:1005300000000000D8DCB4B8B0D8B9ABF3F8FAB317
:10054000B7BB8E9EAEF132F51BF1B4B8B08097F117
:10055000A9DFDFDFAADFDFDFF2AAC5CDC7A90CC99B
:100560002C97F1A989264666B28999A92D557DB0A7
:10057000B08AA896365676F1BAA3B4B280C0B8A8AD
:100580009711B28398BAA3F0240844106418B2B942
:10059000B49883F1A329557DBAB5B1A38393F00034
:1005A0002850F5B2B6AA839328547CF1B9A382935C
:1005B00061BAA2DADEDFDB819AB9AEF5606870F16C
:1005C000DABAA2DFD9BAA2FAB9A38292DB31BAA20F
:1005D000D9BAA2F8DF85A4D0C1BBAD83C2C5C7B864
:1005E000A2DFDFDFBAA0DFDFDFD8D8F1B8AAB38D92
:1005F000B4980D355DB2B6BAAF8C96198F9FA70E21
:10060000161EB49AB8AA872C547CBAA4B08AB691A4
:10061000325676B28494A4C808CDD8B8B4B0F19953
:1006200082A82D557D98A80E161EA22C547C92A44B
:10063000F02C5078F184A898C4CDFCD80DDBA8FC30
:100640002DF3D9BAA6F8DABAA6DED8BAB2B686962B
:10065000A6D0F3C841DAA6C8F8D8B0B4B882A89238
:10066000F52C548898F135D9F418D8F1A2D0F8F9BE
:10067000A884D9C7DFF8F883C5DADF69DF83C1D87A
:10068000F40114F1A8824EA884F311D182F5D99215
:10069000289788F109F41C1CD884A8F3C0F9D1D993
:1006A0009782F129F40DD8F3F9F9D1D982F4C20374
:1006B000D8DEDF1AD8F1A2FAF9A88498D9C7DFF8F2
:1006C000F8F883C7DADF69DFF883C3D8F40114F1DF
:1006D00098A8822EA884F311D182F5D992509788D8
:1006E000F109F41CD884A8F3C0F8F9D1D99782F1A4
:1006F00049F40DD8F3F9F9D1D982F4C403D8DEDF77
:10070000D8F1AD8898CCA809F9D98292A8F57CF1E6
:10071000883ACF944A6E98DB6931DAADF2DEF9D8C7
:100720008795A8F221D1DAA5F9F417D9F1AE8ED0C8
:10073000C0C3AE82C684C3A88595C8A588F2C0F19F
:10074000F4010EF18E9EA8C63E56F554F18872F45F
:100750000115F19845856EF58E9E0488F142985AF0
:100760008E9E068869F4011CF1981E1108D0F504CC
:10077000F11E970202983625DBF9D985A5F3C1DA77
:1007800085A5F3DFD88595A8F309DAA5FAD8829272
:10079000A8F578F1881A849F26889821DAF41DF349
:1007A000D8879F39D1AFD9DFDFFBF9F40CF3D8FA42
:1007B000D0F8DAF9F9D0DFD9F9D8F40BD8F3879F5C
:1007C00039D1AFD9DFDFF41DF3D8FAFCA869F9F904
:1007D000AFD0DADEFAD9F88F9FA8F1CCF398DB45D9
:1007E000D9AFDFD0F8D8F18F9FA8CAF38809DAAF64
:1007F0008FCBF8D8F2AD978D0CD9A5DFF9BAA6F357
:10080000FAF412F2D8950DD1D9BAA6F3FADAA5F214
:10081000C1BAA6F3DFD8F1BAB2B68696A6D0CAF3AB
:1008200049DAA6CBF8D8B0B4B8D8AD84F2C0DFF1BD
:100830008FCBC3A8B2B68696C8C1CBC3F3B0B48879
:1008400098A821DB718D9D71859521D9ADF2FAD8DB
:100850008597A828D9F408D8F28D29DAF405D9F2B9
:1008600085A4C2F2D8A88D9401D1D9F411F2D88709
:1008700021D8F40AD8F28498A8C801D1D9F411D8A3
:10088000F3A4C8BBAFD0F2DEF8F8F8F8F8F8F8F83F
:10089000D8F1B8F6B5B9B08A95A3DE3CA3D9F8D89B
:1008A0005CA3D9F8D87CA3D9F8D8F8F9D1A5D9DFB9
:1008B000DAFAD8B18530F7D9DED8F830ADDADED83B
:1008C000F2B48C99A32D557DA083DFDFDFB591A015
:1008D000F629D9FBD8A0FC29D9FAD8A0D051D9F84B
:1008E000D8FC51D9F9D879D9FBD8A0D0FC79D9FA5C
:1008F000D8A1F9F9F9F9F9A0DADFDFDFD8A1F8F822
:10090000F8F8F8ACDEF8ADDE8393AC2C547CF1A89B
:10091000DFDFDFF69D2CDAA0DFD9FADB2DF8D8A8CF
:1009200050DAA0D0DED9D0F8F8F8DB55F8D8A8789E
:10093000DAA0D0DFD9D0FAF8F8F8F8DB7DF8D89C47
:10094000A88CF530DB38D9D0DEDFA0D0DEDFD8A828
:1009500048DB58D9DFD0DEA0DFD0DED8A868DB7056
:10096000D9DFDFA0DFDFD8F1A888902C547C98A8CD
:10097000D05C38D1DAF2AE8CDFF9D8B087A8C1C12B
:10098000B188A8C6F9F9DA36D8A8F9DA36D8A8F9BC
:10099000DA36D8A8F9DA36D8A8F9DA36D8F78D9D3C
:1009A000ADF818DAF2AEDFD8F7ADFA30D9A4DEF937
:1009B000D8F2AEDEFAF983A7D9C3C5C7F1889BA7E1
:1009C0007AADF7DEDFA4F8849408A797F300AEF2BF
:1009D0009819A488C6A39488F632DFF28393DB09C2
:1009E000D9F2AADFD8D8AEF8F9D1DAF3A4DEA7F1AC
:1009F000889B7AD8F38494AE19F9DAAAF1DFD8A8E3
:100A000081C0C3C5C7A39283F628ADDED9F8D8A3A9
:100A100050ADD9F8D8A378ADD9F8D8F8F9D1A1DA82
:100A2000DEC3C5C7D8A18194F818F2B089ACC3C59C
:100A3000C7F1D8B8B4B09786A8319B069907AB9791
:100A400028889BF00C201440B0B4B8F0A88A9A28EB
:100A50005078B79BA8295179247059446938644863
:100A600031F1BBAB88002C547CF0B38BB8A80428C0
:100A70005078F1B088B49726A85998BBABB38B02D5
:100A8000264666B0B8F08A9CA82951798B295179FD
:100A90008A2470598B2058718A4469388B39406890
:100AA0008A6448318B30496088F1AC002C547CF06A
:100AB0008CA804285078F1889726A85998AC8C0205
:100AC000264666F0899CA8295179247059446938D2
:100AD000644831A98809205970AB11384069A819B8
:100AE0003148608CA83C415C207C00F187981986D5
:100AF000A86E767EA999882D557DD8B1B5B9A3DFAA
:100B0000DFDFAED0DFAAD0DEF2ABF8F9D9B087C410
:100B1000AAF1DFDFBBAFDFDFB9D8B1F1A3978E60F9
:100B2000DFB084F2C8F8F9D9DED89385F14AB183F1
:100B3000A308B5839A0810B79F10D8F1B0BAAEB029
:100B40008AC2B2B68E9EF1FBD9F41DD8F9D90CF148
:100B5000D8F8F8AD61D9AEFBD8F40CF1D8F8F8ADFF
:100B600019D9AEFBDFD8F416F1D8F8AD8D61D9F400
:100B7000F4ACF59C9C8DDF2BBAB6AEFAF8F40BD82A
:100B8000F1AED0F8AD51DAAEFAF8F1D8B9B1B6A3FA
:100B9000839C08B9B1839AB5AAC0FD3083B79F1072
:100BA000B58B93F20202D1ABDADED8F1B080BAABEA
:100BB000C0C3B284C1C3D8B1B9F38BA391B609B491
:100BC000D9ABDEB0879CB9A3DDF1B38B8B8B8B8B5C
:100BD000B087A3A3A3A3B28BB69BF2A3A3A3A3A3A3
:100BE000A3A3A3A3A3F1B087B59AA3F39BA3A3DC0C
:100BF000BAACDFB9A3A3A3A3A3A3A3A3A3A3A3A353
:100C0000A3A3A3A3D8D8D8BBB3B7F1AAF9DAFFD965
:100C1000809AAA28B48098A720B79787A86688F0FA
:100C20007951F1902C870CA781976293F0717160D4
:100C300085940129517990A5F1284C6C870C951861
:100C40008578A38390284C6C886CD8F3A28200F23C
:100C500010A8921980A2F2D926D8F188A84DD948B7
:100C6000D896A83980D93CD89580A839A68698D935
:100C70002CDA87A72CD8A8899519A980D938D8A8A3
:100C80008939A980DA3CD8A82EA83990D90CD8A8DF
:100C9000953198D90CD8A809D9FFD801DAFFD89591
:100CA00039A9DA26FFD890A80D8999A81080982133
:100CB000DA2ED88999A83180DA2ED8A88696318084
:100CC000DA2ED8A8873180DA2ED8A88292F3418014
:100CD000F1D92ED8A882F31980F1D92ED882ACF39D
:100CE000C0A28022F1A62EA72EA92298A829DAACAC
:100CF000DEFFD8A2F22AF1A92E8292A8F23180A6B4
:100D000096F1D900AC8C9C0C30ACDED0DEFFD88CD8
:100D10009CACD010ACDE8092A2F24C82A8F1CAF258
:100D200035F19688A6D900D8F1FF0000000200092D
:100D30000F0000030401000C000000000000000090
:100D40000000000000000000040802011040804084
:100D500010204080408008020401804020100201E1
:100D6000108010204040040404040403040502021F
:100D70000202040302020202060606060606040434
:100D800002020204000000002300260029002C00BB
:100D90002F0000000000250028002B002E0031004D
:100DA00000000000240027002A002D003000080B5E
:100DB0000002020201000904000001020200000515
:100DC0002400100105240101010424020605240663
:100DD00000010705810310004009040100020A0018
:100DE00000000705020240000007058302400000E2
:100DF0000904020001030000000921010100012291
:100E000022000705840340000105010904A10185B2
:100E1000010901A1000501093009310932160080DC
:100E200026FF7F751095038182C0C000C18081C1FB
:100E3000120100020200004041233680000101023D
:100E40000001120100020000004041233680000131
:100E50000102000141726475696E6F204C4C4300C1
:100E60004544547261636B657220454454726163FA
:100E70006B657232000403090400E514DA271124BB
:100E80001FBECFEFDAE0DEBFCDBF12E0A0E0B1E0E1
:100E9000E4EEF4E602C005900D92A838B107D9F748
:100EA00024E0A8E8B2E001C01D92A732B207E1F742
:100EB00017E0CFE3D7E004C02197FE010E942D3256
:100EC000CD33D107C9F70E941E2E0C9470320C94BA
:100ED000000008951F93CF93DF93EC01162F472F47
:100EE000BC016F5F7F4F8AEF92E00E940C14412F8C
:100EF000BE018AEF92E0DF91CF911F910C940C1408
:100F00000F931F93CF938C01BC016F5F7F4F8AEFCC
:100F100092E00E940914C82FB8018AEF92E00E9463
:100F200009142C2F30E0322F2227A901482BCA01A7
:100F3000CF911F910F910895CF92DF92EF92FF9280
:100F40001F93CF93DF93EC01BC016D5F7F4F8AEF5E
:100F500092E00E940914182FBE016E5F7F4F8AEF46
:100F600092E00E940914C82ED12CE12CF12C7601BC
:100F7000DD24CC24F12ABE016F5F7F4F8AEF92E01F
:100F80000E940914182FBE018AEF92E00E940914F2
:100F9000A7019601282BDA01C901BC01CD01712BF3
:100FA000DF91CF911F91FF90EF90DF90CF90089548
:100FB0008091E9029091EA02029731F46EE671E0C5
:100FC0008DEC93E00E9496281092C1021092C2020A
:100FD0001092C3021092C4021092C5021092C6026F
:100FE0001092C7021092C8021092C9021092CA024F
:100FF0001092CB021092CC0210929C0210929B0293
:1010000010929A0208951F920F920FB60F92112418
:101010008F9381E080938F028F910F900FBE0F907E
:101020001F90189585ED92E00E94E71D88E70E94C9
:101030007F1D80ED97E00E944A1A82E00E94A31A69
:1010400088E70E94211B88EC90E00E94221D0E94EC
:10105000F81FE0910001F0E0EB5FFD4F808190E030
:101060000E94022089E697E00E94262581E591E012
:101070000E94112388EC90E00E94AF2081E0089547
:101080008091EF02811106C080916A008063809395
:101090006A00EE9A81E00E948B1F81E080938E02AD
:1010A0000895EF92FF920F931F93CF93DF9385EBF9
:1010B000E82E82E0F82E09EA12E0C1E0D0E0CE018D
:1010C0000E949C07F70161937193819391937F0133
:1010D000CE010C960E949C07F80161937193819355
:1010E00091938F012496CD30D10549F785EB92E09D
:1010F0000E949B1889EA92E0DF91CF911F910F9196
:10110000FF90EF900C94C518409192025091930279
:1011100060919402709195028091D1029091D202D7
:10112000A091D302B091D40284179507A607B70700
:10113000F0F461E080919102811160E0609391028E
:1011400081E10E94BC268091920290919302A0912D
:101150009402B09195028C509E4FAF4FBF4F809339
:10116000D1029093D202A093D302B093D4020895F7
:101170000F931F93CF93DF93EC018C010A5F1F4FF6
:10118000699179914AE050E08DEC93E00E94482902
:1011900060E072E08DEC93E00E947928C017D107DF
:1011A00079F7DF91CF911F910F910895CF93DF933E
:1011B000EB01BC018DEC93E00E94792848815981B4
:1011C0006A817B812AE030E08DEC93E00E94FE286A
:1011D00062E771E08DEC93E00E9479284C815D819B
:1011E0006E817F812AE030E08DEC93E00E94FE2842
:1011F00062E771E08DEC93E00E947928488559857B
:101200006A857B852AE030E08DEC93E0DF91CF9119
:101210000C944F298F929F92AF92BF92CF92DF9200
:10122000EF92FF928091D602882309F476C06FE195
:1012300070E08AEF92E00E940914682F70E080E06D
:1012400090E00E94D92F20E030E040E85EE30E9469
:10125000F330609307017093080180930901909324
:101260000A0160E270E08AEF92E00E940914682FA0
:1012700070E080E090E00E94D92F20E030E040E86C
:101280005EE30E94F3306B017C0160930301709375
:1012900004018093050190930601809007019090CE
:1012A0000801A0900901B0900A0120E030E0A901F6
:1012B000C501B4010E942C2F882351F020E030E0BA
:1012C00040E752E4C501B4010E94E630181664F408
:1012D00080E090E0A0E6B1E48093070190930801DC
:1012E000A0930901B0930A0120E030E0A901C701F1
:1012F000B6010E942C2F882359F020E030E040E70F
:1013000052E4C701B6010E94E63018160CF081C005
:1013100080E090E0A0E6B1E474C06DE170E08AEF97
:1013200092E00E940914682F70E080E090E00E9433
:10133000D92F20E030E040E85EE30E94F330609374
:101340000701709308018093090190930A016EE1EF
:1013500070E08AEF92E00E940914682F70E080E04C
:1013600090E00E94D92F20E030E040E85EE30E9448
:10137000F3306B017C01609303017093040180934F
:101380000501909306018090070190900801A090BC
:101390000901B0900A0120E030E0A901C501B401C3
:1013A0000E942C2F882351F020E030E040E752E4E7
:1013B000C501B4010E94E630181664F480E090E0A4
:1013C000A0EAB0E48093070190930801A09309017B
:1013D000B0930A0120E030E0A901C701B6010E94E4
:1013E0002C2F882351F020E030E040E752E4C70181
:1013F000B6010E94E630181664F480E090E0A0EA9E
:10140000B0E48093030190930401A0930501B0938D
:101410000601FF90EF90DF90CF90BF90AF909F902C
:101420008F90089540E052EC61E070E08DEC93E025
:101430000E94D42762E08AE00E94802661E081E178
:101440000E94802661E082E00E94BC2660E082E08B
:101450000E94BC2669E170E08AEF92E00E940914C4
:1014600069E170E08AEF92E00E940914863038F456
:1014700069E170E08AEF92E00E94091401C085E002
:10148000809300016CE170E08AEF92E00E94091401
:101490008093D6020E940A0961E270E08AEF92E02E
:1014A0000E9409148093EF0262E270E08AEF92E0FA
:1014B0000E940914809301018AE190E00E94800754
:1014C000BC01990F880B990B0E94DB2F20E030E0C4
:1014D00040E85BE30E94F3306093EB027093EC0210
:1014E0008093ED029093EE028BEF92E00E94AB149A
:1014F0008CE08093B800589859980E94120888236D
:10150000D1F064E670E080E090E00E94C5250E9482
:10151000400864E670E080E090E00E94C5258DE917
:1015200092E00E94671864E670E080E090E00E941C
:10153000C5250C945108FFCF8091D60220E030E001
:1015400040E850E4882339F1609107017091080167
:101550008091090190910A010E94F3300E94A32F0B
:10156000462F6FE170E08AEF92E00E940C1420E0B9
:1015700030E040E850E460910301709104018091F3
:101580000501909106010E94F3300E94A32F462F7F
:1015900060E270E026C060910701709108018091BF
:1015A000090190910A010E94F3300E94A32F462F57
:1015B0006DE170E08AEF92E00E940C1420E030E0D0
:1015C00040E850E4609103017091040180910501AD
:1015D000909106010E94F3300E94A32F462F6EE1E6
:1015E00070E08AEF92E00C940C14CF93C62F682F12
:1015F0008DEC93E00E947B2860E072E08DEC93E03C
:101600000E9479284AE050E06C2F8DEC93E0CF9156
:101610000C94752966E771E08DEC93E00E947928BF
:1016200069E771E08DEC93E00C9496286DE871E029
:101630008DEC93E00E9479284AE050E06091D60258
:101640008DEC93E00E946E2960E072E08DEC93E0F7
:101650000E94792840910701509108016091090189
:1016600070910A0122E030E08DEC93E00E94712A33
:1016700060E072E08DEC93E00E94792840910301D4
:1016800050910401609105017091060122E030E063
:101690008DEC93E00C94732ACF938DEC93E00E9431
:1016A0003F27181619060CF014C28DEC93E00E9427
:1016B0004F27C82F833629F420E030E040E85EE36E
:1016C00006C0833479F420E030E040E85FE36091C5
:1016D0000701709108018091090190910A010E940F
:1016E000332E17C0843629F420E030E040E85EE372
:1016F00006C08734B9F420E030E040E85FE3609151
:101700000701709108018091090190910A010E94DE
:10171000322E609307017093080180930901909322
:101720000A0137C0853629F420E030E040E85EE366
:1017300006C0853479F420E030E040E85FE3609152
:1017400003017091040180910501909106010E94AE
:10175000332E17C0863629F420E030E040E85EE3FF
:1017600006C08634D1F420E030E040E85FE36091C9
:1017700003017091040180910501909106010E947E
:10178000322E6093030170930401809305019093BE
:1017900006010E949C0A0E94160BC33579F4109230
:1017A000EA021092E90260E971E08DEC93E00E9498
:1017B00096281092900288EC90E049C0CD3291F4C6
:1017C0008091E9029091EA02019739F081E090E07E
:1017D0009093EA028093E9027CC11092EA0210928F
:1017E000E90277C1C83439F462E971E08DEC93E025
:1017F000CF910C949628C437A1F481E09091D60241
:10180000911180E08093D6020E940A094091D6028D
:101810006CE170E08AEF92E00E940C14CF910C947E
:10182000160BC635B9F464E971E08DEC93E00E94C3
:101830009628109290020E940A0B0E94160B82E0DA
:1018400090E09093EA028093E90284E690E0CF91E1
:101850000C94AF20C93409F06DC00E940A0B66E9F0
:1018600071E08DEC93E00E94962869EA71E08DECBE
:1018700093E00E9479284091EB025091EC02609134
:10188000ED027091EE0222E030E08DEC93E00E94D8
:10189000732A66EB71E08DEC93E00E9479286091E9
:1018A000D7027091D802072E000C880B990B0E946A
:1018B000DB2F9B01AC016091E1027091E20280910B
:1018C000E3029091E4020E94312FAB01BC0122E0BF
:1018D00030E08DEC93E00E94732A65EB72E084ECBB
:1018E00091E00E94D60869EA72E081ED91E00E94E1
:1018F000D6086DE972E08FED91E00E94D6086CEE9B
:1019000071E08DEC93E00E9479284AE050E060910C
:10191000D5028DEC93E00E9475290E94160B609110
:10192000EF0280E70E94F50A609100018FE40E94B7
:10193000F50A89C0C03529F580E00E948B1F80918F
:10194000000190E0019666E070E00E94D83180933B
:101950000001FC01EB5FFD4F808190E00E940220BE
:1019600081E00E948B1F609100018FE40E94F50AC4
:101970004091000169E170E08AEF92E0CF910C9410
:101980000C14C23519F4CF910C94D807C43409F063
:1019900049C06091D7027091D802072E000C880BC5
:1019A000990B0E94DB2F9B01AC016091E1027091C9
:1019B000E2028091E3029091E4020E94312F209193
:1019C000EB023091EC024091ED025091EE020E9448
:1019D000332E6093EB027093EC028093ED029093B0
:1019E000EE0220E030E040E853E40E94F3300E9431
:1019F000A32F8AE190E00E946A076CEF71E08DEC02
:101A000093E00E9479284091EB025091EC026091A2
:101A1000ED027091EE0222E030E08DEC93E0CF9188
:101A20000C94732AC33299F44091010150E04F5F46
:101A30005F4F437055274093010162E270E08AEFE7
:101A400092E00E940C146091010183E23FC0C13614
:101A500079F42AE037ED43E25CE36091EB027091A8
:101A6000EC028091ED029091EE020E94322E10C0A5
:101A7000C13419F52AE037ED43E25CE36091EB02F3
:101A80007091EC028091ED029091EE020E94332E53
:101A90006093EB027093EC028093ED029093EE0260
:101AA00020E030E040E853E40E94F3300E94A32F8E
:101AB0008AE190E0CF910C946A07CE3551F46091A1
:101AC000900281E06827609390028EE5CF910C949C
:101AD000F50ACF9108952F923F924F925F926F92A5
:101AE0007F928F929F92AF92BF92CF92DF92EF92AE
:101AF000FF920F931F93CF93DF93CDB7DEB7C354FD
:101B0000D1090FB6F894DEBF0FBECDBF0E94942559
:101B10006093920270939302809394029093950243
:101B200080918F02882321F080918E02811105C05F
:101B30008091EF02882309F452C61BA281E090E055
:101B4000A0E0B0E08093960290939702A093980251
:101B5000B09399029E012D5D3F4F79018E010F5D7B
:101B60001F4F26E932E0AE014F5F5F4FBE016F5E4F
:101B70007F4FCE0147960E9430248BA1811102C075
:101B800010928F028091960290919702A0919802F4
:101B9000B0919902892B8A2B8B2B09F020C68D8559
:101BA0009E85AF85B889BD01992777FD9095892FCE
:101BB0000E94DB2F20E030E040E858E30E94F33041
:101BC0006CA37DA38EA39FA389859A85AB85BC85D5
:101BD000BD01992777FD9095892F0E94DB2F20E08A
:101BE00030E040E858E30E94F33068A779A78AA75D
:101BF0009BA78D819E81AF81B885BD01992777FD17
:101C00009095892F0E94DB2F20E030E040E858E3D8
:101C10000E94F3302B013C0189819A81AB81BC8108
:101C2000BD01992777FD9095892F0E94DB2F20E039
:101C300030E040E858E30E94F3304B015C019B0127
:101C4000AC010E94F3306CA77DA78EA79FA7A301CC
:101C50009201C301B2010E94F3306CAB7DAB8EAB3D
:101C60009FAB28A539A54AA55BA5CA01B9010E9469
:101C7000F33068AF79AF8AAF9BAF2CA13DA14EA1E5
:101C80005FA1CA01B9010E94F3306CAF7DAF8EAF86
:101C90009FAF2CA93DA94EA95FA96CA57DA58EA5D6
:101CA0009FA50E94322E28AD39AD4AAD5BAD0E9492
:101CB000322E2CAD3DAD4EAD5FAD0E94332E6B018B
:101CC0007C012CA13DA14EA15FA168A579A58AA5A3
:101CD0009BA50E94F33068AB79AB8AAB9BABA301A9
:101CE0009201C501B4010E94F3309B01AC0168A9C7
:101CF00079A98AA99BA90E94332E9B01AC010E945D
:101D0000332EA70196010E94CD2E68AB79AB8AAB2A
:101D10009BAB2CA13DA14EA15FA1C301B2010E94CA
:101D2000F3306B017C0128A539A54AA55BA5C50147
:101D3000B4010E94F3309B01AC01C701B6010E94BF
:101D4000322E9B01AC010E94332E0E949F2E6B010C
:101D50007C012CA93DA94EA95FA96CA57DA58EA5E6
:101D60009FA50E94332E28AD39AD4AAD5BAD0E94D0
:101D7000322E2CAD3DAD4EAD5FAD0E94322E6CA724
:101D80007DA78EA79FA728A539A54AA55BA5C30156
:101D9000B2010E94F3302B013C012CA13DA14EA1C8
:101DA0005FA1C501B4010E94F3309B01AC01C301E6
:101DB000B2010E94332E9B01AC010E94332E2CA550
:101DC0003DA54EA55FA50E94CD2E90582DE338EF7E
:101DD00042E256E40E94F3302B013C012DE338EF40
:101DE00042E256E4C701B6010E94F3306B017C0168
:101DF0002DE338EF42E256E468A979A98AA99BA9A4
:101E00000E94F3306CA37DA38EA39FA380919A02BE
:101E10008111C2C000919B0210919C02809102012D
:101E200090E0081719070CF045C0A30192016091DA
:101E3000C9027091CA028091CB029091CC020E949B
:101E4000332E6093C9027093CA028093CB029093A1
:101E5000CC02A70196016091C5027091C6028091E3
:101E6000C7029091C8020E94332E6093C5027093FE
:101E7000C6028093C7029093C8022CA13DA14EA137
:101E80005FA16091C1027091C2028091C3029091E2
:101E9000C4020E94332E6093C1027093C2028093E9
:101EA000C3029093C4020F5F1F4F10939C020093D4
:101EB0009B0295C481E080939A02B801110F880BB0
:101EC000990B0E94DB2F6B017C019B01AC0160919F
:101ED000C9027091CA028091CB029091CC020E94FB
:101EE000312F6093C9027093CA028093CB02909302
:101EF000CC02A70196016091C5027091C602809143
:101F0000C7029091C8020E94312F6093C50270935E
:101F1000C6028093C7029093C802A7019601609100
:101F2000C1027091C2028091C3029091C4020E94CA
:101F3000312F6093C1027093C2028093C3029093C9
:101F4000C4021092D9021092DA021092DB021092AF
:101F5000DC021092DD021092DE021092DF0210927B
:101F6000E0021092E1021092E2021092E30210925B
:101F7000E4028EEF9FEF9093D8028093D7028AE01D
:101F8000809302018091E9029091EA02029709F0A0
:101F900026C40E940A0B23C48AE00E94EC26892BE7
:101FA00019F40E94D8071BC42091C9023091CA02BB
:101FB0004091CB025091CC02C301B2010E94322E5B
:101FC0004B015C0120E030E040E057EC0E942C2FF8
:101FD00087FF0AC020E030E040E857E4C501B401C3
:101FE0000E94332E4B015C0120E030E040E057E4DA
:101FF000C501B4010E94E630181654F420E030E028
:1020000040E857E4C501B4010E94322E4B015C0147
:102010002091C5023091C6024091C7025091C8027A
:10202000C701B6010E94322E6B017C012091C102D2
:102030003091C2024091C3025091C4026CA17DA1B3
:102040008EA19FA10E94322E2B013C0120E03CEF8B
:102050004FE756ECC501B4010E942C2F87FD12C03A
:1020600020E03CEF4FE756E4C501B4010E94E630A2
:1020700018167CF4812C7CEF972E7FE7A72E76E450
:10208000B72E07C0812CECEF9E2EEFE7AE2EE6ECCC
:10209000BE2E20E03CEF4FE756ECC701B6010E9490
:1020A0002C2F87FD12C020E03CEF4FE756E4C7011C
:1020B000B6010E94E63018167CF4C12C5CEFD52ED8
:1020C0005FE7E52E56E4F52E07C0C12C6CEFD62E47
:1020D0006FE7E62E66ECF62E20E03CEF4FE756EC7D
:1020E000C301B2010E942C2F87FD12C020E03CEFFB
:1020F0004FE756E4C301B2010E94E63018167CF4A3
:10210000412C3CEF532E3FE7632E36E4732E07C07D
:10211000412C4CEF542E4FE7642E46EC742E8091E8
:10212000D602209107013091080140910901509198
:102130000A012CA33DA34EA35FA32091030130917C
:102140000401409105015091060128A739A74AA72B
:102150005BA7882309F4A1C027E831E040E059E3F8
:10216000C501B4010E94F330A50194010E94F3302F
:102170002CA13DA14EA15FA10E94F3306CA77DA7C9
:102180008EA79FA720E030E0A901C501B4010E94FD
:10219000E630A501940118160CF05058C501B401A1
:1021A0000E94312F9B01AC016CA57DA58EA59FA53A
:1021B0000E94F3300E94A32F6CA77CAB88AF9CAF2A
:1021C00027E831E040E059E3C701B6010E94F3304F
:1021D000A70196010E94F33028A539A54AA55BA561
:1021E0000E94F33068AB79AB8AAB9BAB20E030E068
:1021F000A901C701B6010E94E630A7019601181691
:102200000CF05058C701B6010E94312F9B01AC0160
:1022100068A979A98AA99BA90E94F3300E94A32FDB
:1022200068AB21967FAF219722968FAF2297239696
:102230009FAF239727E831E040E059E3C301B201A3
:102240000E94F330A30192010E94F33028A539A522
:102250004AA55BA50E94F3306B017C0120E030E0D1
:10226000A901C301B2010E94E630A3019201181630
:102270000CF05058C301B2010E94312F9B01AC01F8
:10228000C701B6010E94F3300E94A32F1B018C01ED
:1022900020E030E044E052E432C02CA13DA14EA148
:1022A0005FA1C501B4010E94F3300E94A32F6CA767
:1022B0007CAB88AF9CAF28A539A54AA55BA5C70113
:1022C000B6010E94F3300E94A32F68AB21967FAF26
:1022D000219722968FAF229723969FAF239728A509
:1022E00039A54AA55BA5C301B2010E94F3300E9443
:1022F000A32F1B018C0120E030E040EF51E46CA1E2
:102300007DA18EA19FA10E94F33068A779A78AA71B
:102310009BA73091010124963FAF2497CCA4DCA861
:10232000E8ACFCACC11440E8D406E104F10434F09C
:10233000CC24CA942FE7D22EE12CF12C51E0C51603
:1023400050E8D5065FEFE506F5063CF4CC24C394CF
:1023500090E8D92EEE24EA94FE2C88A921969FAD10
:1023600021972296AFAD22972396BFAD2397811573
:1023700020E89207A105B10524F08FEF9FE7A0E0C8
:10238000B0E02C013D0181309048AF4FBF4F3CF48D
:102390004424439480E8582E66246A94762CC10124
:1023A000D801811540E89407A105B10524F08FEF0D
:1023B0009FE7A0E0B0E08CA39DA3AEA3BFA38130B4
:1023C0009048AF4FBF4F44F481E090E8AFEFBFEFCC
:1023D0008CA39DA3AEA3BFA3D0928902C092880212
:1023E00050928B0240928A02ACA1BDA1B0938D02A3
:1023F000A0938C028091E9029091EA020297D1F5B4
:102400002AE030E0B701A6018DEC93E00E94FE289F
:1024100060E072E08DEC93E00E9479282AE030E0E1
:10242000B301A2018DEC93E00E94FE2860E072E00F
:102430008DEC93E00E9479282AE030E04CA15DA168
:102440006EA17FA18DEC93E00E94FE2860E072E017
:102450008DEC93E00E947928CE0141960E94B80845
:10246000CE0147960E94B80861E072E08DEC93E0DF
:102470000E94962868E872E08DE194E00E943F286F
:1024800080910101882309F4ADC08091E902909107
:10249000EA02029709F4A6C02496BFAD24976B2FD9
:1024A00070E080E090E00E94D92F9B01AC0168A50C
:1024B00079A58AA59BA50E94F3309B01AC01C501BB
:1024C000B4019F770E942C2F87FF44C02091F20215
:1024D0003091F3024091F4025091F502C501B4012C
:1024E0000E94322E9F7723E333E343EB5FE30E94A6
:1024F0002C2F87FF2FC0C301B2010E94DB2F9F77D3
:1025000020E030E04AE754E40E942C2F87FF22C0ED
:102510008091F0029091F10201969093F1028093E4
:10252000F002C701B6010E94DB2F9B01AC01609154
:10253000F6027091F7028091F8029091F9020E94E0
:10254000332E6093F6027093F7028093F802909313
:10255000F9020CC01092F1021092F0021092F602F1
:102560001092F7021092F8021092F9028092F20291
:102570009092F302A092F402B092F5028091F002E0
:102580009091F1020A9770F12AE037ED43E25CE3A3
:102590006091F6027091F7028091F8029091F90231
:1025A0000E94F3309B01AC016091C9027091CA0294
:1025B0008091CB029091CC020E94332E6093C9028D
:1025C0007093CA028093CB029093CC021092F102D6
:1025D0001092F0021092F6021092F7021092F80296
:1025E0001092F9020E944C0B40919202509193027A
:1025F00060919402709195028091CD029091CE02EB
:10260000A091CF02B091D00284179507A607B70713
:1026100008F0E5C00E9484082091EB023091EC02A2
:102620004091ED025091EE026091C9027091CA0290
:102630008091CB029091CC020E94332E6B017C01E1
:1026400020E030E040E857E40E94E63018164CF4F1
:1026500020E030E040E857E4C701B6010E94322E86
:102660001BC020E030E040E857ECC701B6010E94F3
:102670002C2F87FD09C0C092C902D092CA02E092F5
:10268000CB02F092CC0210C020E030E040E857E4EA
:10269000C701B6010E94332E6093C9027093CA022B
:1026A0008093CB029093CC028091920290919302FE
:1026B000A0919402B09195028C599F4FAF4FBF4F9C
:1026C0008093CD029093CE02A093CF02B093D0021C
:1026D0008091D7029091D80201969093D80280936E
:1026E000D7021816190604F52091E5023091E6028A
:1026F0004091E7025091E802C501B4010E94322ED8
:102700009B01AC016091E1027091E2028091E302D1
:102710009091E4020E94332E6093E1027093E202F2
:102720008093E3029093E4028092E5029092E602A5
:10273000A092E702B092E802CE014D960E941918CD
:102740008091E9029091EA02029709F048C06FEF88
:1027500071E08DEC93E00E9479286091D70270912E
:10276000D802072E000C880B990B0E94DB2F9B01CF
:10277000AC016091E1027091E2028091E3029091DC
:10278000E4020E94312FAB01BC0125E030E08DEC6A
:1027900093E00E94712A60E072E08DEC93E00E9469
:1027A00079284091EB025091EC026091ED0270911A
:1027B000EE0225E030E08DEC93E00E94732A62E0A7
:1027C00072E08DEC93E00E9479284D8D5E8D6F8DC7
:1027D00078A12AE030E08DEC93E00E944F29CD5B98
:1027E000DF4F0FB6F894DEBF0FBECDBFDF91CF91A4
:1027F0001F910F91FF90EF90DF90CF90BF90AF901F
:102800009F908F907F906F905F904F903F902F9010
:102810000895CB010C945A32CB01642F0C94623290
:1028200080912B0390E020912C03821B9109089545
:1028300090912C0380912B03981750F4E92FF0E02E
:10284000E35DFC4F208130E09F5F90932C0302C03A
:102850002FEF3FEFC9010895E0912C0380912B03E6
:10286000E81730F4F0E0E35DFC4F808190E00895DC
:102870008FEF9FEF08950895CF92DF92EF92FF922E
:102880000F931F93CF93DF937C01262F972F8A01FD
:1028900080910703882391F0C62FD72F6E01C40EB5
:1028A000D51ECC15DD0571F06991D701ED91FC9134
:1028B0000190F081E02DC7010995F3CF642F822F9D
:1028C0000E949D15C801DF91CF911F910F91FF903C
:1028D000EF90DF90CF900895CF93DF931F92CDB705
:1028E000DEB76983209107032223D1F020910803EA
:1028F000203240F021E030E0FC013383228380E08D
:1029000090E015C080910903E82FF0E0E65FFC4FEE
:10291000998190838F5F809309038093080305C09A
:1029200061E0CE0101960E949D1581E090E00F903C
:10293000DF91CF910895FC011382128288EE93E01B
:10294000A0E0B0E084839583A683B7838FE092E014
:1029500091838083089510922C0310922B03109280
:102960000903109208030C94E914862F413208F0F1
:1029700040E26DE273E00E94071510922C038093F1
:102980002B03089521E00C94B51481E08093070394
:1029900060932A03109209031092080308950F937D
:1029A000062F21E0409108036AE073E080912A033A
:1029B0000E944B151092090310920803109207030E
:1029C0000F91089561E00C94CF148BEF92E00C947A
:1029D0009B141092BA0381E08093B8031092B7035E
:1029E00061E082E00E94BC2661E083E00E94BC2698
:1029F000E9EBF0E080818E7F808380818D7F808312
:102A000088E48093B80085E48093BC000895413247
:102A100008F03FC09091BA039111FCCF91E09093E0
:102A2000BA032093B8032FEF20934D031092920323
:102A3000240F209391039093B9039091B903880FC9
:102A4000892B8093B9038091B703813041F41092B0
:102A5000B7038091B9038093BB0085EC01C085EE7C
:102A60008093BC008091BA038130E1F3809192039E
:102A7000841710F44091920323E933E0FB01D9015C
:102A80008A2F821B841718F48D918193F9CF842F9C
:102A9000089580E008950F93413208F046C0909168
:102AA000BA039111FCCF32E03093BA030093B8031C
:102AB0003FEF30934D031092920340939103FB013B
:102AC00063E973E0DB013A2F361B341718F43191B8
:102AD0003D93F9CF1092B9033091B903880F832B3E
:102AE0008093B9038091B703813041F41092B7030A
:102AF0008091B9038093BB0085EC01C085EE809383
:102B0000BC00222321F08091BA038230D1F380915E
:102B10004D038F3F79F080914D03803241F08091D9
:102B20004D03803331F094E005C091E003C092E0A2
:102B300001C093E0892F0F910895613298F420919C
:102B4000BA03243089F460936F03FC0121E733E07A
:102B5000D9018A2F821B861718F481918D93F9CFA2
:102B600080E0089581E0089582E0089585ED8093E6
:102B7000BC008091BC0084FDFCCF1092BA03089584
:102B800085EC8093BC001092BA0308951F920F92B7
:102B90000FB60F9211242F933F934F935F936F9330
:102BA0007F938F939F93AF93BF93EF93FF93809106
:102BB000B900887F803609F49CC068F5883209F432
:102BC0005BC090F4803109F454C038F4882309F4D0
:102BD000F5C0883009F44DC0F5C0883109F44CC007
:102BE000803209F45DC0EEC0803409F468C048F456
:102BF000803309F455C0883309F0E4C080934D0355
:102C0000A8C0803509F44FC0883509F45DC0883408
:102C100009F0D8C0D5C0883909F4C6C0A8F48837EF
:102C200009F467C038F4883609F463C0803709F4C2
:102C300060C0C8C0883809F4B7C0803909F45FC0E3
:102C4000803809F0BFC05BC0803B09F485C038F410
:102C5000803A09F466C0883A09F47EC0B3C0803C6B
:102C600009F4A6C0883C09F4A3C0883B09F489C0D4
:102C7000A9C08091B90310C09091920380919103F3
:102C8000981770F5E091920381E08E0F8093920384
:102C9000F0E0ED56FC4F80818093BB0085EC85C051
:102CA00080934D038DC0E091920381E08E0F80935D
:102CB00092038091BB00F0E0ED56FC4F8083909131
:102CC0009203809191036DC0E091920381E08E0F99
:102CD000809392038091BB00F0E0ED56FC4F80831F
:102CE0008091B80381116CC081E08093B70384EABE
:102CF00060C083E08093BA0310924E03CFCF8091DF
:102D00004E03803208F050C0E0914E0381E08E0FF8
:102D100080934E038091BB00F0E0E15BFC4F808329
:102D2000BDCF80914E03803230F4E0914E03F0E04D
:102D3000E15BFC4F10820E94B61560914E0370E07B
:102D4000E091B303F091B4038FE493E009951092FE
:102D50004E030E94C01536C084E08093BA031092DF
:102D6000700310926F03E091B503F091B6030995DB
:102D700080916F03811105C081E080936F031092F1
:102D80007103E091700381E08E0F80937003F0E097
:102D9000EF58FC4F80818093BB009091700380912D
:102DA0006F03981708F47ACF85E88093BC000AC0B7
:102DB00085EC8093BC001092BA0304C010924D03BE
:102DC0000E94B615FF91EF91BF91AF919F918F91A6
:102DD0007F916F915F914F913F912F910F900FBE17
:102DE0000F901F901895EF92FF920F931F93CF9320
:102DF000DF9300D0CDB7DEB7062F142F682F8BEFEF
:102E000092E029833A830E94C514602F8BEF92E0F1
:102E10000E946C142981022FE22E3A81F32E8E2D0E
:102E2000801B811740F4F70161917F018BEF92E0E5
:102E30000E946C14F4CF8BEF92E00E94E21491E0B8
:102E4000811190E0892F0F900F90DF91CF911F910A
:102E50000F91FF90EF9008952F923F924F925F92C3
:102E60006F927F928F929F92AF92BF92CF92DF929A
:102E7000EF92FF920F931F93CF93DF9300D000D078
:102E80001F92CDB7DEB7F82EE62E242E69010E94E0
:102E900094254B015C01312C1D82822D90E09C8396
:102EA0008B832801612C712C321408F051C06F2DD6
:102EB0008BEF92E00E94C5146E2D8BEF92E00E9482
:102EC0006C148BEF92E00E94E2146F2D8BEF92E076
:102ED0000E94C5144B815C8143195109413251054F
:102EE00014F040E250E06F2D8BEF92E00E94C2148C
:102EF0008BEF92E00E941014892B19F10115110536
:102F000099F4F6012D81E20FF11D27FDFA95FA8360
:102F1000E9838BEF92E00E941814E981FA818083A3
:102F20002D812F5F2D83E4CF0E949425DC01CB01FE
:102F300088199909AA09BB0984159505A605B7053D
:102F400000F3822D40E2421508F480E2380EACCF47
:102F500001151105D1F00E949425DC01CB018819DF
:102F60009909AA09BB0920E030E080179107A20760
:102F7000B30758F0822D90E0ED812E2FEE0F330B2A
:102F80002817390714F42FEF2D838D810F900F90A0
:102F90000F900F900F90DF91CF911F910F91FF90A5
:102FA000EF90DF90CF90BF90AF909F908F907F90E9
:102FB0006F905F904F903F902F900895CF93DF9345
:102FC0001F92CDB7DEB790912A01992321F0882373
:102FD00079F082E00BC090911301992309F18823C5
:102FE00039F08091190181111EC081E0898301C0EF
:102FF0001982A0910D01B0910E01E0910F01F091A5
:1030000010019E012F5F3F4F41E051966C918081EE
:103010000E942C25009721F429812093190105C0D5
:103020008FEF9FEF02C080E090E00F90DF91CF9193
:1030300008950F931F93CF93DF9300D0CDB7DEB7E2
:1030400020911301211102C08FEF3AC08C01A09191
:103050000D01B0910E01E0910F01F09110019E0160
:103060002F5F3F4F42E050966C9180810E94352542
:10307000892B51F7698170E0762F66278A81682B4A
:10308000072E000C880B990B0E94DB2F20E030E00C
:103090004AEA53E40E94312F28EB3EE142E152E438
:1030A0000E94332E20E030E040E857E40E94F330E5
:1030B0000E94A32FF801608371838283938380E051
:1030C0000F900F90DF91CF911F910F910895FF9274
:1030D0000F931F93CF93DF9300D0CDB7DEB78C0152
:1030E000F12C66E06F0DE0910F01F09110019E014F
:1030F0002F5F3F4F42E080810E943525498150E09B
:1031000060E070E0762F652F542F44278A81482B8A
:10311000F80141935193619371938F01F394F39468
:10312000F6E0FF12DECF0F900F90DF91CF911F914D
:103130000F91FF900895EF92FF921F93CF93DF932B
:1031400000D0CDB7DEB77C0110E0F701419151917D
:10315000619171917F0159834A8363E1610FE0912D
:103160000F01F09110019E012F5F3F4F42E08081DF
:103170000E942C251E5F163041F70F900F90DF91B3
:10318000CF911F91FF90EF9008958F929F92AF92F1
:10319000BF92CF92DF92EF92FF920F931F93CF9344
:1031A000DF93CDB7DEB763970FB6F894DEBF0FBEDF
:1031B000CDBF8C016E018DE0C80ED11C86E0F601FA
:1031C00011928A95E9F719821A821B821C821D824C
:1031D0001E821F82188619861A861B861C86CE01BF
:1031E00001960E94671878018E010F5F1F4F50E013
:1031F000F70181909190A190B1907F01E89480F8BF
:10320000F80180819181A281B38188199909AA0965
:10321000BB0981939193A193B1938F019D878E8771
:1032200066E0650FE0910F01F0911001960142E018
:1032300080815B8B0E942C255B895E5F5630C1F6D6
:1032400063960FB6F894DEBF0FBECDBFDF91CF916E
:103250001F910F91FF90EF90DF90CF90BF90AF90B4
:103260009F908F900895CF93DF931F92CDB7DEB7D5
:1032700080911301882309F408C11982A0910D01DE
:10328000B0910E01E0910F01F09110019E012F5FAE
:103290003F4F41E051966C9180810E942C25892BF3
:1032A00009F0F3C0A0910D01B0910E01E0910F0162
:1032B000F09110019E012F5F3F4F41E015966C91F8
:1032C00080810E942C25892B09F0DFC0A0910D017F
:1032D000B0910E01E0910F01F09110019E012F5F5E
:1032E0003F4F41E014966C9180810E942C25892BE0
:1032F00009F0CBC080912A01A0910D01B0910E017F
:10330000E0910F01F0911001882309F459C08CE07D
:1033100089839E012F5F3F4F41E014966C9180811D
:103320000E942C25892B09F0B0C062E370E080E098
:1033300090E00E94C52580EC89838091130180FF75
:1033400002C080EE8983A0910D01B0910E01E09141
:103350000F01F09110019E012F5F3F4F41E0149645
:103360006C9180810E942C25892B09F08EC0809160
:103370001901882319F082E0898301C01982A09184
:103380000D01B0910E01E0910F01F09110019E012D
:103390002F5F3F4F41E051966C9180810E942C2518
:1033A000892B09F072C01982A0910D01B0910E0114
:1033B000E0910F01F09110019E012F5F3F4F58C027
:1033C00084E089839E012F5F3F4F41E014966C910A
:1033D00080810E942C25892B09F057C080911A0109
:1033E000811104C08091130180FD02C080E401C0FE
:1033F00080E68983A0910D01B0910E01E0910F014B
:10340000F09110019E012F5F3F4F41E014966C91A7
:1034100080810E942C25892BC1F562E370E080E059
:1034200090E00E94C52580911901882319F081E060
:10343000898301C01982A0910D01B0910E01E09124
:103440000F01F09110019E012F5F3F4F41E0519617
:103450006C9180810E942C25892BB9F4A0910D01DB
:10346000B0910E01E0910F01F091100128E131E0DF
:1034700041E015966C9180810E942C2521E0892BDA
:1034800009F420E0822F819501C08FEF0F90DF912A
:10349000CF910895CF93DF931F92CDB7DEB72091E0
:1034A00013012223A1F1843F21E0920749F0883ED5
:1034B00023E0920739F08A3F910531F4198206C062
:1034C00088E003C080E101C088E189838981869515
:1034D00086958695909111019817C9F0A0910D01DC
:1034E000B0910E01E0910F01F09110019E012F5F4C
:1034F0003F4F41E016966C9180810E942C25892BCC
:1035000031F48981869586958695809311010F9077
:10351000DF91CF910895FC0180911201813039F043
:1035200020F0823031F488E005C082E003C084E0FE
:1035300001C080E1808380911B01882319F0808184
:10354000880F80830895CF93DF931F92CDB7DEB7A6
:1035500090911301992379F1843031F0883031F062
:10356000823031F4198206C088E003C080E101C0D6
:1035700088E1898389818695869586959091120147
:103580009817C9F0A0910D01B0910E01E0910F01C3
:10359000F09110019E012F5F3F4F41E017966C9113
:1035A00080810E942C25892B31F48981869586950E
:1035B0008695809312010F90DF91CF910895CF935C
:1035C000DF931F92CDB7DEB7209113012223A9F11B
:1035D0008C3B910510F081E014C08236910510F00B
:1035E00082E00FC08A32910510F083E00AC0843176
:1035F000910510F084E005C00A9710F085E001C045
:1036000086E089839091140189819817B1F0A09187
:103610000D01B0910E01E0910F01F09110019E019A
:103620002F5F3F4F41E012966C9180810E942C25C4
:10363000892B19F48981809314010F90DF91CF9128
:103640000895CF93DF9390912A01911121C0909119
:1036500013019923E9F0C82FCE7FD09118019C2344
:1036600090931801C11104C080911C01882331F08E
:1036700081E00E94DE17CC2359F005C080E0DF9185
:10368000CF910C94DE170E9433198111D093180149
:10369000DF91CF910895AF92BF92CF92DF92EF92D8
:1036A000FF920F931F93CF93DF9300D0CDB7DEB778
:1036B0007C015B016A0180912A01882309F463C0BF
:1036C00080911301882309F460C0A0910D01B0918D
:1036D0000E01E0910F01F09110019E012F5F3F4F0D
:1036E00042E01C966C9180810E943525892B11F057
:1036F00082E04CC0098110E0102F00278A81082B3E
:103700000E151F0520F4F601108285E03FC0E09100
:103710000F01F09110018181928196958795801714
:103720009107B0F4A0910D01B0910E019E012F5FA1
:103730003F4F41E053966C9180810E943525892B43
:10374000B9F6898184FF04C00E94331983E01EC04A
:10375000A0910D01B0910E01E0910F01F0911001C7
:1037600095014E2D1D966C9180810E943525892BE7
:1037700009F0BECFC801B7010E94C4316150F60103
:10378000608380E003C081E001C084E00F900F906F
:10379000DF91CF911F910F91FF90EF90DF90CF902D
:1037A000BF90AF9008951F93CF93DF931F92CDB733
:1037B000DEB790911A01981709F488C0182FA091CC
:1037C0000D01B0910E01E0910F01F09110019E01E9
:1037D0002F5F3F4F41E014966C918081112351F18E
:1037E0000E943525892B11F08FEF71C089818F7D63
:1037F0008983A0910D01B0910E01E0910F01F0912C
:1038000010019E012F5F3F4F41E014966C91808123
:103810000E942C25892B41F763E070E080E090E066
:103820000E94C52582E0898380912801882389F13F
:1038300082E82CC00E943525892BB1F680911301B6
:10384000998180FF02C0906201C09F7D9983A09101
:103850000D01B0910E01E0910F01F09110019E0158
:103860002F5F3F4F41E014966C9180810E942C2580
:10387000892B09F0B9CF63E070E080E090E00E940E
:10388000C52580912801882319F080E8898301C02B
:10389000198280912901882319F0898180638983A5
:1038A000A0910D01B0910E01E0910F01F091100176
:1038B0009E012F5F3F4F41E057966C9180810E949F
:1038C0002C25892B09F090CF10931A0180E00F90DE
:1038D000DF91CF911F9108951F93CF93DF931F9294
:1038E000CDB7DEB790912901981751F1882319F0CF
:1038F00090E3998301C0198290911A01992319F0DC
:1039000099819260998390912801992319F0998166
:1039100090689983182FA0910D01B0910E01E0914C
:103920000F01F09110019E012F5F3F4F41E057962C
:103930006C9180810E942C25892B21F41093290100
:1039400080E001C08FEF0F90DF91CF911F9108951C
:103950000F931F93CF93DF9300D0CDB7DEB789329B
:10396000910508F067C08C01892BE9F480E00E9482
:103970006C1C198287E08A83A0910D01B0910E0121
:10398000E0910F01F09110019E012F5F3F4F42E047
:1039900055966C9180810E942C25892B09F04AC094
:1039A00010921C0145C081E00E946C1C80E289835A
:1039B0000130110511F41A8205C00630110528F4F2
:1039C00081E08A8385E090E00CC00531110528F480
:1039D00082E08A838AE090E004C083E08A8384E105
:1039E00090E00E94DF1A8A8120E4829FC0011124A6
:1039F00087608A83A0910D01B0910E01E0910F01C3
:103A0000F09110019E012F5F3F4F42E055966C915F
:103A100080810E942C25892B69F488E08093130112
:103A20001092150181E080931C0180E00E94211B0F
:103A300080E001C08FEF0F900F90DF91CF911F9129
:103A40000F9108950F931F93CF93DF931F92CDB7DC
:103A5000DEB720911301222309F44BC020912A01E3
:103A6000211147C08C0180911C01882361F0C8019D
:103A70000197889720F4C8010E94A81C3AC080E0F2
:103A800090E00E94A81C0430110538F0B801093EEE
:103A9000134028F068EE73E002C064E070E008EEC6
:103AA00013E0C8010E94C43161506983A0910D01E7
:103AB000B0910E01E0910F01F09110019E012F5F76
:103AC0003F4F41E011966C9180810E942C25892BFB
:103AD00081F4698170E06F5F7F4FC8010E94D83127
:103AE0007093170160931601CB01969587950E94FC
:103AF000DF1A0F90DF91CF911F910F9108951F93BF
:103B0000CF93DF931F92CDB7DEB7182F807711F0D8
:103B100081E005C0112311F0198202C080E489837D
:103B2000A0910D01B0910E01E0910F01F0911001F3
:103B30009E012F5F3F4F41E055966C9180810E941E
:103B40002C25892B19F0109213013CC089818F7BA1
:103B50008093150116FF02C0198202C084E0898398
:103B600015FD03C089818260898314FD03C08981AA
:103B70008160898313FD03C0898188638983A09153
:103B80000D01B0910E01E0910F01F09110019E0125
:103B90002F5F3F4F41E056966C9180810E942C250B
:103BA000892B89F6812F877F19F080E00E946C1C99
:103BB0001093130110921C0162E370E080E090E02A
:103BC0000E94C5250F90DF91CF911F9108951F93FB
:103BD000CF93DF9300D000D000D0CDB7DEB71FEF7A
:103BE000DC011C9380E88983A0910D01B0910E0146
:103BF000E0910F01F09110019E012F5F3F4F41E0D6
:103C000055966C9180810E942C25892B09F060C00B
:103C100064E670E080E090E00E94C5251982A091E2
:103C20000D01B0910E01E0910F01F09110019E0184
:103C30002F5F3F4F41E055966C9180810E942C256B
:103C4000892B09F045C010931301109311011093B3
:103C50001201109314018FEF9FEF9093170180933F
:103C600016011093180110931A0181E08093150139
:103C7000809328011092290110921D0110921C01BD
:103C80008AE0EEE1F1E0DF011D928A95E9F71092FA
:103C90002A0110922B0110922D0110922C0180ED1F
:103CA00097E00E944A1A82E00E94A31A84E690E0FC
:103CB0000E94221D8AE290E00E94DF1A80E00E94AA
:103CC000211B80E00E94D31B811102C00E947F1D36
:103CD00026960FB6F894DEBF0FBECDBFDF91CF9111
:103CE0001F910895EF92FF920F931F93CF93DF934D
:103CF00000D0CDB7DEB78B017A01452B81F1209141
:103D00001301222361F199838A83E0910F01F091DD
:103D100010019B01280F311D808591858217930723
:103D2000F0F0A0910D01B0910E019E012F5F3F4F69
:103D300042E05B966C9180810E942C25892B79F45E
:103D4000A0910D01B0910E01E0910F01F0911001D1
:103D50009701402F58966C9180810E942C250F90DE
:103D60000F90DF91CF911F910F91FF90EF900895E9
:103D7000EF92FF920F931F93CF93DF9300D0CDB7B5
:103D8000DEB78B017A01452B81F1209113012223AB
:103D900061F199838A83E0910F01F09110019B01F9
:103DA000280F311D8085918582179307F0F0A0912F
:103DB0000D01B0910E019E012F5F3F4F42E05B96D7
:103DC0006C9180810E942C25892B79F4A0910D01A2
:103DD000B0910E01E0910F01F09110019701402F79
:103DE00058966C9180810E9435250F900F90DF913D
:103DF000CF911F910F91FF90EF9008956F927F9256
:103E00008F929F92AF92BF92CF92DF92EF92FF92EA
:103E10000F931F93CF93DF93CDB7DEB7A2970FB663
:103E2000F894DEBF0FBECDBFE0912B01E1115EC063
:103E30006115710509F45AC05901652E742E4B01A4
:103E40006C01E12CF12CEC14FD04A0F5C6018E19D7
:103E50009F098131910510F080E190E0DE0111961B
:103E600000E010E00817190751F0F801EE0DFF1DF2
:103E7000E80DF91DE491ED930F5F1F4FF3CFAE01F5
:103E80004F5F5F4FB801C7010E94721EAE014F5EC7
:103E90005F4FB801C7010E94B81EA801BE016F5E46
:103EA0007F4FCE0101960E944D32892BF9F4E00E2E
:103EB000F11EC9CF69A27AA2A0910D01B0910E01A5
:103EC000E0910F01F09110019E012F5D3F4F42E004
:103ED0005D966C9180810E942C25892B39F481E0BC
:103EE00080932B01B0922D01A0922C01A2960FB6C7
:103EF000F894DEBF0FBECDBFDF91CF911F910F9120
:103F0000FF90EF90DF90CF90BF90AF909F908F90F9
:103F10007F906F900895CF93DF931F92CDB7DEB758
:103F200090912A019817D9F1882319F180912B01DA
:103F30008823A9F180E00E94DE1780E00E94D31B55
:103F400080912C0190912D010E94221D1982E091F7
:103F50000F01F09110019E012F5F3F4F41E063E29E
:103F600080810E942C2581E080932A010E94DE1727
:103F700014C080E00E94DE17809118018983E091CF
:103F80000F01F09110019E012F5F3F4F41E063E26E
:103F900080810E942C2510922A010E9433190F90D3
:103FA000DF91CF910895CF93DF93CDB7DEB72997F7
:103FB0000FB6F894DEBF0FBECDBF89E0EAE3F1E0B3
:103FC000DE01119601900D928A95E1F7AE014F5FE7
:103FD0005F4F69E070E088EB94E00E94721E2996C2
:103FE0000FB6F894DEBF0FBECDBFDF91CF9108951D
:103FF00028EC30E040E054E064E371E086EF9BE0C1
:104000000C94FE1E0F931F93CF93DF93CDB7DEB7B3
:104010002C970FB6F894DEBF0FBECDBF8C018CE499
:104020008C838DEC8D838CE68E838CE0898389EC88
:104030008A838CE28B83A80143705527E4E0F0E08B
:10404000EC0FFD1FE40FF51F80818A87980183E044
:10405000369527958A95E1F723703327E4E0F0E061
:10406000EC0FFD1FE20FF31F80818B87C80166E014
:10407000969587956A95E1F783709927E4E0F0E0DB
:10408000EC0FFD1FE80FF91F60816C87E1E0F0E0A5
:10409000EC0FFD1FE40FF51F40814F83E1E0F0E0DE
:1040A000EC0FFD1FE20FF31F20812887E1E0F0E015
:1040B000EC0FFD1FE80FF91F80818987AE01465F75
:1040C0005F4F63E070E086E294E00E94721EAE01F2
:1040D000495F5F4F63E070E08AE294E00E94721EE5
:1040E00086E38A8786E58B8786E78C8786E28F83DF
:1040F00086E4888786E6898702FF04C087E38A878B
:1041000087E28F8305FF04C087E58B8787E4888774
:1041100010FF04C087E78C8787E68987AE01465F7A
:104120005F4F63E070E080E494E00E94721EAE0195
:10413000495F5F4F63E070E081E394E00E94721E8C
:104140001093BE030093BD032C960FB6F894DEBF08
:104150000FBECDBFDF91CF911F910F9108950F93A7
:104160001F93CF93DF93CDB7DEB764970FB6F89464
:10417000DEBF0FBECDBF2CE0E3E4F1E0DE0111961F
:1041800001900D922A95E1F7893C910500F58C018B
:1041900088EC90E0B8010E94C431615071097D87BC
:1041A0006E87AE01435F5F4F62E070E086E192E0B0
:1041B0000E94721EAE014F5F5F4F6CE070E081ECB9
:1041C0009AE00E94721E1093C2030093C10364968A
:1041D0000FB6F894DEBF0FBECDBFDF91CF911F9118
:1041E0000F9108958F929F92AF92BF92FF920F937B
:1041F0001F93CF93DF9300D000D01F92CDB7DEB7CF
:10420000982F977009F4AFC0613496E0790708F0F1
:10421000AAC0F82E80E090E00E94D92F20E030E084
:1042200048E453E40E94312F4B015C01CE01059616
:104230000E948B1A8D81843059F1A0F4823009F0EC
:1042400092C020E030E040E856E4C501B4010E948D
:10425000F3300E94AA2F162F072F20E030E040E411
:1042600056E437C0883029F1803109F07CC020E065
:1042700030E040E055E4C501B4010E94F3300E94F3
:10428000AA2F162F072F20E030E040EC54E421C085
:1042900020E030E040E056E4C501B4010E94F33074
:1042A0000E94AA2F162F072F20E030E040EC55E4A3
:1042B00010C020E030E040E855E4C501B4010E94A0
:1042C000F3300E94AA2F162F072F20E030E040E4A1
:1042D00055E4C501B4010E94F3300E94AA2F09835E
:1042E0001A837B836C83F0FE12C0AE014F5F5F4F79
:1042F00062E070E084ED91E00E94721EAE014D5FBD
:104300005F4F62E070E084E291E00E94721EF1FE75
:1043100012C0AE014F5F5F4F62E070E088ED91E048
:104320000E94721EAE014D5F5F4F62E070E088E256
:1043300091E00E94721E8F2D8470F2FE15C0AE01B6
:104340004F5F5F4F62E070E08CED91E00E94721E63
:10435000AE014D5F5F4F62E070E08CE291E00E9441
:10436000721E80E001C08FEF0F900F900F900F90A2
:104370000F90DF91CF911F910F91FF90BF90AF9061
:104380009F908F900895CF93DF931F92CDB7DEB7A4
:1043900080FD02C0198202C090E3998381FF03C0AF
:1043A00099819C60998382FF03C08981836089839E
:1043B000AE014F5F5F4F61E070E088E491E00E94E2
:1043C000721E80E00F90DF91CF910895CF93DF931D
:1043D0001F92CDB7DEB7882321F0853018F084E036
:1043E00001C081E081508983AE014F5F5F4F61E082
:1043F00070E08FE491E00E94721E80E00F90DF91E8
:10440000CF910895CF93DF9300D0CDB7DEB765E0AD
:1044100070E00E94C43179836A83AE014F5F5F4FC1
:1044200062E070E08EED91E00E94721E80E00F90DD
:104430000F90DF91CF910895CF93DF9300D0CDB748
:10444000DEB765E070E00E94C43179836A83AE0113
:104450004F5F5F4F62E070E08AED91E00E94721E54
:1044600080E00F900F90DF91CF9108950F931F93ED
:10447000CF93DF9300D000D0CDB7DEB78A0128EE0E
:1044800033E040E050E00E940E32D8010E94333207
:1044900099838A837B836C83AE014F5F5F4F64E0B7
:1044A00070E08CE591E00E94721E80E00F900F900A
:1044B0000F900F90DF91CF911F910F910895CF939F
:1044C000DF9300D0CDB7DEB765E070E00E94C43165
:1044D00079836A83AE014F5F5F4F62E070E08AE5E7
:1044E00091E00E94721E80E00F900F90DF91CF91BB
:1044F0000895CF93DF9300D0CDB7DEB765E070E0CD
:104500000E94C43179836A83AE014F5F5F4F62E0DE
:1045100070E088E591E00E94721E80E00F900F909D
:10452000DF91CF910895CF93DF93CDB7DEB7299771
:104530000FB6F894DEBF0FBECDBF882319F00E94DE
:10454000D31F12C089E0EFE4F1E0DE011196019083
:104550000D928A95E1F7AE014F5F5F4F69E070E021
:1045600088EB94E00E94721E29960FB6F894DEBF85
:104570000FBECDBFDF91CF910895CF93DF9300D0D1
:1045800000D0CDB7DEB7882349F080EC898382EC78
:104590008A8384EC8B8386EC8C8307C08BE89BE852
:1045A000DC0189839A83AB83BC83AE014F5F5F4F8D
:1045B00064E070E088E99AE00E94721E0E9433195C
:1045C0000F900F900F900F90DF91CF910895CF93A0
:1045D000DF9300D000D0CDB7DEB7882349F080E26A
:1045E000898388E28A8380E38B8388E38C8307C096
:1045F00083EA93EADC0189839A83AB83BC83AE01AF
:104600004F5F5F4F64E070E08EE99AE00E94721E97
:104610000E9433190F900F900F900F90DF91CF9160
:104620000895AF92BF92CF92DF92EF92FF920F93D5
:104630001F93CF93DF93CDB7DEB72A970FB6F894C9
:10464000DEBF0FBECDBF8C0182E089838AEC8A83F6
:1046500083EE8B8389E08C83AE014F5F5F4F64E014
:1046600070E088E690E00E94721E83EA8983580118
:1046700090E4A922BB2406FF06C080EC8A8388EC64
:104680008B8382EC02C08A838B838C83680180E8F1
:10469000C82281E0D822C114D10431F084EC8D838A
:1046A0008CEC8E8386EC03C083EA8D838E838F83AC
:1046B00083EA888789878A87AE014F5F5F4F6AE008
:1046C00070E087EA9AE00E94721E780193E0E92286
:1046D000FF24E114F10411F080E201C088ED898328
:1046E000AE014F5F5F4F61E070E086EB9AE00E94A1
:1046F000721E05FF03C00E94D31F03C080E00E940A
:104700009322C114D104D9F010FF08C082EB898331
:104710008BE88A8386EB8B838BE907C080EB8983E8
:1047200080E88A8384EB8B8380E98C83AE014F5FC2
:104730005F4F64E070E082EA9AE00E94721E00FF20
:104740002FC088EF8983AE014F5F5F4F61E070E05B
:1047500080EB98E00E94721E6AEF70E087E00E9492
:10476000F22087E00E94C32181E00E94E62184E6D6
:1047700090E00E94022284EF91E00E941C2248EC0B
:1047800050E069E073EE8AEC92E00E94362288E203
:1047900090E00E945F228AE090E00E9479220BC0A4
:1047A00088ED8983AE014F5F5F4F61E070E080EB81
:1047B00098E00E94721E01FF02C089ED01C088EDE1
:1047C0008983AE014F5F5F4F61E070E08DE397E05A
:1047D0000E94721E02FF02C081E001C080E00E94C0
:1047E000BD2204FF02C081E001C080E00E94E722F8
:1047F000C80188609093C0038093BF030E9433195F
:10480000AB2819F41092C30303C086E08093C3035E
:10481000CD2829F08091C3038A5F8093C30304717C
:104820001127012B29F08091C303805F8093C3037C
:10483000EF2829F08091C3038C5F8093C3032A96ED
:104840000FB6F894DEBF0FBECDBFDF91CF911F91A1
:104850000F91FF90EF90DF90CF90BF90AF900895B1
:104860002F923F924F925F926F927F928F929F9280
:10487000AF92BF92CF92DF92EF92FF920F931F936E
:10488000CF93DF93CDB7DEB7A2970FB6F894DEBF14
:104890000FBECDBF5C014B013A013AA329A3A7018A
:1048A000D8011D921C928091C303BE016F5F7F4FA0
:1048B00090E00E944B1B8111B0C08091BF0390918A
:1048C000C0039C0124713327232B79F1FE01349618
:1048D00013019E012C5E3F4FAF0143505109DA0195
:1048E0007C904F5F5F4FDA014C9150E060E070E0E8
:1048F000BA0155274427772970806A017B01C728B0
:10490000BF0161507109DB014C91D42AB701A601A6
:10491000D1014D935D936D937D931D013496E21704
:10492000F307D1F620E1722E01C0712C86FF27C05B
:10493000F40140E050E0672D70E0DA01A60FB71FE8
:10494000CC24C394D12CCC0EDD1EAC0DBD1D2C91FE
:1049500030E0322F22271196AC912A2B21933193EC
:104960004E5F5F4F4630510541F726E0D22E7D0C59
:10497000D8012D913C91119728602D933C939C0177
:1049800020783170232B39F1F50140E050E0672D9C
:1049900070E0DA01A60FB71FCC24C394D12CCC0E43
:1049A000DD1EAC0DBD1D2C9130E0322F222711965B
:1049B000AC912A2B219331934E5F5F4F46305105C6
:1049C00041F726E0D22E7D0CD8012D913C91119714
:1049D00020672D933C9383709927892BC1F0E1E0E8
:1049E000F0E0EC0FFD1FE70DF11D6381818180FF79
:1049F0000EC0862F8F7386958695869567706F5F3C
:104A0000E091BB03F091BC03309709F00995E9A14F
:104A1000FAA11082118212821382A2960FB6F89424
:104A2000DEBF0FBECDBFDF91CF911F910F91FF90E1
:104A3000EF90DF90CF90BF90AF909F908F907F903E
:104A40006F905F904F903F902F9008959093BC038C
:104A50008093BB0380E008950E94F31691E08927BC
:104A600090E091958195910908950F931F9300917E
:104A70000B0110910C010E942C1721E030E08823DB
:104A800011F020E030E088279927821B930B1F91BB
:104A90000F9108951F920F920FB60F9211242F932A
:104AA0003F938F939F93AF93BF938091C503909152
:104AB000C603A091C703B091C8033091C40323E09B
:104AC000230F2D3720F40196A11DB11D05C026E846
:104AD000230F0296A11DB11D2093C4038093C5032B
:104AE0009093C603A093C703B093C8038091C903F2
:104AF0009091CA03A091CB03B091CC030196A11D64
:104B0000B11D8093C9039093CA03A093CB03B093C4
:104B1000CC03BF91AF919F918F913F912F910F90B7
:104B20000FBE0F901F9018952FB7F8946091C50392
:104B30007091C6038091C7039091C8032FBF089559
:104B40003FB7F8948091C9039091CA03A091CB0319
:104B5000B091CC0326B5A89B05C02F3F19F0019654
:104B6000A11DB11D3FBFBA2FA92F982F8827820FF3
:104B7000911DA11DB11DBC01CD0142E0660F771F43
:104B8000881F991F4A95D1F70895CF92DF92EF922F
:104B9000FF92CF93DF936B017C010E94A025EB0174
:104BA000C114D104E104F10489F00E94312E0E9465
:104BB000A0256C1B7D0B683E734090F381E0C81A02
:104BC000D108E108F108C851DC4FEACFDF91CF915D
:104BD000FF90EF90DF90CF900895789484B5826035
:104BE00084BD84B5816084BD85B5826085BD85B591
:104BF000816085BDEEE6F0E0808181608083E1E840
:104C0000F0E0108280818260808380818160808377
:104C1000E0E8F0E0808181608083E1E9F0E080817C
:104C200082608083808181608083E0E9F0E0808120
:104C300081608083E1ECF0E080818460808380810A
:104C400082608083808181608083E3ECF0E08081FA
:104C500081608083E0ECF0E0808182608083E2EC20
:104C6000F0E0808181608083EAE7F0E08081846009
:104C70008083808182608083808181608083808165
:104C800080688083089590E0FC013197EF30F10552
:104C9000B0F5EA5AFF4F0C942D32809180008F7747
:104CA00003C0809180008F7D809380000895809163
:104CB0008000877FF9CF84B58F7702C084B58F7D60
:104CC00084BD0895809190008F7707C080919000F7
:104CD0008F7D03C080919000877F8093900008951E
:104CE0008091C0008F7703C08091C0008F7D80933A
:104CF000C00008958091C200877F8093C20008950C
:104D0000CF93DF9390E0FC01E85BF24F2491FC012C
:104D1000EA59F24F8491882361F190E0880F991F3E
:104D2000FC01E056F24FC591D491FC01EE56F24FD2
:104D3000A591B491611109C09FB7F894888120951D
:104D400082238883EC912E230BC0623061F49FB7DD
:104D5000F8943881822F809583238883EC912E2BC1
:104D60002C939FBF06C08FB7F894E8812E2B288321
:104D70008FBFDF91CF9108951F93CF93DF93282F9B
:104D800030E0F901E65DF24F8491F901E85BF24F02
:104D9000D491F901EA59F24FC491CC23C9F0162FEE
:104DA00081110E944326EC2FF0E0EE0FFF1FEE561C
:104DB000F24FA591B4918FB7F894111105C09C9151
:104DC000ED2FE095E92302C0EC91ED2BEC938FBF22
:104DD000DF91CF911F910895CF93DF93282F30E07B
:104DE000F901E65DF24F8491F901E85BF24FD4914D
:104DF000F901EA59F24FC491CC2391F081110E943C
:104E00004326EC2FF0E0EE0FFF1FEC57F24FA59179
:104E1000B491EC91ED2381E090E021F480E002C0B8
:104E200080E090E0DF91CF910895CF93DF931F92C0
:104E3000CDB7DEB76983DC01ED91FC910280F3818F
:104E4000E02D41E050E0BE016F5F7F4F09950F906C
:104E5000DF91CF910895CF93DF93EC018C859D85F1
:104E600097FF05C082E00E94542B9D878C878C851C
:104E70009D85DF91CF91089583E00C949F2DFC01D7
:104E80008485958597FD06C082E00E94FE2A90E009
:104E90000196089582E00E94FE2A90E00895FC01A8
:104EA0008485958597FD05C02FEF3FEF35872487D3
:104EB000089582E00C94542BCF93DF93EC01809102
:104EC0003701882331F083E00E94852B18161906DC
:104ED00034F081E090E09B838A8380E090E0DF9172
:104EE000CF910895FC0190819E5F908342E450E051
:104EF0006EEA7DE080E80C941D2CFC01818190819C
:104F0000913A59F4813209F03BC047E050E060E348
:104F100071E080E00E941D2C45C0913289F58032FD
:104F200039F467E070E080E391E00E94442C06C011
:104F3000823209F037C0828180933701809130013D
:104F400090913101A0913201B0913301803B9440A6
:104F5000A105B105B9F48091370180FD13C087E741
:104F600097E790930108809300089BE088E10FB6D3
:104F7000F894A895809360000FBE9093600012C0D3
:104F800080E008950FB6F894A8958091600088613C
:104F900080936000109260000FBEA89510920108E7
:104FA0001092000881E008952FEF3FEFFC01358754
:104FB00024870895EDECF3E01382128288EE93E0EB
:104FC000A0E0B0E084839583A683B7838EE692E069
:104FD000918380838FEF9FEF958784870895FC01ED
:104FE00090819F5F908349E150E060EF7DE080E831
:104FF0000C941D2C42E250E069E07EE080E80C94C5
:105000001D2CEF92FF920F931F93CF93DF931F926C
:10501000CDB7DEB789838B017A0141E050E0BE0154
:105020006F5F7F4F84E00E94852BA701B80184E465
:105030000E94852B0F90DF91CF911F910F91FF90D0
:10504000EF900895FC0191818081813A31F481E0F3
:10505000913091F0933089F411C0813271F49B301A
:1050600021F482818093390105C09A3031F4828124
:105070008093380181E00895089580E00895CF93EA
:10508000DF9300D000D000D0CDB7DEB7FB01808128
:1050900091819A838983828193819C838B8384818C
:1050A00095819E838D8346E050E0BE016F5F7F4F08
:1050B00081E00E94012826960FB6F894DEBF0FBE4D
:1050C000CDBFDF91CF9108956115710579F0FB0196
:1050D00001900020E9F73197AF01461B570BDC0127
:1050E000ED91FC910280F381E02D099480E090E045
:1050F00008950C946428DC01ED91FC910190F081FD
:10510000E02D09940F931F93CF93DF93EC016DE093
:105110000E947B288C016AE0CE010E947B28800FD0
:10512000911FDF91CF911F910F9108950F931F93BE
:10513000CF93DF93EC010E9464288C01CE010E9482
:105140008228800F911FDF91CF911F910F910895B9
:105150008F929F92AF92BF92CF92DF92EF92FF9287
:105160000F931F93CF93DF93CDB7DEB7A1970FB601
:10517000F894DEBF0FBECDBF6C01142FE52FCB011D
:10518000022F19A2223008F40AE07E0121E2E20E89
:10519000F11C802E912CA12CB12C612F7E2FA5010A
:1051A00094010E94EC31029F1019112481E0E81A49
:1051B000F1081A3014F4105D01C0195CF701108376
:1051C000122FE32FCA01232B242B252B31F7B701F4
:1051D000C6010E946428A1960FB6F894DEBF0FBEE8
:1051E000CDBFDF91CF911F910F91FF90EF90DF9096
:1051F000CF90BF90AF909F908F900895CF92DF9205
:10520000EF92FF920F931F93CF93DF93EC016A010C
:105210007B012115310579F4E881F9810190F08154
:10522000E02D642FDF91CF911F910F91FF90EF90B0
:10523000DF90CF9009942A303105E9F477FF1AC046
:105240006DE20E947B288C0144275527BA014C1936
:105250005D096E097F092AE0CE010E94A828800F0F
:10526000911FDF91CF911F910F91FF90EF90DF90F1
:10527000CF9008952AE0B701A601CE01DF91CF912A
:105280001F910F91FF90EF90DF90CF900C94A82882
:105290009A01AB01770F660B770B0C94FE280F93E6
:1052A0001F93CF93DF93EC010E94FE288C01CE0167
:1052B0000E948228800F911FDF91CF911F910F9143
:1052C00008952115310541F4DC01ED91FC91019027
:1052D000F081E02D642F09940C94A8289A01462FA0
:1052E00050E060E070E00C9461290F931F93CF931E
:1052F000DF93EC019A01462F50E060E070E00E94DD
:1053000061298C01CE010E948228800F911FDF91BC
:10531000CF911F910F9108954F925F926F927F925C
:105320008F929F92AF92BF92CF92DF92EF92FF92B5
:10533000CF93DF93EC016A017B01B22E9A01AB019E
:10534000C701B6010E94AA31882319F06AE772E00A
:1053500027C026013701E89477F82FEF3FEF4FE79A
:105360005FE7C301B2010E94AA3181110DC02FEF86
:105370003FEF4FE75FE7C301B2010E942C2F1816E1
:105380001CF46EE772E00CC02FEF3FEF4FE75FE4D5
:10539000C701B6010E94E63018169CF462E872E07C
:1053A000CE01DF91CF91FF90EF90DF90CF90BF9033
:1053B000AF909F908F907F906F905F904F900C94E4
:1053C00064282FEF3FEF4FE75FECC701B6010E9463
:1053D0002C2F87FDE3CF20E030E0A901C701B60103
:1053E0000E942C2F87FF0AC06DE2CE010E947B280D
:1053F0004C01F7FAF094F7F8F09402C0812C912C4C
:10540000A12C60E070E080E09FE3AB1441F020E06D
:1054100030E040E251E40E94312FA394F6CF9B018B
:10542000AC01C701B6010E94332E2B013C010E9442
:10543000AA2F6B017C010E94D92F9B01AC01C301F3
:10544000B2010E94322E2B013C012AE0B701A601D5
:10545000CE010E94A8287C01E80CF91CBB2039F081
:1054600066E872E0CE010E946428E80EF91EDB2C8B
:10547000DD2039F120E030E040E251E4C301B20127
:105480000E94F3302B013C010E94A32F4B01770FA8
:10549000AA08BB082AE030E0B501A401CE010E94B1
:1054A000FE28E80EF91EC501B4010E94DB2F9B0106
:1054B000AC01C301B2010E94322E2B013C01DA94EF
:1054C000D7CFC701DF91CF91FF90EF90DF90CF90C2
:1054D000BF90AF909F908F907F906F905F904F9014
:1054E00008950C948C290F931F93CF93DF93EC01B5
:1054F0000E948C298C01CE010E948228800F911F6E
:10550000DF91CF911F910F91089540912204509106
:105510002304209120043091210442175307B4F44E
:105520009091E8009570E1F39091E80092FD19C028
:105530008093F100809122049091230401968F734F
:105540009927892B19F48EEF8093E800809122042B
:10555000909123040196909323048093220481E088
:10556000089580E00895CF92DF92FF920F931F93EA
:10557000CF93DF931F92CDB7DEB7182F062F862F5C
:10558000880F8E5F99830E94852A83E00E94852A76
:10559000F12EC12E9981D92E8C2D8F19801778F478
:1055A000F60184910E94852A182F80E00E94852AA6
:1055B0008123FFEFCF1ADF0A8111EECF01C081E016
:1055C0000F90DF91CF911F910F91FF90DF90CF90BF
:1055D0000895615030F02091F100FC012083019684
:1055E000F8CF289884E68093250408952FB7FC010E
:1055F0002083F89467706093E9000895CF93DF9358
:105600001F92CDB7DEB7682FCE0101960E94F62A11
:105610008091F20099819FBF0F90DF91CF91089503
:10562000EF92FF920F931F93CF93DF931F92CDB70B
:10563000DEB790912404992311F057FF03C08FEF38
:105640009FEF2AC08A017B01682FCE0101960E943C
:10565000F62A8091F20090E0A801801791070CF4DF
:10566000AC01842FF70194E6815038F0289890938C
:1056700025042091F1002193F7CF4115510521F028
:105680008091F200882321F089818FBFCA0104C074
:105690008BE68093E800F8CF0F90DF91CF911F91B8
:1056A0000F91FF90EF900895CF93DF931F92CDB7A6
:1056B000DEB741E050E0BE016F5F7F4F0E94102BCC
:1056C000019719F4898190E002C08FEF9FEF0F904E
:1056D000DF91CF910895CF93DF931F92CDB7DEB7BF
:1056E000682FCE0101960E94F62A9091E800892F3A
:1056F000807295FF04C09091F20080E4891B99812B
:105700009FBF0F90DF91CF9108956F927F928F92FC
:105710009F92AF92BF92CF92DF92EF92FF920F9340
:105720001F93CF93DF931F92CDB7DEB7A82E6B01E7
:10573000B42E052F80912404882369F0E42EF52EE1
:105740008AEF982E8A2D8072782E9AE3892E8A2DE0
:105750008074682E12C08FEF9FEF54C08A2D0E9474
:105760006B2B182F81110DC09A949920A1F361E041
:1057700070E080E090E00E94C525E114F10471F72B
:1057800037C090E0E816F9060CF41E2D6A2DCE0104
:1057900001960E94F62A8091E80085FF26C0812F9D
:1057A00090E0E81AF90A772029F01150A8F0109239
:1057B000F100FBCFF601A7FE07C0115058F024916D
:1057C0002093F1003196F9CF115020F021912093D0
:1057D000F100FACFC80ED91E8091E80085FF0FC0F6
:1057E000E114F10411F461100AC089818FBFC5CFA3
:1057F0005D9884E6809326048B2D902F03C08092C1
:10580000E800F3CF0F90DF91CF911F910F91FF90A0
:10581000EF90DF90CF90BF90AF909F908F907F9050
:105820006F9008951092E9001092230410922204C0
:1058300090932104809320040895DF92EF92FF92C9
:105840000F931F93CF93DF93D82E8A017B01E40E31
:10585000F51EEB01CE15DF0571F0D7FE03C0FE018A
:10586000849101C088810E94852A21968111F2CFFE
:105870008FEF9FEF01C0C801DF91CF911F910F9172
:10588000FF90EF90DF9008951F93CF93DF931F92C7
:10589000CDB7DEB7162F2091E80022FFFCCF612F95
:1058A00079830E94E92A8BEF8093E800812F798128
:1058B000972F0F90DF91CF911F910895CF93DF9392
:1058C0001F92CDB7DEB71982CE0101960E947227D2
:1058D000CE0101960E94EF27898190E00F90DF9121
:1058E000CF9108951F920F920FB60F921124CF926D
:1058F000DF92EF92FF921F932F933F934F935F930B
:105900006F937F938F939F93AF93BF93EF93FF9387
:10591000CF93DF93CDB7DEB76197DEBFCDBF1092D7
:10592000E9008091E80083FFECC068E0CE010A96B0
:105930000E94E92A82EF8093E8009A8597FF05C0CC
:105940008091E80080FFFCCF03C08EEF8093E800D9
:10595000892F807609F0BAC08B85811105C010921D
:10596000F1001092F100C6C0282F2D7F213009F4DC
:10597000C1C0853049F48091E80080FFFCCF8C8560
:1059800080688093E300B6C0863009F073C01D853F
:10599000E888F988123069F580E090E00E94122CC6
:1059A0000E945E2C99E09E012F5F3F4F6901F90133
:1059B000292F11922A95E9F799831A8391E09E8302
:1059C00090E898879AEF99872091220430912304D8
:1059D000275F3F4F3C832B838D83C7010E94122C8E
:1059E00049E050E0B60180E00E941D2C0E945E2C30
:1059F00081C0C7010E94122C123241F482E290E071
:105A00000E94FA27892B09F075C078C0113069F41B
:105A100088899989089711F410931F0480911F04B5
:105A2000811118C062E47EE01AC0133009F066C02C
:105A30008C85882391F0823021F464E180E69EE039
:105A400006C0813009F05AC06BE084E59EE00E94F8
:105A5000B32A4EC060E37EE002C065E77EE06115D8
:105A6000710509F44BC0FB01449150E080E80E94AD
:105A70001D2C40C0873009F441C0883021F481E0FA
:105A80008093F10037C08930A9F59370B9F580E0B3
:105A900090E031E026E341E0480F4093E900309385
:105AA000EB000196FC01E55DF14FE491E093EC0021
:105AB0002093ED008430910571F78EE78093EA0022
:105AC0001092EA008C858093240414C088899989F7
:105AD0000E94122C8E85811105C0CE010A960E946B
